{
	"contracts/Block_3/Mapping_Advanced.sol": {
		"Mapping_Advanced": {
			"abi": [
				{
					"inputs": [
						{
							"internalType": "address",
							"name": "",
							"type": "address"
						}
					],
					"name": "addressesWithBalances",
					"outputs": [
						{
							"internalType": "uint256",
							"name": "",
							"type": "uint256"
						}
					],
					"stateMutability": "view",
					"type": "function"
				},
				{
					"inputs": [],
					"name": "getBalanceOfSmartContract",
					"outputs": [
						{
							"internalType": "uint256",
							"name": "",
							"type": "uint256"
						}
					],
					"stateMutability": "view",
					"type": "function"
				},
				{
					"inputs": [],
					"name": "sendFundes",
					"outputs": [],
					"stateMutability": "payable",
					"type": "function"
				},
				{
					"inputs": [
						{
							"internalType": "address payable",
							"name": "to",
							"type": "address"
						},
						{
							"internalType": "uint256",
							"name": "value",
							"type": "uint256"
						}
					],
					"name": "withdraw",
					"outputs": [],
					"stateMutability": "nonpayable",
					"type": "function"
				},
				{
					"inputs": [
						{
							"internalType": "address payable",
							"name": "to",
							"type": "address"
						}
					],
					"name": "withdrawAll",
					"outputs": [],
					"stateMutability": "nonpayable",
					"type": "function"
				}
			],
			"devdoc": {
				"kind": "dev",
				"methods": {},
				"version": 1
			},
			"evm": {
				"assembly": "    /* \"contracts/Block_3/Mapping_Advanced.sol\":405:1230  contract Mapping_Advanced{... */\n  mstore(0x40, 0x80)\n  callvalue\n  dup1\n  iszero\n  tag_1\n  jumpi\n  0x00\n  dup1\n  revert\ntag_1:\n  pop\n  dataSize(sub_0)\n  dup1\n  dataOffset(sub_0)\n  0x00\n  codecopy\n  0x00\n  return\nstop\n\nsub_0: assembly {\n        /* \"contracts/Block_3/Mapping_Advanced.sol\":405:1230  contract Mapping_Advanced{... */\n      mstore(0x40, 0x80)\n      jumpi(tag_1, lt(calldatasize, 0x04))\n      shr(0xe0, calldataload(0x00))\n      dup1\n      0x15f60779\n      eq\n      tag_2\n      jumpi\n      dup1\n      0x1941ccd6\n      eq\n      tag_3\n      jumpi\n      dup1\n      0xac7aa08f\n      eq\n      tag_4\n      jumpi\n      dup1\n      0xf3fef3a3\n      eq\n      tag_5\n      jumpi\n      dup1\n      0xfa09e630\n      eq\n      tag_6\n      jumpi\n    tag_1:\n      0x00\n      dup1\n      revert\n        /* \"contracts/Block_3/Mapping_Advanced.sol\":611:720  function getBalanceOfSmartContract() public view returns(uint){... */\n    tag_2:\n      callvalue\n      dup1\n      iszero\n      tag_7\n      jumpi\n      0x00\n      dup1\n      revert\n    tag_7:\n      pop\n      tag_8\n      tag_9\n      jump\t// in\n    tag_8:\n      mload(0x40)\n      tag_10\n      swap2\n      swap1\n      tag_11\n      jump\t// in\n    tag_10:\n      mload(0x40)\n      dup1\n      swap2\n      sub\n      swap1\n      return\n        /* \"contracts/Block_3/Mapping_Advanced.sol\":499:599  function sendFundes()public payable{... */\n    tag_3:\n      tag_12\n      tag_13\n      jump\t// in\n    tag_12:\n      stop\n        /* \"contracts/Block_3/Mapping_Advanced.sol\":439:490  mapping(address=>uint) public addressesWithBalances */\n    tag_4:\n      callvalue\n      dup1\n      iszero\n      tag_14\n      jumpi\n      0x00\n      dup1\n      revert\n    tag_14:\n      pop\n      tag_15\n      0x04\n      dup1\n      calldatasize\n      sub\n      dup2\n      add\n      swap1\n      tag_16\n      swap2\n      swap1\n      tag_17\n      jump\t// in\n    tag_16:\n      tag_18\n      jump\t// in\n    tag_15:\n      mload(0x40)\n      tag_19\n      swap2\n      swap1\n      tag_11\n      jump\t// in\n    tag_19:\n      mload(0x40)\n      dup1\n      swap2\n      sub\n      swap1\n      return\n        /* \"contracts/Block_3/Mapping_Advanced.sol\":1007:1227  function withdraw(address payable to, uint value) public{... */\n    tag_5:\n      callvalue\n      dup1\n      iszero\n      tag_20\n      jumpi\n      0x00\n      dup1\n      revert\n    tag_20:\n      pop\n      tag_21\n      0x04\n      dup1\n      calldatasize\n      sub\n      dup2\n      add\n      swap1\n      tag_22\n      swap2\n      swap1\n      tag_23\n      jump\t// in\n    tag_22:\n      tag_24\n      jump\t// in\n    tag_21:\n      stop\n        /* \"contracts/Block_3/Mapping_Advanced.sol\":783:999  function withdrawAll(address payable to) public {... */\n    tag_6:\n      callvalue\n      dup1\n      iszero\n      tag_25\n      jumpi\n      0x00\n      dup1\n      revert\n    tag_25:\n      pop\n      tag_26\n      0x04\n      dup1\n      calldatasize\n      sub\n      dup2\n      add\n      swap1\n      tag_27\n      swap2\n      swap1\n      tag_28\n      jump\t// in\n    tag_27:\n      tag_29\n      jump\t// in\n    tag_26:\n      stop\n        /* \"contracts/Block_3/Mapping_Advanced.sol\":611:720  function getBalanceOfSmartContract() public view returns(uint){... */\n    tag_9:\n        /* \"contracts/Block_3/Mapping_Advanced.sol\":668:672  uint */\n      0x00\n        /* \"contracts/Block_3/Mapping_Advanced.sol\":691:712  address(this).balance */\n      selfbalance\n        /* \"contracts/Block_3/Mapping_Advanced.sol\":684:712  return address(this).balance */\n      swap1\n      pop\n        /* \"contracts/Block_3/Mapping_Advanced.sol\":611:720  function getBalanceOfSmartContract() public view returns(uint){... */\n      swap1\n      jump\t// out\n        /* \"contracts/Block_3/Mapping_Advanced.sol\":499:599  function sendFundes()public payable{... */\n    tag_13:\n        /* \"contracts/Block_3/Mapping_Advanced.sol\":582:591  msg.value */\n      callvalue\n        /* \"contracts/Block_3/Mapping_Advanced.sol\":545:566  addressesWithBalances */\n      0x00\n        /* \"contracts/Block_3/Mapping_Advanced.sol\":545:578  addressesWithBalances[msg.sender] */\n      dup1\n        /* \"contracts/Block_3/Mapping_Advanced.sol\":567:577  msg.sender */\n      caller\n        /* \"contracts/Block_3/Mapping_Advanced.sol\":545:578  addressesWithBalances[msg.sender] */\n      0xffffffffffffffffffffffffffffffffffffffff\n      and\n      0xffffffffffffffffffffffffffffffffffffffff\n      and\n      dup2\n      mstore\n      0x20\n      add\n      swap1\n      dup2\n      mstore\n      0x20\n      add\n      0x00\n      keccak256\n      0x00\n        /* \"contracts/Block_3/Mapping_Advanced.sol\":545:591  addressesWithBalances[msg.sender] += msg.value */\n      dup3\n      dup3\n      sload\n      tag_32\n      swap2\n      swap1\n      tag_33\n      jump\t// in\n    tag_32:\n      swap3\n      pop\n      pop\n      dup2\n      swap1\n      sstore\n      pop\n        /* \"contracts/Block_3/Mapping_Advanced.sol\":499:599  function sendFundes()public payable{... */\n      jump\t// out\n        /* \"contracts/Block_3/Mapping_Advanced.sol\":439:490  mapping(address=>uint) public addressesWithBalances */\n    tag_18:\n      mstore(0x20, 0x00)\n      dup1\n      0x00\n      mstore\n      keccak256(0x00, 0x40)\n      0x00\n      swap2\n      pop\n      swap1\n      pop\n      sload\n      dup2\n      jump\t// out\n        /* \"contracts/Block_3/Mapping_Advanced.sol\":1007:1227  function withdraw(address payable to, uint value) public{... */\n    tag_24:\n        /* \"contracts/Block_3/Mapping_Advanced.sol\":1086:1107  addressesWithBalances */\n      0x00\n        /* \"contracts/Block_3/Mapping_Advanced.sol\":1086:1119  addressesWithBalances[msg.sender] */\n      dup1\n        /* \"contracts/Block_3/Mapping_Advanced.sol\":1108:1118  msg.sender */\n      caller\n        /* \"contracts/Block_3/Mapping_Advanced.sol\":1086:1119  addressesWithBalances[msg.sender] */\n      0xffffffffffffffffffffffffffffffffffffffff\n      and\n      0xffffffffffffffffffffffffffffffffffffffff\n      and\n      dup2\n      mstore\n      0x20\n      add\n      swap1\n      dup2\n      mstore\n      0x20\n      add\n      0x00\n      keccak256\n      sload\n        /* \"contracts/Block_3/Mapping_Advanced.sol\":1077:1082  value */\n      dup2\n        /* \"contracts/Block_3/Mapping_Advanced.sol\":1077:1119  value <= addressesWithBalances[msg.sender] */\n      gt\n        /* \"contracts/Block_3/Mapping_Advanced.sol\":1074:1220  if(value <= addressesWithBalances[msg.sender]){... */\n      tag_35\n      jumpi\n        /* \"contracts/Block_3/Mapping_Advanced.sol\":1170:1175  value */\n      dup1\n        /* \"contracts/Block_3/Mapping_Advanced.sol\":1135:1156  addressesWithBalances */\n      0x00\n        /* \"contracts/Block_3/Mapping_Advanced.sol\":1135:1168  addressesWithBalances[msg.sender] */\n      dup1\n        /* \"contracts/Block_3/Mapping_Advanced.sol\":1157:1167  msg.sender */\n      caller\n        /* \"contracts/Block_3/Mapping_Advanced.sol\":1135:1168  addressesWithBalances[msg.sender] */\n      0xffffffffffffffffffffffffffffffffffffffff\n      and\n      0xffffffffffffffffffffffffffffffffffffffff\n      and\n      dup2\n      mstore\n      0x20\n      add\n      swap1\n      dup2\n      mstore\n      0x20\n      add\n      0x00\n      keccak256\n      0x00\n        /* \"contracts/Block_3/Mapping_Advanced.sol\":1135:1175  addressesWithBalances[msg.sender]-=value */\n      dup3\n      dup3\n      sload\n      tag_36\n      swap2\n      swap1\n      tag_37\n      jump\t// in\n    tag_36:\n      swap3\n      pop\n      pop\n      dup2\n      swap1\n      sstore\n      pop\n        /* \"contracts/Block_3/Mapping_Advanced.sol\":1190:1192  to */\n      dup2\n        /* \"contracts/Block_3/Mapping_Advanced.sol\":1190:1201  to.transfer */\n      0xffffffffffffffffffffffffffffffffffffffff\n      and\n        /* \"contracts/Block_3/Mapping_Advanced.sol\":1190:1208  to.transfer(value) */\n      0x08fc\n        /* \"contracts/Block_3/Mapping_Advanced.sol\":1202:1207  value */\n      dup3\n        /* \"contracts/Block_3/Mapping_Advanced.sol\":1190:1208  to.transfer(value) */\n      swap1\n      dup2\n      iszero\n      mul\n      swap1\n      mload(0x40)\n      0x00\n      mload(0x40)\n      dup1\n      dup4\n      sub\n      dup2\n      dup6\n      dup9\n      dup9\n      call\n      swap4\n      pop\n      pop\n      pop\n      pop\n      iszero\n      dup1\n      iszero\n      tag_39\n      jumpi\n      returndatasize\n      0x00\n      dup1\n      returndatacopy\n      revert(0x00, returndatasize)\n    tag_39:\n      pop\n        /* \"contracts/Block_3/Mapping_Advanced.sol\":1074:1220  if(value <= addressesWithBalances[msg.sender]){... */\n    tag_35:\n        /* \"contracts/Block_3/Mapping_Advanced.sol\":1007:1227  function withdraw(address payable to, uint value) public{... */\n      pop\n      pop\n      jump\t// out\n        /* \"contracts/Block_3/Mapping_Advanced.sol\":783:999  function withdrawAll(address payable to) public {... */\n    tag_29:\n        /* \"contracts/Block_3/Mapping_Advanced.sol\":842:865  uint withdrawingBalance */\n      0x00\n        /* \"contracts/Block_3/Mapping_Advanced.sol\":868:889  addressesWithBalances */\n      dup1\n        /* \"contracts/Block_3/Mapping_Advanced.sol\":868:901  addressesWithBalances[msg.sender] */\n      0x00\n        /* \"contracts/Block_3/Mapping_Advanced.sol\":890:900  msg.sender */\n      caller\n        /* \"contracts/Block_3/Mapping_Advanced.sol\":868:901  addressesWithBalances[msg.sender] */\n      0xffffffffffffffffffffffffffffffffffffffff\n      and\n      0xffffffffffffffffffffffffffffffffffffffff\n      and\n      dup2\n      mstore\n      0x20\n      add\n      swap1\n      dup2\n      mstore\n      0x20\n      add\n      0x00\n      keccak256\n      sload\n        /* \"contracts/Block_3/Mapping_Advanced.sol\":842:901  uint withdrawingBalance = addressesWithBalances[msg.sender] */\n      swap1\n      pop\n        /* \"contracts/Block_3/Mapping_Advanced.sol\":948:949  0 */\n      0x00\n        /* \"contracts/Block_3/Mapping_Advanced.sol\":912:933  addressesWithBalances */\n      dup1\n        /* \"contracts/Block_3/Mapping_Advanced.sol\":912:945  addressesWithBalances[msg.sender] */\n      0x00\n        /* \"contracts/Block_3/Mapping_Advanced.sol\":934:944  msg.sender */\n      caller\n        /* \"contracts/Block_3/Mapping_Advanced.sol\":912:945  addressesWithBalances[msg.sender] */\n      0xffffffffffffffffffffffffffffffffffffffff\n      and\n      0xffffffffffffffffffffffffffffffffffffffff\n      and\n      dup2\n      mstore\n      0x20\n      add\n      swap1\n      dup2\n      mstore\n      0x20\n      add\n      0x00\n      keccak256\n        /* \"contracts/Block_3/Mapping_Advanced.sol\":912:949  addressesWithBalances[msg.sender] = 0 */\n      dup2\n      swap1\n      sstore\n      pop\n        /* \"contracts/Block_3/Mapping_Advanced.sol\":960:962  to */\n      dup2\n        /* \"contracts/Block_3/Mapping_Advanced.sol\":960:971  to.transfer */\n      0xffffffffffffffffffffffffffffffffffffffff\n      and\n        /* \"contracts/Block_3/Mapping_Advanced.sol\":960:991  to.transfer(withdrawingBalance) */\n      0x08fc\n        /* \"contracts/Block_3/Mapping_Advanced.sol\":972:990  withdrawingBalance */\n      dup3\n        /* \"contracts/Block_3/Mapping_Advanced.sol\":960:991  to.transfer(withdrawingBalance) */\n      swap1\n      dup2\n      iszero\n      mul\n      swap1\n      mload(0x40)\n      0x00\n      mload(0x40)\n      dup1\n      dup4\n      sub\n      dup2\n      dup6\n      dup9\n      dup9\n      call\n      swap4\n      pop\n      pop\n      pop\n      pop\n      iszero\n      dup1\n      iszero\n      tag_42\n      jumpi\n      returndatasize\n      0x00\n      dup1\n      returndatacopy\n      revert(0x00, returndatasize)\n    tag_42:\n      pop\n        /* \"contracts/Block_3/Mapping_Advanced.sol\":831:999  {... */\n      pop\n        /* \"contracts/Block_3/Mapping_Advanced.sol\":783:999  function withdrawAll(address payable to) public {... */\n      pop\n      jump\t// out\n        /* \"#utility.yul\":7:84   */\n    tag_43:\n        /* \"#utility.yul\":44:51   */\n      0x00\n        /* \"#utility.yul\":73:78   */\n      dup2\n        /* \"#utility.yul\":62:78   */\n      swap1\n      pop\n        /* \"#utility.yul\":7:84   */\n      swap2\n      swap1\n      pop\n      jump\t// out\n        /* \"#utility.yul\":90:208   */\n    tag_44:\n        /* \"#utility.yul\":177:201   */\n      tag_61\n        /* \"#utility.yul\":195:200   */\n      dup2\n        /* \"#utility.yul\":177:201   */\n      tag_43\n      jump\t// in\n    tag_61:\n        /* \"#utility.yul\":172:175   */\n      dup3\n        /* \"#utility.yul\":165:202   */\n      mstore\n        /* \"#utility.yul\":90:208   */\n      pop\n      pop\n      jump\t// out\n        /* \"#utility.yul\":214:436   */\n    tag_11:\n        /* \"#utility.yul\":307:311   */\n      0x00\n        /* \"#utility.yul\":345:347   */\n      0x20\n        /* \"#utility.yul\":334:343   */\n      dup3\n        /* \"#utility.yul\":330:348   */\n      add\n        /* \"#utility.yul\":322:348   */\n      swap1\n      pop\n        /* \"#utility.yul\":358:429   */\n      tag_63\n        /* \"#utility.yul\":426:427   */\n      0x00\n        /* \"#utility.yul\":415:424   */\n      dup4\n        /* \"#utility.yul\":411:428   */\n      add\n        /* \"#utility.yul\":402:408   */\n      dup5\n        /* \"#utility.yul\":358:429   */\n      tag_44\n      jump\t// in\n    tag_63:\n        /* \"#utility.yul\":214:436   */\n      swap3\n      swap2\n      pop\n      pop\n      jump\t// out\n        /* \"#utility.yul\":523:640   */\n    tag_46:\n        /* \"#utility.yul\":632:633   */\n      0x00\n        /* \"#utility.yul\":629:630   */\n      dup1\n        /* \"#utility.yul\":622:634   */\n      revert\n        /* \"#utility.yul\":769:895   */\n    tag_48:\n        /* \"#utility.yul\":806:813   */\n      0x00\n        /* \"#utility.yul\":846:888   */\n      0xffffffffffffffffffffffffffffffffffffffff\n        /* \"#utility.yul\":839:844   */\n      dup3\n        /* \"#utility.yul\":835:889   */\n      and\n        /* \"#utility.yul\":824:889   */\n      swap1\n      pop\n        /* \"#utility.yul\":769:895   */\n      swap2\n      swap1\n      pop\n      jump\t// out\n        /* \"#utility.yul\":901:997   */\n    tag_49:\n        /* \"#utility.yul\":938:945   */\n      0x00\n        /* \"#utility.yul\":967:991   */\n      tag_69\n        /* \"#utility.yul\":985:990   */\n      dup3\n        /* \"#utility.yul\":967:991   */\n      tag_48\n      jump\t// in\n    tag_69:\n        /* \"#utility.yul\":956:991   */\n      swap1\n      pop\n        /* \"#utility.yul\":901:997   */\n      swap2\n      swap1\n      pop\n      jump\t// out\n        /* \"#utility.yul\":1003:1125   */\n    tag_50:\n        /* \"#utility.yul\":1076:1100   */\n      tag_71\n        /* \"#utility.yul\":1094:1099   */\n      dup2\n        /* \"#utility.yul\":1076:1100   */\n      tag_49\n      jump\t// in\n    tag_71:\n        /* \"#utility.yul\":1069:1074   */\n      dup2\n        /* \"#utility.yul\":1066:1101   */\n      eq\n        /* \"#utility.yul\":1056:1119   */\n      tag_72\n      jumpi\n        /* \"#utility.yul\":1115:1116   */\n      0x00\n        /* \"#utility.yul\":1112:1113   */\n      dup1\n        /* \"#utility.yul\":1105:1117   */\n      revert\n        /* \"#utility.yul\":1056:1119   */\n    tag_72:\n        /* \"#utility.yul\":1003:1125   */\n      pop\n      jump\t// out\n        /* \"#utility.yul\":1131:1270   */\n    tag_51:\n        /* \"#utility.yul\":1177:1182   */\n      0x00\n        /* \"#utility.yul\":1215:1221   */\n      dup2\n        /* \"#utility.yul\":1202:1222   */\n      calldataload\n        /* \"#utility.yul\":1193:1222   */\n      swap1\n      pop\n        /* \"#utility.yul\":1231:1264   */\n      tag_74\n        /* \"#utility.yul\":1258:1263   */\n      dup2\n        /* \"#utility.yul\":1231:1264   */\n      tag_50\n      jump\t// in\n    tag_74:\n        /* \"#utility.yul\":1131:1270   */\n      swap3\n      swap2\n      pop\n      pop\n      jump\t// out\n        /* \"#utility.yul\":1276:1605   */\n    tag_17:\n        /* \"#utility.yul\":1335:1341   */\n      0x00\n        /* \"#utility.yul\":1384:1386   */\n      0x20\n        /* \"#utility.yul\":1372:1381   */\n      dup3\n        /* \"#utility.yul\":1363:1370   */\n      dup5\n        /* \"#utility.yul\":1359:1382   */\n      sub\n        /* \"#utility.yul\":1355:1387   */\n      slt\n        /* \"#utility.yul\":1352:1471   */\n      iszero\n      tag_76\n      jumpi\n        /* \"#utility.yul\":1390:1469   */\n      tag_77\n      tag_46\n      jump\t// in\n    tag_77:\n        /* \"#utility.yul\":1352:1471   */\n    tag_76:\n        /* \"#utility.yul\":1510:1511   */\n      0x00\n        /* \"#utility.yul\":1535:1588   */\n      tag_78\n        /* \"#utility.yul\":1580:1587   */\n      dup5\n        /* \"#utility.yul\":1571:1577   */\n      dup3\n        /* \"#utility.yul\":1560:1569   */\n      dup6\n        /* \"#utility.yul\":1556:1578   */\n      add\n        /* \"#utility.yul\":1535:1588   */\n      tag_51\n      jump\t// in\n    tag_78:\n        /* \"#utility.yul\":1525:1588   */\n      swap2\n      pop\n        /* \"#utility.yul\":1481:1598   */\n      pop\n        /* \"#utility.yul\":1276:1605   */\n      swap3\n      swap2\n      pop\n      pop\n      jump\t// out\n        /* \"#utility.yul\":1611:1715   */\n    tag_52:\n        /* \"#utility.yul\":1656:1663   */\n      0x00\n        /* \"#utility.yul\":1685:1709   */\n      tag_80\n        /* \"#utility.yul\":1703:1708   */\n      dup3\n        /* \"#utility.yul\":1685:1709   */\n      tag_48\n      jump\t// in\n    tag_80:\n        /* \"#utility.yul\":1674:1709   */\n      swap1\n      pop\n        /* \"#utility.yul\":1611:1715   */\n      swap2\n      swap1\n      pop\n      jump\t// out\n        /* \"#utility.yul\":1721:1859   */\n    tag_53:\n        /* \"#utility.yul\":1802:1834   */\n      tag_82\n        /* \"#utility.yul\":1828:1833   */\n      dup2\n        /* \"#utility.yul\":1802:1834   */\n      tag_52\n      jump\t// in\n    tag_82:\n        /* \"#utility.yul\":1795:1800   */\n      dup2\n        /* \"#utility.yul\":1792:1835   */\n      eq\n        /* \"#utility.yul\":1782:1853   */\n      tag_83\n      jumpi\n        /* \"#utility.yul\":1849:1850   */\n      0x00\n        /* \"#utility.yul\":1846:1847   */\n      dup1\n        /* \"#utility.yul\":1839:1851   */\n      revert\n        /* \"#utility.yul\":1782:1853   */\n    tag_83:\n        /* \"#utility.yul\":1721:1859   */\n      pop\n      jump\t// out\n        /* \"#utility.yul\":1865:2020   */\n    tag_54:\n        /* \"#utility.yul\":1919:1924   */\n      0x00\n        /* \"#utility.yul\":1957:1963   */\n      dup2\n        /* \"#utility.yul\":1944:1964   */\n      calldataload\n        /* \"#utility.yul\":1935:1964   */\n      swap1\n      pop\n        /* \"#utility.yul\":1973:2014   */\n      tag_85\n        /* \"#utility.yul\":2008:2013   */\n      dup2\n        /* \"#utility.yul\":1973:2014   */\n      tag_53\n      jump\t// in\n    tag_85:\n        /* \"#utility.yul\":1865:2020   */\n      swap3\n      swap2\n      pop\n      pop\n      jump\t// out\n        /* \"#utility.yul\":2026:2148   */\n    tag_55:\n        /* \"#utility.yul\":2099:2123   */\n      tag_87\n        /* \"#utility.yul\":2117:2122   */\n      dup2\n        /* \"#utility.yul\":2099:2123   */\n      tag_43\n      jump\t// in\n    tag_87:\n        /* \"#utility.yul\":2092:2097   */\n      dup2\n        /* \"#utility.yul\":2089:2124   */\n      eq\n        /* \"#utility.yul\":2079:2142   */\n      tag_88\n      jumpi\n        /* \"#utility.yul\":2138:2139   */\n      0x00\n        /* \"#utility.yul\":2135:2136   */\n      dup1\n        /* \"#utility.yul\":2128:2140   */\n      revert\n        /* \"#utility.yul\":2079:2142   */\n    tag_88:\n        /* \"#utility.yul\":2026:2148   */\n      pop\n      jump\t// out\n        /* \"#utility.yul\":2154:2293   */\n    tag_56:\n        /* \"#utility.yul\":2200:2205   */\n      0x00\n        /* \"#utility.yul\":2238:2244   */\n      dup2\n        /* \"#utility.yul\":2225:2245   */\n      calldataload\n        /* \"#utility.yul\":2216:2245   */\n      swap1\n      pop\n        /* \"#utility.yul\":2254:2287   */\n      tag_90\n        /* \"#utility.yul\":2281:2286   */\n      dup2\n        /* \"#utility.yul\":2254:2287   */\n      tag_55\n      jump\t// in\n    tag_90:\n        /* \"#utility.yul\":2154:2293   */\n      swap3\n      swap2\n      pop\n      pop\n      jump\t// out\n        /* \"#utility.yul\":2299:2789   */\n    tag_23:\n        /* \"#utility.yul\":2375:2381   */\n      0x00\n        /* \"#utility.yul\":2383:2389   */\n      dup1\n        /* \"#utility.yul\":2432:2434   */\n      0x40\n        /* \"#utility.yul\":2420:2429   */\n      dup4\n        /* \"#utility.yul\":2411:2418   */\n      dup6\n        /* \"#utility.yul\":2407:2430   */\n      sub\n        /* \"#utility.yul\":2403:2435   */\n      slt\n        /* \"#utility.yul\":2400:2519   */\n      iszero\n      tag_92\n      jumpi\n        /* \"#utility.yul\":2438:2517   */\n      tag_93\n      tag_46\n      jump\t// in\n    tag_93:\n        /* \"#utility.yul\":2400:2519   */\n    tag_92:\n        /* \"#utility.yul\":2558:2559   */\n      0x00\n        /* \"#utility.yul\":2583:2644   */\n      tag_94\n        /* \"#utility.yul\":2636:2643   */\n      dup6\n        /* \"#utility.yul\":2627:2633   */\n      dup3\n        /* \"#utility.yul\":2616:2625   */\n      dup7\n        /* \"#utility.yul\":2612:2634   */\n      add\n        /* \"#utility.yul\":2583:2644   */\n      tag_54\n      jump\t// in\n    tag_94:\n        /* \"#utility.yul\":2573:2644   */\n      swap3\n      pop\n        /* \"#utility.yul\":2529:2654   */\n      pop\n        /* \"#utility.yul\":2693:2695   */\n      0x20\n        /* \"#utility.yul\":2719:2772   */\n      tag_95\n        /* \"#utility.yul\":2764:2771   */\n      dup6\n        /* \"#utility.yul\":2755:2761   */\n      dup3\n        /* \"#utility.yul\":2744:2753   */\n      dup7\n        /* \"#utility.yul\":2740:2762   */\n      add\n        /* \"#utility.yul\":2719:2772   */\n      tag_56\n      jump\t// in\n    tag_95:\n        /* \"#utility.yul\":2709:2772   */\n      swap2\n      pop\n        /* \"#utility.yul\":2664:2782   */\n      pop\n        /* \"#utility.yul\":2299:2789   */\n      swap3\n      pop\n      swap3\n      swap1\n      pop\n      jump\t// out\n        /* \"#utility.yul\":2795:3140   */\n    tag_28:\n        /* \"#utility.yul\":2862:2868   */\n      0x00\n        /* \"#utility.yul\":2911:2913   */\n      0x20\n        /* \"#utility.yul\":2899:2908   */\n      dup3\n        /* \"#utility.yul\":2890:2897   */\n      dup5\n        /* \"#utility.yul\":2886:2909   */\n      sub\n        /* \"#utility.yul\":2882:2914   */\n      slt\n        /* \"#utility.yul\":2879:2998   */\n      iszero\n      tag_97\n      jumpi\n        /* \"#utility.yul\":2917:2996   */\n      tag_98\n      tag_46\n      jump\t// in\n    tag_98:\n        /* \"#utility.yul\":2879:2998   */\n    tag_97:\n        /* \"#utility.yul\":3037:3038   */\n      0x00\n        /* \"#utility.yul\":3062:3123   */\n      tag_99\n        /* \"#utility.yul\":3115:3122   */\n      dup5\n        /* \"#utility.yul\":3106:3112   */\n      dup3\n        /* \"#utility.yul\":3095:3104   */\n      dup6\n        /* \"#utility.yul\":3091:3113   */\n      add\n        /* \"#utility.yul\":3062:3123   */\n      tag_54\n      jump\t// in\n    tag_99:\n        /* \"#utility.yul\":3052:3123   */\n      swap2\n      pop\n        /* \"#utility.yul\":3008:3133   */\n      pop\n        /* \"#utility.yul\":2795:3140   */\n      swap3\n      swap2\n      pop\n      pop\n      jump\t// out\n        /* \"#utility.yul\":3146:3326   */\n    tag_57:\n        /* \"#utility.yul\":3194:3271   */\n      0x4e487b7100000000000000000000000000000000000000000000000000000000\n        /* \"#utility.yul\":3191:3192   */\n      0x00\n        /* \"#utility.yul\":3184:3272   */\n      mstore\n        /* \"#utility.yul\":3291:3295   */\n      0x11\n        /* \"#utility.yul\":3288:3289   */\n      0x04\n        /* \"#utility.yul\":3281:3296   */\n      mstore\n        /* \"#utility.yul\":3315:3319   */\n      0x24\n        /* \"#utility.yul\":3312:3313   */\n      0x00\n        /* \"#utility.yul\":3305:3320   */\n      revert\n        /* \"#utility.yul\":3332:3523   */\n    tag_33:\n        /* \"#utility.yul\":3372:3375   */\n      0x00\n        /* \"#utility.yul\":3391:3411   */\n      tag_102\n        /* \"#utility.yul\":3409:3410   */\n      dup3\n        /* \"#utility.yul\":3391:3411   */\n      tag_43\n      jump\t// in\n    tag_102:\n        /* \"#utility.yul\":3386:3411   */\n      swap2\n      pop\n        /* \"#utility.yul\":3425:3445   */\n      tag_103\n        /* \"#utility.yul\":3443:3444   */\n      dup4\n        /* \"#utility.yul\":3425:3445   */\n      tag_43\n      jump\t// in\n    tag_103:\n        /* \"#utility.yul\":3420:3445   */\n      swap3\n      pop\n        /* \"#utility.yul\":3468:3469   */\n      dup3\n        /* \"#utility.yul\":3465:3466   */\n      dup3\n        /* \"#utility.yul\":3461:3470   */\n      add\n        /* \"#utility.yul\":3454:3470   */\n      swap1\n      pop\n        /* \"#utility.yul\":3489:3492   */\n      dup1\n        /* \"#utility.yul\":3486:3487   */\n      dup3\n        /* \"#utility.yul\":3483:3493   */\n      gt\n        /* \"#utility.yul\":3480:3516   */\n      iszero\n      tag_104\n      jumpi\n        /* \"#utility.yul\":3496:3514   */\n      tag_105\n      tag_57\n      jump\t// in\n    tag_105:\n        /* \"#utility.yul\":3480:3516   */\n    tag_104:\n        /* \"#utility.yul\":3332:3523   */\n      swap3\n      swap2\n      pop\n      pop\n      jump\t// out\n        /* \"#utility.yul\":3529:3723   */\n    tag_37:\n        /* \"#utility.yul\":3569:3573   */\n      0x00\n        /* \"#utility.yul\":3589:3609   */\n      tag_107\n        /* \"#utility.yul\":3607:3608   */\n      dup3\n        /* \"#utility.yul\":3589:3609   */\n      tag_43\n      jump\t// in\n    tag_107:\n        /* \"#utility.yul\":3584:3609   */\n      swap2\n      pop\n        /* \"#utility.yul\":3623:3643   */\n      tag_108\n        /* \"#utility.yul\":3641:3642   */\n      dup4\n        /* \"#utility.yul\":3623:3643   */\n      tag_43\n      jump\t// in\n    tag_108:\n        /* \"#utility.yul\":3618:3643   */\n      swap3\n      pop\n        /* \"#utility.yul\":3667:3668   */\n      dup3\n        /* \"#utility.yul\":3664:3665   */\n      dup3\n        /* \"#utility.yul\":3660:3669   */\n      sub\n        /* \"#utility.yul\":3652:3669   */\n      swap1\n      pop\n        /* \"#utility.yul\":3691:3692   */\n      dup2\n        /* \"#utility.yul\":3685:3689   */\n      dup2\n        /* \"#utility.yul\":3682:3693   */\n      gt\n        /* \"#utility.yul\":3679:3716   */\n      iszero\n      tag_109\n      jumpi\n        /* \"#utility.yul\":3696:3714   */\n      tag_110\n      tag_57\n      jump\t// in\n    tag_110:\n        /* \"#utility.yul\":3679:3716   */\n    tag_109:\n        /* \"#utility.yul\":3529:3723   */\n      swap3\n      swap2\n      pop\n      pop\n      jump\t// out\n\n    auxdata: 0xa2646970667358221220a66b21bd51e007d53ab3e77e4791fb66468aec0f60e55de680e31f61d3a4648064736f6c634300081a0033\n}\n",
				"bytecode": {
					"linkReferences": {},
					"object": "6080604052348015600e575f80fd5b506105748061001c5f395ff3fe608060405260043610610049575f3560e01c806315f607791461004d5780631941ccd614610077578063ac7aa08f14610081578063f3fef3a3146100bd578063fa09e630146100e5575b5f80fd5b348015610058575f80fd5b5061006161010d565b60405161006e919061033b565b60405180910390f35b61007f610114565b005b34801561008c575f80fd5b506100a760048036038101906100a291906103b2565b610168565b6040516100b4919061033b565b60405180910390f35b3480156100c8575f80fd5b506100e360048036038101906100de9190610442565b61017c565b005b3480156100f0575f80fd5b5061010b60048036038101906101069190610480565b61025a565b005b5f47905090565b345f803373ffffffffffffffffffffffffffffffffffffffff1673ffffffffffffffffffffffffffffffffffffffff1681526020019081526020015f205f82825461015f91906104d8565b92505081905550565b5f602052805f5260405f205f915090505481565b5f803373ffffffffffffffffffffffffffffffffffffffff1673ffffffffffffffffffffffffffffffffffffffff1681526020019081526020015f2054811161025657805f803373ffffffffffffffffffffffffffffffffffffffff1673ffffffffffffffffffffffffffffffffffffffff1681526020019081526020015f205f82825461020a919061050b565b925050819055508173ffffffffffffffffffffffffffffffffffffffff166108fc8290811502906040515f60405180830381858888f19350505050158015610254573d5f803e3d5ffd5b505b5050565b5f805f3373ffffffffffffffffffffffffffffffffffffffff1673ffffffffffffffffffffffffffffffffffffffff1681526020019081526020015f205490505f805f3373ffffffffffffffffffffffffffffffffffffffff1673ffffffffffffffffffffffffffffffffffffffff1681526020019081526020015f20819055508173ffffffffffffffffffffffffffffffffffffffff166108fc8290811502906040515f60405180830381858888f1935050505015801561031e573d5f803e3d5ffd5b505050565b5f819050919050565b61033581610323565b82525050565b5f60208201905061034e5f83018461032c565b92915050565b5f80fd5b5f73ffffffffffffffffffffffffffffffffffffffff82169050919050565b5f61038182610358565b9050919050565b61039181610377565b811461039b575f80fd5b50565b5f813590506103ac81610388565b92915050565b5f602082840312156103c7576103c6610354565b5b5f6103d48482850161039e565b91505092915050565b5f6103e782610358565b9050919050565b6103f7816103dd565b8114610401575f80fd5b50565b5f81359050610412816103ee565b92915050565b61042181610323565b811461042b575f80fd5b50565b5f8135905061043c81610418565b92915050565b5f806040838503121561045857610457610354565b5b5f61046585828601610404565b92505060206104768582860161042e565b9150509250929050565b5f6020828403121561049557610494610354565b5b5f6104a284828501610404565b91505092915050565b7f4e487b71000000000000000000000000000000000000000000000000000000005f52601160045260245ffd5b5f6104e282610323565b91506104ed83610323565b9250828201905080821115610505576105046104ab565b5b92915050565b5f61051582610323565b915061052083610323565b9250828203905081811115610538576105376104ab565b5b9291505056fea2646970667358221220a66b21bd51e007d53ab3e77e4791fb66468aec0f60e55de680e31f61d3a4648064736f6c634300081a0033",
					"opcodes": "PUSH1 0x80 PUSH1 0x40 MSTORE CALLVALUE DUP1 ISZERO PUSH1 0xE JUMPI PUSH0 DUP1 REVERT JUMPDEST POP PUSH2 0x574 DUP1 PUSH2 0x1C PUSH0 CODECOPY PUSH0 RETURN INVALID PUSH1 0x80 PUSH1 0x40 MSTORE PUSH1 0x4 CALLDATASIZE LT PUSH2 0x49 JUMPI PUSH0 CALLDATALOAD PUSH1 0xE0 SHR DUP1 PUSH4 0x15F60779 EQ PUSH2 0x4D JUMPI DUP1 PUSH4 0x1941CCD6 EQ PUSH2 0x77 JUMPI DUP1 PUSH4 0xAC7AA08F EQ PUSH2 0x81 JUMPI DUP1 PUSH4 0xF3FEF3A3 EQ PUSH2 0xBD JUMPI DUP1 PUSH4 0xFA09E630 EQ PUSH2 0xE5 JUMPI JUMPDEST PUSH0 DUP1 REVERT JUMPDEST CALLVALUE DUP1 ISZERO PUSH2 0x58 JUMPI PUSH0 DUP1 REVERT JUMPDEST POP PUSH2 0x61 PUSH2 0x10D JUMP JUMPDEST PUSH1 0x40 MLOAD PUSH2 0x6E SWAP2 SWAP1 PUSH2 0x33B JUMP JUMPDEST PUSH1 0x40 MLOAD DUP1 SWAP2 SUB SWAP1 RETURN JUMPDEST PUSH2 0x7F PUSH2 0x114 JUMP JUMPDEST STOP JUMPDEST CALLVALUE DUP1 ISZERO PUSH2 0x8C JUMPI PUSH0 DUP1 REVERT JUMPDEST POP PUSH2 0xA7 PUSH1 0x4 DUP1 CALLDATASIZE SUB DUP2 ADD SWAP1 PUSH2 0xA2 SWAP2 SWAP1 PUSH2 0x3B2 JUMP JUMPDEST PUSH2 0x168 JUMP JUMPDEST PUSH1 0x40 MLOAD PUSH2 0xB4 SWAP2 SWAP1 PUSH2 0x33B JUMP JUMPDEST PUSH1 0x40 MLOAD DUP1 SWAP2 SUB SWAP1 RETURN JUMPDEST CALLVALUE DUP1 ISZERO PUSH2 0xC8 JUMPI PUSH0 DUP1 REVERT JUMPDEST POP PUSH2 0xE3 PUSH1 0x4 DUP1 CALLDATASIZE SUB DUP2 ADD SWAP1 PUSH2 0xDE SWAP2 SWAP1 PUSH2 0x442 JUMP JUMPDEST PUSH2 0x17C JUMP JUMPDEST STOP JUMPDEST CALLVALUE DUP1 ISZERO PUSH2 0xF0 JUMPI PUSH0 DUP1 REVERT JUMPDEST POP PUSH2 0x10B PUSH1 0x4 DUP1 CALLDATASIZE SUB DUP2 ADD SWAP1 PUSH2 0x106 SWAP2 SWAP1 PUSH2 0x480 JUMP JUMPDEST PUSH2 0x25A JUMP JUMPDEST STOP JUMPDEST PUSH0 SELFBALANCE SWAP1 POP SWAP1 JUMP JUMPDEST CALLVALUE PUSH0 DUP1 CALLER PUSH20 0xFFFFFFFFFFFFFFFFFFFFFFFFFFFFFFFFFFFFFFFF AND PUSH20 0xFFFFFFFFFFFFFFFFFFFFFFFFFFFFFFFFFFFFFFFF AND DUP2 MSTORE PUSH1 0x20 ADD SWAP1 DUP2 MSTORE PUSH1 0x20 ADD PUSH0 KECCAK256 PUSH0 DUP3 DUP3 SLOAD PUSH2 0x15F SWAP2 SWAP1 PUSH2 0x4D8 JUMP JUMPDEST SWAP3 POP POP DUP2 SWAP1 SSTORE POP JUMP JUMPDEST PUSH0 PUSH1 0x20 MSTORE DUP1 PUSH0 MSTORE PUSH1 0x40 PUSH0 KECCAK256 PUSH0 SWAP2 POP SWAP1 POP SLOAD DUP2 JUMP JUMPDEST PUSH0 DUP1 CALLER PUSH20 0xFFFFFFFFFFFFFFFFFFFFFFFFFFFFFFFFFFFFFFFF AND PUSH20 0xFFFFFFFFFFFFFFFFFFFFFFFFFFFFFFFFFFFFFFFF AND DUP2 MSTORE PUSH1 0x20 ADD SWAP1 DUP2 MSTORE PUSH1 0x20 ADD PUSH0 KECCAK256 SLOAD DUP2 GT PUSH2 0x256 JUMPI DUP1 PUSH0 DUP1 CALLER PUSH20 0xFFFFFFFFFFFFFFFFFFFFFFFFFFFFFFFFFFFFFFFF AND PUSH20 0xFFFFFFFFFFFFFFFFFFFFFFFFFFFFFFFFFFFFFFFF AND DUP2 MSTORE PUSH1 0x20 ADD SWAP1 DUP2 MSTORE PUSH1 0x20 ADD PUSH0 KECCAK256 PUSH0 DUP3 DUP3 SLOAD PUSH2 0x20A SWAP2 SWAP1 PUSH2 0x50B JUMP JUMPDEST SWAP3 POP POP DUP2 SWAP1 SSTORE POP DUP2 PUSH20 0xFFFFFFFFFFFFFFFFFFFFFFFFFFFFFFFFFFFFFFFF AND PUSH2 0x8FC DUP3 SWAP1 DUP2 ISZERO MUL SWAP1 PUSH1 0x40 MLOAD PUSH0 PUSH1 0x40 MLOAD DUP1 DUP4 SUB DUP2 DUP6 DUP9 DUP9 CALL SWAP4 POP POP POP POP ISZERO DUP1 ISZERO PUSH2 0x254 JUMPI RETURNDATASIZE PUSH0 DUP1 RETURNDATACOPY RETURNDATASIZE PUSH0 REVERT JUMPDEST POP JUMPDEST POP POP JUMP JUMPDEST PUSH0 DUP1 PUSH0 CALLER PUSH20 0xFFFFFFFFFFFFFFFFFFFFFFFFFFFFFFFFFFFFFFFF AND PUSH20 0xFFFFFFFFFFFFFFFFFFFFFFFFFFFFFFFFFFFFFFFF AND DUP2 MSTORE PUSH1 0x20 ADD SWAP1 DUP2 MSTORE PUSH1 0x20 ADD PUSH0 KECCAK256 SLOAD SWAP1 POP PUSH0 DUP1 PUSH0 CALLER PUSH20 0xFFFFFFFFFFFFFFFFFFFFFFFFFFFFFFFFFFFFFFFF AND PUSH20 0xFFFFFFFFFFFFFFFFFFFFFFFFFFFFFFFFFFFFFFFF AND DUP2 MSTORE PUSH1 0x20 ADD SWAP1 DUP2 MSTORE PUSH1 0x20 ADD PUSH0 KECCAK256 DUP2 SWAP1 SSTORE POP DUP2 PUSH20 0xFFFFFFFFFFFFFFFFFFFFFFFFFFFFFFFFFFFFFFFF AND PUSH2 0x8FC DUP3 SWAP1 DUP2 ISZERO MUL SWAP1 PUSH1 0x40 MLOAD PUSH0 PUSH1 0x40 MLOAD DUP1 DUP4 SUB DUP2 DUP6 DUP9 DUP9 CALL SWAP4 POP POP POP POP ISZERO DUP1 ISZERO PUSH2 0x31E JUMPI RETURNDATASIZE PUSH0 DUP1 RETURNDATACOPY RETURNDATASIZE PUSH0 REVERT JUMPDEST POP POP POP JUMP JUMPDEST PUSH0 DUP2 SWAP1 POP SWAP2 SWAP1 POP JUMP JUMPDEST PUSH2 0x335 DUP2 PUSH2 0x323 JUMP JUMPDEST DUP3 MSTORE POP POP JUMP JUMPDEST PUSH0 PUSH1 0x20 DUP3 ADD SWAP1 POP PUSH2 0x34E PUSH0 DUP4 ADD DUP5 PUSH2 0x32C JUMP JUMPDEST SWAP3 SWAP2 POP POP JUMP JUMPDEST PUSH0 DUP1 REVERT JUMPDEST PUSH0 PUSH20 0xFFFFFFFFFFFFFFFFFFFFFFFFFFFFFFFFFFFFFFFF DUP3 AND SWAP1 POP SWAP2 SWAP1 POP JUMP JUMPDEST PUSH0 PUSH2 0x381 DUP3 PUSH2 0x358 JUMP JUMPDEST SWAP1 POP SWAP2 SWAP1 POP JUMP JUMPDEST PUSH2 0x391 DUP2 PUSH2 0x377 JUMP JUMPDEST DUP2 EQ PUSH2 0x39B JUMPI PUSH0 DUP1 REVERT JUMPDEST POP JUMP JUMPDEST PUSH0 DUP2 CALLDATALOAD SWAP1 POP PUSH2 0x3AC DUP2 PUSH2 0x388 JUMP JUMPDEST SWAP3 SWAP2 POP POP JUMP JUMPDEST PUSH0 PUSH1 0x20 DUP3 DUP5 SUB SLT ISZERO PUSH2 0x3C7 JUMPI PUSH2 0x3C6 PUSH2 0x354 JUMP JUMPDEST JUMPDEST PUSH0 PUSH2 0x3D4 DUP5 DUP3 DUP6 ADD PUSH2 0x39E JUMP JUMPDEST SWAP2 POP POP SWAP3 SWAP2 POP POP JUMP JUMPDEST PUSH0 PUSH2 0x3E7 DUP3 PUSH2 0x358 JUMP JUMPDEST SWAP1 POP SWAP2 SWAP1 POP JUMP JUMPDEST PUSH2 0x3F7 DUP2 PUSH2 0x3DD JUMP JUMPDEST DUP2 EQ PUSH2 0x401 JUMPI PUSH0 DUP1 REVERT JUMPDEST POP JUMP JUMPDEST PUSH0 DUP2 CALLDATALOAD SWAP1 POP PUSH2 0x412 DUP2 PUSH2 0x3EE JUMP JUMPDEST SWAP3 SWAP2 POP POP JUMP JUMPDEST PUSH2 0x421 DUP2 PUSH2 0x323 JUMP JUMPDEST DUP2 EQ PUSH2 0x42B JUMPI PUSH0 DUP1 REVERT JUMPDEST POP JUMP JUMPDEST PUSH0 DUP2 CALLDATALOAD SWAP1 POP PUSH2 0x43C DUP2 PUSH2 0x418 JUMP JUMPDEST SWAP3 SWAP2 POP POP JUMP JUMPDEST PUSH0 DUP1 PUSH1 0x40 DUP4 DUP6 SUB SLT ISZERO PUSH2 0x458 JUMPI PUSH2 0x457 PUSH2 0x354 JUMP JUMPDEST JUMPDEST PUSH0 PUSH2 0x465 DUP6 DUP3 DUP7 ADD PUSH2 0x404 JUMP JUMPDEST SWAP3 POP POP PUSH1 0x20 PUSH2 0x476 DUP6 DUP3 DUP7 ADD PUSH2 0x42E JUMP JUMPDEST SWAP2 POP POP SWAP3 POP SWAP3 SWAP1 POP JUMP JUMPDEST PUSH0 PUSH1 0x20 DUP3 DUP5 SUB SLT ISZERO PUSH2 0x495 JUMPI PUSH2 0x494 PUSH2 0x354 JUMP JUMPDEST JUMPDEST PUSH0 PUSH2 0x4A2 DUP5 DUP3 DUP6 ADD PUSH2 0x404 JUMP JUMPDEST SWAP2 POP POP SWAP3 SWAP2 POP POP JUMP JUMPDEST PUSH32 0x4E487B7100000000000000000000000000000000000000000000000000000000 PUSH0 MSTORE PUSH1 0x11 PUSH1 0x4 MSTORE PUSH1 0x24 PUSH0 REVERT JUMPDEST PUSH0 PUSH2 0x4E2 DUP3 PUSH2 0x323 JUMP JUMPDEST SWAP2 POP PUSH2 0x4ED DUP4 PUSH2 0x323 JUMP JUMPDEST SWAP3 POP DUP3 DUP3 ADD SWAP1 POP DUP1 DUP3 GT ISZERO PUSH2 0x505 JUMPI PUSH2 0x504 PUSH2 0x4AB JUMP JUMPDEST JUMPDEST SWAP3 SWAP2 POP POP JUMP JUMPDEST PUSH0 PUSH2 0x515 DUP3 PUSH2 0x323 JUMP JUMPDEST SWAP2 POP PUSH2 0x520 DUP4 PUSH2 0x323 JUMP JUMPDEST SWAP3 POP DUP3 DUP3 SUB SWAP1 POP DUP2 DUP2 GT ISZERO PUSH2 0x538 JUMPI PUSH2 0x537 PUSH2 0x4AB JUMP JUMPDEST JUMPDEST SWAP3 SWAP2 POP POP JUMP INVALID LOG2 PUSH5 0x6970667358 0x22 SLT KECCAK256 0xA6 PUSH12 0x21BD51E007D53AB3E77E4791 0xFB PUSH7 0x468AEC0F60E55D 0xE6 DUP1 0xE3 0x1F PUSH2 0xD3A4 PUSH5 0x8064736F6C PUSH4 0x4300081A STOP CALLER "
				},
				"gasEstimates": {
					"creation": {
						"codeDepositCost": "279200",
						"executionCost": "316",
						"totalCost": "279516"
					},
					"external": {
						"addressesWithBalances(address)": "2823",
						"getBalanceOfSmartContract()": "312",
						"sendFundes()": "infinite",
						"withdraw(address,uint256)": "infinite",
						"withdrawAll(address)": "infinite"
					}
				},
				"methodIdentifiers": {
					"addressesWithBalances(address)": "ac7aa08f",
					"getBalanceOfSmartContract()": "15f60779",
					"sendFundes()": "1941ccd6",
					"withdraw(address,uint256)": "f3fef3a3",
					"withdrawAll(address)": "fa09e630"
				}
			},
			"storageLayout": {
				"storage": [
					{
						"astId": 5,
						"contract": "contracts/Block_3/Mapping_Advanced.sol:Mapping_Advanced",
						"label": "addressesWithBalances",
						"offset": 0,
						"slot": "0",
						"type": "t_mapping(t_address,t_uint256)"
					}
				],
				"types": {
					"t_address": {
						"encoding": "inplace",
						"label": "address",
						"numberOfBytes": "20"
					},
					"t_mapping(t_address,t_uint256)": {
						"encoding": "mapping",
						"key": "t_address",
						"label": "mapping(address => uint256)",
						"numberOfBytes": "32",
						"value": "t_uint256"
					},
					"t_uint256": {
						"encoding": "inplace",
						"label": "uint256",
						"numberOfBytes": "32"
					}
				}
			},
			"userdoc": {
				"kind": "user",
				"methods": {},
				"version": 1
			}
		}
	}
}