{
	"contracts/Block_3/Exception_Assert.sol": {
		"Exception_Assert": {
			"abi": [
				{
					"inputs": [
						{
							"internalType": "address",
							"name": "",
							"type": "address"
						}
					],
					"name": "addressesWithBalances",
					"outputs": [
						{
							"internalType": "uint8",
							"name": "",
							"type": "uint8"
						}
					],
					"stateMutability": "view",
					"type": "function"
				},
				{
					"inputs": [],
					"name": "depositFunds",
					"outputs": [],
					"stateMutability": "payable",
					"type": "function"
				},
				{
					"inputs": [
						{
							"internalType": "address payable",
							"name": "to",
							"type": "address"
						},
						{
							"internalType": "uint8",
							"name": "value",
							"type": "uint8"
						}
					],
					"name": "withdraw",
					"outputs": [],
					"stateMutability": "nonpayable",
					"type": "function"
				}
			],
			"devdoc": {
				"kind": "dev",
				"methods": {},
				"version": 1
			},
			"evm": {
				"assembly": "    /* \"contracts/Block_3/Exception_Assert.sol\":420:1237  contract Exception_Assert{... */\n  mstore(0x40, 0x80)\n  callvalue\n  dup1\n  iszero\n  tag_1\n  jumpi\n  0x00\n  dup1\n  revert\ntag_1:\n  pop\n  dataSize(sub_0)\n  dup1\n  dataOffset(sub_0)\n  0x00\n  codecopy\n  0x00\n  return\nstop\n\nsub_0: assembly {\n        /* \"contracts/Block_3/Exception_Assert.sol\":420:1237  contract Exception_Assert{... */\n      mstore(0x40, 0x80)\n      jumpi(tag_1, lt(calldatasize, 0x04))\n      shr(0xe0, calldataload(0x00))\n      dup1\n      0xac7aa08f\n      eq\n      tag_2\n      jumpi\n      dup1\n      0xcc5a02cb\n      eq\n      tag_3\n      jumpi\n      dup1\n      0xe2c41dbc\n      eq\n      tag_4\n      jumpi\n    tag_1:\n      0x00\n      dup1\n      revert\n        /* \"contracts/Block_3/Exception_Assert.sol\":452:504  mapping(address=>uint8) public addressesWithBalances */\n    tag_2:\n      callvalue\n      dup1\n      iszero\n      tag_5\n      jumpi\n      0x00\n      dup1\n      revert\n    tag_5:\n      pop\n      tag_6\n      0x04\n      dup1\n      calldatasize\n      sub\n      dup2\n      add\n      swap1\n      tag_7\n      swap2\n      swap1\n      tag_8\n      jump\t// in\n    tag_7:\n      tag_9\n      jump\t// in\n    tag_6:\n      mload(0x40)\n      tag_10\n      swap2\n      swap1\n      tag_11\n      jump\t// in\n    tag_10:\n      mload(0x40)\n      dup1\n      swap2\n      sub\n      swap1\n      return\n        /* \"contracts/Block_3/Exception_Assert.sol\":857:1234  function withdraw(address payable to, uint8 value) public{... */\n    tag_3:\n      callvalue\n      dup1\n      iszero\n      tag_12\n      jumpi\n      0x00\n      dup1\n      revert\n    tag_12:\n      pop\n      tag_13\n      0x04\n      dup1\n      calldatasize\n      sub\n      dup2\n      add\n      swap1\n      tag_14\n      swap2\n      swap1\n      tag_15\n      jump\t// in\n    tag_14:\n      tag_16\n      jump\t// in\n    tag_13:\n      stop\n        /* \"contracts/Block_3/Exception_Assert.sol\":513:849  function depositFunds() public payable {... */\n    tag_4:\n      tag_17\n      tag_18\n      jump\t// in\n    tag_17:\n      stop\n        /* \"contracts/Block_3/Exception_Assert.sol\":452:504  mapping(address=>uint8) public addressesWithBalances */\n    tag_9:\n      mstore(0x20, 0x00)\n      dup1\n      0x00\n      mstore\n      keccak256(0x00, 0x40)\n      0x00\n      swap2\n      pop\n      sload\n      swap1\n      0x0100\n      exp\n      swap1\n      div\n      0xff\n      and\n      dup2\n      jump\t// out\n        /* \"contracts/Block_3/Exception_Assert.sol\":857:1234  function withdraw(address payable to, uint8 value) public{... */\n    tag_16:\n        /* \"contracts/Block_3/Exception_Assert.sol\":940:961  addressesWithBalances */\n      0x00\n        /* \"contracts/Block_3/Exception_Assert.sol\":940:973  addressesWithBalances[msg.sender] */\n      dup1\n        /* \"contracts/Block_3/Exception_Assert.sol\":962:972  msg.sender */\n      caller\n        /* \"contracts/Block_3/Exception_Assert.sol\":940:973  addressesWithBalances[msg.sender] */\n      0xffffffffffffffffffffffffffffffffffffffff\n      and\n      0xffffffffffffffffffffffffffffffffffffffff\n      and\n      dup2\n      mstore\n      0x20\n      add\n      swap1\n      dup2\n      mstore\n      0x20\n      add\n      0x00\n      keccak256\n      0x00\n      swap1\n      sload\n      swap1\n      0x0100\n      exp\n      swap1\n      div\n      0xff\n      and\n        /* \"contracts/Block_3/Exception_Assert.sol\":933:973  value<=addressesWithBalances[msg.sender] */\n      0xff\n      and\n        /* \"contracts/Block_3/Exception_Assert.sol\":933:938  value */\n      dup2\n        /* \"contracts/Block_3/Exception_Assert.sol\":933:973  value<=addressesWithBalances[msg.sender] */\n      0xff\n      and\n      gt\n      iszero\n        /* \"contracts/Block_3/Exception_Assert.sol\":925:995  require(value<=addressesWithBalances[msg.sender], \"Not enough funds!\") */\n      tag_20\n      jumpi\n      mload(0x40)\n      0x08c379a000000000000000000000000000000000000000000000000000000000\n      dup2\n      mstore\n      0x04\n      add\n      tag_21\n      swap1\n      tag_22\n      jump\t// in\n    tag_21:\n      mload(0x40)\n      dup1\n      swap2\n      sub\n      swap1\n      revert\n    tag_20:\n        /* \"contracts/Block_3/Exception_Assert.sol\":1140:1145  value */\n      dup1\n        /* \"contracts/Block_3/Exception_Assert.sol\":1104:1125  addressesWithBalances */\n      0x00\n        /* \"contracts/Block_3/Exception_Assert.sol\":1104:1137  addressesWithBalances[msg.sender] */\n      dup1\n        /* \"contracts/Block_3/Exception_Assert.sol\":1126:1136  msg.sender */\n      caller\n        /* \"contracts/Block_3/Exception_Assert.sol\":1104:1137  addressesWithBalances[msg.sender] */\n      0xffffffffffffffffffffffffffffffffffffffff\n      and\n      0xffffffffffffffffffffffffffffffffffffffff\n      and\n      dup2\n      mstore\n      0x20\n      add\n      swap1\n      dup2\n      mstore\n      0x20\n      add\n      0x00\n      keccak256\n      0x00\n      swap1\n      sload\n      swap1\n      0x0100\n      exp\n      swap1\n      div\n      0xff\n      and\n        /* \"contracts/Block_3/Exception_Assert.sol\":1104:1145  addressesWithBalances[msg.sender] - value */\n      tag_23\n      swap2\n      swap1\n      tag_24\n      jump\t// in\n    tag_23:\n        /* \"contracts/Block_3/Exception_Assert.sol\":1067:1145  addressesWithBalances[msg.sender] >= addressesWithBalances[msg.sender] - value */\n      0xff\n      and\n        /* \"contracts/Block_3/Exception_Assert.sol\":1067:1088  addressesWithBalances */\n      0x00\n        /* \"contracts/Block_3/Exception_Assert.sol\":1067:1100  addressesWithBalances[msg.sender] */\n      dup1\n        /* \"contracts/Block_3/Exception_Assert.sol\":1089:1099  msg.sender */\n      caller\n        /* \"contracts/Block_3/Exception_Assert.sol\":1067:1100  addressesWithBalances[msg.sender] */\n      0xffffffffffffffffffffffffffffffffffffffff\n      and\n      0xffffffffffffffffffffffffffffffffffffffff\n      and\n      dup2\n      mstore\n      0x20\n      add\n      swap1\n      dup2\n      mstore\n      0x20\n      add\n      0x00\n      keccak256\n      0x00\n      swap1\n      sload\n      swap1\n      0x0100\n      exp\n      swap1\n      div\n      0xff\n      and\n        /* \"contracts/Block_3/Exception_Assert.sol\":1067:1145  addressesWithBalances[msg.sender] >= addressesWithBalances[msg.sender] - value */\n      0xff\n      and\n      lt\n      iszero\n        /* \"contracts/Block_3/Exception_Assert.sol\":1060:1146  assert(addressesWithBalances[msg.sender] >= addressesWithBalances[msg.sender] - value) */\n      tag_25\n      jumpi\n      tag_26\n      tag_27\n      jump\t// in\n    tag_26:\n    tag_25:\n        /* \"contracts/Block_3/Exception_Assert.sol\":1192:1197  value */\n      dup1\n        /* \"contracts/Block_3/Exception_Assert.sol\":1157:1178  addressesWithBalances */\n      0x00\n        /* \"contracts/Block_3/Exception_Assert.sol\":1157:1190  addressesWithBalances[msg.sender] */\n      dup1\n        /* \"contracts/Block_3/Exception_Assert.sol\":1179:1189  msg.sender */\n      caller\n        /* \"contracts/Block_3/Exception_Assert.sol\":1157:1190  addressesWithBalances[msg.sender] */\n      0xffffffffffffffffffffffffffffffffffffffff\n      and\n      0xffffffffffffffffffffffffffffffffffffffff\n      and\n      dup2\n      mstore\n      0x20\n      add\n      swap1\n      dup2\n      mstore\n      0x20\n      add\n      0x00\n      keccak256\n      0x00\n        /* \"contracts/Block_3/Exception_Assert.sol\":1157:1197  addressesWithBalances[msg.sender]-=value */\n      dup3\n      dup3\n      dup3\n      swap1\n      sload\n      swap1\n      0x0100\n      exp\n      swap1\n      div\n      0xff\n      and\n      tag_28\n      swap2\n      swap1\n      tag_24\n      jump\t// in\n    tag_28:\n      swap3\n      pop\n      0x0100\n      exp\n      dup2\n      sload\n      dup2\n      0xff\n      mul\n      not\n      and\n      swap1\n      dup4\n      0xff\n      and\n      mul\n      or\n      swap1\n      sstore\n      pop\n        /* \"contracts/Block_3/Exception_Assert.sol\":1208:1210  to */\n      dup2\n        /* \"contracts/Block_3/Exception_Assert.sol\":1208:1219  to.transfer */\n      0xffffffffffffffffffffffffffffffffffffffff\n      and\n        /* \"contracts/Block_3/Exception_Assert.sol\":1208:1226  to.transfer(value) */\n      0x08fc\n        /* \"contracts/Block_3/Exception_Assert.sol\":1220:1225  value */\n      dup3\n        /* \"contracts/Block_3/Exception_Assert.sol\":1208:1226  to.transfer(value) */\n      0xff\n      and\n      swap1\n      dup2\n      iszero\n      mul\n      swap1\n      mload(0x40)\n      0x00\n      mload(0x40)\n      dup1\n      dup4\n      sub\n      dup2\n      dup6\n      dup9\n      dup9\n      call\n      swap4\n      pop\n      pop\n      pop\n      pop\n      iszero\n      dup1\n      iszero\n      tag_30\n      jumpi\n      returndatasize\n      0x00\n      dup1\n      returndatacopy\n      revert(0x00, returndatasize)\n    tag_30:\n      pop\n        /* \"contracts/Block_3/Exception_Assert.sol\":857:1234  function withdraw(address payable to, uint8 value) public{... */\n      pop\n      pop\n      jump\t// out\n        /* \"contracts/Block_3/Exception_Assert.sol\":513:849  function depositFunds() public payable {... */\n    tag_18:\n        /* \"contracts/Block_3/Exception_Assert.sol\":638:647  msg.value */\n      callvalue\n        /* \"contracts/Block_3/Exception_Assert.sol\":619:648  msg.value == uint8(msg.value) */\n      0xff\n      and\n        /* \"contracts/Block_3/Exception_Assert.sol\":619:628  msg.value */\n      callvalue\n        /* \"contracts/Block_3/Exception_Assert.sol\":619:648  msg.value == uint8(msg.value) */\n      eq\n        /* \"contracts/Block_3/Exception_Assert.sol\":612:649  assert(msg.value == uint8(msg.value)) */\n      tag_32\n      jumpi\n      tag_33\n      tag_27\n      jump\t// in\n    tag_33:\n    tag_32:\n        /* \"contracts/Block_3/Exception_Assert.sol\":703:712  msg.value */\n      callvalue\n        /* \"contracts/Block_3/Exception_Assert.sol\":660:681  addressesWithBalances */\n      0x00\n        /* \"contracts/Block_3/Exception_Assert.sol\":660:693  addressesWithBalances[msg.sender] */\n      dup1\n        /* \"contracts/Block_3/Exception_Assert.sol\":682:692  msg.sender */\n      caller\n        /* \"contracts/Block_3/Exception_Assert.sol\":660:693  addressesWithBalances[msg.sender] */\n      0xffffffffffffffffffffffffffffffffffffffff\n      and\n      0xffffffffffffffffffffffffffffffffffffffff\n      and\n      dup2\n      mstore\n      0x20\n      add\n      swap1\n      dup2\n      mstore\n      0x20\n      add\n      0x00\n      keccak256\n      0x00\n        /* \"contracts/Block_3/Exception_Assert.sol\":660:713  addressesWithBalances[msg.sender] += uint8(msg.value) */\n      dup3\n      dup3\n      dup3\n      swap1\n      sload\n      swap1\n      0x0100\n      exp\n      swap1\n      div\n      0xff\n      and\n      tag_34\n      swap2\n      swap1\n      tag_35\n      jump\t// in\n    tag_34:\n      swap3\n      pop\n      0x0100\n      exp\n      dup2\n      sload\n      dup2\n      0xff\n      mul\n      not\n      and\n      swap1\n      dup4\n      0xff\n      and\n      mul\n      or\n      swap1\n      sstore\n      pop\n        /* \"contracts/Block_3/Exception_Assert.sol\":830:839  msg.value */\n      callvalue\n        /* \"contracts/Block_3/Exception_Assert.sol\":787:840  addressesWithBalances[msg.sender] >= uint8(msg.value) */\n      0xff\n      and\n        /* \"contracts/Block_3/Exception_Assert.sol\":787:808  addressesWithBalances */\n      0x00\n        /* \"contracts/Block_3/Exception_Assert.sol\":787:820  addressesWithBalances[msg.sender] */\n      dup1\n        /* \"contracts/Block_3/Exception_Assert.sol\":809:819  msg.sender */\n      caller\n        /* \"contracts/Block_3/Exception_Assert.sol\":787:820  addressesWithBalances[msg.sender] */\n      0xffffffffffffffffffffffffffffffffffffffff\n      and\n      0xffffffffffffffffffffffffffffffffffffffff\n      and\n      dup2\n      mstore\n      0x20\n      add\n      swap1\n      dup2\n      mstore\n      0x20\n      add\n      0x00\n      keccak256\n      0x00\n      swap1\n      sload\n      swap1\n      0x0100\n      exp\n      swap1\n      div\n      0xff\n      and\n        /* \"contracts/Block_3/Exception_Assert.sol\":787:840  addressesWithBalances[msg.sender] >= uint8(msg.value) */\n      0xff\n      and\n      lt\n      iszero\n        /* \"contracts/Block_3/Exception_Assert.sol\":780:841  assert(addressesWithBalances[msg.sender] >= uint8(msg.value)) */\n      tag_36\n      jumpi\n      tag_37\n      tag_27\n      jump\t// in\n    tag_37:\n    tag_36:\n        /* \"contracts/Block_3/Exception_Assert.sol\":513:849  function depositFunds() public payable {... */\n      jump\t// out\n        /* \"#utility.yul\":88:205   */\n    tag_39:\n        /* \"#utility.yul\":197:198   */\n      0x00\n        /* \"#utility.yul\":194:195   */\n      dup1\n        /* \"#utility.yul\":187:199   */\n      revert\n        /* \"#utility.yul\":334:460   */\n    tag_41:\n        /* \"#utility.yul\":371:378   */\n      0x00\n        /* \"#utility.yul\":411:453   */\n      0xffffffffffffffffffffffffffffffffffffffff\n        /* \"#utility.yul\":404:409   */\n      dup3\n        /* \"#utility.yul\":400:454   */\n      and\n        /* \"#utility.yul\":389:454   */\n      swap1\n      pop\n        /* \"#utility.yul\":334:460   */\n      swap2\n      swap1\n      pop\n      jump\t// out\n        /* \"#utility.yul\":466:562   */\n    tag_42:\n        /* \"#utility.yul\":503:510   */\n      0x00\n        /* \"#utility.yul\":532:556   */\n      tag_62\n        /* \"#utility.yul\":550:555   */\n      dup3\n        /* \"#utility.yul\":532:556   */\n      tag_41\n      jump\t// in\n    tag_62:\n        /* \"#utility.yul\":521:556   */\n      swap1\n      pop\n        /* \"#utility.yul\":466:562   */\n      swap2\n      swap1\n      pop\n      jump\t// out\n        /* \"#utility.yul\":568:690   */\n    tag_43:\n        /* \"#utility.yul\":641:665   */\n      tag_64\n        /* \"#utility.yul\":659:664   */\n      dup2\n        /* \"#utility.yul\":641:665   */\n      tag_42\n      jump\t// in\n    tag_64:\n        /* \"#utility.yul\":634:639   */\n      dup2\n        /* \"#utility.yul\":631:666   */\n      eq\n        /* \"#utility.yul\":621:684   */\n      tag_65\n      jumpi\n        /* \"#utility.yul\":680:681   */\n      0x00\n        /* \"#utility.yul\":677:678   */\n      dup1\n        /* \"#utility.yul\":670:682   */\n      revert\n        /* \"#utility.yul\":621:684   */\n    tag_65:\n        /* \"#utility.yul\":568:690   */\n      pop\n      jump\t// out\n        /* \"#utility.yul\":696:835   */\n    tag_44:\n        /* \"#utility.yul\":742:747   */\n      0x00\n        /* \"#utility.yul\":780:786   */\n      dup2\n        /* \"#utility.yul\":767:787   */\n      calldataload\n        /* \"#utility.yul\":758:787   */\n      swap1\n      pop\n        /* \"#utility.yul\":796:829   */\n      tag_67\n        /* \"#utility.yul\":823:828   */\n      dup2\n        /* \"#utility.yul\":796:829   */\n      tag_43\n      jump\t// in\n    tag_67:\n        /* \"#utility.yul\":696:835   */\n      swap3\n      swap2\n      pop\n      pop\n      jump\t// out\n        /* \"#utility.yul\":841:1170   */\n    tag_8:\n        /* \"#utility.yul\":900:906   */\n      0x00\n        /* \"#utility.yul\":949:951   */\n      0x20\n        /* \"#utility.yul\":937:946   */\n      dup3\n        /* \"#utility.yul\":928:935   */\n      dup5\n        /* \"#utility.yul\":924:947   */\n      sub\n        /* \"#utility.yul\":920:952   */\n      slt\n        /* \"#utility.yul\":917:1036   */\n      iszero\n      tag_69\n      jumpi\n        /* \"#utility.yul\":955:1034   */\n      tag_70\n      tag_39\n      jump\t// in\n    tag_70:\n        /* \"#utility.yul\":917:1036   */\n    tag_69:\n        /* \"#utility.yul\":1075:1076   */\n      0x00\n        /* \"#utility.yul\":1100:1153   */\n      tag_71\n        /* \"#utility.yul\":1145:1152   */\n      dup5\n        /* \"#utility.yul\":1136:1142   */\n      dup3\n        /* \"#utility.yul\":1125:1134   */\n      dup6\n        /* \"#utility.yul\":1121:1143   */\n      add\n        /* \"#utility.yul\":1100:1153   */\n      tag_44\n      jump\t// in\n    tag_71:\n        /* \"#utility.yul\":1090:1153   */\n      swap2\n      pop\n        /* \"#utility.yul\":1046:1163   */\n      pop\n        /* \"#utility.yul\":841:1170   */\n      swap3\n      swap2\n      pop\n      pop\n      jump\t// out\n        /* \"#utility.yul\":1176:1262   */\n    tag_45:\n        /* \"#utility.yul\":1211:1218   */\n      0x00\n        /* \"#utility.yul\":1251:1255   */\n      0xff\n        /* \"#utility.yul\":1244:1249   */\n      dup3\n        /* \"#utility.yul\":1240:1256   */\n      and\n        /* \"#utility.yul\":1229:1256   */\n      swap1\n      pop\n        /* \"#utility.yul\":1176:1262   */\n      swap2\n      swap1\n      pop\n      jump\t// out\n        /* \"#utility.yul\":1268:1380   */\n    tag_46:\n        /* \"#utility.yul\":1351:1373   */\n      tag_74\n        /* \"#utility.yul\":1367:1372   */\n      dup2\n        /* \"#utility.yul\":1351:1373   */\n      tag_45\n      jump\t// in\n    tag_74:\n        /* \"#utility.yul\":1346:1349   */\n      dup3\n        /* \"#utility.yul\":1339:1374   */\n      mstore\n        /* \"#utility.yul\":1268:1380   */\n      pop\n      pop\n      jump\t// out\n        /* \"#utility.yul\":1386:1600   */\n    tag_11:\n        /* \"#utility.yul\":1475:1479   */\n      0x00\n        /* \"#utility.yul\":1513:1515   */\n      0x20\n        /* \"#utility.yul\":1502:1511   */\n      dup3\n        /* \"#utility.yul\":1498:1516   */\n      add\n        /* \"#utility.yul\":1490:1516   */\n      swap1\n      pop\n        /* \"#utility.yul\":1526:1593   */\n      tag_76\n        /* \"#utility.yul\":1590:1591   */\n      0x00\n        /* \"#utility.yul\":1579:1588   */\n      dup4\n        /* \"#utility.yul\":1575:1592   */\n      add\n        /* \"#utility.yul\":1566:1572   */\n      dup5\n        /* \"#utility.yul\":1526:1593   */\n      tag_46\n      jump\t// in\n    tag_76:\n        /* \"#utility.yul\":1386:1600   */\n      swap3\n      swap2\n      pop\n      pop\n      jump\t// out\n        /* \"#utility.yul\":1606:1710   */\n    tag_47:\n        /* \"#utility.yul\":1651:1658   */\n      0x00\n        /* \"#utility.yul\":1680:1704   */\n      tag_78\n        /* \"#utility.yul\":1698:1703   */\n      dup3\n        /* \"#utility.yul\":1680:1704   */\n      tag_41\n      jump\t// in\n    tag_78:\n        /* \"#utility.yul\":1669:1704   */\n      swap1\n      pop\n        /* \"#utility.yul\":1606:1710   */\n      swap2\n      swap1\n      pop\n      jump\t// out\n        /* \"#utility.yul\":1716:1854   */\n    tag_48:\n        /* \"#utility.yul\":1797:1829   */\n      tag_80\n        /* \"#utility.yul\":1823:1828   */\n      dup2\n        /* \"#utility.yul\":1797:1829   */\n      tag_47\n      jump\t// in\n    tag_80:\n        /* \"#utility.yul\":1790:1795   */\n      dup2\n        /* \"#utility.yul\":1787:1830   */\n      eq\n        /* \"#utility.yul\":1777:1848   */\n      tag_81\n      jumpi\n        /* \"#utility.yul\":1844:1845   */\n      0x00\n        /* \"#utility.yul\":1841:1842   */\n      dup1\n        /* \"#utility.yul\":1834:1846   */\n      revert\n        /* \"#utility.yul\":1777:1848   */\n    tag_81:\n        /* \"#utility.yul\":1716:1854   */\n      pop\n      jump\t// out\n        /* \"#utility.yul\":1860:2015   */\n    tag_49:\n        /* \"#utility.yul\":1914:1919   */\n      0x00\n        /* \"#utility.yul\":1952:1958   */\n      dup2\n        /* \"#utility.yul\":1939:1959   */\n      calldataload\n        /* \"#utility.yul\":1930:1959   */\n      swap1\n      pop\n        /* \"#utility.yul\":1968:2009   */\n      tag_83\n        /* \"#utility.yul\":2003:2008   */\n      dup2\n        /* \"#utility.yul\":1968:2009   */\n      tag_48\n      jump\t// in\n    tag_83:\n        /* \"#utility.yul\":1860:2015   */\n      swap3\n      swap2\n      pop\n      pop\n      jump\t// out\n        /* \"#utility.yul\":2021:2139   */\n    tag_50:\n        /* \"#utility.yul\":2092:2114   */\n      tag_85\n        /* \"#utility.yul\":2108:2113   */\n      dup2\n        /* \"#utility.yul\":2092:2114   */\n      tag_45\n      jump\t// in\n    tag_85:\n        /* \"#utility.yul\":2085:2090   */\n      dup2\n        /* \"#utility.yul\":2082:2115   */\n      eq\n        /* \"#utility.yul\":2072:2133   */\n      tag_86\n      jumpi\n        /* \"#utility.yul\":2129:2130   */\n      0x00\n        /* \"#utility.yul\":2126:2127   */\n      dup1\n        /* \"#utility.yul\":2119:2131   */\n      revert\n        /* \"#utility.yul\":2072:2133   */\n    tag_86:\n        /* \"#utility.yul\":2021:2139   */\n      pop\n      jump\t// out\n        /* \"#utility.yul\":2145:2280   */\n    tag_51:\n        /* \"#utility.yul\":2189:2194   */\n      0x00\n        /* \"#utility.yul\":2227:2233   */\n      dup2\n        /* \"#utility.yul\":2214:2234   */\n      calldataload\n        /* \"#utility.yul\":2205:2234   */\n      swap1\n      pop\n        /* \"#utility.yul\":2243:2274   */\n      tag_88\n        /* \"#utility.yul\":2268:2273   */\n      dup2\n        /* \"#utility.yul\":2243:2274   */\n      tag_50\n      jump\t// in\n    tag_88:\n        /* \"#utility.yul\":2145:2280   */\n      swap3\n      swap2\n      pop\n      pop\n      jump\t// out\n        /* \"#utility.yul\":2286:2772   */\n    tag_15:\n        /* \"#utility.yul\":2360:2366   */\n      0x00\n        /* \"#utility.yul\":2368:2374   */\n      dup1\n        /* \"#utility.yul\":2417:2419   */\n      0x40\n        /* \"#utility.yul\":2405:2414   */\n      dup4\n        /* \"#utility.yul\":2396:2403   */\n      dup6\n        /* \"#utility.yul\":2392:2415   */\n      sub\n        /* \"#utility.yul\":2388:2420   */\n      slt\n        /* \"#utility.yul\":2385:2504   */\n      iszero\n      tag_90\n      jumpi\n        /* \"#utility.yul\":2423:2502   */\n      tag_91\n      tag_39\n      jump\t// in\n    tag_91:\n        /* \"#utility.yul\":2385:2504   */\n    tag_90:\n        /* \"#utility.yul\":2543:2544   */\n      0x00\n        /* \"#utility.yul\":2568:2629   */\n      tag_92\n        /* \"#utility.yul\":2621:2628   */\n      dup6\n        /* \"#utility.yul\":2612:2618   */\n      dup3\n        /* \"#utility.yul\":2601:2610   */\n      dup7\n        /* \"#utility.yul\":2597:2619   */\n      add\n        /* \"#utility.yul\":2568:2629   */\n      tag_49\n      jump\t// in\n    tag_92:\n        /* \"#utility.yul\":2558:2629   */\n      swap3\n      pop\n        /* \"#utility.yul\":2514:2639   */\n      pop\n        /* \"#utility.yul\":2678:2680   */\n      0x20\n        /* \"#utility.yul\":2704:2755   */\n      tag_93\n        /* \"#utility.yul\":2747:2754   */\n      dup6\n        /* \"#utility.yul\":2738:2744   */\n      dup3\n        /* \"#utility.yul\":2727:2736   */\n      dup7\n        /* \"#utility.yul\":2723:2745   */\n      add\n        /* \"#utility.yul\":2704:2755   */\n      tag_51\n      jump\t// in\n    tag_93:\n        /* \"#utility.yul\":2694:2755   */\n      swap2\n      pop\n        /* \"#utility.yul\":2649:2765   */\n      pop\n        /* \"#utility.yul\":2286:2772   */\n      swap3\n      pop\n      swap3\n      swap1\n      pop\n      jump\t// out\n        /* \"#utility.yul\":2778:2947   */\n    tag_52:\n        /* \"#utility.yul\":2862:2873   */\n      0x00\n        /* \"#utility.yul\":2896:2902   */\n      dup3\n        /* \"#utility.yul\":2891:2894   */\n      dup3\n        /* \"#utility.yul\":2884:2903   */\n      mstore\n        /* \"#utility.yul\":2936:2940   */\n      0x20\n        /* \"#utility.yul\":2931:2934   */\n      dup3\n        /* \"#utility.yul\":2927:2941   */\n      add\n        /* \"#utility.yul\":2912:2941   */\n      swap1\n      pop\n        /* \"#utility.yul\":2778:2947   */\n      swap3\n      swap2\n      pop\n      pop\n      jump\t// out\n        /* \"#utility.yul\":2953:3120   */\n    tag_53:\n        /* \"#utility.yul\":3093:3112   */\n      0x4e6f7420656e6f7567682066756e647321000000000000000000000000000000\n        /* \"#utility.yul\":3089:3090   */\n      0x00\n        /* \"#utility.yul\":3081:3087   */\n      dup3\n        /* \"#utility.yul\":3077:3091   */\n      add\n        /* \"#utility.yul\":3070:3113   */\n      mstore\n        /* \"#utility.yul\":2953:3120   */\n      pop\n      jump\t// out\n        /* \"#utility.yul\":3126:3492   */\n    tag_54:\n        /* \"#utility.yul\":3268:3271   */\n      0x00\n        /* \"#utility.yul\":3289:3356   */\n      tag_97\n        /* \"#utility.yul\":3353:3355   */\n      0x11\n        /* \"#utility.yul\":3348:3351   */\n      dup4\n        /* \"#utility.yul\":3289:3356   */\n      tag_52\n      jump\t// in\n    tag_97:\n        /* \"#utility.yul\":3282:3356   */\n      swap2\n      pop\n        /* \"#utility.yul\":3365:3458   */\n      tag_98\n        /* \"#utility.yul\":3454:3457   */\n      dup3\n        /* \"#utility.yul\":3365:3458   */\n      tag_53\n      jump\t// in\n    tag_98:\n        /* \"#utility.yul\":3483:3485   */\n      0x20\n        /* \"#utility.yul\":3478:3481   */\n      dup3\n        /* \"#utility.yul\":3474:3486   */\n      add\n        /* \"#utility.yul\":3467:3486   */\n      swap1\n      pop\n        /* \"#utility.yul\":3126:3492   */\n      swap2\n      swap1\n      pop\n      jump\t// out\n        /* \"#utility.yul\":3498:3917   */\n    tag_22:\n        /* \"#utility.yul\":3664:3668   */\n      0x00\n        /* \"#utility.yul\":3702:3704   */\n      0x20\n        /* \"#utility.yul\":3691:3700   */\n      dup3\n        /* \"#utility.yul\":3687:3705   */\n      add\n        /* \"#utility.yul\":3679:3705   */\n      swap1\n      pop\n        /* \"#utility.yul\":3751:3760   */\n      dup2\n        /* \"#utility.yul\":3745:3749   */\n      dup2\n        /* \"#utility.yul\":3741:3761   */\n      sub\n        /* \"#utility.yul\":3737:3738   */\n      0x00\n        /* \"#utility.yul\":3726:3735   */\n      dup4\n        /* \"#utility.yul\":3722:3739   */\n      add\n        /* \"#utility.yul\":3715:3762   */\n      mstore\n        /* \"#utility.yul\":3779:3910   */\n      tag_100\n        /* \"#utility.yul\":3905:3909   */\n      dup2\n        /* \"#utility.yul\":3779:3910   */\n      tag_54\n      jump\t// in\n    tag_100:\n        /* \"#utility.yul\":3771:3910   */\n      swap1\n      pop\n        /* \"#utility.yul\":3498:3917   */\n      swap2\n      swap1\n      pop\n      jump\t// out\n        /* \"#utility.yul\":3923:4103   */\n    tag_55:\n        /* \"#utility.yul\":3971:4048   */\n      0x4e487b7100000000000000000000000000000000000000000000000000000000\n        /* \"#utility.yul\":3968:3969   */\n      0x00\n        /* \"#utility.yul\":3961:4049   */\n      mstore\n        /* \"#utility.yul\":4068:4072   */\n      0x11\n        /* \"#utility.yul\":4065:4066   */\n      0x04\n        /* \"#utility.yul\":4058:4073   */\n      mstore\n        /* \"#utility.yul\":4092:4096   */\n      0x24\n        /* \"#utility.yul\":4089:4090   */\n      0x00\n        /* \"#utility.yul\":4082:4097   */\n      revert\n        /* \"#utility.yul\":4109:4300   */\n    tag_24:\n        /* \"#utility.yul\":4147:4151   */\n      0x00\n        /* \"#utility.yul\":4167:4185   */\n      tag_103\n        /* \"#utility.yul\":4183:4184   */\n      dup3\n        /* \"#utility.yul\":4167:4185   */\n      tag_45\n      jump\t// in\n    tag_103:\n        /* \"#utility.yul\":4162:4185   */\n      swap2\n      pop\n        /* \"#utility.yul\":4199:4217   */\n      tag_104\n        /* \"#utility.yul\":4215:4216   */\n      dup4\n        /* \"#utility.yul\":4199:4217   */\n      tag_45\n      jump\t// in\n    tag_104:\n        /* \"#utility.yul\":4194:4217   */\n      swap3\n      pop\n        /* \"#utility.yul\":4241:4242   */\n      dup3\n        /* \"#utility.yul\":4238:4239   */\n      dup3\n        /* \"#utility.yul\":4234:4243   */\n      sub\n        /* \"#utility.yul\":4226:4243   */\n      swap1\n      pop\n        /* \"#utility.yul\":4265:4269   */\n      0xff\n        /* \"#utility.yul\":4259:4263   */\n      dup2\n        /* \"#utility.yul\":4256:4270   */\n      gt\n        /* \"#utility.yul\":4253:4293   */\n      iszero\n      tag_105\n      jumpi\n        /* \"#utility.yul\":4273:4291   */\n      tag_106\n      tag_55\n      jump\t// in\n    tag_106:\n        /* \"#utility.yul\":4253:4293   */\n    tag_105:\n        /* \"#utility.yul\":4109:4300   */\n      swap3\n      swap2\n      pop\n      pop\n      jump\t// out\n        /* \"#utility.yul\":4306:4486   */\n    tag_27:\n        /* \"#utility.yul\":4354:4431   */\n      0x4e487b7100000000000000000000000000000000000000000000000000000000\n        /* \"#utility.yul\":4351:4352   */\n      0x00\n        /* \"#utility.yul\":4344:4432   */\n      mstore\n        /* \"#utility.yul\":4451:4455   */\n      0x01\n        /* \"#utility.yul\":4448:4449   */\n      0x04\n        /* \"#utility.yul\":4441:4456   */\n      mstore\n        /* \"#utility.yul\":4475:4479   */\n      0x24\n        /* \"#utility.yul\":4472:4473   */\n      0x00\n        /* \"#utility.yul\":4465:4480   */\n      revert\n        /* \"#utility.yul\":4492:4680   */\n    tag_35:\n        /* \"#utility.yul\":4530:4533   */\n      0x00\n        /* \"#utility.yul\":4549:4567   */\n      tag_109\n        /* \"#utility.yul\":4565:4566   */\n      dup3\n        /* \"#utility.yul\":4549:4567   */\n      tag_45\n      jump\t// in\n    tag_109:\n        /* \"#utility.yul\":4544:4567   */\n      swap2\n      pop\n        /* \"#utility.yul\":4581:4599   */\n      tag_110\n        /* \"#utility.yul\":4597:4598   */\n      dup4\n        /* \"#utility.yul\":4581:4599   */\n      tag_45\n      jump\t// in\n    tag_110:\n        /* \"#utility.yul\":4576:4599   */\n      swap3\n      pop\n        /* \"#utility.yul\":4622:4623   */\n      dup3\n        /* \"#utility.yul\":4619:4620   */\n      dup3\n        /* \"#utility.yul\":4615:4624   */\n      add\n        /* \"#utility.yul\":4608:4624   */\n      swap1\n      pop\n        /* \"#utility.yul\":4645:4649   */\n      0xff\n        /* \"#utility.yul\":4640:4643   */\n      dup2\n        /* \"#utility.yul\":4637:4650   */\n      gt\n        /* \"#utility.yul\":4634:4673   */\n      iszero\n      tag_111\n      jumpi\n        /* \"#utility.yul\":4653:4671   */\n      tag_112\n      tag_55\n      jump\t// in\n    tag_112:\n        /* \"#utility.yul\":4634:4673   */\n    tag_111:\n        /* \"#utility.yul\":4492:4680   */\n      swap3\n      swap2\n      pop\n      pop\n      jump\t// out\n\n    auxdata: 0xa2646970667358221220cf06cd8d85f91c8b855dc68579c0ec2f9277d978f325f8e8ec927c5bcc8a71ac64736f6c634300081a0033\n}\n",
				"bytecode": {
					"linkReferences": {},
					"object": "6080604052348015600e575f80fd5b506106718061001c5f395ff3fe608060405260043610610033575f3560e01c8063ac7aa08f14610037578063cc5a02cb14610073578063e2c41dbc1461009b575b5f80fd5b348015610042575f80fd5b5061005d600480360381019061005891906103ff565b6100a5565b60405161006a9190610445565b60405180910390f35b34801561007e575f80fd5b50610099600480360381019061009491906104c3565b6100c1565b005b6100a36102be565b005b5f602052805f5260405f205f915054906101000a900460ff1681565b5f803373ffffffffffffffffffffffffffffffffffffffff1673ffffffffffffffffffffffffffffffffffffffff1681526020019081526020015f205f9054906101000a900460ff1660ff168160ff161115610152576040517f08c379a00000000000000000000000000000000000000000000000000000000081526004016101499061055b565b60405180910390fd5b805f803373ffffffffffffffffffffffffffffffffffffffff1673ffffffffffffffffffffffffffffffffffffffff1681526020019081526020015f205f9054906101000a900460ff166101a691906105a6565b60ff165f803373ffffffffffffffffffffffffffffffffffffffff1673ffffffffffffffffffffffffffffffffffffffff1681526020019081526020015f205f9054906101000a900460ff1660ff161015610204576102036105da565b5b805f803373ffffffffffffffffffffffffffffffffffffffff1673ffffffffffffffffffffffffffffffffffffffff1681526020019081526020015f205f8282829054906101000a900460ff1661025b91906105a6565b92506101000a81548160ff021916908360ff1602179055508173ffffffffffffffffffffffffffffffffffffffff166108fc8260ff1690811502906040515f60405180830381858888f193505050501580156102b9573d5f803e3d5ffd5b505050565b3460ff1634146102d1576102d06105da565b5b345f803373ffffffffffffffffffffffffffffffffffffffff1673ffffffffffffffffffffffffffffffffffffffff1681526020019081526020015f205f8282829054906101000a900460ff166103289190610607565b92506101000a81548160ff021916908360ff1602179055503460ff165f803373ffffffffffffffffffffffffffffffffffffffff1673ffffffffffffffffffffffffffffffffffffffff1681526020019081526020015f205f9054906101000a900460ff1660ff16101561039f5761039e6105da565b5b565b5f80fd5b5f73ffffffffffffffffffffffffffffffffffffffff82169050919050565b5f6103ce826103a5565b9050919050565b6103de816103c4565b81146103e8575f80fd5b50565b5f813590506103f9816103d5565b92915050565b5f60208284031215610414576104136103a1565b5b5f610421848285016103eb565b91505092915050565b5f60ff82169050919050565b61043f8161042a565b82525050565b5f6020820190506104585f830184610436565b92915050565b5f610468826103a5565b9050919050565b6104788161045e565b8114610482575f80fd5b50565b5f813590506104938161046f565b92915050565b6104a28161042a565b81146104ac575f80fd5b50565b5f813590506104bd81610499565b92915050565b5f80604083850312156104d9576104d86103a1565b5b5f6104e685828601610485565b92505060206104f7858286016104af565b9150509250929050565b5f82825260208201905092915050565b7f4e6f7420656e6f7567682066756e6473210000000000000000000000000000005f82015250565b5f610545601183610501565b915061055082610511565b602082019050919050565b5f6020820190508181035f83015261057281610539565b9050919050565b7f4e487b71000000000000000000000000000000000000000000000000000000005f52601160045260245ffd5b5f6105b08261042a565b91506105bb8361042a565b9250828203905060ff8111156105d4576105d3610579565b5b92915050565b7f4e487b71000000000000000000000000000000000000000000000000000000005f52600160045260245ffd5b5f6106118261042a565b915061061c8361042a565b9250828201905060ff81111561063557610634610579565b5b9291505056fea2646970667358221220cf06cd8d85f91c8b855dc68579c0ec2f9277d978f325f8e8ec927c5bcc8a71ac64736f6c634300081a0033",
					"opcodes": "PUSH1 0x80 PUSH1 0x40 MSTORE CALLVALUE DUP1 ISZERO PUSH1 0xE JUMPI PUSH0 DUP1 REVERT JUMPDEST POP PUSH2 0x671 DUP1 PUSH2 0x1C PUSH0 CODECOPY PUSH0 RETURN INVALID PUSH1 0x80 PUSH1 0x40 MSTORE PUSH1 0x4 CALLDATASIZE LT PUSH2 0x33 JUMPI PUSH0 CALLDATALOAD PUSH1 0xE0 SHR DUP1 PUSH4 0xAC7AA08F EQ PUSH2 0x37 JUMPI DUP1 PUSH4 0xCC5A02CB EQ PUSH2 0x73 JUMPI DUP1 PUSH4 0xE2C41DBC EQ PUSH2 0x9B JUMPI JUMPDEST PUSH0 DUP1 REVERT JUMPDEST CALLVALUE DUP1 ISZERO PUSH2 0x42 JUMPI PUSH0 DUP1 REVERT JUMPDEST POP PUSH2 0x5D PUSH1 0x4 DUP1 CALLDATASIZE SUB DUP2 ADD SWAP1 PUSH2 0x58 SWAP2 SWAP1 PUSH2 0x3FF JUMP JUMPDEST PUSH2 0xA5 JUMP JUMPDEST PUSH1 0x40 MLOAD PUSH2 0x6A SWAP2 SWAP1 PUSH2 0x445 JUMP JUMPDEST PUSH1 0x40 MLOAD DUP1 SWAP2 SUB SWAP1 RETURN JUMPDEST CALLVALUE DUP1 ISZERO PUSH2 0x7E JUMPI PUSH0 DUP1 REVERT JUMPDEST POP PUSH2 0x99 PUSH1 0x4 DUP1 CALLDATASIZE SUB DUP2 ADD SWAP1 PUSH2 0x94 SWAP2 SWAP1 PUSH2 0x4C3 JUMP JUMPDEST PUSH2 0xC1 JUMP JUMPDEST STOP JUMPDEST PUSH2 0xA3 PUSH2 0x2BE JUMP JUMPDEST STOP JUMPDEST PUSH0 PUSH1 0x20 MSTORE DUP1 PUSH0 MSTORE PUSH1 0x40 PUSH0 KECCAK256 PUSH0 SWAP2 POP SLOAD SWAP1 PUSH2 0x100 EXP SWAP1 DIV PUSH1 0xFF AND DUP2 JUMP JUMPDEST PUSH0 DUP1 CALLER PUSH20 0xFFFFFFFFFFFFFFFFFFFFFFFFFFFFFFFFFFFFFFFF AND PUSH20 0xFFFFFFFFFFFFFFFFFFFFFFFFFFFFFFFFFFFFFFFF AND DUP2 MSTORE PUSH1 0x20 ADD SWAP1 DUP2 MSTORE PUSH1 0x20 ADD PUSH0 KECCAK256 PUSH0 SWAP1 SLOAD SWAP1 PUSH2 0x100 EXP SWAP1 DIV PUSH1 0xFF AND PUSH1 0xFF AND DUP2 PUSH1 0xFF AND GT ISZERO PUSH2 0x152 JUMPI PUSH1 0x40 MLOAD PUSH32 0x8C379A000000000000000000000000000000000000000000000000000000000 DUP2 MSTORE PUSH1 0x4 ADD PUSH2 0x149 SWAP1 PUSH2 0x55B JUMP JUMPDEST PUSH1 0x40 MLOAD DUP1 SWAP2 SUB SWAP1 REVERT JUMPDEST DUP1 PUSH0 DUP1 CALLER PUSH20 0xFFFFFFFFFFFFFFFFFFFFFFFFFFFFFFFFFFFFFFFF AND PUSH20 0xFFFFFFFFFFFFFFFFFFFFFFFFFFFFFFFFFFFFFFFF AND DUP2 MSTORE PUSH1 0x20 ADD SWAP1 DUP2 MSTORE PUSH1 0x20 ADD PUSH0 KECCAK256 PUSH0 SWAP1 SLOAD SWAP1 PUSH2 0x100 EXP SWAP1 DIV PUSH1 0xFF AND PUSH2 0x1A6 SWAP2 SWAP1 PUSH2 0x5A6 JUMP JUMPDEST PUSH1 0xFF AND PUSH0 DUP1 CALLER PUSH20 0xFFFFFFFFFFFFFFFFFFFFFFFFFFFFFFFFFFFFFFFF AND PUSH20 0xFFFFFFFFFFFFFFFFFFFFFFFFFFFFFFFFFFFFFFFF AND DUP2 MSTORE PUSH1 0x20 ADD SWAP1 DUP2 MSTORE PUSH1 0x20 ADD PUSH0 KECCAK256 PUSH0 SWAP1 SLOAD SWAP1 PUSH2 0x100 EXP SWAP1 DIV PUSH1 0xFF AND PUSH1 0xFF AND LT ISZERO PUSH2 0x204 JUMPI PUSH2 0x203 PUSH2 0x5DA JUMP JUMPDEST JUMPDEST DUP1 PUSH0 DUP1 CALLER PUSH20 0xFFFFFFFFFFFFFFFFFFFFFFFFFFFFFFFFFFFFFFFF AND PUSH20 0xFFFFFFFFFFFFFFFFFFFFFFFFFFFFFFFFFFFFFFFF AND DUP2 MSTORE PUSH1 0x20 ADD SWAP1 DUP2 MSTORE PUSH1 0x20 ADD PUSH0 KECCAK256 PUSH0 DUP3 DUP3 DUP3 SWAP1 SLOAD SWAP1 PUSH2 0x100 EXP SWAP1 DIV PUSH1 0xFF AND PUSH2 0x25B SWAP2 SWAP1 PUSH2 0x5A6 JUMP JUMPDEST SWAP3 POP PUSH2 0x100 EXP DUP2 SLOAD DUP2 PUSH1 0xFF MUL NOT AND SWAP1 DUP4 PUSH1 0xFF AND MUL OR SWAP1 SSTORE POP DUP2 PUSH20 0xFFFFFFFFFFFFFFFFFFFFFFFFFFFFFFFFFFFFFFFF AND PUSH2 0x8FC DUP3 PUSH1 0xFF AND SWAP1 DUP2 ISZERO MUL SWAP1 PUSH1 0x40 MLOAD PUSH0 PUSH1 0x40 MLOAD DUP1 DUP4 SUB DUP2 DUP6 DUP9 DUP9 CALL SWAP4 POP POP POP POP ISZERO DUP1 ISZERO PUSH2 0x2B9 JUMPI RETURNDATASIZE PUSH0 DUP1 RETURNDATACOPY RETURNDATASIZE PUSH0 REVERT JUMPDEST POP POP POP JUMP JUMPDEST CALLVALUE PUSH1 0xFF AND CALLVALUE EQ PUSH2 0x2D1 JUMPI PUSH2 0x2D0 PUSH2 0x5DA JUMP JUMPDEST JUMPDEST CALLVALUE PUSH0 DUP1 CALLER PUSH20 0xFFFFFFFFFFFFFFFFFFFFFFFFFFFFFFFFFFFFFFFF AND PUSH20 0xFFFFFFFFFFFFFFFFFFFFFFFFFFFFFFFFFFFFFFFF AND DUP2 MSTORE PUSH1 0x20 ADD SWAP1 DUP2 MSTORE PUSH1 0x20 ADD PUSH0 KECCAK256 PUSH0 DUP3 DUP3 DUP3 SWAP1 SLOAD SWAP1 PUSH2 0x100 EXP SWAP1 DIV PUSH1 0xFF AND PUSH2 0x328 SWAP2 SWAP1 PUSH2 0x607 JUMP JUMPDEST SWAP3 POP PUSH2 0x100 EXP DUP2 SLOAD DUP2 PUSH1 0xFF MUL NOT AND SWAP1 DUP4 PUSH1 0xFF AND MUL OR SWAP1 SSTORE POP CALLVALUE PUSH1 0xFF AND PUSH0 DUP1 CALLER PUSH20 0xFFFFFFFFFFFFFFFFFFFFFFFFFFFFFFFFFFFFFFFF AND PUSH20 0xFFFFFFFFFFFFFFFFFFFFFFFFFFFFFFFFFFFFFFFF AND DUP2 MSTORE PUSH1 0x20 ADD SWAP1 DUP2 MSTORE PUSH1 0x20 ADD PUSH0 KECCAK256 PUSH0 SWAP1 SLOAD SWAP1 PUSH2 0x100 EXP SWAP1 DIV PUSH1 0xFF AND PUSH1 0xFF AND LT ISZERO PUSH2 0x39F JUMPI PUSH2 0x39E PUSH2 0x5DA JUMP JUMPDEST JUMPDEST JUMP JUMPDEST PUSH0 DUP1 REVERT JUMPDEST PUSH0 PUSH20 0xFFFFFFFFFFFFFFFFFFFFFFFFFFFFFFFFFFFFFFFF DUP3 AND SWAP1 POP SWAP2 SWAP1 POP JUMP JUMPDEST PUSH0 PUSH2 0x3CE DUP3 PUSH2 0x3A5 JUMP JUMPDEST SWAP1 POP SWAP2 SWAP1 POP JUMP JUMPDEST PUSH2 0x3DE DUP2 PUSH2 0x3C4 JUMP JUMPDEST DUP2 EQ PUSH2 0x3E8 JUMPI PUSH0 DUP1 REVERT JUMPDEST POP JUMP JUMPDEST PUSH0 DUP2 CALLDATALOAD SWAP1 POP PUSH2 0x3F9 DUP2 PUSH2 0x3D5 JUMP JUMPDEST SWAP3 SWAP2 POP POP JUMP JUMPDEST PUSH0 PUSH1 0x20 DUP3 DUP5 SUB SLT ISZERO PUSH2 0x414 JUMPI PUSH2 0x413 PUSH2 0x3A1 JUMP JUMPDEST JUMPDEST PUSH0 PUSH2 0x421 DUP5 DUP3 DUP6 ADD PUSH2 0x3EB JUMP JUMPDEST SWAP2 POP POP SWAP3 SWAP2 POP POP JUMP JUMPDEST PUSH0 PUSH1 0xFF DUP3 AND SWAP1 POP SWAP2 SWAP1 POP JUMP JUMPDEST PUSH2 0x43F DUP2 PUSH2 0x42A JUMP JUMPDEST DUP3 MSTORE POP POP JUMP JUMPDEST PUSH0 PUSH1 0x20 DUP3 ADD SWAP1 POP PUSH2 0x458 PUSH0 DUP4 ADD DUP5 PUSH2 0x436 JUMP JUMPDEST SWAP3 SWAP2 POP POP JUMP JUMPDEST PUSH0 PUSH2 0x468 DUP3 PUSH2 0x3A5 JUMP JUMPDEST SWAP1 POP SWAP2 SWAP1 POP JUMP JUMPDEST PUSH2 0x478 DUP2 PUSH2 0x45E JUMP JUMPDEST DUP2 EQ PUSH2 0x482 JUMPI PUSH0 DUP1 REVERT JUMPDEST POP JUMP JUMPDEST PUSH0 DUP2 CALLDATALOAD SWAP1 POP PUSH2 0x493 DUP2 PUSH2 0x46F JUMP JUMPDEST SWAP3 SWAP2 POP POP JUMP JUMPDEST PUSH2 0x4A2 DUP2 PUSH2 0x42A JUMP JUMPDEST DUP2 EQ PUSH2 0x4AC JUMPI PUSH0 DUP1 REVERT JUMPDEST POP JUMP JUMPDEST PUSH0 DUP2 CALLDATALOAD SWAP1 POP PUSH2 0x4BD DUP2 PUSH2 0x499 JUMP JUMPDEST SWAP3 SWAP2 POP POP JUMP JUMPDEST PUSH0 DUP1 PUSH1 0x40 DUP4 DUP6 SUB SLT ISZERO PUSH2 0x4D9 JUMPI PUSH2 0x4D8 PUSH2 0x3A1 JUMP JUMPDEST JUMPDEST PUSH0 PUSH2 0x4E6 DUP6 DUP3 DUP7 ADD PUSH2 0x485 JUMP JUMPDEST SWAP3 POP POP PUSH1 0x20 PUSH2 0x4F7 DUP6 DUP3 DUP7 ADD PUSH2 0x4AF JUMP JUMPDEST SWAP2 POP POP SWAP3 POP SWAP3 SWAP1 POP JUMP JUMPDEST PUSH0 DUP3 DUP3 MSTORE PUSH1 0x20 DUP3 ADD SWAP1 POP SWAP3 SWAP2 POP POP JUMP JUMPDEST PUSH32 0x4E6F7420656E6F7567682066756E647321000000000000000000000000000000 PUSH0 DUP3 ADD MSTORE POP JUMP JUMPDEST PUSH0 PUSH2 0x545 PUSH1 0x11 DUP4 PUSH2 0x501 JUMP JUMPDEST SWAP2 POP PUSH2 0x550 DUP3 PUSH2 0x511 JUMP JUMPDEST PUSH1 0x20 DUP3 ADD SWAP1 POP SWAP2 SWAP1 POP JUMP JUMPDEST PUSH0 PUSH1 0x20 DUP3 ADD SWAP1 POP DUP2 DUP2 SUB PUSH0 DUP4 ADD MSTORE PUSH2 0x572 DUP2 PUSH2 0x539 JUMP JUMPDEST SWAP1 POP SWAP2 SWAP1 POP JUMP JUMPDEST PUSH32 0x4E487B7100000000000000000000000000000000000000000000000000000000 PUSH0 MSTORE PUSH1 0x11 PUSH1 0x4 MSTORE PUSH1 0x24 PUSH0 REVERT JUMPDEST PUSH0 PUSH2 0x5B0 DUP3 PUSH2 0x42A JUMP JUMPDEST SWAP2 POP PUSH2 0x5BB DUP4 PUSH2 0x42A JUMP JUMPDEST SWAP3 POP DUP3 DUP3 SUB SWAP1 POP PUSH1 0xFF DUP2 GT ISZERO PUSH2 0x5D4 JUMPI PUSH2 0x5D3 PUSH2 0x579 JUMP JUMPDEST JUMPDEST SWAP3 SWAP2 POP POP JUMP JUMPDEST PUSH32 0x4E487B7100000000000000000000000000000000000000000000000000000000 PUSH0 MSTORE PUSH1 0x1 PUSH1 0x4 MSTORE PUSH1 0x24 PUSH0 REVERT JUMPDEST PUSH0 PUSH2 0x611 DUP3 PUSH2 0x42A JUMP JUMPDEST SWAP2 POP PUSH2 0x61C DUP4 PUSH2 0x42A JUMP JUMPDEST SWAP3 POP DUP3 DUP3 ADD SWAP1 POP PUSH1 0xFF DUP2 GT ISZERO PUSH2 0x635 JUMPI PUSH2 0x634 PUSH2 0x579 JUMP JUMPDEST JUMPDEST SWAP3 SWAP2 POP POP JUMP INVALID LOG2 PUSH5 0x6970667358 0x22 SLT KECCAK256 0xCF MOD 0xCD DUP14 DUP6 0xF9 SHR DUP12 DUP6 TSTORE 0xC6 DUP6 PUSH26 0xC0EC2F9277D978F325F8E8EC927C5BCC8A71AC64736F6C634300 ADDMOD BYTE STOP CALLER "
				},
				"gasEstimates": {
					"creation": {
						"codeDepositCost": "329800",
						"executionCost": "366",
						"totalCost": "330166"
					},
					"external": {
						"addressesWithBalances(address)": "2810",
						"depositFunds()": "infinite",
						"withdraw(address,uint8)": "infinite"
					}
				},
				"methodIdentifiers": {
					"addressesWithBalances(address)": "ac7aa08f",
					"depositFunds()": "e2c41dbc",
					"withdraw(address,uint8)": "cc5a02cb"
				}
			},
			"storageLayout": {
				"storage": [
					{
						"astId": 5,
						"contract": "contracts/Block_3/Exception_Assert.sol:Exception_Assert",
						"label": "addressesWithBalances",
						"offset": 0,
						"slot": "0",
						"type": "t_mapping(t_address,t_uint8)"
					}
				],
				"types": {
					"t_address": {
						"encoding": "inplace",
						"label": "address",
						"numberOfBytes": "20"
					},
					"t_mapping(t_address,t_uint8)": {
						"encoding": "mapping",
						"key": "t_address",
						"label": "mapping(address => uint8)",
						"numberOfBytes": "32",
						"value": "t_uint8"
					},
					"t_uint8": {
						"encoding": "inplace",
						"label": "uint8",
						"numberOfBytes": "1"
					}
				}
			},
			"userdoc": {
				"kind": "user",
				"methods": {},
				"version": 1
			}
		}
	}
}