{
	"contracts/Block_3/Mapping_With_Struct.sol": {
		"Mapping_With_Struct": {
			"abi": [
				{
					"inputs": [
						{
							"internalType": "address",
							"name": "",
							"type": "address"
						}
					],
					"name": "balances",
					"outputs": [
						{
							"internalType": "uint256",
							"name": "totalBalance",
							"type": "uint256"
						},
						{
							"internalType": "uint256",
							"name": "numDeposits",
							"type": "uint256"
						},
						{
							"internalType": "uint256",
							"name": "numWithdrawals",
							"type": "uint256"
						}
					],
					"stateMutability": "view",
					"type": "function"
				},
				{
					"inputs": [],
					"name": "depositFunds",
					"outputs": [],
					"stateMutability": "payable",
					"type": "function"
				},
				{
					"inputs": [
						{
							"internalType": "address",
							"name": "from",
							"type": "address"
						},
						{
							"internalType": "uint256",
							"name": "numDeposits",
							"type": "uint256"
						}
					],
					"name": "getDepositNum",
					"outputs": [
						{
							"components": [
								{
									"internalType": "uint256",
									"name": "amount",
									"type": "uint256"
								},
								{
									"internalType": "uint256",
									"name": "timestamp",
									"type": "uint256"
								}
							],
							"internalType": "struct Mapping_With_Struct.Transaction",
							"name": "",
							"type": "tuple"
						}
					],
					"stateMutability": "view",
					"type": "function"
				},
				{
					"inputs": [
						{
							"internalType": "address payable",
							"name": "to",
							"type": "address"
						},
						{
							"internalType": "uint256",
							"name": "value",
							"type": "uint256"
						}
					],
					"name": "withdrawFunds",
					"outputs": [],
					"stateMutability": "payable",
					"type": "function"
				}
			],
			"devdoc": {
				"kind": "dev",
				"methods": {},
				"version": 1
			},
			"evm": {
				"assembly": "    /* \"contracts/Block_3/Mapping_With_Struct.sol\":440:1684  contract Mapping_With_Struct{... */\n  mstore(0x40, 0x80)\n  callvalue\n  dup1\n  iszero\n  tag_1\n  jumpi\n  0x00\n  dup1\n  revert\ntag_1:\n  pop\n  dataSize(sub_0)\n  dup1\n  dataOffset(sub_0)\n  0x00\n  codecopy\n  0x00\n  return\nstop\n\nsub_0: assembly {\n        /* \"contracts/Block_3/Mapping_With_Struct.sol\":440:1684  contract Mapping_With_Struct{... */\n      mstore(0x40, 0x80)\n      jumpi(tag_1, lt(calldatasize, 0x04))\n      shr(0xe0, calldataload(0x00))\n      dup1\n      0x27e235e3\n      eq\n      tag_2\n      jumpi\n      dup1\n      0x55e14fe6\n      eq\n      tag_3\n      jumpi\n      dup1\n      0xc1075329\n      eq\n      tag_4\n      jumpi\n      dup1\n      0xe2c41dbc\n      eq\n      tag_5\n      jumpi\n    tag_1:\n      0x00\n      dup1\n      revert\n        /* \"contracts/Block_3/Mapping_With_Struct.sol\":932:973  mapping(address=>Balance) public balances */\n    tag_2:\n      callvalue\n      dup1\n      iszero\n      tag_6\n      jumpi\n      0x00\n      dup1\n      revert\n    tag_6:\n      pop\n      tag_7\n      0x04\n      dup1\n      calldatasize\n      sub\n      dup2\n      add\n      swap1\n      tag_8\n      swap2\n      swap1\n      tag_9\n      jump\t// in\n    tag_8:\n      tag_10\n      jump\t// in\n    tag_7:\n      mload(0x40)\n      tag_11\n      swap4\n      swap3\n      swap2\n      swap1\n      tag_12\n      jump\t// in\n    tag_11:\n      mload(0x40)\n      dup1\n      swap2\n      sub\n      swap1\n      return\n        /* \"contracts/Block_3/Mapping_With_Struct.sol\":768:924  function getDepositNum(address from, uint numDeposits) public view returns(Transaction memory){... */\n    tag_3:\n      callvalue\n      dup1\n      iszero\n      tag_13\n      jumpi\n      0x00\n      dup1\n      revert\n    tag_13:\n      pop\n      tag_14\n      0x04\n      dup1\n      calldatasize\n      sub\n      dup2\n      add\n      swap1\n      tag_15\n      swap2\n      swap1\n      tag_16\n      jump\t// in\n    tag_15:\n      tag_17\n      jump\t// in\n    tag_14:\n      mload(0x40)\n      tag_18\n      swap2\n      swap1\n      tag_19\n      jump\t// in\n    tag_18:\n      mload(0x40)\n      dup1\n      swap2\n      sub\n      swap1\n      return\n        /* \"contracts/Block_3/Mapping_With_Struct.sol\":1302:1681  function withdrawFunds(address payable to, uint value) public payable{... */\n    tag_4:\n      tag_20\n      0x04\n      dup1\n      calldatasize\n      sub\n      dup2\n      add\n      swap1\n      tag_21\n      swap2\n      swap1\n      tag_22\n      jump\t// in\n    tag_21:\n      tag_23\n      jump\t// in\n    tag_20:\n      stop\n        /* \"contracts/Block_3/Mapping_With_Struct.sol\":982:1294  function depositFunds() public payable{... */\n    tag_5:\n      tag_24\n      tag_25\n      jump\t// in\n    tag_24:\n      stop\n        /* \"contracts/Block_3/Mapping_With_Struct.sol\":932:973  mapping(address=>Balance) public balances */\n    tag_10:\n      mstore(0x20, 0x00)\n      dup1\n      0x00\n      mstore\n      keccak256(0x00, 0x40)\n      0x00\n      swap2\n      pop\n      swap1\n      pop\n      dup1\n      0x00\n      add\n      sload\n      swap1\n      dup1\n      0x01\n      add\n      sload\n      swap1\n      dup1\n      0x03\n      add\n      sload\n      swap1\n      pop\n      dup4\n      jump\t// out\n        /* \"contracts/Block_3/Mapping_With_Struct.sol\":768:924  function getDepositNum(address from, uint numDeposits) public view returns(Transaction memory){... */\n    tag_17:\n        /* \"contracts/Block_3/Mapping_With_Struct.sol\":843:861  Transaction memory */\n      tag_26\n      tag_27\n      jump\t// in\n    tag_26:\n        /* \"contracts/Block_3/Mapping_With_Struct.sol\":880:888  balances */\n      0x00\n        /* \"contracts/Block_3/Mapping_With_Struct.sol\":880:894  balances[from] */\n      dup1\n        /* \"contracts/Block_3/Mapping_With_Struct.sol\":889:893  from */\n      dup5\n        /* \"contracts/Block_3/Mapping_With_Struct.sol\":880:894  balances[from] */\n      0xffffffffffffffffffffffffffffffffffffffff\n      and\n      0xffffffffffffffffffffffffffffffffffffffff\n      and\n      dup2\n      mstore\n      0x20\n      add\n      swap1\n      dup2\n      mstore\n      0x20\n      add\n      0x00\n      keccak256\n        /* \"contracts/Block_3/Mapping_With_Struct.sol\":880:903  balances[from].deposits */\n      0x02\n      add\n        /* \"contracts/Block_3/Mapping_With_Struct.sol\":880:916  balances[from].deposits[numDeposits] */\n      0x00\n        /* \"contracts/Block_3/Mapping_With_Struct.sol\":904:915  numDeposits */\n      dup4\n        /* \"contracts/Block_3/Mapping_With_Struct.sol\":880:916  balances[from].deposits[numDeposits] */\n      dup2\n      mstore\n      0x20\n      add\n      swap1\n      dup2\n      mstore\n      0x20\n      add\n      0x00\n      keccak256\n        /* \"contracts/Block_3/Mapping_With_Struct.sol\":873:916  return balances[from].deposits[numDeposits] */\n      mload(0x40)\n      dup1\n      0x40\n      add\n      0x40\n      mstore\n      swap1\n      dup2\n      0x00\n      dup3\n      add\n      sload\n      dup2\n      mstore\n      0x20\n      add\n      0x01\n      dup3\n      add\n      sload\n      dup2\n      mstore\n      pop\n      pop\n      swap1\n      pop\n        /* \"contracts/Block_3/Mapping_With_Struct.sol\":768:924  function getDepositNum(address from, uint numDeposits) public view returns(Transaction memory){... */\n      swap3\n      swap2\n      pop\n      pop\n      jump\t// out\n        /* \"contracts/Block_3/Mapping_With_Struct.sol\":1302:1681  function withdrawFunds(address payable to, uint value) public payable{... */\n    tag_23:\n        /* \"contracts/Block_3/Mapping_With_Struct.sol\":1419:1424  value */\n      dup1\n        /* \"contracts/Block_3/Mapping_With_Struct.sol\":1382:1390  balances */\n      0x00\n        /* \"contracts/Block_3/Mapping_With_Struct.sol\":1382:1402  balances[msg.sender] */\n      dup1\n        /* \"contracts/Block_3/Mapping_With_Struct.sol\":1391:1401  msg.sender */\n      caller\n        /* \"contracts/Block_3/Mapping_With_Struct.sol\":1382:1402  balances[msg.sender] */\n      0xffffffffffffffffffffffffffffffffffffffff\n      and\n      0xffffffffffffffffffffffffffffffffffffffff\n      and\n      dup2\n      mstore\n      0x20\n      add\n      swap1\n      dup2\n      mstore\n      0x20\n      add\n      0x00\n      keccak256\n        /* \"contracts/Block_3/Mapping_With_Struct.sol\":1382:1415  balances[msg.sender].totalBalance */\n      0x00\n      add\n      0x00\n        /* \"contracts/Block_3/Mapping_With_Struct.sol\":1382:1424  balances[msg.sender].totalBalance -= value */\n      dup3\n      dup3\n      sload\n      tag_30\n      swap2\n      swap1\n      tag_31\n      jump\t// in\n    tag_30:\n      swap3\n      pop\n      pop\n      dup2\n      swap1\n      sstore\n      pop\n        /* \"contracts/Block_3/Mapping_With_Struct.sol\":1437:1464  Transaction memory withdraw */\n      0x00\n        /* \"contracts/Block_3/Mapping_With_Struct.sol\":1467:1506  Transaction(msg.value, block.timestamp) */\n      mload(0x40)\n      dup1\n      0x40\n      add\n      0x40\n      mstore\n      dup1\n        /* \"contracts/Block_3/Mapping_With_Struct.sol\":1479:1488  msg.value */\n      callvalue\n        /* \"contracts/Block_3/Mapping_With_Struct.sol\":1467:1506  Transaction(msg.value, block.timestamp) */\n      dup2\n      mstore\n      0x20\n      add\n        /* \"contracts/Block_3/Mapping_With_Struct.sol\":1490:1505  block.timestamp */\n      timestamp\n        /* \"contracts/Block_3/Mapping_With_Struct.sol\":1467:1506  Transaction(msg.value, block.timestamp) */\n      dup2\n      mstore\n      pop\n        /* \"contracts/Block_3/Mapping_With_Struct.sol\":1437:1506  Transaction memory withdraw = Transaction(msg.value, block.timestamp) */\n      swap1\n      pop\n        /* \"contracts/Block_3/Mapping_With_Struct.sol\":1586:1594  withdraw */\n      dup1\n        /* \"contracts/Block_3/Mapping_With_Struct.sol\":1517:1525  balances */\n      0x00\n        /* \"contracts/Block_3/Mapping_With_Struct.sol\":1517:1537  balances[msg.sender] */\n      dup1\n        /* \"contracts/Block_3/Mapping_With_Struct.sol\":1526:1536  msg.sender */\n      caller\n        /* \"contracts/Block_3/Mapping_With_Struct.sol\":1517:1537  balances[msg.sender] */\n      0xffffffffffffffffffffffffffffffffffffffff\n      and\n      0xffffffffffffffffffffffffffffffffffffffff\n      and\n      dup2\n      mstore\n      0x20\n      add\n      swap1\n      dup2\n      mstore\n      0x20\n      add\n      0x00\n      keccak256\n        /* \"contracts/Block_3/Mapping_With_Struct.sol\":1517:1549  balances[msg.sender].withdrawals */\n      0x04\n      add\n        /* \"contracts/Block_3/Mapping_With_Struct.sol\":1517:1583  balances[msg.sender].withdrawals[balances[msg.sender].numDeposits] */\n      0x00\n        /* \"contracts/Block_3/Mapping_With_Struct.sol\":1550:1558  balances */\n      dup1\n        /* \"contracts/Block_3/Mapping_With_Struct.sol\":1550:1570  balances[msg.sender] */\n      0x00\n        /* \"contracts/Block_3/Mapping_With_Struct.sol\":1559:1569  msg.sender */\n      caller\n        /* \"contracts/Block_3/Mapping_With_Struct.sol\":1550:1570  balances[msg.sender] */\n      0xffffffffffffffffffffffffffffffffffffffff\n      and\n      0xffffffffffffffffffffffffffffffffffffffff\n      and\n      dup2\n      mstore\n      0x20\n      add\n      swap1\n      dup2\n      mstore\n      0x20\n      add\n      0x00\n      keccak256\n        /* \"contracts/Block_3/Mapping_With_Struct.sol\":1550:1582  balances[msg.sender].numDeposits */\n      0x01\n      add\n      sload\n        /* \"contracts/Block_3/Mapping_With_Struct.sol\":1517:1583  balances[msg.sender].withdrawals[balances[msg.sender].numDeposits] */\n      dup2\n      mstore\n      0x20\n      add\n      swap1\n      dup2\n      mstore\n      0x20\n      add\n      0x00\n      keccak256\n        /* \"contracts/Block_3/Mapping_With_Struct.sol\":1517:1594  balances[msg.sender].withdrawals[balances[msg.sender].numDeposits] = withdraw */\n      0x00\n      dup3\n      add\n      mload\n      dup2\n      0x00\n      add\n      sstore\n      0x20\n      dup3\n      add\n      mload\n      dup2\n      0x01\n      add\n      sstore\n      swap1\n      pop\n      pop\n        /* \"contracts/Block_3/Mapping_With_Struct.sol\":1605:1613  balances */\n      0x00\n        /* \"contracts/Block_3/Mapping_With_Struct.sol\":1605:1625  balances[msg.sender] */\n      dup1\n        /* \"contracts/Block_3/Mapping_With_Struct.sol\":1614:1624  msg.sender */\n      caller\n        /* \"contracts/Block_3/Mapping_With_Struct.sol\":1605:1625  balances[msg.sender] */\n      0xffffffffffffffffffffffffffffffffffffffff\n      and\n      0xffffffffffffffffffffffffffffffffffffffff\n      and\n      dup2\n      mstore\n      0x20\n      add\n      swap1\n      dup2\n      mstore\n      0x20\n      add\n      0x00\n      keccak256\n        /* \"contracts/Block_3/Mapping_With_Struct.sol\":1605:1640  balances[msg.sender].numWithdrawals */\n      0x03\n      add\n      0x00\n        /* \"contracts/Block_3/Mapping_With_Struct.sol\":1605:1642  balances[msg.sender].numWithdrawals++ */\n      dup2\n      sload\n      dup1\n      swap3\n      swap2\n      swap1\n      tag_32\n      swap1\n      tag_33\n      jump\t// in\n    tag_32:\n      swap2\n      swap1\n      pop\n      sstore\n      pop\n        /* \"contracts/Block_3/Mapping_With_Struct.sol\":1655:1657  to */\n      dup3\n        /* \"contracts/Block_3/Mapping_With_Struct.sol\":1655:1666  to.transfer */\n      0xffffffffffffffffffffffffffffffffffffffff\n      and\n        /* \"contracts/Block_3/Mapping_With_Struct.sol\":1655:1673  to.transfer(value) */\n      0x08fc\n        /* \"contracts/Block_3/Mapping_With_Struct.sol\":1667:1672  value */\n      dup4\n        /* \"contracts/Block_3/Mapping_With_Struct.sol\":1655:1673  to.transfer(value) */\n      swap1\n      dup2\n      iszero\n      mul\n      swap1\n      mload(0x40)\n      0x00\n      mload(0x40)\n      dup1\n      dup4\n      sub\n      dup2\n      dup6\n      dup9\n      dup9\n      call\n      swap4\n      pop\n      pop\n      pop\n      pop\n      iszero\n      dup1\n      iszero\n      tag_35\n      jumpi\n      returndatasize\n      0x00\n      dup1\n      returndatacopy\n      revert(0x00, returndatasize)\n    tag_35:\n      pop\n        /* \"contracts/Block_3/Mapping_With_Struct.sol\":1371:1681  {... */\n      pop\n        /* \"contracts/Block_3/Mapping_With_Struct.sol\":1302:1681  function withdrawFunds(address payable to, uint value) public payable{... */\n      pop\n      pop\n      jump\t// out\n        /* \"contracts/Block_3/Mapping_With_Struct.sol\":982:1294  function depositFunds() public payable{... */\n    tag_25:\n        /* \"contracts/Block_3/Mapping_With_Struct.sol\":1067:1076  msg.value */\n      callvalue\n        /* \"contracts/Block_3/Mapping_With_Struct.sol\":1031:1039  balances */\n      0x00\n        /* \"contracts/Block_3/Mapping_With_Struct.sol\":1031:1051  balances[msg.sender] */\n      dup1\n        /* \"contracts/Block_3/Mapping_With_Struct.sol\":1040:1050  msg.sender */\n      caller\n        /* \"contracts/Block_3/Mapping_With_Struct.sol\":1031:1051  balances[msg.sender] */\n      0xffffffffffffffffffffffffffffffffffffffff\n      and\n      0xffffffffffffffffffffffffffffffffffffffff\n      and\n      dup2\n      mstore\n      0x20\n      add\n      swap1\n      dup2\n      mstore\n      0x20\n      add\n      0x00\n      keccak256\n        /* \"contracts/Block_3/Mapping_With_Struct.sol\":1031:1064  balances[msg.sender].totalBalance */\n      0x00\n      add\n      0x00\n        /* \"contracts/Block_3/Mapping_With_Struct.sol\":1031:1076  balances[msg.sender].totalBalance +=msg.value */\n      dup3\n      dup3\n      sload\n      tag_37\n      swap2\n      swap1\n      tag_38\n      jump\t// in\n    tag_37:\n      swap3\n      pop\n      pop\n      dup2\n      swap1\n      sstore\n      pop\n        /* \"contracts/Block_3/Mapping_With_Struct.sol\":1089:1115  Transaction memory deposit */\n      0x00\n        /* \"contracts/Block_3/Mapping_With_Struct.sol\":1118:1157  Transaction(msg.value, block.timestamp) */\n      mload(0x40)\n      dup1\n      0x40\n      add\n      0x40\n      mstore\n      dup1\n        /* \"contracts/Block_3/Mapping_With_Struct.sol\":1130:1139  msg.value */\n      callvalue\n        /* \"contracts/Block_3/Mapping_With_Struct.sol\":1118:1157  Transaction(msg.value, block.timestamp) */\n      dup2\n      mstore\n      0x20\n      add\n        /* \"contracts/Block_3/Mapping_With_Struct.sol\":1141:1156  block.timestamp */\n      timestamp\n        /* \"contracts/Block_3/Mapping_With_Struct.sol\":1118:1157  Transaction(msg.value, block.timestamp) */\n      dup2\n      mstore\n      pop\n        /* \"contracts/Block_3/Mapping_With_Struct.sol\":1089:1157  Transaction memory deposit = Transaction(msg.value, block.timestamp) */\n      swap1\n      pop\n        /* \"contracts/Block_3/Mapping_With_Struct.sol\":1234:1241  deposit */\n      dup1\n        /* \"contracts/Block_3/Mapping_With_Struct.sol\":1168:1176  balances */\n      0x00\n        /* \"contracts/Block_3/Mapping_With_Struct.sol\":1168:1188  balances[msg.sender] */\n      dup1\n        /* \"contracts/Block_3/Mapping_With_Struct.sol\":1177:1187  msg.sender */\n      caller\n        /* \"contracts/Block_3/Mapping_With_Struct.sol\":1168:1188  balances[msg.sender] */\n      0xffffffffffffffffffffffffffffffffffffffff\n      and\n      0xffffffffffffffffffffffffffffffffffffffff\n      and\n      dup2\n      mstore\n      0x20\n      add\n      swap1\n      dup2\n      mstore\n      0x20\n      add\n      0x00\n      keccak256\n        /* \"contracts/Block_3/Mapping_With_Struct.sol\":1168:1197  balances[msg.sender].deposits */\n      0x02\n      add\n        /* \"contracts/Block_3/Mapping_With_Struct.sol\":1168:1231  balances[msg.sender].deposits[balances[msg.sender].numDeposits] */\n      0x00\n        /* \"contracts/Block_3/Mapping_With_Struct.sol\":1198:1206  balances */\n      dup1\n        /* \"contracts/Block_3/Mapping_With_Struct.sol\":1198:1218  balances[msg.sender] */\n      0x00\n        /* \"contracts/Block_3/Mapping_With_Struct.sol\":1207:1217  msg.sender */\n      caller\n        /* \"contracts/Block_3/Mapping_With_Struct.sol\":1198:1218  balances[msg.sender] */\n      0xffffffffffffffffffffffffffffffffffffffff\n      and\n      0xffffffffffffffffffffffffffffffffffffffff\n      and\n      dup2\n      mstore\n      0x20\n      add\n      swap1\n      dup2\n      mstore\n      0x20\n      add\n      0x00\n      keccak256\n        /* \"contracts/Block_3/Mapping_With_Struct.sol\":1198:1230  balances[msg.sender].numDeposits */\n      0x01\n      add\n      sload\n        /* \"contracts/Block_3/Mapping_With_Struct.sol\":1168:1231  balances[msg.sender].deposits[balances[msg.sender].numDeposits] */\n      dup2\n      mstore\n      0x20\n      add\n      swap1\n      dup2\n      mstore\n      0x20\n      add\n      0x00\n      keccak256\n        /* \"contracts/Block_3/Mapping_With_Struct.sol\":1168:1241  balances[msg.sender].deposits[balances[msg.sender].numDeposits] = deposit */\n      0x00\n      dup3\n      add\n      mload\n      dup2\n      0x00\n      add\n      sstore\n      0x20\n      dup3\n      add\n      mload\n      dup2\n      0x01\n      add\n      sstore\n      swap1\n      pop\n      pop\n        /* \"contracts/Block_3/Mapping_With_Struct.sol\":1252:1260  balances */\n      0x00\n        /* \"contracts/Block_3/Mapping_With_Struct.sol\":1252:1272  balances[msg.sender] */\n      dup1\n        /* \"contracts/Block_3/Mapping_With_Struct.sol\":1261:1271  msg.sender */\n      caller\n        /* \"contracts/Block_3/Mapping_With_Struct.sol\":1252:1272  balances[msg.sender] */\n      0xffffffffffffffffffffffffffffffffffffffff\n      and\n      0xffffffffffffffffffffffffffffffffffffffff\n      and\n      dup2\n      mstore\n      0x20\n      add\n      swap1\n      dup2\n      mstore\n      0x20\n      add\n      0x00\n      keccak256\n        /* \"contracts/Block_3/Mapping_With_Struct.sol\":1252:1284  balances[msg.sender].numDeposits */\n      0x01\n      add\n      0x00\n        /* \"contracts/Block_3/Mapping_With_Struct.sol\":1252:1286  balances[msg.sender].numDeposits++ */\n      dup2\n      sload\n      dup1\n      swap3\n      swap2\n      swap1\n      tag_39\n      swap1\n      tag_33\n      jump\t// in\n    tag_39:\n      swap2\n      swap1\n      pop\n      sstore\n      pop\n        /* \"contracts/Block_3/Mapping_With_Struct.sol\":1020:1294  {... */\n      pop\n        /* \"contracts/Block_3/Mapping_With_Struct.sol\":982:1294  function depositFunds() public payable{... */\n      jump\t// out\n    tag_27:\n      mload(0x40)\n      dup1\n      0x40\n      add\n      0x40\n      mstore\n      dup1\n      0x00\n      dup2\n      mstore\n      0x20\n      add\n      0x00\n      dup2\n      mstore\n      pop\n      swap1\n      jump\t// out\n        /* \"#utility.yul\":88:205   */\n    tag_41:\n        /* \"#utility.yul\":197:198   */\n      0x00\n        /* \"#utility.yul\":194:195   */\n      dup1\n        /* \"#utility.yul\":187:199   */\n      revert\n        /* \"#utility.yul\":334:460   */\n    tag_43:\n        /* \"#utility.yul\":371:378   */\n      0x00\n        /* \"#utility.yul\":411:453   */\n      0xffffffffffffffffffffffffffffffffffffffff\n        /* \"#utility.yul\":404:409   */\n      dup3\n        /* \"#utility.yul\":400:454   */\n      and\n        /* \"#utility.yul\":389:454   */\n      swap1\n      pop\n        /* \"#utility.yul\":334:460   */\n      swap2\n      swap1\n      pop\n      jump\t// out\n        /* \"#utility.yul\":466:562   */\n    tag_44:\n        /* \"#utility.yul\":503:510   */\n      0x00\n        /* \"#utility.yul\":532:556   */\n      tag_63\n        /* \"#utility.yul\":550:555   */\n      dup3\n        /* \"#utility.yul\":532:556   */\n      tag_43\n      jump\t// in\n    tag_63:\n        /* \"#utility.yul\":521:556   */\n      swap1\n      pop\n        /* \"#utility.yul\":466:562   */\n      swap2\n      swap1\n      pop\n      jump\t// out\n        /* \"#utility.yul\":568:690   */\n    tag_45:\n        /* \"#utility.yul\":641:665   */\n      tag_65\n        /* \"#utility.yul\":659:664   */\n      dup2\n        /* \"#utility.yul\":641:665   */\n      tag_44\n      jump\t// in\n    tag_65:\n        /* \"#utility.yul\":634:639   */\n      dup2\n        /* \"#utility.yul\":631:666   */\n      eq\n        /* \"#utility.yul\":621:684   */\n      tag_66\n      jumpi\n        /* \"#utility.yul\":680:681   */\n      0x00\n        /* \"#utility.yul\":677:678   */\n      dup1\n        /* \"#utility.yul\":670:682   */\n      revert\n        /* \"#utility.yul\":621:684   */\n    tag_66:\n        /* \"#utility.yul\":568:690   */\n      pop\n      jump\t// out\n        /* \"#utility.yul\":696:835   */\n    tag_46:\n        /* \"#utility.yul\":742:747   */\n      0x00\n        /* \"#utility.yul\":780:786   */\n      dup2\n        /* \"#utility.yul\":767:787   */\n      calldataload\n        /* \"#utility.yul\":758:787   */\n      swap1\n      pop\n        /* \"#utility.yul\":796:829   */\n      tag_68\n        /* \"#utility.yul\":823:828   */\n      dup2\n        /* \"#utility.yul\":796:829   */\n      tag_45\n      jump\t// in\n    tag_68:\n        /* \"#utility.yul\":696:835   */\n      swap3\n      swap2\n      pop\n      pop\n      jump\t// out\n        /* \"#utility.yul\":841:1170   */\n    tag_9:\n        /* \"#utility.yul\":900:906   */\n      0x00\n        /* \"#utility.yul\":949:951   */\n      0x20\n        /* \"#utility.yul\":937:946   */\n      dup3\n        /* \"#utility.yul\":928:935   */\n      dup5\n        /* \"#utility.yul\":924:947   */\n      sub\n        /* \"#utility.yul\":920:952   */\n      slt\n        /* \"#utility.yul\":917:1036   */\n      iszero\n      tag_70\n      jumpi\n        /* \"#utility.yul\":955:1034   */\n      tag_71\n      tag_41\n      jump\t// in\n    tag_71:\n        /* \"#utility.yul\":917:1036   */\n    tag_70:\n        /* \"#utility.yul\":1075:1076   */\n      0x00\n        /* \"#utility.yul\":1100:1153   */\n      tag_72\n        /* \"#utility.yul\":1145:1152   */\n      dup5\n        /* \"#utility.yul\":1136:1142   */\n      dup3\n        /* \"#utility.yul\":1125:1134   */\n      dup6\n        /* \"#utility.yul\":1121:1143   */\n      add\n        /* \"#utility.yul\":1100:1153   */\n      tag_46\n      jump\t// in\n    tag_72:\n        /* \"#utility.yul\":1090:1153   */\n      swap2\n      pop\n        /* \"#utility.yul\":1046:1163   */\n      pop\n        /* \"#utility.yul\":841:1170   */\n      swap3\n      swap2\n      pop\n      pop\n      jump\t// out\n        /* \"#utility.yul\":1176:1253   */\n    tag_47:\n        /* \"#utility.yul\":1213:1220   */\n      0x00\n        /* \"#utility.yul\":1242:1247   */\n      dup2\n        /* \"#utility.yul\":1231:1247   */\n      swap1\n      pop\n        /* \"#utility.yul\":1176:1253   */\n      swap2\n      swap1\n      pop\n      jump\t// out\n        /* \"#utility.yul\":1259:1377   */\n    tag_48:\n        /* \"#utility.yul\":1346:1370   */\n      tag_75\n        /* \"#utility.yul\":1364:1369   */\n      dup2\n        /* \"#utility.yul\":1346:1370   */\n      tag_47\n      jump\t// in\n    tag_75:\n        /* \"#utility.yul\":1341:1344   */\n      dup3\n        /* \"#utility.yul\":1334:1371   */\n      mstore\n        /* \"#utility.yul\":1259:1377   */\n      pop\n      pop\n      jump\t// out\n        /* \"#utility.yul\":1383:1825   */\n    tag_12:\n        /* \"#utility.yul\":1532:1536   */\n      0x00\n        /* \"#utility.yul\":1570:1572   */\n      0x60\n        /* \"#utility.yul\":1559:1568   */\n      dup3\n        /* \"#utility.yul\":1555:1573   */\n      add\n        /* \"#utility.yul\":1547:1573   */\n      swap1\n      pop\n        /* \"#utility.yul\":1583:1654   */\n      tag_77\n        /* \"#utility.yul\":1651:1652   */\n      0x00\n        /* \"#utility.yul\":1640:1649   */\n      dup4\n        /* \"#utility.yul\":1636:1653   */\n      add\n        /* \"#utility.yul\":1627:1633   */\n      dup7\n        /* \"#utility.yul\":1583:1654   */\n      tag_48\n      jump\t// in\n    tag_77:\n        /* \"#utility.yul\":1664:1736   */\n      tag_78\n        /* \"#utility.yul\":1732:1734   */\n      0x20\n        /* \"#utility.yul\":1721:1730   */\n      dup4\n        /* \"#utility.yul\":1717:1735   */\n      add\n        /* \"#utility.yul\":1708:1714   */\n      dup6\n        /* \"#utility.yul\":1664:1736   */\n      tag_48\n      jump\t// in\n    tag_78:\n        /* \"#utility.yul\":1746:1818   */\n      tag_79\n        /* \"#utility.yul\":1814:1816   */\n      0x40\n        /* \"#utility.yul\":1803:1812   */\n      dup4\n        /* \"#utility.yul\":1799:1817   */\n      add\n        /* \"#utility.yul\":1790:1796   */\n      dup5\n        /* \"#utility.yul\":1746:1818   */\n      tag_48\n      jump\t// in\n    tag_79:\n        /* \"#utility.yul\":1383:1825   */\n      swap5\n      swap4\n      pop\n      pop\n      pop\n      pop\n      jump\t// out\n        /* \"#utility.yul\":1831:1953   */\n    tag_49:\n        /* \"#utility.yul\":1904:1928   */\n      tag_81\n        /* \"#utility.yul\":1922:1927   */\n      dup2\n        /* \"#utility.yul\":1904:1928   */\n      tag_47\n      jump\t// in\n    tag_81:\n        /* \"#utility.yul\":1897:1902   */\n      dup2\n        /* \"#utility.yul\":1894:1929   */\n      eq\n        /* \"#utility.yul\":1884:1947   */\n      tag_82\n      jumpi\n        /* \"#utility.yul\":1943:1944   */\n      0x00\n        /* \"#utility.yul\":1940:1941   */\n      dup1\n        /* \"#utility.yul\":1933:1945   */\n      revert\n        /* \"#utility.yul\":1884:1947   */\n    tag_82:\n        /* \"#utility.yul\":1831:1953   */\n      pop\n      jump\t// out\n        /* \"#utility.yul\":1959:2098   */\n    tag_50:\n        /* \"#utility.yul\":2005:2010   */\n      0x00\n        /* \"#utility.yul\":2043:2049   */\n      dup2\n        /* \"#utility.yul\":2030:2050   */\n      calldataload\n        /* \"#utility.yul\":2021:2050   */\n      swap1\n      pop\n        /* \"#utility.yul\":2059:2092   */\n      tag_84\n        /* \"#utility.yul\":2086:2091   */\n      dup2\n        /* \"#utility.yul\":2059:2092   */\n      tag_49\n      jump\t// in\n    tag_84:\n        /* \"#utility.yul\":1959:2098   */\n      swap3\n      swap2\n      pop\n      pop\n      jump\t// out\n        /* \"#utility.yul\":2104:2578   */\n    tag_16:\n        /* \"#utility.yul\":2172:2178   */\n      0x00\n        /* \"#utility.yul\":2180:2186   */\n      dup1\n        /* \"#utility.yul\":2229:2231   */\n      0x40\n        /* \"#utility.yul\":2217:2226   */\n      dup4\n        /* \"#utility.yul\":2208:2215   */\n      dup6\n        /* \"#utility.yul\":2204:2227   */\n      sub\n        /* \"#utility.yul\":2200:2232   */\n      slt\n        /* \"#utility.yul\":2197:2316   */\n      iszero\n      tag_86\n      jumpi\n        /* \"#utility.yul\":2235:2314   */\n      tag_87\n      tag_41\n      jump\t// in\n    tag_87:\n        /* \"#utility.yul\":2197:2316   */\n    tag_86:\n        /* \"#utility.yul\":2355:2356   */\n      0x00\n        /* \"#utility.yul\":2380:2433   */\n      tag_88\n        /* \"#utility.yul\":2425:2432   */\n      dup6\n        /* \"#utility.yul\":2416:2422   */\n      dup3\n        /* \"#utility.yul\":2405:2414   */\n      dup7\n        /* \"#utility.yul\":2401:2423   */\n      add\n        /* \"#utility.yul\":2380:2433   */\n      tag_46\n      jump\t// in\n    tag_88:\n        /* \"#utility.yul\":2370:2433   */\n      swap3\n      pop\n        /* \"#utility.yul\":2326:2443   */\n      pop\n        /* \"#utility.yul\":2482:2484   */\n      0x20\n        /* \"#utility.yul\":2508:2561   */\n      tag_89\n        /* \"#utility.yul\":2553:2560   */\n      dup6\n        /* \"#utility.yul\":2544:2550   */\n      dup3\n        /* \"#utility.yul\":2533:2542   */\n      dup7\n        /* \"#utility.yul\":2529:2551   */\n      add\n        /* \"#utility.yul\":2508:2561   */\n      tag_50\n      jump\t// in\n    tag_89:\n        /* \"#utility.yul\":2498:2561   */\n      swap2\n      pop\n        /* \"#utility.yul\":2453:2571   */\n      pop\n        /* \"#utility.yul\":2104:2578   */\n      swap3\n      pop\n      swap3\n      swap1\n      pop\n      jump\t// out\n        /* \"#utility.yul\":2584:2692   */\n    tag_51:\n        /* \"#utility.yul\":2661:2685   */\n      tag_91\n        /* \"#utility.yul\":2679:2684   */\n      dup2\n        /* \"#utility.yul\":2661:2685   */\n      tag_47\n      jump\t// in\n    tag_91:\n        /* \"#utility.yul\":2656:2659   */\n      dup3\n        /* \"#utility.yul\":2649:2686   */\n      mstore\n        /* \"#utility.yul\":2584:2692   */\n      pop\n      pop\n      jump\t// out\n        /* \"#utility.yul\":2786:3302   */\n    tag_52:\n        /* \"#utility.yul\":2935:2939   */\n      0x40\n        /* \"#utility.yul\":2930:2933   */\n      dup3\n        /* \"#utility.yul\":2926:2940   */\n      add\n        /* \"#utility.yul\":3024:3028   */\n      0x00\n        /* \"#utility.yul\":3017:3022   */\n      dup3\n        /* \"#utility.yul\":3013:3029   */\n      add\n        /* \"#utility.yul\":3007:3030   */\n      mload\n        /* \"#utility.yul\":3043:3106   */\n      tag_93\n        /* \"#utility.yul\":3100:3104   */\n      0x00\n        /* \"#utility.yul\":3095:3098   */\n      dup6\n        /* \"#utility.yul\":3091:3105   */\n      add\n        /* \"#utility.yul\":3077:3089   */\n      dup3\n        /* \"#utility.yul\":3043:3106   */\n      tag_51\n      jump\t// in\n    tag_93:\n        /* \"#utility.yul\":2950:3116   */\n      pop\n        /* \"#utility.yul\":3203:3207   */\n      0x20\n        /* \"#utility.yul\":3196:3201   */\n      dup3\n        /* \"#utility.yul\":3192:3208   */\n      add\n        /* \"#utility.yul\":3186:3209   */\n      mload\n        /* \"#utility.yul\":3222:3285   */\n      tag_94\n        /* \"#utility.yul\":3279:3283   */\n      0x20\n        /* \"#utility.yul\":3274:3277   */\n      dup6\n        /* \"#utility.yul\":3270:3284   */\n      add\n        /* \"#utility.yul\":3256:3268   */\n      dup3\n        /* \"#utility.yul\":3222:3285   */\n      tag_51\n      jump\t// in\n    tag_94:\n        /* \"#utility.yul\":3126:3295   */\n      pop\n        /* \"#utility.yul\":2904:3302   */\n      pop\n        /* \"#utility.yul\":2786:3302   */\n      pop\n      pop\n      jump\t// out\n        /* \"#utility.yul\":3308:3634   */\n    tag_19:\n        /* \"#utility.yul\":3453:3457   */\n      0x00\n        /* \"#utility.yul\":3491:3493   */\n      0x40\n        /* \"#utility.yul\":3480:3489   */\n      dup3\n        /* \"#utility.yul\":3476:3494   */\n      add\n        /* \"#utility.yul\":3468:3494   */\n      swap1\n      pop\n        /* \"#utility.yul\":3504:3627   */\n      tag_96\n        /* \"#utility.yul\":3624:3625   */\n      0x00\n        /* \"#utility.yul\":3613:3622   */\n      dup4\n        /* \"#utility.yul\":3609:3626   */\n      add\n        /* \"#utility.yul\":3600:3606   */\n      dup5\n        /* \"#utility.yul\":3504:3627   */\n      tag_52\n      jump\t// in\n    tag_96:\n        /* \"#utility.yul\":3308:3634   */\n      swap3\n      swap2\n      pop\n      pop\n      jump\t// out\n        /* \"#utility.yul\":3640:3744   */\n    tag_53:\n        /* \"#utility.yul\":3685:3692   */\n      0x00\n        /* \"#utility.yul\":3714:3738   */\n      tag_98\n        /* \"#utility.yul\":3732:3737   */\n      dup3\n        /* \"#utility.yul\":3714:3738   */\n      tag_43\n      jump\t// in\n    tag_98:\n        /* \"#utility.yul\":3703:3738   */\n      swap1\n      pop\n        /* \"#utility.yul\":3640:3744   */\n      swap2\n      swap1\n      pop\n      jump\t// out\n        /* \"#utility.yul\":3750:3888   */\n    tag_54:\n        /* \"#utility.yul\":3831:3863   */\n      tag_100\n        /* \"#utility.yul\":3857:3862   */\n      dup2\n        /* \"#utility.yul\":3831:3863   */\n      tag_53\n      jump\t// in\n    tag_100:\n        /* \"#utility.yul\":3824:3829   */\n      dup2\n        /* \"#utility.yul\":3821:3864   */\n      eq\n        /* \"#utility.yul\":3811:3882   */\n      tag_101\n      jumpi\n        /* \"#utility.yul\":3878:3879   */\n      0x00\n        /* \"#utility.yul\":3875:3876   */\n      dup1\n        /* \"#utility.yul\":3868:3880   */\n      revert\n        /* \"#utility.yul\":3811:3882   */\n    tag_101:\n        /* \"#utility.yul\":3750:3888   */\n      pop\n      jump\t// out\n        /* \"#utility.yul\":3894:4049   */\n    tag_55:\n        /* \"#utility.yul\":3948:3953   */\n      0x00\n        /* \"#utility.yul\":3986:3992   */\n      dup2\n        /* \"#utility.yul\":3973:3993   */\n      calldataload\n        /* \"#utility.yul\":3964:3993   */\n      swap1\n      pop\n        /* \"#utility.yul\":4002:4043   */\n      tag_103\n        /* \"#utility.yul\":4037:4042   */\n      dup2\n        /* \"#utility.yul\":4002:4043   */\n      tag_54\n      jump\t// in\n    tag_103:\n        /* \"#utility.yul\":3894:4049   */\n      swap3\n      swap2\n      pop\n      pop\n      jump\t// out\n        /* \"#utility.yul\":4055:4545   */\n    tag_22:\n        /* \"#utility.yul\":4131:4137   */\n      0x00\n        /* \"#utility.yul\":4139:4145   */\n      dup1\n        /* \"#utility.yul\":4188:4190   */\n      0x40\n        /* \"#utility.yul\":4176:4185   */\n      dup4\n        /* \"#utility.yul\":4167:4174   */\n      dup6\n        /* \"#utility.yul\":4163:4186   */\n      sub\n        /* \"#utility.yul\":4159:4191   */\n      slt\n        /* \"#utility.yul\":4156:4275   */\n      iszero\n      tag_105\n      jumpi\n        /* \"#utility.yul\":4194:4273   */\n      tag_106\n      tag_41\n      jump\t// in\n    tag_106:\n        /* \"#utility.yul\":4156:4275   */\n    tag_105:\n        /* \"#utility.yul\":4314:4315   */\n      0x00\n        /* \"#utility.yul\":4339:4400   */\n      tag_107\n        /* \"#utility.yul\":4392:4399   */\n      dup6\n        /* \"#utility.yul\":4383:4389   */\n      dup3\n        /* \"#utility.yul\":4372:4381   */\n      dup7\n        /* \"#utility.yul\":4368:4390   */\n      add\n        /* \"#utility.yul\":4339:4400   */\n      tag_55\n      jump\t// in\n    tag_107:\n        /* \"#utility.yul\":4329:4400   */\n      swap3\n      pop\n        /* \"#utility.yul\":4285:4410   */\n      pop\n        /* \"#utility.yul\":4449:4451   */\n      0x20\n        /* \"#utility.yul\":4475:4528   */\n      tag_108\n        /* \"#utility.yul\":4520:4527   */\n      dup6\n        /* \"#utility.yul\":4511:4517   */\n      dup3\n        /* \"#utility.yul\":4500:4509   */\n      dup7\n        /* \"#utility.yul\":4496:4518   */\n      add\n        /* \"#utility.yul\":4475:4528   */\n      tag_50\n      jump\t// in\n    tag_108:\n        /* \"#utility.yul\":4465:4528   */\n      swap2\n      pop\n        /* \"#utility.yul\":4420:4538   */\n      pop\n        /* \"#utility.yul\":4055:4545   */\n      swap3\n      pop\n      swap3\n      swap1\n      pop\n      jump\t// out\n        /* \"#utility.yul\":4551:4731   */\n    tag_56:\n        /* \"#utility.yul\":4599:4676   */\n      0x4e487b7100000000000000000000000000000000000000000000000000000000\n        /* \"#utility.yul\":4596:4597   */\n      0x00\n        /* \"#utility.yul\":4589:4677   */\n      mstore\n        /* \"#utility.yul\":4696:4700   */\n      0x11\n        /* \"#utility.yul\":4693:4694   */\n      0x04\n        /* \"#utility.yul\":4686:4701   */\n      mstore\n        /* \"#utility.yul\":4720:4724   */\n      0x24\n        /* \"#utility.yul\":4717:4718   */\n      0x00\n        /* \"#utility.yul\":4710:4725   */\n      revert\n        /* \"#utility.yul\":4737:4931   */\n    tag_31:\n        /* \"#utility.yul\":4777:4781   */\n      0x00\n        /* \"#utility.yul\":4797:4817   */\n      tag_111\n        /* \"#utility.yul\":4815:4816   */\n      dup3\n        /* \"#utility.yul\":4797:4817   */\n      tag_47\n      jump\t// in\n    tag_111:\n        /* \"#utility.yul\":4792:4817   */\n      swap2\n      pop\n        /* \"#utility.yul\":4831:4851   */\n      tag_112\n        /* \"#utility.yul\":4849:4850   */\n      dup4\n        /* \"#utility.yul\":4831:4851   */\n      tag_47\n      jump\t// in\n    tag_112:\n        /* \"#utility.yul\":4826:4851   */\n      swap3\n      pop\n        /* \"#utility.yul\":4875:4876   */\n      dup3\n        /* \"#utility.yul\":4872:4873   */\n      dup3\n        /* \"#utility.yul\":4868:4877   */\n      sub\n        /* \"#utility.yul\":4860:4877   */\n      swap1\n      pop\n        /* \"#utility.yul\":4899:4900   */\n      dup2\n        /* \"#utility.yul\":4893:4897   */\n      dup2\n        /* \"#utility.yul\":4890:4901   */\n      gt\n        /* \"#utility.yul\":4887:4924   */\n      iszero\n      tag_113\n      jumpi\n        /* \"#utility.yul\":4904:4922   */\n      tag_114\n      tag_56\n      jump\t// in\n    tag_114:\n        /* \"#utility.yul\":4887:4924   */\n    tag_113:\n        /* \"#utility.yul\":4737:4931   */\n      swap3\n      swap2\n      pop\n      pop\n      jump\t// out\n        /* \"#utility.yul\":4937:5170   */\n    tag_33:\n        /* \"#utility.yul\":4976:4979   */\n      0x00\n        /* \"#utility.yul\":4999:5023   */\n      tag_116\n        /* \"#utility.yul\":5017:5022   */\n      dup3\n        /* \"#utility.yul\":4999:5023   */\n      tag_47\n      jump\t// in\n    tag_116:\n        /* \"#utility.yul\":4990:5023   */\n      swap2\n      pop\n        /* \"#utility.yul\":5045:5111   */\n      0xffffffffffffffffffffffffffffffffffffffffffffffffffffffffffffffff\n        /* \"#utility.yul\":5038:5043   */\n      dup3\n        /* \"#utility.yul\":5035:5112   */\n      sub\n        /* \"#utility.yul\":5032:5135   */\n      tag_117\n      jumpi\n        /* \"#utility.yul\":5115:5133   */\n      tag_118\n      tag_56\n      jump\t// in\n    tag_118:\n        /* \"#utility.yul\":5032:5135   */\n    tag_117:\n        /* \"#utility.yul\":5162:5163   */\n      0x01\n        /* \"#utility.yul\":5155:5160   */\n      dup3\n        /* \"#utility.yul\":5151:5164   */\n      add\n        /* \"#utility.yul\":5144:5164   */\n      swap1\n      pop\n        /* \"#utility.yul\":4937:5170   */\n      swap2\n      swap1\n      pop\n      jump\t// out\n        /* \"#utility.yul\":5176:5367   */\n    tag_38:\n        /* \"#utility.yul\":5216:5219   */\n      0x00\n        /* \"#utility.yul\":5235:5255   */\n      tag_120\n        /* \"#utility.yul\":5253:5254   */\n      dup3\n        /* \"#utility.yul\":5235:5255   */\n      tag_47\n      jump\t// in\n    tag_120:\n        /* \"#utility.yul\":5230:5255   */\n      swap2\n      pop\n        /* \"#utility.yul\":5269:5289   */\n      tag_121\n        /* \"#utility.yul\":5287:5288   */\n      dup4\n        /* \"#utility.yul\":5269:5289   */\n      tag_47\n      jump\t// in\n    tag_121:\n        /* \"#utility.yul\":5264:5289   */\n      swap3\n      pop\n        /* \"#utility.yul\":5312:5313   */\n      dup3\n        /* \"#utility.yul\":5309:5310   */\n      dup3\n        /* \"#utility.yul\":5305:5314   */\n      add\n        /* \"#utility.yul\":5298:5314   */\n      swap1\n      pop\n        /* \"#utility.yul\":5333:5336   */\n      dup1\n        /* \"#utility.yul\":5330:5331   */\n      dup3\n        /* \"#utility.yul\":5327:5337   */\n      gt\n        /* \"#utility.yul\":5324:5360   */\n      iszero\n      tag_122\n      jumpi\n        /* \"#utility.yul\":5340:5358   */\n      tag_123\n      tag_56\n      jump\t// in\n    tag_123:\n        /* \"#utility.yul\":5324:5360   */\n    tag_122:\n        /* \"#utility.yul\":5176:5367   */\n      swap3\n      swap2\n      pop\n      pop\n      jump\t// out\n\n    auxdata: 0xa26469706673582212201ccb9eaaca8f9059923a1831c5451d5c7e073d4c1ec008c19d05adabec852d0464736f6c634300081a0033\n}\n",
				"bytecode": {
					"linkReferences": {},
					"object": "6080604052348015600e575f80fd5b506107c98061001c5f395ff3fe60806040526004361061003e575f3560e01c806327e235e31461004257806355e14fe614610080578063c1075329146100bc578063e2c41dbc146100d8575b5f80fd5b34801561004d575f80fd5b506100686004803603810190610063919061050b565b6100e2565b6040516100779392919061054e565b60405180910390f35b34801561008b575f80fd5b506100a660048036038101906100a191906105ad565b610107565b6040516100b39190610627565b60405180910390f35b6100d660048036038101906100d1919061067b565b610183565b005b6100e061032f565b005b5f602052805f5260405f205f91509050805f0154908060010154908060030154905083565b61010f610495565b5f808473ffffffffffffffffffffffffffffffffffffffff1673ffffffffffffffffffffffffffffffffffffffff1681526020019081526020015f206002015f8381526020019081526020015f206040518060400160405290815f8201548152602001600182015481525050905092915050565b805f803373ffffffffffffffffffffffffffffffffffffffff1673ffffffffffffffffffffffffffffffffffffffff1681526020019081526020015f205f015f8282546101d091906106e6565b925050819055505f6040518060400160405280348152602001428152509050805f803373ffffffffffffffffffffffffffffffffffffffff1673ffffffffffffffffffffffffffffffffffffffff1681526020019081526020015f206004015f805f3373ffffffffffffffffffffffffffffffffffffffff1673ffffffffffffffffffffffffffffffffffffffff1681526020019081526020015f206001015481526020019081526020015f205f820151815f0155602082015181600101559050505f803373ffffffffffffffffffffffffffffffffffffffff1673ffffffffffffffffffffffffffffffffffffffff1681526020019081526020015f206003015f8154809291906102e190610719565b91905055508273ffffffffffffffffffffffffffffffffffffffff166108fc8390811502906040515f60405180830381858888f19350505050158015610329573d5f803e3d5ffd5b50505050565b345f803373ffffffffffffffffffffffffffffffffffffffff1673ffffffffffffffffffffffffffffffffffffffff1681526020019081526020015f205f015f82825461037c9190610760565b925050819055505f6040518060400160405280348152602001428152509050805f803373ffffffffffffffffffffffffffffffffffffffff1673ffffffffffffffffffffffffffffffffffffffff1681526020019081526020015f206002015f805f3373ffffffffffffffffffffffffffffffffffffffff1673ffffffffffffffffffffffffffffffffffffffff1681526020019081526020015f206001015481526020019081526020015f205f820151815f0155602082015181600101559050505f803373ffffffffffffffffffffffffffffffffffffffff1673ffffffffffffffffffffffffffffffffffffffff1681526020019081526020015f206001015f81548092919061048d90610719565b919050555050565b60405180604001604052805f81526020015f81525090565b5f80fd5b5f73ffffffffffffffffffffffffffffffffffffffff82169050919050565b5f6104da826104b1565b9050919050565b6104ea816104d0565b81146104f4575f80fd5b50565b5f81359050610505816104e1565b92915050565b5f602082840312156105205761051f6104ad565b5b5f61052d848285016104f7565b91505092915050565b5f819050919050565b61054881610536565b82525050565b5f6060820190506105615f83018661053f565b61056e602083018561053f565b61057b604083018461053f565b949350505050565b61058c81610536565b8114610596575f80fd5b50565b5f813590506105a781610583565b92915050565b5f80604083850312156105c3576105c26104ad565b5b5f6105d0858286016104f7565b92505060206105e185828601610599565b9150509250929050565b6105f481610536565b82525050565b604082015f82015161060e5f8501826105eb565b50602082015161062160208501826105eb565b50505050565b5f60408201905061063a5f8301846105fa565b92915050565b5f61064a826104b1565b9050919050565b61065a81610640565b8114610664575f80fd5b50565b5f8135905061067581610651565b92915050565b5f8060408385031215610691576106906104ad565b5b5f61069e85828601610667565b92505060206106af85828601610599565b9150509250929050565b7f4e487b71000000000000000000000000000000000000000000000000000000005f52601160045260245ffd5b5f6106f082610536565b91506106fb83610536565b9250828203905081811115610713576107126106b9565b5b92915050565b5f61072382610536565b91507fffffffffffffffffffffffffffffffffffffffffffffffffffffffffffffffff8203610755576107546106b9565b5b600182019050919050565b5f61076a82610536565b915061077583610536565b925082820190508082111561078d5761078c6106b9565b5b9291505056fea26469706673582212201ccb9eaaca8f9059923a1831c5451d5c7e073d4c1ec008c19d05adabec852d0464736f6c634300081a0033",
					"opcodes": "PUSH1 0x80 PUSH1 0x40 MSTORE CALLVALUE DUP1 ISZERO PUSH1 0xE JUMPI PUSH0 DUP1 REVERT JUMPDEST POP PUSH2 0x7C9 DUP1 PUSH2 0x1C PUSH0 CODECOPY PUSH0 RETURN INVALID PUSH1 0x80 PUSH1 0x40 MSTORE PUSH1 0x4 CALLDATASIZE LT PUSH2 0x3E JUMPI PUSH0 CALLDATALOAD PUSH1 0xE0 SHR DUP1 PUSH4 0x27E235E3 EQ PUSH2 0x42 JUMPI DUP1 PUSH4 0x55E14FE6 EQ PUSH2 0x80 JUMPI DUP1 PUSH4 0xC1075329 EQ PUSH2 0xBC JUMPI DUP1 PUSH4 0xE2C41DBC EQ PUSH2 0xD8 JUMPI JUMPDEST PUSH0 DUP1 REVERT JUMPDEST CALLVALUE DUP1 ISZERO PUSH2 0x4D JUMPI PUSH0 DUP1 REVERT JUMPDEST POP PUSH2 0x68 PUSH1 0x4 DUP1 CALLDATASIZE SUB DUP2 ADD SWAP1 PUSH2 0x63 SWAP2 SWAP1 PUSH2 0x50B JUMP JUMPDEST PUSH2 0xE2 JUMP JUMPDEST PUSH1 0x40 MLOAD PUSH2 0x77 SWAP4 SWAP3 SWAP2 SWAP1 PUSH2 0x54E JUMP JUMPDEST PUSH1 0x40 MLOAD DUP1 SWAP2 SUB SWAP1 RETURN JUMPDEST CALLVALUE DUP1 ISZERO PUSH2 0x8B JUMPI PUSH0 DUP1 REVERT JUMPDEST POP PUSH2 0xA6 PUSH1 0x4 DUP1 CALLDATASIZE SUB DUP2 ADD SWAP1 PUSH2 0xA1 SWAP2 SWAP1 PUSH2 0x5AD JUMP JUMPDEST PUSH2 0x107 JUMP JUMPDEST PUSH1 0x40 MLOAD PUSH2 0xB3 SWAP2 SWAP1 PUSH2 0x627 JUMP JUMPDEST PUSH1 0x40 MLOAD DUP1 SWAP2 SUB SWAP1 RETURN JUMPDEST PUSH2 0xD6 PUSH1 0x4 DUP1 CALLDATASIZE SUB DUP2 ADD SWAP1 PUSH2 0xD1 SWAP2 SWAP1 PUSH2 0x67B JUMP JUMPDEST PUSH2 0x183 JUMP JUMPDEST STOP JUMPDEST PUSH2 0xE0 PUSH2 0x32F JUMP JUMPDEST STOP JUMPDEST PUSH0 PUSH1 0x20 MSTORE DUP1 PUSH0 MSTORE PUSH1 0x40 PUSH0 KECCAK256 PUSH0 SWAP2 POP SWAP1 POP DUP1 PUSH0 ADD SLOAD SWAP1 DUP1 PUSH1 0x1 ADD SLOAD SWAP1 DUP1 PUSH1 0x3 ADD SLOAD SWAP1 POP DUP4 JUMP JUMPDEST PUSH2 0x10F PUSH2 0x495 JUMP JUMPDEST PUSH0 DUP1 DUP5 PUSH20 0xFFFFFFFFFFFFFFFFFFFFFFFFFFFFFFFFFFFFFFFF AND PUSH20 0xFFFFFFFFFFFFFFFFFFFFFFFFFFFFFFFFFFFFFFFF AND DUP2 MSTORE PUSH1 0x20 ADD SWAP1 DUP2 MSTORE PUSH1 0x20 ADD PUSH0 KECCAK256 PUSH1 0x2 ADD PUSH0 DUP4 DUP2 MSTORE PUSH1 0x20 ADD SWAP1 DUP2 MSTORE PUSH1 0x20 ADD PUSH0 KECCAK256 PUSH1 0x40 MLOAD DUP1 PUSH1 0x40 ADD PUSH1 0x40 MSTORE SWAP1 DUP2 PUSH0 DUP3 ADD SLOAD DUP2 MSTORE PUSH1 0x20 ADD PUSH1 0x1 DUP3 ADD SLOAD DUP2 MSTORE POP POP SWAP1 POP SWAP3 SWAP2 POP POP JUMP JUMPDEST DUP1 PUSH0 DUP1 CALLER PUSH20 0xFFFFFFFFFFFFFFFFFFFFFFFFFFFFFFFFFFFFFFFF AND PUSH20 0xFFFFFFFFFFFFFFFFFFFFFFFFFFFFFFFFFFFFFFFF AND DUP2 MSTORE PUSH1 0x20 ADD SWAP1 DUP2 MSTORE PUSH1 0x20 ADD PUSH0 KECCAK256 PUSH0 ADD PUSH0 DUP3 DUP3 SLOAD PUSH2 0x1D0 SWAP2 SWAP1 PUSH2 0x6E6 JUMP JUMPDEST SWAP3 POP POP DUP2 SWAP1 SSTORE POP PUSH0 PUSH1 0x40 MLOAD DUP1 PUSH1 0x40 ADD PUSH1 0x40 MSTORE DUP1 CALLVALUE DUP2 MSTORE PUSH1 0x20 ADD TIMESTAMP DUP2 MSTORE POP SWAP1 POP DUP1 PUSH0 DUP1 CALLER PUSH20 0xFFFFFFFFFFFFFFFFFFFFFFFFFFFFFFFFFFFFFFFF AND PUSH20 0xFFFFFFFFFFFFFFFFFFFFFFFFFFFFFFFFFFFFFFFF AND DUP2 MSTORE PUSH1 0x20 ADD SWAP1 DUP2 MSTORE PUSH1 0x20 ADD PUSH0 KECCAK256 PUSH1 0x4 ADD PUSH0 DUP1 PUSH0 CALLER PUSH20 0xFFFFFFFFFFFFFFFFFFFFFFFFFFFFFFFFFFFFFFFF AND PUSH20 0xFFFFFFFFFFFFFFFFFFFFFFFFFFFFFFFFFFFFFFFF AND DUP2 MSTORE PUSH1 0x20 ADD SWAP1 DUP2 MSTORE PUSH1 0x20 ADD PUSH0 KECCAK256 PUSH1 0x1 ADD SLOAD DUP2 MSTORE PUSH1 0x20 ADD SWAP1 DUP2 MSTORE PUSH1 0x20 ADD PUSH0 KECCAK256 PUSH0 DUP3 ADD MLOAD DUP2 PUSH0 ADD SSTORE PUSH1 0x20 DUP3 ADD MLOAD DUP2 PUSH1 0x1 ADD SSTORE SWAP1 POP POP PUSH0 DUP1 CALLER PUSH20 0xFFFFFFFFFFFFFFFFFFFFFFFFFFFFFFFFFFFFFFFF AND PUSH20 0xFFFFFFFFFFFFFFFFFFFFFFFFFFFFFFFFFFFFFFFF AND DUP2 MSTORE PUSH1 0x20 ADD SWAP1 DUP2 MSTORE PUSH1 0x20 ADD PUSH0 KECCAK256 PUSH1 0x3 ADD PUSH0 DUP2 SLOAD DUP1 SWAP3 SWAP2 SWAP1 PUSH2 0x2E1 SWAP1 PUSH2 0x719 JUMP JUMPDEST SWAP2 SWAP1 POP SSTORE POP DUP3 PUSH20 0xFFFFFFFFFFFFFFFFFFFFFFFFFFFFFFFFFFFFFFFF AND PUSH2 0x8FC DUP4 SWAP1 DUP2 ISZERO MUL SWAP1 PUSH1 0x40 MLOAD PUSH0 PUSH1 0x40 MLOAD DUP1 DUP4 SUB DUP2 DUP6 DUP9 DUP9 CALL SWAP4 POP POP POP POP ISZERO DUP1 ISZERO PUSH2 0x329 JUMPI RETURNDATASIZE PUSH0 DUP1 RETURNDATACOPY RETURNDATASIZE PUSH0 REVERT JUMPDEST POP POP POP POP JUMP JUMPDEST CALLVALUE PUSH0 DUP1 CALLER PUSH20 0xFFFFFFFFFFFFFFFFFFFFFFFFFFFFFFFFFFFFFFFF AND PUSH20 0xFFFFFFFFFFFFFFFFFFFFFFFFFFFFFFFFFFFFFFFF AND DUP2 MSTORE PUSH1 0x20 ADD SWAP1 DUP2 MSTORE PUSH1 0x20 ADD PUSH0 KECCAK256 PUSH0 ADD PUSH0 DUP3 DUP3 SLOAD PUSH2 0x37C SWAP2 SWAP1 PUSH2 0x760 JUMP JUMPDEST SWAP3 POP POP DUP2 SWAP1 SSTORE POP PUSH0 PUSH1 0x40 MLOAD DUP1 PUSH1 0x40 ADD PUSH1 0x40 MSTORE DUP1 CALLVALUE DUP2 MSTORE PUSH1 0x20 ADD TIMESTAMP DUP2 MSTORE POP SWAP1 POP DUP1 PUSH0 DUP1 CALLER PUSH20 0xFFFFFFFFFFFFFFFFFFFFFFFFFFFFFFFFFFFFFFFF AND PUSH20 0xFFFFFFFFFFFFFFFFFFFFFFFFFFFFFFFFFFFFFFFF AND DUP2 MSTORE PUSH1 0x20 ADD SWAP1 DUP2 MSTORE PUSH1 0x20 ADD PUSH0 KECCAK256 PUSH1 0x2 ADD PUSH0 DUP1 PUSH0 CALLER PUSH20 0xFFFFFFFFFFFFFFFFFFFFFFFFFFFFFFFFFFFFFFFF AND PUSH20 0xFFFFFFFFFFFFFFFFFFFFFFFFFFFFFFFFFFFFFFFF AND DUP2 MSTORE PUSH1 0x20 ADD SWAP1 DUP2 MSTORE PUSH1 0x20 ADD PUSH0 KECCAK256 PUSH1 0x1 ADD SLOAD DUP2 MSTORE PUSH1 0x20 ADD SWAP1 DUP2 MSTORE PUSH1 0x20 ADD PUSH0 KECCAK256 PUSH0 DUP3 ADD MLOAD DUP2 PUSH0 ADD SSTORE PUSH1 0x20 DUP3 ADD MLOAD DUP2 PUSH1 0x1 ADD SSTORE SWAP1 POP POP PUSH0 DUP1 CALLER PUSH20 0xFFFFFFFFFFFFFFFFFFFFFFFFFFFFFFFFFFFFFFFF AND PUSH20 0xFFFFFFFFFFFFFFFFFFFFFFFFFFFFFFFFFFFFFFFF AND DUP2 MSTORE PUSH1 0x20 ADD SWAP1 DUP2 MSTORE PUSH1 0x20 ADD PUSH0 KECCAK256 PUSH1 0x1 ADD PUSH0 DUP2 SLOAD DUP1 SWAP3 SWAP2 SWAP1 PUSH2 0x48D SWAP1 PUSH2 0x719 JUMP JUMPDEST SWAP2 SWAP1 POP SSTORE POP POP JUMP JUMPDEST PUSH1 0x40 MLOAD DUP1 PUSH1 0x40 ADD PUSH1 0x40 MSTORE DUP1 PUSH0 DUP2 MSTORE PUSH1 0x20 ADD PUSH0 DUP2 MSTORE POP SWAP1 JUMP JUMPDEST PUSH0 DUP1 REVERT JUMPDEST PUSH0 PUSH20 0xFFFFFFFFFFFFFFFFFFFFFFFFFFFFFFFFFFFFFFFF DUP3 AND SWAP1 POP SWAP2 SWAP1 POP JUMP JUMPDEST PUSH0 PUSH2 0x4DA DUP3 PUSH2 0x4B1 JUMP JUMPDEST SWAP1 POP SWAP2 SWAP1 POP JUMP JUMPDEST PUSH2 0x4EA DUP2 PUSH2 0x4D0 JUMP JUMPDEST DUP2 EQ PUSH2 0x4F4 JUMPI PUSH0 DUP1 REVERT JUMPDEST POP JUMP JUMPDEST PUSH0 DUP2 CALLDATALOAD SWAP1 POP PUSH2 0x505 DUP2 PUSH2 0x4E1 JUMP JUMPDEST SWAP3 SWAP2 POP POP JUMP JUMPDEST PUSH0 PUSH1 0x20 DUP3 DUP5 SUB SLT ISZERO PUSH2 0x520 JUMPI PUSH2 0x51F PUSH2 0x4AD JUMP JUMPDEST JUMPDEST PUSH0 PUSH2 0x52D DUP5 DUP3 DUP6 ADD PUSH2 0x4F7 JUMP JUMPDEST SWAP2 POP POP SWAP3 SWAP2 POP POP JUMP JUMPDEST PUSH0 DUP2 SWAP1 POP SWAP2 SWAP1 POP JUMP JUMPDEST PUSH2 0x548 DUP2 PUSH2 0x536 JUMP JUMPDEST DUP3 MSTORE POP POP JUMP JUMPDEST PUSH0 PUSH1 0x60 DUP3 ADD SWAP1 POP PUSH2 0x561 PUSH0 DUP4 ADD DUP7 PUSH2 0x53F JUMP JUMPDEST PUSH2 0x56E PUSH1 0x20 DUP4 ADD DUP6 PUSH2 0x53F JUMP JUMPDEST PUSH2 0x57B PUSH1 0x40 DUP4 ADD DUP5 PUSH2 0x53F JUMP JUMPDEST SWAP5 SWAP4 POP POP POP POP JUMP JUMPDEST PUSH2 0x58C DUP2 PUSH2 0x536 JUMP JUMPDEST DUP2 EQ PUSH2 0x596 JUMPI PUSH0 DUP1 REVERT JUMPDEST POP JUMP JUMPDEST PUSH0 DUP2 CALLDATALOAD SWAP1 POP PUSH2 0x5A7 DUP2 PUSH2 0x583 JUMP JUMPDEST SWAP3 SWAP2 POP POP JUMP JUMPDEST PUSH0 DUP1 PUSH1 0x40 DUP4 DUP6 SUB SLT ISZERO PUSH2 0x5C3 JUMPI PUSH2 0x5C2 PUSH2 0x4AD JUMP JUMPDEST JUMPDEST PUSH0 PUSH2 0x5D0 DUP6 DUP3 DUP7 ADD PUSH2 0x4F7 JUMP JUMPDEST SWAP3 POP POP PUSH1 0x20 PUSH2 0x5E1 DUP6 DUP3 DUP7 ADD PUSH2 0x599 JUMP JUMPDEST SWAP2 POP POP SWAP3 POP SWAP3 SWAP1 POP JUMP JUMPDEST PUSH2 0x5F4 DUP2 PUSH2 0x536 JUMP JUMPDEST DUP3 MSTORE POP POP JUMP JUMPDEST PUSH1 0x40 DUP3 ADD PUSH0 DUP3 ADD MLOAD PUSH2 0x60E PUSH0 DUP6 ADD DUP3 PUSH2 0x5EB JUMP JUMPDEST POP PUSH1 0x20 DUP3 ADD MLOAD PUSH2 0x621 PUSH1 0x20 DUP6 ADD DUP3 PUSH2 0x5EB JUMP JUMPDEST POP POP POP POP JUMP JUMPDEST PUSH0 PUSH1 0x40 DUP3 ADD SWAP1 POP PUSH2 0x63A PUSH0 DUP4 ADD DUP5 PUSH2 0x5FA JUMP JUMPDEST SWAP3 SWAP2 POP POP JUMP JUMPDEST PUSH0 PUSH2 0x64A DUP3 PUSH2 0x4B1 JUMP JUMPDEST SWAP1 POP SWAP2 SWAP1 POP JUMP JUMPDEST PUSH2 0x65A DUP2 PUSH2 0x640 JUMP JUMPDEST DUP2 EQ PUSH2 0x664 JUMPI PUSH0 DUP1 REVERT JUMPDEST POP JUMP JUMPDEST PUSH0 DUP2 CALLDATALOAD SWAP1 POP PUSH2 0x675 DUP2 PUSH2 0x651 JUMP JUMPDEST SWAP3 SWAP2 POP POP JUMP JUMPDEST PUSH0 DUP1 PUSH1 0x40 DUP4 DUP6 SUB SLT ISZERO PUSH2 0x691 JUMPI PUSH2 0x690 PUSH2 0x4AD JUMP JUMPDEST JUMPDEST PUSH0 PUSH2 0x69E DUP6 DUP3 DUP7 ADD PUSH2 0x667 JUMP JUMPDEST SWAP3 POP POP PUSH1 0x20 PUSH2 0x6AF DUP6 DUP3 DUP7 ADD PUSH2 0x599 JUMP JUMPDEST SWAP2 POP POP SWAP3 POP SWAP3 SWAP1 POP JUMP JUMPDEST PUSH32 0x4E487B7100000000000000000000000000000000000000000000000000000000 PUSH0 MSTORE PUSH1 0x11 PUSH1 0x4 MSTORE PUSH1 0x24 PUSH0 REVERT JUMPDEST PUSH0 PUSH2 0x6F0 DUP3 PUSH2 0x536 JUMP JUMPDEST SWAP2 POP PUSH2 0x6FB DUP4 PUSH2 0x536 JUMP JUMPDEST SWAP3 POP DUP3 DUP3 SUB SWAP1 POP DUP2 DUP2 GT ISZERO PUSH2 0x713 JUMPI PUSH2 0x712 PUSH2 0x6B9 JUMP JUMPDEST JUMPDEST SWAP3 SWAP2 POP POP JUMP JUMPDEST PUSH0 PUSH2 0x723 DUP3 PUSH2 0x536 JUMP JUMPDEST SWAP2 POP PUSH32 0xFFFFFFFFFFFFFFFFFFFFFFFFFFFFFFFFFFFFFFFFFFFFFFFFFFFFFFFFFFFFFFFF DUP3 SUB PUSH2 0x755 JUMPI PUSH2 0x754 PUSH2 0x6B9 JUMP JUMPDEST JUMPDEST PUSH1 0x1 DUP3 ADD SWAP1 POP SWAP2 SWAP1 POP JUMP JUMPDEST PUSH0 PUSH2 0x76A DUP3 PUSH2 0x536 JUMP JUMPDEST SWAP2 POP PUSH2 0x775 DUP4 PUSH2 0x536 JUMP JUMPDEST SWAP3 POP DUP3 DUP3 ADD SWAP1 POP DUP1 DUP3 GT ISZERO PUSH2 0x78D JUMPI PUSH2 0x78C PUSH2 0x6B9 JUMP JUMPDEST JUMPDEST SWAP3 SWAP2 POP POP JUMP INVALID LOG2 PUSH5 0x6970667358 0x22 SLT KECCAK256 SHR 0xCB SWAP15 0xAA 0xCA DUP16 SWAP1 MSIZE SWAP3 GASPRICE XOR BALANCE 0xC5 GASLIMIT SAR TLOAD PUSH31 0x73D4C1EC008C19D05ADABEC852D0464736F6C634300081A00330000000000 "
				},
				"gasEstimates": {
					"creation": {
						"codeDepositCost": "398600",
						"executionCost": "434",
						"totalCost": "399034"
					},
					"external": {
						"balances(address)": "infinite",
						"depositFunds()": "infinite",
						"getDepositNum(address,uint256)": "infinite",
						"withdrawFunds(address,uint256)": "infinite"
					}
				},
				"methodIdentifiers": {
					"balances(address)": "27e235e3",
					"depositFunds()": "e2c41dbc",
					"getDepositNum(address,uint256)": "55e14fe6",
					"withdrawFunds(address,uint256)": "c1075329"
				}
			},
			"storageLayout": {
				"storage": [
					{
						"astId": 46,
						"contract": "contracts/Block_3/Mapping_With_Struct.sol:Mapping_With_Struct",
						"label": "balances",
						"offset": 0,
						"slot": "0",
						"type": "t_mapping(t_address,t_struct(Balance)23_storage)"
					}
				],
				"types": {
					"t_address": {
						"encoding": "inplace",
						"label": "address",
						"numberOfBytes": "20"
					},
					"t_mapping(t_address,t_struct(Balance)23_storage)": {
						"encoding": "mapping",
						"key": "t_address",
						"label": "mapping(address => struct Mapping_With_Struct.Balance)",
						"numberOfBytes": "32",
						"value": "t_struct(Balance)23_storage"
					},
					"t_mapping(t_uint256,t_struct(Transaction)6_storage)": {
						"encoding": "mapping",
						"key": "t_uint256",
						"label": "mapping(uint256 => struct Mapping_With_Struct.Transaction)",
						"numberOfBytes": "32",
						"value": "t_struct(Transaction)6_storage"
					},
					"t_struct(Balance)23_storage": {
						"encoding": "inplace",
						"label": "struct Mapping_With_Struct.Balance",
						"members": [
							{
								"astId": 8,
								"contract": "contracts/Block_3/Mapping_With_Struct.sol:Mapping_With_Struct",
								"label": "totalBalance",
								"offset": 0,
								"slot": "0",
								"type": "t_uint256"
							},
							{
								"astId": 10,
								"contract": "contracts/Block_3/Mapping_With_Struct.sol:Mapping_With_Struct",
								"label": "numDeposits",
								"offset": 0,
								"slot": "1",
								"type": "t_uint256"
							},
							{
								"astId": 15,
								"contract": "contracts/Block_3/Mapping_With_Struct.sol:Mapping_With_Struct",
								"label": "deposits",
								"offset": 0,
								"slot": "2",
								"type": "t_mapping(t_uint256,t_struct(Transaction)6_storage)"
							},
							{
								"astId": 17,
								"contract": "contracts/Block_3/Mapping_With_Struct.sol:Mapping_With_Struct",
								"label": "numWithdrawals",
								"offset": 0,
								"slot": "3",
								"type": "t_uint256"
							},
							{
								"astId": 22,
								"contract": "contracts/Block_3/Mapping_With_Struct.sol:Mapping_With_Struct",
								"label": "withdrawals",
								"offset": 0,
								"slot": "4",
								"type": "t_mapping(t_uint256,t_struct(Transaction)6_storage)"
							}
						],
						"numberOfBytes": "160"
					},
					"t_struct(Transaction)6_storage": {
						"encoding": "inplace",
						"label": "struct Mapping_With_Struct.Transaction",
						"members": [
							{
								"astId": 3,
								"contract": "contracts/Block_3/Mapping_With_Struct.sol:Mapping_With_Struct",
								"label": "amount",
								"offset": 0,
								"slot": "0",
								"type": "t_uint256"
							},
							{
								"astId": 5,
								"contract": "contracts/Block_3/Mapping_With_Struct.sol:Mapping_With_Struct",
								"label": "timestamp",
								"offset": 0,
								"slot": "1",
								"type": "t_uint256"
							}
						],
						"numberOfBytes": "64"
					},
					"t_uint256": {
						"encoding": "inplace",
						"label": "uint256",
						"numberOfBytes": "32"
					}
				}
			},
			"userdoc": {
				"kind": "user",
				"methods": {},
				"version": 1
			}
		}
	}
}