{
	"contracts/Variables.sol": {
		"Variables": {
			"abi": [
				{
					"inputs": [],
					"name": "incrementInt",
					"outputs": [],
					"stateMutability": "nonpayable",
					"type": "function"
				},
				{
					"inputs": [],
					"name": "incrementUint8",
					"outputs": [],
					"stateMutability": "nonpayable",
					"type": "function"
				},
				{
					"inputs": [],
					"name": "myBool",
					"outputs": [
						{
							"internalType": "bool",
							"name": "",
							"type": "bool"
						}
					],
					"stateMutability": "view",
					"type": "function"
				},
				{
					"inputs": [],
					"name": "myInt",
					"outputs": [
						{
							"internalType": "int256",
							"name": "",
							"type": "int256"
						}
					],
					"stateMutability": "view",
					"type": "function"
				},
				{
					"inputs": [],
					"name": "myUint",
					"outputs": [
						{
							"internalType": "uint256",
							"name": "",
							"type": "uint256"
						}
					],
					"stateMutability": "view",
					"type": "function"
				},
				{
					"inputs": [],
					"name": "myUint8",
					"outputs": [
						{
							"internalType": "uint8",
							"name": "",
							"type": "uint8"
						}
					],
					"stateMutability": "view",
					"type": "function"
				},
				{
					"inputs": [
						{
							"internalType": "uint256",
							"name": "_myUnt",
							"type": "uint256"
						}
					],
					"name": "setMyInt",
					"outputs": [],
					"stateMutability": "nonpayable",
					"type": "function"
				},
				{
					"inputs": [
						{
							"internalType": "bool",
							"name": "_myBool",
							"type": "bool"
						}
					],
					"name": "setMybool",
					"outputs": [],
					"stateMutability": "nonpayable",
					"type": "function"
				}
			],
			"devdoc": {
				"kind": "dev",
				"methods": {},
				"version": 1
			},
			"evm": {
				"assembly": "    /* \"contracts/Variables.sol\":68:860  contract Variables{... */\n  mstore(0x40, 0x80)\n    /* \"contracts/Variables.sol\":688:691  250 */\n  0xfa\n    /* \"contracts/Variables.sol\":665:691  uint8 public myUint8 = 250 */\n  0x02\n  exp(0x0100, 0x00)\n  dup2\n  sload\n  dup2\n  0xff\n  mul\n  not\n  and\n  swap1\n  dup4\n  0xff\n  and\n  mul\n  or\n  swap1\n  sstore\n  pop\n    /* \"contracts/Variables.sol\":787:790  -10 */\n  0xfffffffffffffffffffffffffffffffffffffffffffffffffffffffffffffff6\n    /* \"contracts/Variables.sol\":768:790  int public myInt = -10 */\n  0x03\n  sstore\n    /* \"contracts/Variables.sol\":68:860  contract Variables{... */\n  callvalue\n  dup1\n  iszero\n  tag_1\n  jumpi\n  0x00\n  dup1\n  revert\ntag_1:\n  pop\n  dataSize(sub_0)\n  dup1\n  dataOffset(sub_0)\n  0x00\n  codecopy\n  0x00\n  return\nstop\n\nsub_0: assembly {\n        /* \"contracts/Variables.sol\":68:860  contract Variables{... */\n      mstore(0x40, 0x80)\n      callvalue\n      dup1\n      iszero\n      tag_1\n      jumpi\n      0x00\n      dup1\n      revert\n    tag_1:\n      pop\n      jumpi(tag_2, lt(calldatasize, 0x04))\n      shr(0xe0, calldataload(0x00))\n      dup1\n      0x84ea3606\n      gt\n      tag_11\n      jumpi\n      dup1\n      0x84ea3606\n      eq\n      tag_7\n      jumpi\n      dup1\n      0xa6504657\n      eq\n      tag_8\n      jumpi\n      dup1\n      0xe2a4b2af\n      eq\n      tag_9\n      jumpi\n      dup1\n      0xf102a71d\n      eq\n      tag_10\n      jumpi\n      jump(tag_2)\n    tag_11:\n      dup1\n      0x06540f7e\n      eq\n      tag_3\n      jumpi\n      dup1\n      0x19621ed3\n      eq\n      tag_4\n      jumpi\n      dup1\n      0x2cb777a6\n      eq\n      tag_5\n      jumpi\n      dup1\n      0x6deecdbe\n      eq\n      tag_6\n      jumpi\n    tag_2:\n      0x00\n      dup1\n      revert\n        /* \"contracts/Variables.sol\":485:503  uint public myUint */\n    tag_3:\n      tag_12\n      tag_13\n      jump\t// in\n    tag_12:\n      mload(0x40)\n      tag_14\n      swap2\n      swap1\n      tag_15\n      jump\t// in\n    tag_14:\n      mload(0x40)\n      dup1\n      swap2\n      sub\n      swap1\n      return\n        /* \"contracts/Variables.sol\":120:195  function setMybool(bool _myBool) public{... */\n    tag_4:\n      tag_16\n      0x04\n      dup1\n      calldatasize\n      sub\n      dup2\n      add\n      swap1\n      tag_17\n      swap2\n      swap1\n      tag_18\n      jump\t// in\n    tag_17:\n      tag_19\n      jump\t// in\n    tag_16:\n      stop\n        /* \"contracts/Variables.sol\":768:790  int public myInt = -10 */\n    tag_5:\n      tag_20\n      tag_21\n      jump\t// in\n    tag_20:\n      mload(0x40)\n      tag_22\n      swap2\n      swap1\n      tag_23\n      jump\t// in\n    tag_22:\n      mload(0x40)\n      dup1\n      swap2\n      sub\n      swap1\n      return\n        /* \"contracts/Variables.sol\":93:111  bool public myBool */\n    tag_6:\n      tag_24\n      tag_25\n      jump\t// in\n    tag_24:\n      mload(0x40)\n      tag_26\n      swap2\n      swap1\n      tag_27\n      jump\t// in\n    tag_26:\n      mload(0x40)\n      dup1\n      swap2\n      sub\n      swap1\n      return\n        /* \"contracts/Variables.sol\":700:760  function incrementUint8() public{... */\n    tag_7:\n      tag_28\n      tag_29\n      jump\t// in\n    tag_28:\n      stop\n        /* \"contracts/Variables.sol\":512:583  function setMyInt(uint _myUnt) public{... */\n    tag_8:\n      tag_30\n      0x04\n      dup1\n      calldatasize\n      sub\n      dup2\n      add\n      swap1\n      tag_31\n      swap2\n      swap1\n      tag_32\n      jump\t// in\n    tag_31:\n      tag_33\n      jump\t// in\n    tag_30:\n      stop\n        /* \"contracts/Variables.sol\":665:691  uint8 public myUint8 = 250 */\n    tag_9:\n      tag_34\n      tag_35\n      jump\t// in\n    tag_34:\n      mload(0x40)\n      tag_36\n      swap2\n      swap1\n      tag_37\n      jump\t// in\n    tag_36:\n      mload(0x40)\n      dup1\n      swap2\n      sub\n      swap1\n      return\n        /* \"contracts/Variables.sol\":799:856  function incrementInt() public {... */\n    tag_10:\n      tag_38\n      tag_39\n      jump\t// in\n    tag_38:\n      stop\n        /* \"contracts/Variables.sol\":485:503  uint public myUint */\n    tag_13:\n      sload(0x01)\n      dup2\n      jump\t// out\n        /* \"contracts/Variables.sol\":120:195  function setMybool(bool _myBool) public{... */\n    tag_19:\n        /* \"contracts/Variables.sol\":180:187  _myBool */\n      dup1\n        /* \"contracts/Variables.sol\":179:187  !_myBool */\n      iszero\n        /* \"contracts/Variables.sol\":170:176  myBool */\n      0x00\n      dup1\n        /* \"contracts/Variables.sol\":170:187  myBool = !_myBool */\n      0x0100\n      exp\n      dup2\n      sload\n      dup2\n      0xff\n      mul\n      not\n      and\n      swap1\n      dup4\n      iszero\n      iszero\n      mul\n      or\n      swap1\n      sstore\n      pop\n        /* \"contracts/Variables.sol\":120:195  function setMybool(bool _myBool) public{... */\n      pop\n      jump\t// out\n        /* \"contracts/Variables.sol\":768:790  int public myInt = -10 */\n    tag_21:\n      sload(0x03)\n      dup2\n      jump\t// out\n        /* \"contracts/Variables.sol\":93:111  bool public myBool */\n    tag_25:\n      0x00\n      dup1\n      sload\n      swap1\n      0x0100\n      exp\n      swap1\n      div\n      0xff\n      and\n      dup2\n      jump\t// out\n        /* \"contracts/Variables.sol\":700:760  function incrementUint8() public{... */\n    tag_29:\n        /* \"contracts/Variables.sol\":743:750  myUint8 */\n      0x02\n      0x00\n        /* \"contracts/Variables.sol\":743:752  myUint8++ */\n      dup2\n      dup2\n      swap1\n      sload\n      swap1\n      0x0100\n      exp\n      swap1\n      div\n      0xff\n      and\n      dup1\n      swap3\n      swap2\n      swap1\n      tag_42\n      swap1\n      tag_43\n      jump\t// in\n    tag_42:\n      swap2\n      swap1\n      0x0100\n      exp\n      dup2\n      sload\n      dup2\n      0xff\n      mul\n      not\n      and\n      swap1\n      dup4\n      0xff\n      and\n      mul\n      or\n      swap1\n      sstore\n      pop\n      pop\n        /* \"contracts/Variables.sol\":700:760  function incrementUint8() public{... */\n      jump\t// out\n        /* \"contracts/Variables.sol\":512:583  function setMyInt(uint _myUnt) public{... */\n    tag_33:\n        /* \"contracts/Variables.sol\":569:575  _myUnt */\n      dup1\n        /* \"contracts/Variables.sol\":560:566  myUint */\n      0x01\n        /* \"contracts/Variables.sol\":560:575  myUint = _myUnt */\n      dup2\n      swap1\n      sstore\n      pop\n        /* \"contracts/Variables.sol\":512:583  function setMyInt(uint _myUnt) public{... */\n      pop\n      jump\t// out\n        /* \"contracts/Variables.sol\":665:691  uint8 public myUint8 = 250 */\n    tag_35:\n      0x02\n      0x00\n      swap1\n      sload\n      swap1\n      0x0100\n      exp\n      swap1\n      div\n      0xff\n      and\n      dup2\n      jump\t// out\n        /* \"contracts/Variables.sol\":799:856  function incrementInt() public {... */\n    tag_39:\n        /* \"contracts/Variables.sol\":841:846  myInt */\n      0x03\n      0x00\n        /* \"contracts/Variables.sol\":841:848  myInt++ */\n      dup2\n      sload\n      dup1\n      swap3\n      swap2\n      swap1\n      tag_46\n      swap1\n      tag_47\n      jump\t// in\n    tag_46:\n      swap2\n      swap1\n      pop\n      sstore\n      pop\n        /* \"contracts/Variables.sol\":799:856  function incrementInt() public {... */\n      jump\t// out\n        /* \"#utility.yul\":7:84   */\n    tag_48:\n        /* \"#utility.yul\":44:51   */\n      0x00\n        /* \"#utility.yul\":73:78   */\n      dup2\n        /* \"#utility.yul\":62:78   */\n      swap1\n      pop\n        /* \"#utility.yul\":7:84   */\n      swap2\n      swap1\n      pop\n      jump\t// out\n        /* \"#utility.yul\":90:208   */\n    tag_49:\n        /* \"#utility.yul\":177:201   */\n      tag_67\n        /* \"#utility.yul\":195:200   */\n      dup2\n        /* \"#utility.yul\":177:201   */\n      tag_48\n      jump\t// in\n    tag_67:\n        /* \"#utility.yul\":172:175   */\n      dup3\n        /* \"#utility.yul\":165:202   */\n      mstore\n        /* \"#utility.yul\":90:208   */\n      pop\n      pop\n      jump\t// out\n        /* \"#utility.yul\":214:436   */\n    tag_15:\n        /* \"#utility.yul\":307:311   */\n      0x00\n        /* \"#utility.yul\":345:347   */\n      0x20\n        /* \"#utility.yul\":334:343   */\n      dup3\n        /* \"#utility.yul\":330:348   */\n      add\n        /* \"#utility.yul\":322:348   */\n      swap1\n      pop\n        /* \"#utility.yul\":358:429   */\n      tag_69\n        /* \"#utility.yul\":426:427   */\n      0x00\n        /* \"#utility.yul\":415:424   */\n      dup4\n        /* \"#utility.yul\":411:428   */\n      add\n        /* \"#utility.yul\":402:408   */\n      dup5\n        /* \"#utility.yul\":358:429   */\n      tag_49\n      jump\t// in\n    tag_69:\n        /* \"#utility.yul\":214:436   */\n      swap3\n      swap2\n      pop\n      pop\n      jump\t// out\n        /* \"#utility.yul\":523:640   */\n    tag_51:\n        /* \"#utility.yul\":632:633   */\n      0x00\n        /* \"#utility.yul\":629:630   */\n      dup1\n        /* \"#utility.yul\":622:634   */\n      revert\n        /* \"#utility.yul\":769:859   */\n    tag_53:\n        /* \"#utility.yul\":803:810   */\n      0x00\n        /* \"#utility.yul\":846:851   */\n      dup2\n        /* \"#utility.yul\":839:852   */\n      iszero\n        /* \"#utility.yul\":832:853   */\n      iszero\n        /* \"#utility.yul\":821:853   */\n      swap1\n      pop\n        /* \"#utility.yul\":769:859   */\n      swap2\n      swap1\n      pop\n      jump\t// out\n        /* \"#utility.yul\":865:981   */\n    tag_54:\n        /* \"#utility.yul\":935:956   */\n      tag_75\n        /* \"#utility.yul\":950:955   */\n      dup2\n        /* \"#utility.yul\":935:956   */\n      tag_53\n      jump\t// in\n    tag_75:\n        /* \"#utility.yul\":928:933   */\n      dup2\n        /* \"#utility.yul\":925:957   */\n      eq\n        /* \"#utility.yul\":915:975   */\n      tag_76\n      jumpi\n        /* \"#utility.yul\":971:972   */\n      0x00\n        /* \"#utility.yul\":968:969   */\n      dup1\n        /* \"#utility.yul\":961:973   */\n      revert\n        /* \"#utility.yul\":915:975   */\n    tag_76:\n        /* \"#utility.yul\":865:981   */\n      pop\n      jump\t// out\n        /* \"#utility.yul\":987:1120   */\n    tag_55:\n        /* \"#utility.yul\":1030:1035   */\n      0x00\n        /* \"#utility.yul\":1068:1074   */\n      dup2\n        /* \"#utility.yul\":1055:1075   */\n      calldataload\n        /* \"#utility.yul\":1046:1075   */\n      swap1\n      pop\n        /* \"#utility.yul\":1084:1114   */\n      tag_78\n        /* \"#utility.yul\":1108:1113   */\n      dup2\n        /* \"#utility.yul\":1084:1114   */\n      tag_54\n      jump\t// in\n    tag_78:\n        /* \"#utility.yul\":987:1120   */\n      swap3\n      swap2\n      pop\n      pop\n      jump\t// out\n        /* \"#utility.yul\":1126:1449   */\n    tag_18:\n        /* \"#utility.yul\":1182:1188   */\n      0x00\n        /* \"#utility.yul\":1231:1233   */\n      0x20\n        /* \"#utility.yul\":1219:1228   */\n      dup3\n        /* \"#utility.yul\":1210:1217   */\n      dup5\n        /* \"#utility.yul\":1206:1229   */\n      sub\n        /* \"#utility.yul\":1202:1234   */\n      slt\n        /* \"#utility.yul\":1199:1318   */\n      iszero\n      tag_80\n      jumpi\n        /* \"#utility.yul\":1237:1316   */\n      tag_81\n      tag_51\n      jump\t// in\n    tag_81:\n        /* \"#utility.yul\":1199:1318   */\n    tag_80:\n        /* \"#utility.yul\":1357:1358   */\n      0x00\n        /* \"#utility.yul\":1382:1432   */\n      tag_82\n        /* \"#utility.yul\":1424:1431   */\n      dup5\n        /* \"#utility.yul\":1415:1421   */\n      dup3\n        /* \"#utility.yul\":1404:1413   */\n      dup6\n        /* \"#utility.yul\":1400:1422   */\n      add\n        /* \"#utility.yul\":1382:1432   */\n      tag_55\n      jump\t// in\n    tag_82:\n        /* \"#utility.yul\":1372:1432   */\n      swap2\n      pop\n        /* \"#utility.yul\":1328:1442   */\n      pop\n        /* \"#utility.yul\":1126:1449   */\n      swap3\n      swap2\n      pop\n      pop\n      jump\t// out\n        /* \"#utility.yul\":1455:1531   */\n    tag_56:\n        /* \"#utility.yul\":1491:1498   */\n      0x00\n        /* \"#utility.yul\":1520:1525   */\n      dup2\n        /* \"#utility.yul\":1509:1525   */\n      swap1\n      pop\n        /* \"#utility.yul\":1455:1531   */\n      swap2\n      swap1\n      pop\n      jump\t// out\n        /* \"#utility.yul\":1537:1652   */\n    tag_57:\n        /* \"#utility.yul\":1622:1645   */\n      tag_85\n        /* \"#utility.yul\":1639:1644   */\n      dup2\n        /* \"#utility.yul\":1622:1645   */\n      tag_56\n      jump\t// in\n    tag_85:\n        /* \"#utility.yul\":1617:1620   */\n      dup3\n        /* \"#utility.yul\":1610:1646   */\n      mstore\n        /* \"#utility.yul\":1537:1652   */\n      pop\n      pop\n      jump\t// out\n        /* \"#utility.yul\":1658:1876   */\n    tag_23:\n        /* \"#utility.yul\":1749:1753   */\n      0x00\n        /* \"#utility.yul\":1787:1789   */\n      0x20\n        /* \"#utility.yul\":1776:1785   */\n      dup3\n        /* \"#utility.yul\":1772:1790   */\n      add\n        /* \"#utility.yul\":1764:1790   */\n      swap1\n      pop\n        /* \"#utility.yul\":1800:1869   */\n      tag_87\n        /* \"#utility.yul\":1866:1867   */\n      0x00\n        /* \"#utility.yul\":1855:1864   */\n      dup4\n        /* \"#utility.yul\":1851:1868   */\n      add\n        /* \"#utility.yul\":1842:1848   */\n      dup5\n        /* \"#utility.yul\":1800:1869   */\n      tag_57\n      jump\t// in\n    tag_87:\n        /* \"#utility.yul\":1658:1876   */\n      swap3\n      swap2\n      pop\n      pop\n      jump\t// out\n        /* \"#utility.yul\":1882:1991   */\n    tag_58:\n        /* \"#utility.yul\":1963:1984   */\n      tag_89\n        /* \"#utility.yul\":1978:1983   */\n      dup2\n        /* \"#utility.yul\":1963:1984   */\n      tag_53\n      jump\t// in\n    tag_89:\n        /* \"#utility.yul\":1958:1961   */\n      dup3\n        /* \"#utility.yul\":1951:1985   */\n      mstore\n        /* \"#utility.yul\":1882:1991   */\n      pop\n      pop\n      jump\t// out\n        /* \"#utility.yul\":1997:2207   */\n    tag_27:\n        /* \"#utility.yul\":2084:2088   */\n      0x00\n        /* \"#utility.yul\":2122:2124   */\n      0x20\n        /* \"#utility.yul\":2111:2120   */\n      dup3\n        /* \"#utility.yul\":2107:2125   */\n      add\n        /* \"#utility.yul\":2099:2125   */\n      swap1\n      pop\n        /* \"#utility.yul\":2135:2200   */\n      tag_91\n        /* \"#utility.yul\":2197:2198   */\n      0x00\n        /* \"#utility.yul\":2186:2195   */\n      dup4\n        /* \"#utility.yul\":2182:2199   */\n      add\n        /* \"#utility.yul\":2173:2179   */\n      dup5\n        /* \"#utility.yul\":2135:2200   */\n      tag_58\n      jump\t// in\n    tag_91:\n        /* \"#utility.yul\":1997:2207   */\n      swap3\n      swap2\n      pop\n      pop\n      jump\t// out\n        /* \"#utility.yul\":2213:2335   */\n    tag_59:\n        /* \"#utility.yul\":2286:2310   */\n      tag_93\n        /* \"#utility.yul\":2304:2309   */\n      dup2\n        /* \"#utility.yul\":2286:2310   */\n      tag_48\n      jump\t// in\n    tag_93:\n        /* \"#utility.yul\":2279:2284   */\n      dup2\n        /* \"#utility.yul\":2276:2311   */\n      eq\n        /* \"#utility.yul\":2266:2329   */\n      tag_94\n      jumpi\n        /* \"#utility.yul\":2325:2326   */\n      0x00\n        /* \"#utility.yul\":2322:2323   */\n      dup1\n        /* \"#utility.yul\":2315:2327   */\n      revert\n        /* \"#utility.yul\":2266:2329   */\n    tag_94:\n        /* \"#utility.yul\":2213:2335   */\n      pop\n      jump\t// out\n        /* \"#utility.yul\":2341:2480   */\n    tag_60:\n        /* \"#utility.yul\":2387:2392   */\n      0x00\n        /* \"#utility.yul\":2425:2431   */\n      dup2\n        /* \"#utility.yul\":2412:2432   */\n      calldataload\n        /* \"#utility.yul\":2403:2432   */\n      swap1\n      pop\n        /* \"#utility.yul\":2441:2474   */\n      tag_96\n        /* \"#utility.yul\":2468:2473   */\n      dup2\n        /* \"#utility.yul\":2441:2474   */\n      tag_59\n      jump\t// in\n    tag_96:\n        /* \"#utility.yul\":2341:2480   */\n      swap3\n      swap2\n      pop\n      pop\n      jump\t// out\n        /* \"#utility.yul\":2486:2815   */\n    tag_32:\n        /* \"#utility.yul\":2545:2551   */\n      0x00\n        /* \"#utility.yul\":2594:2596   */\n      0x20\n        /* \"#utility.yul\":2582:2591   */\n      dup3\n        /* \"#utility.yul\":2573:2580   */\n      dup5\n        /* \"#utility.yul\":2569:2592   */\n      sub\n        /* \"#utility.yul\":2565:2597   */\n      slt\n        /* \"#utility.yul\":2562:2681   */\n      iszero\n      tag_98\n      jumpi\n        /* \"#utility.yul\":2600:2679   */\n      tag_99\n      tag_51\n      jump\t// in\n    tag_99:\n        /* \"#utility.yul\":2562:2681   */\n    tag_98:\n        /* \"#utility.yul\":2720:2721   */\n      0x00\n        /* \"#utility.yul\":2745:2798   */\n      tag_100\n        /* \"#utility.yul\":2790:2797   */\n      dup5\n        /* \"#utility.yul\":2781:2787   */\n      dup3\n        /* \"#utility.yul\":2770:2779   */\n      dup6\n        /* \"#utility.yul\":2766:2788   */\n      add\n        /* \"#utility.yul\":2745:2798   */\n      tag_60\n      jump\t// in\n    tag_100:\n        /* \"#utility.yul\":2735:2798   */\n      swap2\n      pop\n        /* \"#utility.yul\":2691:2808   */\n      pop\n        /* \"#utility.yul\":2486:2815   */\n      swap3\n      swap2\n      pop\n      pop\n      jump\t// out\n        /* \"#utility.yul\":2821:2907   */\n    tag_61:\n        /* \"#utility.yul\":2856:2863   */\n      0x00\n        /* \"#utility.yul\":2896:2900   */\n      0xff\n        /* \"#utility.yul\":2889:2894   */\n      dup3\n        /* \"#utility.yul\":2885:2901   */\n      and\n        /* \"#utility.yul\":2874:2901   */\n      swap1\n      pop\n        /* \"#utility.yul\":2821:2907   */\n      swap2\n      swap1\n      pop\n      jump\t// out\n        /* \"#utility.yul\":2913:3025   */\n    tag_62:\n        /* \"#utility.yul\":2996:3018   */\n      tag_103\n        /* \"#utility.yul\":3012:3017   */\n      dup2\n        /* \"#utility.yul\":2996:3018   */\n      tag_61\n      jump\t// in\n    tag_103:\n        /* \"#utility.yul\":2991:2994   */\n      dup3\n        /* \"#utility.yul\":2984:3019   */\n      mstore\n        /* \"#utility.yul\":2913:3025   */\n      pop\n      pop\n      jump\t// out\n        /* \"#utility.yul\":3031:3245   */\n    tag_37:\n        /* \"#utility.yul\":3120:3124   */\n      0x00\n        /* \"#utility.yul\":3158:3160   */\n      0x20\n        /* \"#utility.yul\":3147:3156   */\n      dup3\n        /* \"#utility.yul\":3143:3161   */\n      add\n        /* \"#utility.yul\":3135:3161   */\n      swap1\n      pop\n        /* \"#utility.yul\":3171:3238   */\n      tag_105\n        /* \"#utility.yul\":3235:3236   */\n      0x00\n        /* \"#utility.yul\":3224:3233   */\n      dup4\n        /* \"#utility.yul\":3220:3237   */\n      add\n        /* \"#utility.yul\":3211:3217   */\n      dup5\n        /* \"#utility.yul\":3171:3238   */\n      tag_62\n      jump\t// in\n    tag_105:\n        /* \"#utility.yul\":3031:3245   */\n      swap3\n      swap2\n      pop\n      pop\n      jump\t// out\n        /* \"#utility.yul\":3251:3431   */\n    tag_63:\n        /* \"#utility.yul\":3299:3376   */\n      0x4e487b7100000000000000000000000000000000000000000000000000000000\n        /* \"#utility.yul\":3296:3297   */\n      0x00\n        /* \"#utility.yul\":3289:3377   */\n      mstore\n        /* \"#utility.yul\":3396:3400   */\n      0x11\n        /* \"#utility.yul\":3393:3394   */\n      0x04\n        /* \"#utility.yul\":3386:3401   */\n      mstore\n        /* \"#utility.yul\":3420:3424   */\n      0x24\n        /* \"#utility.yul\":3417:3418   */\n      0x00\n        /* \"#utility.yul\":3410:3425   */\n      revert\n        /* \"#utility.yul\":3437:3604   */\n    tag_43:\n        /* \"#utility.yul\":3474:3477   */\n      0x00\n        /* \"#utility.yul\":3497:3519   */\n      tag_108\n        /* \"#utility.yul\":3513:3518   */\n      dup3\n        /* \"#utility.yul\":3497:3519   */\n      tag_61\n      jump\t// in\n    tag_108:\n        /* \"#utility.yul\":3488:3519   */\n      swap2\n      pop\n        /* \"#utility.yul\":3541:3545   */\n      0xff\n        /* \"#utility.yul\":3534:3539   */\n      dup3\n        /* \"#utility.yul\":3531:3546   */\n      sub\n        /* \"#utility.yul\":3528:3569   */\n      tag_109\n      jumpi\n        /* \"#utility.yul\":3549:3567   */\n      tag_110\n      tag_63\n      jump\t// in\n    tag_110:\n        /* \"#utility.yul\":3528:3569   */\n    tag_109:\n        /* \"#utility.yul\":3596:3597   */\n      0x01\n        /* \"#utility.yul\":3589:3594   */\n      dup3\n        /* \"#utility.yul\":3585:3598   */\n      add\n        /* \"#utility.yul\":3578:3598   */\n      swap1\n      pop\n        /* \"#utility.yul\":3437:3604   */\n      swap2\n      swap1\n      pop\n      jump\t// out\n        /* \"#utility.yul\":3610:3841   */\n    tag_47:\n        /* \"#utility.yul\":3648:3651   */\n      0x00\n        /* \"#utility.yul\":3671:3694   */\n      tag_112\n        /* \"#utility.yul\":3688:3693   */\n      dup3\n        /* \"#utility.yul\":3671:3694   */\n      tag_56\n      jump\t// in\n    tag_112:\n        /* \"#utility.yul\":3662:3694   */\n      swap2\n      pop\n        /* \"#utility.yul\":3716:3782   */\n      0x7fffffffffffffffffffffffffffffffffffffffffffffffffffffffffffffff\n        /* \"#utility.yul\":3709:3714   */\n      dup3\n        /* \"#utility.yul\":3706:3783   */\n      sub\n        /* \"#utility.yul\":3703:3806   */\n      tag_113\n      jumpi\n        /* \"#utility.yul\":3786:3804   */\n      tag_114\n      tag_63\n      jump\t// in\n    tag_114:\n        /* \"#utility.yul\":3703:3806   */\n    tag_113:\n        /* \"#utility.yul\":3833:3834   */\n      0x01\n        /* \"#utility.yul\":3826:3831   */\n      dup3\n        /* \"#utility.yul\":3822:3835   */\n      add\n        /* \"#utility.yul\":3815:3835   */\n      swap1\n      pop\n        /* \"#utility.yul\":3610:3841   */\n      swap2\n      swap1\n      pop\n      jump\t// out\n\n    auxdata: 0xa26469706673582212206d52b2694d034f6daed5cd92a0df3d540e549feee3ad96577a94327714571e0464736f6c634300081a0033\n}\n",
				"bytecode": {
					"linkReferences": {},
					"object": "608060405260fa60025f6101000a81548160ff021916908360ff1602179055507ffffffffffffffffffffffffffffffffffffffffffffffffffffffffffffffff6600355348015604d575f80fd5b5061043d8061005b5f395ff3fe608060405234801561000f575f80fd5b5060043610610086575f3560e01c806384ea36061161005957806384ea360614610100578063a65046571461010a578063e2a4b2af14610126578063f102a71d1461014457610086565b806306540f7e1461008a57806319621ed3146100a85780632cb777a6146100c45780636deecdbe146100e2575b5f80fd5b61009261014e565b60405161009f919061020c565b60405180910390f35b6100c260048036038101906100bd919061025e565b610154565b005b6100cc610170565b6040516100d991906102a1565b60405180910390f35b6100ea610176565b6040516100f791906102c9565b60405180910390f35b610108610186565b005b610124600480360381019061011f919061030c565b6101bf565b005b61012e6101c9565b60405161013b9190610352565b60405180910390f35b61014c6101db565b005b60015481565b80155f806101000a81548160ff02191690831515021790555050565b60035481565b5f8054906101000a900460ff1681565b60025f81819054906101000a900460ff16809291906101a490610398565b91906101000a81548160ff021916908360ff16021790555050565b8060018190555050565b60025f9054906101000a900460ff1681565b60035f8154809291906101ed906103c0565b9190505550565b5f819050919050565b610206816101f4565b82525050565b5f60208201905061021f5f8301846101fd565b92915050565b5f80fd5b5f8115159050919050565b61023d81610229565b8114610247575f80fd5b50565b5f8135905061025881610234565b92915050565b5f6020828403121561027357610272610225565b5b5f6102808482850161024a565b91505092915050565b5f819050919050565b61029b81610289565b82525050565b5f6020820190506102b45f830184610292565b92915050565b6102c381610229565b82525050565b5f6020820190506102dc5f8301846102ba565b92915050565b6102eb816101f4565b81146102f5575f80fd5b50565b5f81359050610306816102e2565b92915050565b5f6020828403121561032157610320610225565b5b5f61032e848285016102f8565b91505092915050565b5f60ff82169050919050565b61034c81610337565b82525050565b5f6020820190506103655f830184610343565b92915050565b7f4e487b71000000000000000000000000000000000000000000000000000000005f52601160045260245ffd5b5f6103a282610337565b915060ff82036103b5576103b461036b565b5b600182019050919050565b5f6103ca82610289565b91507f7fffffffffffffffffffffffffffffffffffffffffffffffffffffffffffffff82036103fc576103fb61036b565b5b60018201905091905056fea26469706673582212206d52b2694d034f6daed5cd92a0df3d540e549feee3ad96577a94327714571e0464736f6c634300081a0033",
					"opcodes": "PUSH1 0x80 PUSH1 0x40 MSTORE PUSH1 0xFA PUSH1 0x2 PUSH0 PUSH2 0x100 EXP DUP2 SLOAD DUP2 PUSH1 0xFF MUL NOT AND SWAP1 DUP4 PUSH1 0xFF AND MUL OR SWAP1 SSTORE POP PUSH32 0xFFFFFFFFFFFFFFFFFFFFFFFFFFFFFFFFFFFFFFFFFFFFFFFFFFFFFFFFFFFFFFF6 PUSH1 0x3 SSTORE CALLVALUE DUP1 ISZERO PUSH1 0x4D JUMPI PUSH0 DUP1 REVERT JUMPDEST POP PUSH2 0x43D DUP1 PUSH2 0x5B PUSH0 CODECOPY PUSH0 RETURN INVALID PUSH1 0x80 PUSH1 0x40 MSTORE CALLVALUE DUP1 ISZERO PUSH2 0xF JUMPI PUSH0 DUP1 REVERT JUMPDEST POP PUSH1 0x4 CALLDATASIZE LT PUSH2 0x86 JUMPI PUSH0 CALLDATALOAD PUSH1 0xE0 SHR DUP1 PUSH4 0x84EA3606 GT PUSH2 0x59 JUMPI DUP1 PUSH4 0x84EA3606 EQ PUSH2 0x100 JUMPI DUP1 PUSH4 0xA6504657 EQ PUSH2 0x10A JUMPI DUP1 PUSH4 0xE2A4B2AF EQ PUSH2 0x126 JUMPI DUP1 PUSH4 0xF102A71D EQ PUSH2 0x144 JUMPI PUSH2 0x86 JUMP JUMPDEST DUP1 PUSH4 0x6540F7E EQ PUSH2 0x8A JUMPI DUP1 PUSH4 0x19621ED3 EQ PUSH2 0xA8 JUMPI DUP1 PUSH4 0x2CB777A6 EQ PUSH2 0xC4 JUMPI DUP1 PUSH4 0x6DEECDBE EQ PUSH2 0xE2 JUMPI JUMPDEST PUSH0 DUP1 REVERT JUMPDEST PUSH2 0x92 PUSH2 0x14E JUMP JUMPDEST PUSH1 0x40 MLOAD PUSH2 0x9F SWAP2 SWAP1 PUSH2 0x20C JUMP JUMPDEST PUSH1 0x40 MLOAD DUP1 SWAP2 SUB SWAP1 RETURN JUMPDEST PUSH2 0xC2 PUSH1 0x4 DUP1 CALLDATASIZE SUB DUP2 ADD SWAP1 PUSH2 0xBD SWAP2 SWAP1 PUSH2 0x25E JUMP JUMPDEST PUSH2 0x154 JUMP JUMPDEST STOP JUMPDEST PUSH2 0xCC PUSH2 0x170 JUMP JUMPDEST PUSH1 0x40 MLOAD PUSH2 0xD9 SWAP2 SWAP1 PUSH2 0x2A1 JUMP JUMPDEST PUSH1 0x40 MLOAD DUP1 SWAP2 SUB SWAP1 RETURN JUMPDEST PUSH2 0xEA PUSH2 0x176 JUMP JUMPDEST PUSH1 0x40 MLOAD PUSH2 0xF7 SWAP2 SWAP1 PUSH2 0x2C9 JUMP JUMPDEST PUSH1 0x40 MLOAD DUP1 SWAP2 SUB SWAP1 RETURN JUMPDEST PUSH2 0x108 PUSH2 0x186 JUMP JUMPDEST STOP JUMPDEST PUSH2 0x124 PUSH1 0x4 DUP1 CALLDATASIZE SUB DUP2 ADD SWAP1 PUSH2 0x11F SWAP2 SWAP1 PUSH2 0x30C JUMP JUMPDEST PUSH2 0x1BF JUMP JUMPDEST STOP JUMPDEST PUSH2 0x12E PUSH2 0x1C9 JUMP JUMPDEST PUSH1 0x40 MLOAD PUSH2 0x13B SWAP2 SWAP1 PUSH2 0x352 JUMP JUMPDEST PUSH1 0x40 MLOAD DUP1 SWAP2 SUB SWAP1 RETURN JUMPDEST PUSH2 0x14C PUSH2 0x1DB JUMP JUMPDEST STOP JUMPDEST PUSH1 0x1 SLOAD DUP2 JUMP JUMPDEST DUP1 ISZERO PUSH0 DUP1 PUSH2 0x100 EXP DUP2 SLOAD DUP2 PUSH1 0xFF MUL NOT AND SWAP1 DUP4 ISZERO ISZERO MUL OR SWAP1 SSTORE POP POP JUMP JUMPDEST PUSH1 0x3 SLOAD DUP2 JUMP JUMPDEST PUSH0 DUP1 SLOAD SWAP1 PUSH2 0x100 EXP SWAP1 DIV PUSH1 0xFF AND DUP2 JUMP JUMPDEST PUSH1 0x2 PUSH0 DUP2 DUP2 SWAP1 SLOAD SWAP1 PUSH2 0x100 EXP SWAP1 DIV PUSH1 0xFF AND DUP1 SWAP3 SWAP2 SWAP1 PUSH2 0x1A4 SWAP1 PUSH2 0x398 JUMP JUMPDEST SWAP2 SWAP1 PUSH2 0x100 EXP DUP2 SLOAD DUP2 PUSH1 0xFF MUL NOT AND SWAP1 DUP4 PUSH1 0xFF AND MUL OR SWAP1 SSTORE POP POP JUMP JUMPDEST DUP1 PUSH1 0x1 DUP2 SWAP1 SSTORE POP POP JUMP JUMPDEST PUSH1 0x2 PUSH0 SWAP1 SLOAD SWAP1 PUSH2 0x100 EXP SWAP1 DIV PUSH1 0xFF AND DUP2 JUMP JUMPDEST PUSH1 0x3 PUSH0 DUP2 SLOAD DUP1 SWAP3 SWAP2 SWAP1 PUSH2 0x1ED SWAP1 PUSH2 0x3C0 JUMP JUMPDEST SWAP2 SWAP1 POP SSTORE POP JUMP JUMPDEST PUSH0 DUP2 SWAP1 POP SWAP2 SWAP1 POP JUMP JUMPDEST PUSH2 0x206 DUP2 PUSH2 0x1F4 JUMP JUMPDEST DUP3 MSTORE POP POP JUMP JUMPDEST PUSH0 PUSH1 0x20 DUP3 ADD SWAP1 POP PUSH2 0x21F PUSH0 DUP4 ADD DUP5 PUSH2 0x1FD JUMP JUMPDEST SWAP3 SWAP2 POP POP JUMP JUMPDEST PUSH0 DUP1 REVERT JUMPDEST PUSH0 DUP2 ISZERO ISZERO SWAP1 POP SWAP2 SWAP1 POP JUMP JUMPDEST PUSH2 0x23D DUP2 PUSH2 0x229 JUMP JUMPDEST DUP2 EQ PUSH2 0x247 JUMPI PUSH0 DUP1 REVERT JUMPDEST POP JUMP JUMPDEST PUSH0 DUP2 CALLDATALOAD SWAP1 POP PUSH2 0x258 DUP2 PUSH2 0x234 JUMP JUMPDEST SWAP3 SWAP2 POP POP JUMP JUMPDEST PUSH0 PUSH1 0x20 DUP3 DUP5 SUB SLT ISZERO PUSH2 0x273 JUMPI PUSH2 0x272 PUSH2 0x225 JUMP JUMPDEST JUMPDEST PUSH0 PUSH2 0x280 DUP5 DUP3 DUP6 ADD PUSH2 0x24A JUMP JUMPDEST SWAP2 POP POP SWAP3 SWAP2 POP POP JUMP JUMPDEST PUSH0 DUP2 SWAP1 POP SWAP2 SWAP1 POP JUMP JUMPDEST PUSH2 0x29B DUP2 PUSH2 0x289 JUMP JUMPDEST DUP3 MSTORE POP POP JUMP JUMPDEST PUSH0 PUSH1 0x20 DUP3 ADD SWAP1 POP PUSH2 0x2B4 PUSH0 DUP4 ADD DUP5 PUSH2 0x292 JUMP JUMPDEST SWAP3 SWAP2 POP POP JUMP JUMPDEST PUSH2 0x2C3 DUP2 PUSH2 0x229 JUMP JUMPDEST DUP3 MSTORE POP POP JUMP JUMPDEST PUSH0 PUSH1 0x20 DUP3 ADD SWAP1 POP PUSH2 0x2DC PUSH0 DUP4 ADD DUP5 PUSH2 0x2BA JUMP JUMPDEST SWAP3 SWAP2 POP POP JUMP JUMPDEST PUSH2 0x2EB DUP2 PUSH2 0x1F4 JUMP JUMPDEST DUP2 EQ PUSH2 0x2F5 JUMPI PUSH0 DUP1 REVERT JUMPDEST POP JUMP JUMPDEST PUSH0 DUP2 CALLDATALOAD SWAP1 POP PUSH2 0x306 DUP2 PUSH2 0x2E2 JUMP JUMPDEST SWAP3 SWAP2 POP POP JUMP JUMPDEST PUSH0 PUSH1 0x20 DUP3 DUP5 SUB SLT ISZERO PUSH2 0x321 JUMPI PUSH2 0x320 PUSH2 0x225 JUMP JUMPDEST JUMPDEST PUSH0 PUSH2 0x32E DUP5 DUP3 DUP6 ADD PUSH2 0x2F8 JUMP JUMPDEST SWAP2 POP POP SWAP3 SWAP2 POP POP JUMP JUMPDEST PUSH0 PUSH1 0xFF DUP3 AND SWAP1 POP SWAP2 SWAP1 POP JUMP JUMPDEST PUSH2 0x34C DUP2 PUSH2 0x337 JUMP JUMPDEST DUP3 MSTORE POP POP JUMP JUMPDEST PUSH0 PUSH1 0x20 DUP3 ADD SWAP1 POP PUSH2 0x365 PUSH0 DUP4 ADD DUP5 PUSH2 0x343 JUMP JUMPDEST SWAP3 SWAP2 POP POP JUMP JUMPDEST PUSH32 0x4E487B7100000000000000000000000000000000000000000000000000000000 PUSH0 MSTORE PUSH1 0x11 PUSH1 0x4 MSTORE PUSH1 0x24 PUSH0 REVERT JUMPDEST PUSH0 PUSH2 0x3A2 DUP3 PUSH2 0x337 JUMP JUMPDEST SWAP2 POP PUSH1 0xFF DUP3 SUB PUSH2 0x3B5 JUMPI PUSH2 0x3B4 PUSH2 0x36B JUMP JUMPDEST JUMPDEST PUSH1 0x1 DUP3 ADD SWAP1 POP SWAP2 SWAP1 POP JUMP JUMPDEST PUSH0 PUSH2 0x3CA DUP3 PUSH2 0x289 JUMP JUMPDEST SWAP2 POP PUSH32 0x7FFFFFFFFFFFFFFFFFFFFFFFFFFFFFFFFFFFFFFFFFFFFFFFFFFFFFFFFFFFFFFF DUP3 SUB PUSH2 0x3FC JUMPI PUSH2 0x3FB PUSH2 0x36B JUMP JUMPDEST JUMPDEST PUSH1 0x1 DUP3 ADD SWAP1 POP SWAP2 SWAP1 POP JUMP INVALID LOG2 PUSH5 0x6970667358 0x22 SLT KECCAK256 PUSH14 0x52B2694D034F6DAED5CD92A0DF3D SLOAD 0xE SLOAD SWAP16 0xEE 0xE3 0xAD SWAP7 JUMPI PUSH27 0x94327714571E0464736F6C634300081A0033000000000000000000 "
				},
				"gasEstimates": {
					"creation": {
						"codeDepositCost": "217000",
						"executionCost": "46627",
						"totalCost": "263627"
					},
					"external": {
						"incrementInt()": "24563",
						"incrementUint8()": "26695",
						"myBool()": "2530",
						"myInt()": "2470",
						"myUint()": "2426",
						"myUint8()": "2510",
						"setMyInt(uint256)": "22537",
						"setMybool(bool)": "24699"
					}
				},
				"methodIdentifiers": {
					"incrementInt()": "f102a71d",
					"incrementUint8()": "84ea3606",
					"myBool()": "6deecdbe",
					"myInt()": "2cb777a6",
					"myUint()": "06540f7e",
					"myUint8()": "e2a4b2af",
					"setMyInt(uint256)": "a6504657",
					"setMybool(bool)": "19621ed3"
				}
			},
			"storageLayout": {
				"storage": [
					{
						"astId": 3,
						"contract": "contracts/Variables.sol:Variables",
						"label": "myBool",
						"offset": 0,
						"slot": "0",
						"type": "t_bool"
					},
					{
						"astId": 16,
						"contract": "contracts/Variables.sol:Variables",
						"label": "myUint",
						"offset": 0,
						"slot": "1",
						"type": "t_uint256"
					},
					{
						"astId": 29,
						"contract": "contracts/Variables.sol:Variables",
						"label": "myUint8",
						"offset": 0,
						"slot": "2",
						"type": "t_uint8"
					},
					{
						"astId": 40,
						"contract": "contracts/Variables.sol:Variables",
						"label": "myInt",
						"offset": 0,
						"slot": "3",
						"type": "t_int256"
					}
				],
				"types": {
					"t_bool": {
						"encoding": "inplace",
						"label": "bool",
						"numberOfBytes": "1"
					},
					"t_int256": {
						"encoding": "inplace",
						"label": "int256",
						"numberOfBytes": "32"
					},
					"t_uint256": {
						"encoding": "inplace",
						"label": "uint256",
						"numberOfBytes": "32"
					},
					"t_uint8": {
						"encoding": "inplace",
						"label": "uint8",
						"numberOfBytes": "1"
					}
				}
			},
			"userdoc": {
				"kind": "user",
				"methods": {},
				"version": 1
			}
		}
	}
}