{
	"contracts/Block_4/Modifiers.sol": {
		"Modifiers": {
			"abi": [
				{
					"inputs": [],
					"stateMutability": "nonpayable",
					"type": "constructor"
				},
				{
					"inputs": [],
					"name": "burnToken",
					"outputs": [],
					"stateMutability": "nonpayable",
					"type": "function"
				},
				{
					"inputs": [],
					"name": "createNewToken",
					"outputs": [],
					"stateMutability": "nonpayable",
					"type": "function"
				},
				{
					"inputs": [],
					"name": "purchaseToken",
					"outputs": [],
					"stateMutability": "payable",
					"type": "function"
				},
				{
					"inputs": [
						{
							"internalType": "address",
							"name": "_to",
							"type": "address"
						},
						{
							"internalType": "uint256",
							"name": "_amount",
							"type": "uint256"
						}
					],
					"name": "sendToken",
					"outputs": [],
					"stateMutability": "nonpayable",
					"type": "function"
				},
				{
					"inputs": [
						{
							"internalType": "address",
							"name": "",
							"type": "address"
						}
					],
					"name": "tokenBalance",
					"outputs": [
						{
							"internalType": "uint256",
							"name": "",
							"type": "uint256"
						}
					],
					"stateMutability": "view",
					"type": "function"
				}
			],
			"devdoc": {
				"kind": "dev",
				"methods": {},
				"version": 1
			},
			"evm": {
				"assembly": "    /* \"contracts/Block_4/Modifiers.sol\":628:1820  contract Modifiers is Owner{... */\n  mstore(0x40, 0x80)\n    /* \"contracts/Block_4/Modifiers.sol\":760:767  1 ether */\n  0x0de0b6b3a7640000\n    /* \"contracts/Block_4/Modifiers.sol\":742:767  uint tokenPrice = 1 ether */\n  0x02\n  sstore\n    /* \"contracts/Block_4/Modifiers.sol\":776:834  constructor() {... */\n  callvalue\n  dup1\n  iszero\n  tag_1\n  jumpi\n  0x00\n  dup1\n  revert\ntag_1:\n  pop\n    /* \"contracts/Block_4/Owner.sol\":145:155  msg.sender */\n  caller\n    /* \"contracts/Block_4/Owner.sol\":137:142  owner */\n  0x00\n  dup1\n    /* \"contracts/Block_4/Owner.sol\":137:155  owner = msg.sender */\n  0x0100\n  exp\n  dup2\n  sload\n  dup2\n  0xffffffffffffffffffffffffffffffffffffffff\n  mul\n  not\n  and\n  swap1\n  dup4\n  0xffffffffffffffffffffffffffffffffffffffff\n  and\n  mul\n  or\n  swap1\n  sstore\n  pop\n    /* \"contracts/Block_4/Modifiers.sol\":823:826  100 */\n  0x64\n    /* \"contracts/Block_4/Modifiers.sol\":801:813  tokenBalance */\n  0x01\n    /* \"contracts/Block_4/Modifiers.sol\":801:820  tokenBalance[owner] */\n  0x00\n    /* \"contracts/Block_4/Modifiers.sol\":814:819  owner */\n  dup1\n  0x00\n  swap1\n  sload\n  swap1\n  0x0100\n  exp\n  swap1\n  div\n  0xffffffffffffffffffffffffffffffffffffffff\n  and\n    /* \"contracts/Block_4/Modifiers.sol\":801:820  tokenBalance[owner] */\n  0xffffffffffffffffffffffffffffffffffffffff\n  and\n  0xffffffffffffffffffffffffffffffffffffffff\n  and\n  dup2\n  mstore\n  0x20\n  add\n  swap1\n  dup2\n  mstore\n  0x20\n  add\n  0x00\n  keccak256\n    /* \"contracts/Block_4/Modifiers.sol\":801:826  tokenBalance[owner] = 100 */\n  dup2\n  swap1\n  sstore\n  pop\n    /* \"contracts/Block_4/Modifiers.sol\":628:1820  contract Modifiers is Owner{... */\n  dataSize(sub_0)\n  dup1\n  dataOffset(sub_0)\n  0x00\n  codecopy\n  0x00\n  return\nstop\n\nsub_0: assembly {\n        /* \"contracts/Block_4/Modifiers.sol\":628:1820  contract Modifiers is Owner{... */\n      mstore(0x40, 0x80)\n      jumpi(tag_1, lt(calldatasize, 0x04))\n      shr(0xe0, calldataload(0x00))\n      dup1\n      0x412664ae\n      eq\n      tag_2\n      jumpi\n      dup1\n      0x754fc38c\n      eq\n      tag_3\n      jumpi\n      dup1\n      0xa95c4d62\n      eq\n      tag_4\n      jumpi\n      dup1\n      0xeedc966a\n      eq\n      tag_5\n      jumpi\n      dup1\n      0xfaa0a264\n      eq\n      tag_6\n      jumpi\n    tag_1:\n      0x00\n      dup1\n      revert\n        /* \"contracts/Block_4/Modifiers.sol\":1595:1817  function sendToken(address _to, uint _amount) public {... */\n    tag_2:\n      callvalue\n      dup1\n      iszero\n      tag_7\n      jumpi\n      0x00\n      dup1\n      revert\n    tag_7:\n      pop\n      tag_8\n      0x04\n      dup1\n      calldatasize\n      sub\n      dup2\n      add\n      swap1\n      tag_9\n      swap2\n      swap1\n      tag_10\n      jump\t// in\n    tag_9:\n      tag_11\n      jump\t// in\n    tag_8:\n      stop\n        /* \"contracts/Block_4/Modifiers.sol\":996:1143  function createNewToken() public onlyOwner{... */\n    tag_3:\n      callvalue\n      dup1\n      iszero\n      tag_12\n      jumpi\n      0x00\n      dup1\n      revert\n    tag_12:\n      pop\n      tag_13\n      tag_14\n      jump\t// in\n    tag_13:\n      stop\n        /* \"contracts/Block_4/Modifiers.sol\":1331:1587  function purchaseToken() public payable {... */\n    tag_4:\n      tag_15\n      tag_16\n      jump\t// in\n    tag_15:\n      stop\n        /* \"contracts/Block_4/Modifiers.sol\":664:708  mapping(address => uint) public tokenBalance */\n    tag_5:\n      callvalue\n      dup1\n      iszero\n      tag_17\n      jumpi\n      0x00\n      dup1\n      revert\n    tag_17:\n      pop\n      tag_18\n      0x04\n      dup1\n      calldatasize\n      sub\n      dup2\n      add\n      swap1\n      tag_19\n      swap2\n      swap1\n      tag_20\n      jump\t// in\n    tag_19:\n      tag_21\n      jump\t// in\n    tag_18:\n      mload(0x40)\n      tag_22\n      swap2\n      swap1\n      tag_23\n      jump\t// in\n    tag_22:\n      mload(0x40)\n      dup1\n      swap2\n      sub\n      swap1\n      return\n        /* \"contracts/Block_4/Modifiers.sol\":1151:1323  function burnToken() public onlyOwner tokenBalanceMod(tokenBalance){... */\n    tag_6:\n      callvalue\n      dup1\n      iszero\n      tag_24\n      jumpi\n      0x00\n      dup1\n      revert\n    tag_24:\n      pop\n      tag_25\n      tag_26\n      jump\t// in\n    tag_25:\n      stop\n        /* \"contracts/Block_4/Modifiers.sol\":1595:1817  function sendToken(address _to, uint _amount) public {... */\n    tag_11:\n        /* \"contracts/Block_4/Modifiers.sol\":1695:1702  _amount */\n      dup1\n        /* \"contracts/Block_4/Modifiers.sol\":1667:1679  tokenBalance */\n      0x01\n        /* \"contracts/Block_4/Modifiers.sol\":1667:1691  tokenBalance[msg.sender] */\n      0x00\n        /* \"contracts/Block_4/Modifiers.sol\":1680:1690  msg.sender */\n      caller\n        /* \"contracts/Block_4/Modifiers.sol\":1667:1691  tokenBalance[msg.sender] */\n      0xffffffffffffffffffffffffffffffffffffffff\n      and\n      0xffffffffffffffffffffffffffffffffffffffff\n      and\n      dup2\n      mstore\n      0x20\n      add\n      swap1\n      dup2\n      mstore\n      0x20\n      add\n      0x00\n      keccak256\n      sload\n        /* \"contracts/Block_4/Modifiers.sol\":1667:1702  tokenBalance[msg.sender] >= _amount */\n      lt\n      iszero\n        /* \"contracts/Block_4/Modifiers.sol\":1659:1724  require(tokenBalance[msg.sender] >= _amount, \"Not enough tokens\") */\n      tag_28\n      jumpi\n      mload(0x40)\n      0x08c379a000000000000000000000000000000000000000000000000000000000\n      dup2\n      mstore\n      0x04\n      add\n      tag_29\n      swap1\n      tag_30\n      jump\t// in\n    tag_29:\n      mload(0x40)\n      dup1\n      swap2\n      sub\n      swap1\n      revert\n    tag_28:\n        /* \"contracts/Block_4/Modifiers.sol\":1763:1770  _amount */\n      dup1\n        /* \"contracts/Block_4/Modifiers.sol\":1735:1747  tokenBalance */\n      0x01\n        /* \"contracts/Block_4/Modifiers.sol\":1735:1759  tokenBalance[msg.sender] */\n      0x00\n        /* \"contracts/Block_4/Modifiers.sol\":1748:1758  msg.sender */\n      caller\n        /* \"contracts/Block_4/Modifiers.sol\":1735:1759  tokenBalance[msg.sender] */\n      0xffffffffffffffffffffffffffffffffffffffff\n      and\n      0xffffffffffffffffffffffffffffffffffffffff\n      and\n      dup2\n      mstore\n      0x20\n      add\n      swap1\n      dup2\n      mstore\n      0x20\n      add\n      0x00\n      keccak256\n      0x00\n        /* \"contracts/Block_4/Modifiers.sol\":1735:1770  tokenBalance[msg.sender] -= _amount */\n      dup3\n      dup3\n      sload\n      tag_31\n      swap2\n      swap1\n      tag_32\n      jump\t// in\n    tag_31:\n      swap3\n      pop\n      pop\n      dup2\n      swap1\n      sstore\n      pop\n        /* \"contracts/Block_4/Modifiers.sol\":1802:1809  _amount */\n      dup1\n        /* \"contracts/Block_4/Modifiers.sol\":1781:1793  tokenBalance */\n      0x01\n        /* \"contracts/Block_4/Modifiers.sol\":1781:1798  tokenBalance[_to] */\n      0x00\n        /* \"contracts/Block_4/Modifiers.sol\":1794:1797  _to */\n      dup5\n        /* \"contracts/Block_4/Modifiers.sol\":1781:1798  tokenBalance[_to] */\n      0xffffffffffffffffffffffffffffffffffffffff\n      and\n      0xffffffffffffffffffffffffffffffffffffffff\n      and\n      dup2\n      mstore\n      0x20\n      add\n      swap1\n      dup2\n      mstore\n      0x20\n      add\n      0x00\n      keccak256\n      0x00\n        /* \"contracts/Block_4/Modifiers.sol\":1781:1809  tokenBalance[_to] += _amount */\n      dup3\n      dup3\n      sload\n      tag_33\n      swap2\n      swap1\n      tag_34\n      jump\t// in\n    tag_33:\n      swap3\n      pop\n      pop\n      dup2\n      swap1\n      sstore\n      pop\n        /* \"contracts/Block_4/Modifiers.sol\":1595:1817  function sendToken(address _to, uint _amount) public {... */\n      pop\n      pop\n      jump\t// out\n        /* \"contracts/Block_4/Modifiers.sol\":996:1143  function createNewToken() public onlyOwner{... */\n    tag_14:\n        /* \"contracts/Block_4/Modifiers.sol\":930:935  owner */\n      0x00\n      dup1\n      sload\n      swap1\n      0x0100\n      exp\n      swap1\n      div\n      0xffffffffffffffffffffffffffffffffffffffff\n      and\n        /* \"contracts/Block_4/Modifiers.sol\":916:935  msg.sender == owner */\n      0xffffffffffffffffffffffffffffffffffffffff\n      and\n        /* \"contracts/Block_4/Modifiers.sol\":916:926  msg.sender */\n      caller\n        /* \"contracts/Block_4/Modifiers.sol\":916:935  msg.sender == owner */\n      0xffffffffffffffffffffffffffffffffffffffff\n      and\n      eq\n        /* \"contracts/Block_4/Modifiers.sol\":908:968  require(msg.sender == owner, \"Overriden onlyOwner modifier\") */\n      tag_36\n      jumpi\n      mload(0x40)\n      0x08c379a000000000000000000000000000000000000000000000000000000000\n      dup2\n      mstore\n      0x04\n      add\n      tag_37\n      swap1\n      tag_38\n      jump\t// in\n    tag_37:\n      mload(0x40)\n      dup1\n      swap2\n      sub\n      swap1\n      revert\n    tag_36:\n        /* \"contracts/Block_4/Modifiers.sol\":1114:1126  tokenBalance */\n      0x01\n        /* \"contracts/Block_4/Modifiers.sol\":1114:1133  tokenBalance[owner] */\n      0x00\n        /* \"contracts/Block_4/Modifiers.sol\":1127:1132  owner */\n      dup1\n      0x00\n      swap1\n      sload\n      swap1\n      0x0100\n      exp\n      swap1\n      div\n      0xffffffffffffffffffffffffffffffffffffffff\n      and\n        /* \"contracts/Block_4/Modifiers.sol\":1114:1133  tokenBalance[owner] */\n      0xffffffffffffffffffffffffffffffffffffffff\n      and\n      0xffffffffffffffffffffffffffffffffffffffff\n      and\n      dup2\n      mstore\n      0x20\n      add\n      swap1\n      dup2\n      mstore\n      0x20\n      add\n      0x00\n      keccak256\n      0x00\n        /* \"contracts/Block_4/Modifiers.sol\":1114:1135  tokenBalance[owner]++ */\n      dup2\n      sload\n      dup1\n      swap3\n      swap2\n      swap1\n      tag_40\n      swap1\n      tag_41\n      jump\t// in\n    tag_40:\n      swap2\n      swap1\n      pop\n      sstore\n      pop\n        /* \"contracts/Block_4/Modifiers.sol\":996:1143  function createNewToken() public onlyOwner{... */\n      jump\t// out\n        /* \"contracts/Block_4/Modifiers.sol\":1331:1587  function purchaseToken() public payable {... */\n    tag_16:\n        /* \"contracts/Block_4/Modifiers.sol\":1439:1440  0 */\n      0x00\n        /* \"contracts/Block_4/Modifiers.sol\":1427:1436  msg.value */\n      callvalue\n        /* \"contracts/Block_4/Modifiers.sol\":1413:1423  tokenPrice */\n      sload(0x02)\n        /* \"contracts/Block_4/Modifiers.sol\":1391:1403  tokenBalance */\n      0x01\n        /* \"contracts/Block_4/Modifiers.sol\":1391:1410  tokenBalance[owner] */\n      0x00\n        /* \"contracts/Block_4/Modifiers.sol\":1404:1409  owner */\n      dup1\n      0x00\n      swap1\n      sload\n      swap1\n      0x0100\n      exp\n      swap1\n      div\n      0xffffffffffffffffffffffffffffffffffffffff\n      and\n        /* \"contracts/Block_4/Modifiers.sol\":1391:1410  tokenBalance[owner] */\n      0xffffffffffffffffffffffffffffffffffffffff\n      and\n      0xffffffffffffffffffffffffffffffffffffffff\n      and\n      dup2\n      mstore\n      0x20\n      add\n      swap1\n      dup2\n      mstore\n      0x20\n      add\n      0x00\n      keccak256\n      sload\n        /* \"contracts/Block_4/Modifiers.sol\":1391:1423  tokenBalance[owner] * tokenPrice */\n      tag_43\n      swap2\n      swap1\n      tag_44\n      jump\t// in\n    tag_43:\n        /* \"contracts/Block_4/Modifiers.sol\":1390:1436  (tokenBalance[owner] * tokenPrice) / msg.value */\n      tag_45\n      swap2\n      swap1\n      tag_46\n      jump\t// in\n    tag_45:\n        /* \"contracts/Block_4/Modifiers.sol\":1390:1440  (tokenBalance[owner] * tokenPrice) / msg.value > 0 */\n      gt\n        /* \"contracts/Block_4/Modifiers.sol\":1382:1462  require((tokenBalance[owner] * tokenPrice) / msg.value > 0, \"not enough tokens\") */\n      tag_47\n      jumpi\n      mload(0x40)\n      0x08c379a000000000000000000000000000000000000000000000000000000000\n      dup2\n      mstore\n      0x04\n      add\n      tag_48\n      swap1\n      tag_49\n      jump\t// in\n    tag_48:\n      mload(0x40)\n      dup1\n      swap2\n      sub\n      swap1\n      revert\n    tag_47:\n        /* \"contracts/Block_4/Modifiers.sol\":1508:1518  tokenPrice */\n      sload(0x02)\n        /* \"contracts/Block_4/Modifiers.sol\":1496:1505  msg.value */\n      callvalue\n        /* \"contracts/Block_4/Modifiers.sol\":1496:1518  msg.value / tokenPrice */\n      tag_50\n      swap2\n      swap1\n      tag_46\n      jump\t// in\n    tag_50:\n        /* \"contracts/Block_4/Modifiers.sol\":1473:1485  tokenBalance */\n      0x01\n        /* \"contracts/Block_4/Modifiers.sol\":1473:1492  tokenBalance[owner] */\n      0x00\n        /* \"contracts/Block_4/Modifiers.sol\":1486:1491  owner */\n      dup1\n      0x00\n      swap1\n      sload\n      swap1\n      0x0100\n      exp\n      swap1\n      div\n      0xffffffffffffffffffffffffffffffffffffffff\n      and\n        /* \"contracts/Block_4/Modifiers.sol\":1473:1492  tokenBalance[owner] */\n      0xffffffffffffffffffffffffffffffffffffffff\n      and\n      0xffffffffffffffffffffffffffffffffffffffff\n      and\n      dup2\n      mstore\n      0x20\n      add\n      swap1\n      dup2\n      mstore\n      0x20\n      add\n      0x00\n      keccak256\n      0x00\n        /* \"contracts/Block_4/Modifiers.sol\":1473:1518  tokenBalance[owner] -= msg.value / tokenPrice */\n      dup3\n      dup3\n      sload\n      tag_51\n      swap2\n      swap1\n      tag_32\n      jump\t// in\n    tag_51:\n      swap3\n      pop\n      pop\n      dup2\n      swap1\n      sstore\n      pop\n        /* \"contracts/Block_4/Modifiers.sol\":1569:1579  tokenPrice */\n      sload(0x02)\n        /* \"contracts/Block_4/Modifiers.sol\":1557:1566  msg.value */\n      callvalue\n        /* \"contracts/Block_4/Modifiers.sol\":1557:1579  msg.value / tokenPrice */\n      tag_52\n      swap2\n      swap1\n      tag_46\n      jump\t// in\n    tag_52:\n        /* \"contracts/Block_4/Modifiers.sol\":1529:1541  tokenBalance */\n      0x01\n        /* \"contracts/Block_4/Modifiers.sol\":1529:1553  tokenBalance[msg.sender] */\n      0x00\n        /* \"contracts/Block_4/Modifiers.sol\":1542:1552  msg.sender */\n      caller\n        /* \"contracts/Block_4/Modifiers.sol\":1529:1553  tokenBalance[msg.sender] */\n      0xffffffffffffffffffffffffffffffffffffffff\n      and\n      0xffffffffffffffffffffffffffffffffffffffff\n      and\n      dup2\n      mstore\n      0x20\n      add\n      swap1\n      dup2\n      mstore\n      0x20\n      add\n      0x00\n      keccak256\n      0x00\n        /* \"contracts/Block_4/Modifiers.sol\":1529:1579  tokenBalance[msg.sender] += msg.value / tokenPrice */\n      dup3\n      dup3\n      sload\n      tag_53\n      swap2\n      swap1\n      tag_34\n      jump\t// in\n    tag_53:\n      swap3\n      pop\n      pop\n      dup2\n      swap1\n      sstore\n      pop\n        /* \"contracts/Block_4/Modifiers.sol\":1331:1587  function purchaseToken() public payable {... */\n      jump\t// out\n        /* \"contracts/Block_4/Modifiers.sol\":664:708  mapping(address => uint) public tokenBalance */\n    tag_21:\n      mstore(0x20, 0x01)\n      dup1\n      0x00\n      mstore\n      keccak256(0x00, 0x40)\n      0x00\n      swap2\n      pop\n      swap1\n      pop\n      sload\n      dup2\n      jump\t// out\n        /* \"contracts/Block_4/Modifiers.sol\":1151:1323  function burnToken() public onlyOwner tokenBalanceMod(tokenBalance){... */\n    tag_26:\n        /* \"contracts/Block_4/Modifiers.sol\":930:935  owner */\n      0x00\n      dup1\n      sload\n      swap1\n      0x0100\n      exp\n      swap1\n      div\n      0xffffffffffffffffffffffffffffffffffffffff\n      and\n        /* \"contracts/Block_4/Modifiers.sol\":916:935  msg.sender == owner */\n      0xffffffffffffffffffffffffffffffffffffffff\n      and\n        /* \"contracts/Block_4/Modifiers.sol\":916:926  msg.sender */\n      caller\n        /* \"contracts/Block_4/Modifiers.sol\":916:935  msg.sender == owner */\n      0xffffffffffffffffffffffffffffffffffffffff\n      and\n      eq\n        /* \"contracts/Block_4/Modifiers.sol\":908:968  require(msg.sender == owner, \"Overriden onlyOwner modifier\") */\n      tag_55\n      jumpi\n      mload(0x40)\n      0x08c379a000000000000000000000000000000000000000000000000000000000\n      dup2\n      mstore\n      0x04\n      add\n      tag_56\n      swap1\n      tag_38\n      jump\t// in\n    tag_56:\n      mload(0x40)\n      dup1\n      swap2\n      sub\n      swap1\n      revert\n    tag_55:\n        /* \"contracts/Block_4/Modifiers.sol\":1205:1217  tokenBalance */\n      0x01\n        /* \"contracts/Block_4/Owner.sol\":402:405  100 */\n      0x64\n        /* \"contracts/Block_4/Owner.sol\":374:386  tokenBalance */\n      dup2\n        /* \"contracts/Block_4/Owner.sol\":374:398  tokenBalance[msg.sender] */\n      0x00\n        /* \"contracts/Block_4/Owner.sol\":387:397  msg.sender */\n      caller\n        /* \"contracts/Block_4/Owner.sol\":374:398  tokenBalance[msg.sender] */\n      0xffffffffffffffffffffffffffffffffffffffff\n      and\n      0xffffffffffffffffffffffffffffffffffffffff\n      and\n      dup2\n      mstore\n      0x20\n      add\n      swap1\n      dup2\n      mstore\n      0x20\n      add\n      0x00\n      keccak256\n      sload\n        /* \"contracts/Block_4/Owner.sol\":374:405  tokenBalance[msg.sender] >= 100 */\n      lt\n        /* \"contracts/Block_4/Owner.sol\":371:524  if(tokenBalance[msg.sender] >= 100){... */\n      tag_58\n      jumpi\n        /* \"contracts/Block_4/Modifiers.sol\":1294:1306  tokenBalance */\n      0x01\n        /* \"contracts/Block_4/Modifiers.sol\":1294:1313  tokenBalance[owner] */\n      0x00\n        /* \"contracts/Block_4/Modifiers.sol\":1307:1312  owner */\n      dup1\n      0x00\n      swap1\n      sload\n      swap1\n      0x0100\n      exp\n      swap1\n      div\n      0xffffffffffffffffffffffffffffffffffffffff\n      and\n        /* \"contracts/Block_4/Modifiers.sol\":1294:1313  tokenBalance[owner] */\n      0xffffffffffffffffffffffffffffffffffffffff\n      and\n      0xffffffffffffffffffffffffffffffffffffffff\n      and\n      dup2\n      mstore\n      0x20\n      add\n      swap1\n      dup2\n      mstore\n      0x20\n      add\n      0x00\n      keccak256\n      0x00\n        /* \"contracts/Block_4/Modifiers.sol\":1294:1315  tokenBalance[owner]-- */\n      dup2\n      sload\n      dup1\n      swap3\n      swap2\n      swap1\n      tag_60\n      swap1\n      tag_61\n      jump\t// in\n    tag_60:\n      swap2\n      swap1\n      pop\n      sstore\n      pop\n        /* \"contracts/Block_4/Owner.sol\":371:524  if(tokenBalance[msg.sender] >= 100){... */\n      jump(tag_62)\n    tag_58:\n        /* \"contracts/Block_4/Owner.sol\":453:512  revert(\"Owner token balance must be more then 100 tokens!\") */\n      mload(0x40)\n      0x08c379a000000000000000000000000000000000000000000000000000000000\n      dup2\n      mstore\n      0x04\n      add\n      tag_63\n      swap1\n      tag_64\n      jump\t// in\n    tag_63:\n      mload(0x40)\n      dup1\n      swap2\n      sub\n      swap1\n      revert\n        /* \"contracts/Block_4/Owner.sol\":371:524  if(tokenBalance[msg.sender] >= 100){... */\n    tag_62:\n        /* \"contracts/Block_4/Modifiers.sol\":979:980  _ */\n      pop\n        /* \"contracts/Block_4/Modifiers.sol\":1151:1323  function burnToken() public onlyOwner tokenBalanceMod(tokenBalance){... */\n      jump\t// out\n        /* \"#utility.yul\":88:205   */\n    tag_66:\n        /* \"#utility.yul\":197:198   */\n      0x00\n        /* \"#utility.yul\":194:195   */\n      dup1\n        /* \"#utility.yul\":187:199   */\n      revert\n        /* \"#utility.yul\":334:460   */\n    tag_68:\n        /* \"#utility.yul\":371:378   */\n      0x00\n        /* \"#utility.yul\":411:453   */\n      0xffffffffffffffffffffffffffffffffffffffff\n        /* \"#utility.yul\":404:409   */\n      dup3\n        /* \"#utility.yul\":400:454   */\n      and\n        /* \"#utility.yul\":389:454   */\n      swap1\n      pop\n        /* \"#utility.yul\":334:460   */\n      swap2\n      swap1\n      pop\n      jump\t// out\n        /* \"#utility.yul\":466:562   */\n    tag_69:\n        /* \"#utility.yul\":503:510   */\n      0x00\n        /* \"#utility.yul\":532:556   */\n      tag_93\n        /* \"#utility.yul\":550:555   */\n      dup3\n        /* \"#utility.yul\":532:556   */\n      tag_68\n      jump\t// in\n    tag_93:\n        /* \"#utility.yul\":521:556   */\n      swap1\n      pop\n        /* \"#utility.yul\":466:562   */\n      swap2\n      swap1\n      pop\n      jump\t// out\n        /* \"#utility.yul\":568:690   */\n    tag_70:\n        /* \"#utility.yul\":641:665   */\n      tag_95\n        /* \"#utility.yul\":659:664   */\n      dup2\n        /* \"#utility.yul\":641:665   */\n      tag_69\n      jump\t// in\n    tag_95:\n        /* \"#utility.yul\":634:639   */\n      dup2\n        /* \"#utility.yul\":631:666   */\n      eq\n        /* \"#utility.yul\":621:684   */\n      tag_96\n      jumpi\n        /* \"#utility.yul\":680:681   */\n      0x00\n        /* \"#utility.yul\":677:678   */\n      dup1\n        /* \"#utility.yul\":670:682   */\n      revert\n        /* \"#utility.yul\":621:684   */\n    tag_96:\n        /* \"#utility.yul\":568:690   */\n      pop\n      jump\t// out\n        /* \"#utility.yul\":696:835   */\n    tag_71:\n        /* \"#utility.yul\":742:747   */\n      0x00\n        /* \"#utility.yul\":780:786   */\n      dup2\n        /* \"#utility.yul\":767:787   */\n      calldataload\n        /* \"#utility.yul\":758:787   */\n      swap1\n      pop\n        /* \"#utility.yul\":796:829   */\n      tag_98\n        /* \"#utility.yul\":823:828   */\n      dup2\n        /* \"#utility.yul\":796:829   */\n      tag_70\n      jump\t// in\n    tag_98:\n        /* \"#utility.yul\":696:835   */\n      swap3\n      swap2\n      pop\n      pop\n      jump\t// out\n        /* \"#utility.yul\":841:918   */\n    tag_72:\n        /* \"#utility.yul\":878:885   */\n      0x00\n        /* \"#utility.yul\":907:912   */\n      dup2\n        /* \"#utility.yul\":896:912   */\n      swap1\n      pop\n        /* \"#utility.yul\":841:918   */\n      swap2\n      swap1\n      pop\n      jump\t// out\n        /* \"#utility.yul\":924:1046   */\n    tag_73:\n        /* \"#utility.yul\":997:1021   */\n      tag_101\n        /* \"#utility.yul\":1015:1020   */\n      dup2\n        /* \"#utility.yul\":997:1021   */\n      tag_72\n      jump\t// in\n    tag_101:\n        /* \"#utility.yul\":990:995   */\n      dup2\n        /* \"#utility.yul\":987:1022   */\n      eq\n        /* \"#utility.yul\":977:1040   */\n      tag_102\n      jumpi\n        /* \"#utility.yul\":1036:1037   */\n      0x00\n        /* \"#utility.yul\":1033:1034   */\n      dup1\n        /* \"#utility.yul\":1026:1038   */\n      revert\n        /* \"#utility.yul\":977:1040   */\n    tag_102:\n        /* \"#utility.yul\":924:1046   */\n      pop\n      jump\t// out\n        /* \"#utility.yul\":1052:1191   */\n    tag_74:\n        /* \"#utility.yul\":1098:1103   */\n      0x00\n        /* \"#utility.yul\":1136:1142   */\n      dup2\n        /* \"#utility.yul\":1123:1143   */\n      calldataload\n        /* \"#utility.yul\":1114:1143   */\n      swap1\n      pop\n        /* \"#utility.yul\":1152:1185   */\n      tag_104\n        /* \"#utility.yul\":1179:1184   */\n      dup2\n        /* \"#utility.yul\":1152:1185   */\n      tag_73\n      jump\t// in\n    tag_104:\n        /* \"#utility.yul\":1052:1191   */\n      swap3\n      swap2\n      pop\n      pop\n      jump\t// out\n        /* \"#utility.yul\":1197:1671   */\n    tag_10:\n        /* \"#utility.yul\":1265:1271   */\n      0x00\n        /* \"#utility.yul\":1273:1279   */\n      dup1\n        /* \"#utility.yul\":1322:1324   */\n      0x40\n        /* \"#utility.yul\":1310:1319   */\n      dup4\n        /* \"#utility.yul\":1301:1308   */\n      dup6\n        /* \"#utility.yul\":1297:1320   */\n      sub\n        /* \"#utility.yul\":1293:1325   */\n      slt\n        /* \"#utility.yul\":1290:1409   */\n      iszero\n      tag_106\n      jumpi\n        /* \"#utility.yul\":1328:1407   */\n      tag_107\n      tag_66\n      jump\t// in\n    tag_107:\n        /* \"#utility.yul\":1290:1409   */\n    tag_106:\n        /* \"#utility.yul\":1448:1449   */\n      0x00\n        /* \"#utility.yul\":1473:1526   */\n      tag_108\n        /* \"#utility.yul\":1518:1525   */\n      dup6\n        /* \"#utility.yul\":1509:1515   */\n      dup3\n        /* \"#utility.yul\":1498:1507   */\n      dup7\n        /* \"#utility.yul\":1494:1516   */\n      add\n        /* \"#utility.yul\":1473:1526   */\n      tag_71\n      jump\t// in\n    tag_108:\n        /* \"#utility.yul\":1463:1526   */\n      swap3\n      pop\n        /* \"#utility.yul\":1419:1536   */\n      pop\n        /* \"#utility.yul\":1575:1577   */\n      0x20\n        /* \"#utility.yul\":1601:1654   */\n      tag_109\n        /* \"#utility.yul\":1646:1653   */\n      dup6\n        /* \"#utility.yul\":1637:1643   */\n      dup3\n        /* \"#utility.yul\":1626:1635   */\n      dup7\n        /* \"#utility.yul\":1622:1644   */\n      add\n        /* \"#utility.yul\":1601:1654   */\n      tag_74\n      jump\t// in\n    tag_109:\n        /* \"#utility.yul\":1591:1654   */\n      swap2\n      pop\n        /* \"#utility.yul\":1546:1664   */\n      pop\n        /* \"#utility.yul\":1197:1671   */\n      swap3\n      pop\n      swap3\n      swap1\n      pop\n      jump\t// out\n        /* \"#utility.yul\":1677:2006   */\n    tag_20:\n        /* \"#utility.yul\":1736:1742   */\n      0x00\n        /* \"#utility.yul\":1785:1787   */\n      0x20\n        /* \"#utility.yul\":1773:1782   */\n      dup3\n        /* \"#utility.yul\":1764:1771   */\n      dup5\n        /* \"#utility.yul\":1760:1783   */\n      sub\n        /* \"#utility.yul\":1756:1788   */\n      slt\n        /* \"#utility.yul\":1753:1872   */\n      iszero\n      tag_111\n      jumpi\n        /* \"#utility.yul\":1791:1870   */\n      tag_112\n      tag_66\n      jump\t// in\n    tag_112:\n        /* \"#utility.yul\":1753:1872   */\n    tag_111:\n        /* \"#utility.yul\":1911:1912   */\n      0x00\n        /* \"#utility.yul\":1936:1989   */\n      tag_113\n        /* \"#utility.yul\":1981:1988   */\n      dup5\n        /* \"#utility.yul\":1972:1978   */\n      dup3\n        /* \"#utility.yul\":1961:1970   */\n      dup6\n        /* \"#utility.yul\":1957:1979   */\n      add\n        /* \"#utility.yul\":1936:1989   */\n      tag_71\n      jump\t// in\n    tag_113:\n        /* \"#utility.yul\":1926:1989   */\n      swap2\n      pop\n        /* \"#utility.yul\":1882:1999   */\n      pop\n        /* \"#utility.yul\":1677:2006   */\n      swap3\n      swap2\n      pop\n      pop\n      jump\t// out\n        /* \"#utility.yul\":2012:2130   */\n    tag_75:\n        /* \"#utility.yul\":2099:2123   */\n      tag_115\n        /* \"#utility.yul\":2117:2122   */\n      dup2\n        /* \"#utility.yul\":2099:2123   */\n      tag_72\n      jump\t// in\n    tag_115:\n        /* \"#utility.yul\":2094:2097   */\n      dup3\n        /* \"#utility.yul\":2087:2124   */\n      mstore\n        /* \"#utility.yul\":2012:2130   */\n      pop\n      pop\n      jump\t// out\n        /* \"#utility.yul\":2136:2358   */\n    tag_23:\n        /* \"#utility.yul\":2229:2233   */\n      0x00\n        /* \"#utility.yul\":2267:2269   */\n      0x20\n        /* \"#utility.yul\":2256:2265   */\n      dup3\n        /* \"#utility.yul\":2252:2270   */\n      add\n        /* \"#utility.yul\":2244:2270   */\n      swap1\n      pop\n        /* \"#utility.yul\":2280:2351   */\n      tag_117\n        /* \"#utility.yul\":2348:2349   */\n      0x00\n        /* \"#utility.yul\":2337:2346   */\n      dup4\n        /* \"#utility.yul\":2333:2350   */\n      add\n        /* \"#utility.yul\":2324:2330   */\n      dup5\n        /* \"#utility.yul\":2280:2351   */\n      tag_75\n      jump\t// in\n    tag_117:\n        /* \"#utility.yul\":2136:2358   */\n      swap3\n      swap2\n      pop\n      pop\n      jump\t// out\n        /* \"#utility.yul\":2364:2533   */\n    tag_76:\n        /* \"#utility.yul\":2448:2459   */\n      0x00\n        /* \"#utility.yul\":2482:2488   */\n      dup3\n        /* \"#utility.yul\":2477:2480   */\n      dup3\n        /* \"#utility.yul\":2470:2489   */\n      mstore\n        /* \"#utility.yul\":2522:2526   */\n      0x20\n        /* \"#utility.yul\":2517:2520   */\n      dup3\n        /* \"#utility.yul\":2513:2527   */\n      add\n        /* \"#utility.yul\":2498:2527   */\n      swap1\n      pop\n        /* \"#utility.yul\":2364:2533   */\n      swap3\n      swap2\n      pop\n      pop\n      jump\t// out\n        /* \"#utility.yul\":2539:2706   */\n    tag_77:\n        /* \"#utility.yul\":2679:2698   */\n      0x4e6f7420656e6f75676820746f6b656e73000000000000000000000000000000\n        /* \"#utility.yul\":2675:2676   */\n      0x00\n        /* \"#utility.yul\":2667:2673   */\n      dup3\n        /* \"#utility.yul\":2663:2677   */\n      add\n        /* \"#utility.yul\":2656:2699   */\n      mstore\n        /* \"#utility.yul\":2539:2706   */\n      pop\n      jump\t// out\n        /* \"#utility.yul\":2712:3078   */\n    tag_78:\n        /* \"#utility.yul\":2854:2857   */\n      0x00\n        /* \"#utility.yul\":2875:2942   */\n      tag_121\n        /* \"#utility.yul\":2939:2941   */\n      0x11\n        /* \"#utility.yul\":2934:2937   */\n      dup4\n        /* \"#utility.yul\":2875:2942   */\n      tag_76\n      jump\t// in\n    tag_121:\n        /* \"#utility.yul\":2868:2942   */\n      swap2\n      pop\n        /* \"#utility.yul\":2951:3044   */\n      tag_122\n        /* \"#utility.yul\":3040:3043   */\n      dup3\n        /* \"#utility.yul\":2951:3044   */\n      tag_77\n      jump\t// in\n    tag_122:\n        /* \"#utility.yul\":3069:3071   */\n      0x20\n        /* \"#utility.yul\":3064:3067   */\n      dup3\n        /* \"#utility.yul\":3060:3072   */\n      add\n        /* \"#utility.yul\":3053:3072   */\n      swap1\n      pop\n        /* \"#utility.yul\":2712:3078   */\n      swap2\n      swap1\n      pop\n      jump\t// out\n        /* \"#utility.yul\":3084:3503   */\n    tag_30:\n        /* \"#utility.yul\":3250:3254   */\n      0x00\n        /* \"#utility.yul\":3288:3290   */\n      0x20\n        /* \"#utility.yul\":3277:3286   */\n      dup3\n        /* \"#utility.yul\":3273:3291   */\n      add\n        /* \"#utility.yul\":3265:3291   */\n      swap1\n      pop\n        /* \"#utility.yul\":3337:3346   */\n      dup2\n        /* \"#utility.yul\":3331:3335   */\n      dup2\n        /* \"#utility.yul\":3327:3347   */\n      sub\n        /* \"#utility.yul\":3323:3324   */\n      0x00\n        /* \"#utility.yul\":3312:3321   */\n      dup4\n        /* \"#utility.yul\":3308:3325   */\n      add\n        /* \"#utility.yul\":3301:3348   */\n      mstore\n        /* \"#utility.yul\":3365:3496   */\n      tag_124\n        /* \"#utility.yul\":3491:3495   */\n      dup2\n        /* \"#utility.yul\":3365:3496   */\n      tag_78\n      jump\t// in\n    tag_124:\n        /* \"#utility.yul\":3357:3496   */\n      swap1\n      pop\n        /* \"#utility.yul\":3084:3503   */\n      swap2\n      swap1\n      pop\n      jump\t// out\n        /* \"#utility.yul\":3509:3689   */\n    tag_79:\n        /* \"#utility.yul\":3557:3634   */\n      0x4e487b7100000000000000000000000000000000000000000000000000000000\n        /* \"#utility.yul\":3554:3555   */\n      0x00\n        /* \"#utility.yul\":3547:3635   */\n      mstore\n        /* \"#utility.yul\":3654:3658   */\n      0x11\n        /* \"#utility.yul\":3651:3652   */\n      0x04\n        /* \"#utility.yul\":3644:3659   */\n      mstore\n        /* \"#utility.yul\":3678:3682   */\n      0x24\n        /* \"#utility.yul\":3675:3676   */\n      0x00\n        /* \"#utility.yul\":3668:3683   */\n      revert\n        /* \"#utility.yul\":3695:3889   */\n    tag_32:\n        /* \"#utility.yul\":3735:3739   */\n      0x00\n        /* \"#utility.yul\":3755:3775   */\n      tag_127\n        /* \"#utility.yul\":3773:3774   */\n      dup3\n        /* \"#utility.yul\":3755:3775   */\n      tag_72\n      jump\t// in\n    tag_127:\n        /* \"#utility.yul\":3750:3775   */\n      swap2\n      pop\n        /* \"#utility.yul\":3789:3809   */\n      tag_128\n        /* \"#utility.yul\":3807:3808   */\n      dup4\n        /* \"#utility.yul\":3789:3809   */\n      tag_72\n      jump\t// in\n    tag_128:\n        /* \"#utility.yul\":3784:3809   */\n      swap3\n      pop\n        /* \"#utility.yul\":3833:3834   */\n      dup3\n        /* \"#utility.yul\":3830:3831   */\n      dup3\n        /* \"#utility.yul\":3826:3835   */\n      sub\n        /* \"#utility.yul\":3818:3835   */\n      swap1\n      pop\n        /* \"#utility.yul\":3857:3858   */\n      dup2\n        /* \"#utility.yul\":3851:3855   */\n      dup2\n        /* \"#utility.yul\":3848:3859   */\n      gt\n        /* \"#utility.yul\":3845:3882   */\n      iszero\n      tag_129\n      jumpi\n        /* \"#utility.yul\":3862:3880   */\n      tag_130\n      tag_79\n      jump\t// in\n    tag_130:\n        /* \"#utility.yul\":3845:3882   */\n    tag_129:\n        /* \"#utility.yul\":3695:3889   */\n      swap3\n      swap2\n      pop\n      pop\n      jump\t// out\n        /* \"#utility.yul\":3895:4086   */\n    tag_34:\n        /* \"#utility.yul\":3935:3938   */\n      0x00\n        /* \"#utility.yul\":3954:3974   */\n      tag_132\n        /* \"#utility.yul\":3972:3973   */\n      dup3\n        /* \"#utility.yul\":3954:3974   */\n      tag_72\n      jump\t// in\n    tag_132:\n        /* \"#utility.yul\":3949:3974   */\n      swap2\n      pop\n        /* \"#utility.yul\":3988:4008   */\n      tag_133\n        /* \"#utility.yul\":4006:4007   */\n      dup4\n        /* \"#utility.yul\":3988:4008   */\n      tag_72\n      jump\t// in\n    tag_133:\n        /* \"#utility.yul\":3983:4008   */\n      swap3\n      pop\n        /* \"#utility.yul\":4031:4032   */\n      dup3\n        /* \"#utility.yul\":4028:4029   */\n      dup3\n        /* \"#utility.yul\":4024:4033   */\n      add\n        /* \"#utility.yul\":4017:4033   */\n      swap1\n      pop\n        /* \"#utility.yul\":4052:4055   */\n      dup1\n        /* \"#utility.yul\":4049:4050   */\n      dup3\n        /* \"#utility.yul\":4046:4056   */\n      gt\n        /* \"#utility.yul\":4043:4079   */\n      iszero\n      tag_134\n      jumpi\n        /* \"#utility.yul\":4059:4077   */\n      tag_135\n      tag_79\n      jump\t// in\n    tag_135:\n        /* \"#utility.yul\":4043:4079   */\n    tag_134:\n        /* \"#utility.yul\":3895:4086   */\n      swap3\n      swap2\n      pop\n      pop\n      jump\t// out\n        /* \"#utility.yul\":4092:4270   */\n    tag_80:\n        /* \"#utility.yul\":4232:4262   */\n      0x4f766572726964656e206f6e6c794f776e6572206d6f64696669657200000000\n        /* \"#utility.yul\":4228:4229   */\n      0x00\n        /* \"#utility.yul\":4220:4226   */\n      dup3\n        /* \"#utility.yul\":4216:4230   */\n      add\n        /* \"#utility.yul\":4209:4263   */\n      mstore\n        /* \"#utility.yul\":4092:4270   */\n      pop\n      jump\t// out\n        /* \"#utility.yul\":4276:4642   */\n    tag_81:\n        /* \"#utility.yul\":4418:4421   */\n      0x00\n        /* \"#utility.yul\":4439:4506   */\n      tag_138\n        /* \"#utility.yul\":4503:4505   */\n      0x1c\n        /* \"#utility.yul\":4498:4501   */\n      dup4\n        /* \"#utility.yul\":4439:4506   */\n      tag_76\n      jump\t// in\n    tag_138:\n        /* \"#utility.yul\":4432:4506   */\n      swap2\n      pop\n        /* \"#utility.yul\":4515:4608   */\n      tag_139\n        /* \"#utility.yul\":4604:4607   */\n      dup3\n        /* \"#utility.yul\":4515:4608   */\n      tag_80\n      jump\t// in\n    tag_139:\n        /* \"#utility.yul\":4633:4635   */\n      0x20\n        /* \"#utility.yul\":4628:4631   */\n      dup3\n        /* \"#utility.yul\":4624:4636   */\n      add\n        /* \"#utility.yul\":4617:4636   */\n      swap1\n      pop\n        /* \"#utility.yul\":4276:4642   */\n      swap2\n      swap1\n      pop\n      jump\t// out\n        /* \"#utility.yul\":4648:5067   */\n    tag_38:\n        /* \"#utility.yul\":4814:4818   */\n      0x00\n        /* \"#utility.yul\":4852:4854   */\n      0x20\n        /* \"#utility.yul\":4841:4850   */\n      dup3\n        /* \"#utility.yul\":4837:4855   */\n      add\n        /* \"#utility.yul\":4829:4855   */\n      swap1\n      pop\n        /* \"#utility.yul\":4901:4910   */\n      dup2\n        /* \"#utility.yul\":4895:4899   */\n      dup2\n        /* \"#utility.yul\":4891:4911   */\n      sub\n        /* \"#utility.yul\":4887:4888   */\n      0x00\n        /* \"#utility.yul\":4876:4885   */\n      dup4\n        /* \"#utility.yul\":4872:4889   */\n      add\n        /* \"#utility.yul\":4865:4912   */\n      mstore\n        /* \"#utility.yul\":4929:5060   */\n      tag_141\n        /* \"#utility.yul\":5055:5059   */\n      dup2\n        /* \"#utility.yul\":4929:5060   */\n      tag_81\n      jump\t// in\n    tag_141:\n        /* \"#utility.yul\":4921:5060   */\n      swap1\n      pop\n        /* \"#utility.yul\":4648:5067   */\n      swap2\n      swap1\n      pop\n      jump\t// out\n        /* \"#utility.yul\":5073:5306   */\n    tag_41:\n        /* \"#utility.yul\":5112:5115   */\n      0x00\n        /* \"#utility.yul\":5135:5159   */\n      tag_143\n        /* \"#utility.yul\":5153:5158   */\n      dup3\n        /* \"#utility.yul\":5135:5159   */\n      tag_72\n      jump\t// in\n    tag_143:\n        /* \"#utility.yul\":5126:5159   */\n      swap2\n      pop\n        /* \"#utility.yul\":5181:5247   */\n      0xffffffffffffffffffffffffffffffffffffffffffffffffffffffffffffffff\n        /* \"#utility.yul\":5174:5179   */\n      dup3\n        /* \"#utility.yul\":5171:5248   */\n      sub\n        /* \"#utility.yul\":5168:5271   */\n      tag_144\n      jumpi\n        /* \"#utility.yul\":5251:5269   */\n      tag_145\n      tag_79\n      jump\t// in\n    tag_145:\n        /* \"#utility.yul\":5168:5271   */\n    tag_144:\n        /* \"#utility.yul\":5298:5299   */\n      0x01\n        /* \"#utility.yul\":5291:5296   */\n      dup3\n        /* \"#utility.yul\":5287:5300   */\n      add\n        /* \"#utility.yul\":5280:5300   */\n      swap1\n      pop\n        /* \"#utility.yul\":5073:5306   */\n      swap2\n      swap1\n      pop\n      jump\t// out\n        /* \"#utility.yul\":5312:5722   */\n    tag_44:\n        /* \"#utility.yul\":5352:5359   */\n      0x00\n        /* \"#utility.yul\":5375:5395   */\n      tag_147\n        /* \"#utility.yul\":5393:5394   */\n      dup3\n        /* \"#utility.yul\":5375:5395   */\n      tag_72\n      jump\t// in\n    tag_147:\n        /* \"#utility.yul\":5370:5395   */\n      swap2\n      pop\n        /* \"#utility.yul\":5409:5429   */\n      tag_148\n        /* \"#utility.yul\":5427:5428   */\n      dup4\n        /* \"#utility.yul\":5409:5429   */\n      tag_72\n      jump\t// in\n    tag_148:\n        /* \"#utility.yul\":5404:5429   */\n      swap3\n      pop\n        /* \"#utility.yul\":5464:5465   */\n      dup3\n        /* \"#utility.yul\":5461:5462   */\n      dup3\n        /* \"#utility.yul\":5457:5466   */\n      mul\n        /* \"#utility.yul\":5486:5516   */\n      tag_149\n        /* \"#utility.yul\":5504:5515   */\n      dup2\n        /* \"#utility.yul\":5486:5516   */\n      tag_72\n      jump\t// in\n    tag_149:\n        /* \"#utility.yul\":5475:5516   */\n      swap2\n      pop\n        /* \"#utility.yul\":5665:5666   */\n      dup3\n        /* \"#utility.yul\":5656:5663   */\n      dup3\n        /* \"#utility.yul\":5652:5667   */\n      div\n        /* \"#utility.yul\":5649:5650   */\n      dup5\n        /* \"#utility.yul\":5646:5668   */\n      eq\n        /* \"#utility.yul\":5626:5627   */\n      dup4\n        /* \"#utility.yul\":5619:5628   */\n      iszero\n        /* \"#utility.yul\":5599:5682   */\n      or\n        /* \"#utility.yul\":5576:5715   */\n      tag_150\n      jumpi\n        /* \"#utility.yul\":5695:5713   */\n      tag_151\n      tag_79\n      jump\t// in\n    tag_151:\n        /* \"#utility.yul\":5576:5715   */\n    tag_150:\n        /* \"#utility.yul\":5360:5722   */\n      pop\n        /* \"#utility.yul\":5312:5722   */\n      swap3\n      swap2\n      pop\n      pop\n      jump\t// out\n        /* \"#utility.yul\":5728:5908   */\n    tag_82:\n        /* \"#utility.yul\":5776:5853   */\n      0x4e487b7100000000000000000000000000000000000000000000000000000000\n        /* \"#utility.yul\":5773:5774   */\n      0x00\n        /* \"#utility.yul\":5766:5854   */\n      mstore\n        /* \"#utility.yul\":5873:5877   */\n      0x12\n        /* \"#utility.yul\":5870:5871   */\n      0x04\n        /* \"#utility.yul\":5863:5878   */\n      mstore\n        /* \"#utility.yul\":5897:5901   */\n      0x24\n        /* \"#utility.yul\":5894:5895   */\n      0x00\n        /* \"#utility.yul\":5887:5902   */\n      revert\n        /* \"#utility.yul\":5914:6099   */\n    tag_46:\n        /* \"#utility.yul\":5954:5955   */\n      0x00\n        /* \"#utility.yul\":5971:5991   */\n      tag_154\n        /* \"#utility.yul\":5989:5990   */\n      dup3\n        /* \"#utility.yul\":5971:5991   */\n      tag_72\n      jump\t// in\n    tag_154:\n        /* \"#utility.yul\":5966:5991   */\n      swap2\n      pop\n        /* \"#utility.yul\":6005:6025   */\n      tag_155\n        /* \"#utility.yul\":6023:6024   */\n      dup4\n        /* \"#utility.yul\":6005:6025   */\n      tag_72\n      jump\t// in\n    tag_155:\n        /* \"#utility.yul\":6000:6025   */\n      swap3\n      pop\n        /* \"#utility.yul\":6044:6045   */\n      dup3\n        /* \"#utility.yul\":6034:6069   */\n      tag_156\n      jumpi\n        /* \"#utility.yul\":6049:6067   */\n      tag_157\n      tag_82\n      jump\t// in\n    tag_157:\n        /* \"#utility.yul\":6034:6069   */\n    tag_156:\n        /* \"#utility.yul\":6091:6092   */\n      dup3\n        /* \"#utility.yul\":6088:6089   */\n      dup3\n        /* \"#utility.yul\":6084:6093   */\n      div\n        /* \"#utility.yul\":6079:6093   */\n      swap1\n      pop\n        /* \"#utility.yul\":5914:6099   */\n      swap3\n      swap2\n      pop\n      pop\n      jump\t// out\n        /* \"#utility.yul\":6105:6272   */\n    tag_83:\n        /* \"#utility.yul\":6245:6264   */\n      0x6e6f7420656e6f75676820746f6b656e73000000000000000000000000000000\n        /* \"#utility.yul\":6241:6242   */\n      0x00\n        /* \"#utility.yul\":6233:6239   */\n      dup3\n        /* \"#utility.yul\":6229:6243   */\n      add\n        /* \"#utility.yul\":6222:6265   */\n      mstore\n        /* \"#utility.yul\":6105:6272   */\n      pop\n      jump\t// out\n        /* \"#utility.yul\":6278:6644   */\n    tag_84:\n        /* \"#utility.yul\":6420:6423   */\n      0x00\n        /* \"#utility.yul\":6441:6508   */\n      tag_160\n        /* \"#utility.yul\":6505:6507   */\n      0x11\n        /* \"#utility.yul\":6500:6503   */\n      dup4\n        /* \"#utility.yul\":6441:6508   */\n      tag_76\n      jump\t// in\n    tag_160:\n        /* \"#utility.yul\":6434:6508   */\n      swap2\n      pop\n        /* \"#utility.yul\":6517:6610   */\n      tag_161\n        /* \"#utility.yul\":6606:6609   */\n      dup3\n        /* \"#utility.yul\":6517:6610   */\n      tag_83\n      jump\t// in\n    tag_161:\n        /* \"#utility.yul\":6635:6637   */\n      0x20\n        /* \"#utility.yul\":6630:6633   */\n      dup3\n        /* \"#utility.yul\":6626:6638   */\n      add\n        /* \"#utility.yul\":6619:6638   */\n      swap1\n      pop\n        /* \"#utility.yul\":6278:6644   */\n      swap2\n      swap1\n      pop\n      jump\t// out\n        /* \"#utility.yul\":6650:7069   */\n    tag_49:\n        /* \"#utility.yul\":6816:6820   */\n      0x00\n        /* \"#utility.yul\":6854:6856   */\n      0x20\n        /* \"#utility.yul\":6843:6852   */\n      dup3\n        /* \"#utility.yul\":6839:6857   */\n      add\n        /* \"#utility.yul\":6831:6857   */\n      swap1\n      pop\n        /* \"#utility.yul\":6903:6912   */\n      dup2\n        /* \"#utility.yul\":6897:6901   */\n      dup2\n        /* \"#utility.yul\":6893:6913   */\n      sub\n        /* \"#utility.yul\":6889:6890   */\n      0x00\n        /* \"#utility.yul\":6878:6887   */\n      dup4\n        /* \"#utility.yul\":6874:6891   */\n      add\n        /* \"#utility.yul\":6867:6914   */\n      mstore\n        /* \"#utility.yul\":6931:7062   */\n      tag_163\n        /* \"#utility.yul\":7057:7061   */\n      dup2\n        /* \"#utility.yul\":6931:7062   */\n      tag_84\n      jump\t// in\n    tag_163:\n        /* \"#utility.yul\":6923:7062   */\n      swap1\n      pop\n        /* \"#utility.yul\":6650:7069   */\n      swap2\n      swap1\n      pop\n      jump\t// out\n        /* \"#utility.yul\":7075:7246   */\n    tag_61:\n        /* \"#utility.yul\":7114:7117   */\n      0x00\n        /* \"#utility.yul\":7137:7161   */\n      tag_165\n        /* \"#utility.yul\":7155:7160   */\n      dup3\n        /* \"#utility.yul\":7137:7161   */\n      tag_72\n      jump\t// in\n    tag_165:\n        /* \"#utility.yul\":7128:7161   */\n      swap2\n      pop\n        /* \"#utility.yul\":7183:7187   */\n      0x00\n        /* \"#utility.yul\":7176:7181   */\n      dup3\n        /* \"#utility.yul\":7173:7188   */\n      sub\n        /* \"#utility.yul\":7170:7211   */\n      tag_166\n      jumpi\n        /* \"#utility.yul\":7191:7209   */\n      tag_167\n      tag_79\n      jump\t// in\n    tag_167:\n        /* \"#utility.yul\":7170:7211   */\n    tag_166:\n        /* \"#utility.yul\":7238:7239   */\n      0x01\n        /* \"#utility.yul\":7231:7236   */\n      dup3\n        /* \"#utility.yul\":7227:7240   */\n      sub\n        /* \"#utility.yul\":7220:7240   */\n      swap1\n      pop\n        /* \"#utility.yul\":7075:7246   */\n      swap2\n      swap1\n      pop\n      jump\t// out\n        /* \"#utility.yul\":7252:7488   */\n    tag_85:\n        /* \"#utility.yul\":7392:7426   */\n      0x4f776e657220746f6b656e2062616c616e6365206d757374206265206d6f7265\n        /* \"#utility.yul\":7388:7389   */\n      0x00\n        /* \"#utility.yul\":7380:7386   */\n      dup3\n        /* \"#utility.yul\":7376:7390   */\n      add\n        /* \"#utility.yul\":7369:7427   */\n      mstore\n        /* \"#utility.yul\":7461:7480   */\n      0x207468656e2031303020746f6b656e7321000000000000000000000000000000\n        /* \"#utility.yul\":7456:7458   */\n      0x20\n        /* \"#utility.yul\":7448:7454   */\n      dup3\n        /* \"#utility.yul\":7444:7459   */\n      add\n        /* \"#utility.yul\":7437:7481   */\n      mstore\n        /* \"#utility.yul\":7252:7488   */\n      pop\n      jump\t// out\n        /* \"#utility.yul\":7494:7860   */\n    tag_86:\n        /* \"#utility.yul\":7636:7639   */\n      0x00\n        /* \"#utility.yul\":7657:7724   */\n      tag_170\n        /* \"#utility.yul\":7721:7723   */\n      0x31\n        /* \"#utility.yul\":7716:7719   */\n      dup4\n        /* \"#utility.yul\":7657:7724   */\n      tag_76\n      jump\t// in\n    tag_170:\n        /* \"#utility.yul\":7650:7724   */\n      swap2\n      pop\n        /* \"#utility.yul\":7733:7826   */\n      tag_171\n        /* \"#utility.yul\":7822:7825   */\n      dup3\n        /* \"#utility.yul\":7733:7826   */\n      tag_85\n      jump\t// in\n    tag_171:\n        /* \"#utility.yul\":7851:7853   */\n      0x40\n        /* \"#utility.yul\":7846:7849   */\n      dup3\n        /* \"#utility.yul\":7842:7854   */\n      add\n        /* \"#utility.yul\":7835:7854   */\n      swap1\n      pop\n        /* \"#utility.yul\":7494:7860   */\n      swap2\n      swap1\n      pop\n      jump\t// out\n        /* \"#utility.yul\":7866:8285   */\n    tag_64:\n        /* \"#utility.yul\":8032:8036   */\n      0x00\n        /* \"#utility.yul\":8070:8072   */\n      0x20\n        /* \"#utility.yul\":8059:8068   */\n      dup3\n        /* \"#utility.yul\":8055:8073   */\n      add\n        /* \"#utility.yul\":8047:8073   */\n      swap1\n      pop\n        /* \"#utility.yul\":8119:8128   */\n      dup2\n        /* \"#utility.yul\":8113:8117   */\n      dup2\n        /* \"#utility.yul\":8109:8129   */\n      sub\n        /* \"#utility.yul\":8105:8106   */\n      0x00\n        /* \"#utility.yul\":8094:8103   */\n      dup4\n        /* \"#utility.yul\":8090:8107   */\n      add\n        /* \"#utility.yul\":8083:8130   */\n      mstore\n        /* \"#utility.yul\":8147:8278   */\n      tag_173\n        /* \"#utility.yul\":8273:8277   */\n      dup2\n        /* \"#utility.yul\":8147:8278   */\n      tag_86\n      jump\t// in\n    tag_173:\n        /* \"#utility.yul\":8139:8278   */\n      swap1\n      pop\n        /* \"#utility.yul\":7866:8285   */\n      swap2\n      swap1\n      pop\n      jump\t// out\n\n    auxdata: 0xa2646970667358221220a3c97a5881d60f11410c0d63d5a39dc3536e3a39f5a7e80cc40715693424a0cd64736f6c634300081a0033\n}\n",
				"bytecode": {
					"linkReferences": {},
					"object": "6080604052670de0b6b3a7640000600255348015601a575f80fd5b50335f806101000a81548173ffffffffffffffffffffffffffffffffffffffff021916908373ffffffffffffffffffffffffffffffffffffffff160217905550606460015f805f9054906101000a900473ffffffffffffffffffffffffffffffffffffffff1673ffffffffffffffffffffffffffffffffffffffff1673ffffffffffffffffffffffffffffffffffffffff1681526020019081526020015f2081905550610b15806100ca5f395ff3fe608060405260043610610049575f3560e01c8063412664ae1461004d578063754fc38c14610075578063a95c4d621461008b578063eedc966a14610095578063faa0a264146100d1575b5f80fd5b348015610058575f80fd5b50610073600480360381019061006e91906106d9565b6100e7565b005b348015610080575f80fd5b50610089610211565b005b610093610312565b005b3480156100a0575f80fd5b506100bb60048036038101906100b69190610717565b6104ab565b6040516100c89190610751565b60405180910390f35b3480156100dc575f80fd5b506100e56104c0565b005b8060015f3373ffffffffffffffffffffffffffffffffffffffff1673ffffffffffffffffffffffffffffffffffffffff1681526020019081526020015f20541015610167576040517f08c379a000000000000000000000000000000000000000000000000000000000815260040161015e906107c4565b60405180910390fd5b8060015f3373ffffffffffffffffffffffffffffffffffffffff1673ffffffffffffffffffffffffffffffffffffffff1681526020019081526020015f205f8282546101b3919061080f565b925050819055508060015f8473ffffffffffffffffffffffffffffffffffffffff1673ffffffffffffffffffffffffffffffffffffffff1681526020019081526020015f205f8282546102069190610842565b925050819055505050565b5f8054906101000a900473ffffffffffffffffffffffffffffffffffffffff1673ffffffffffffffffffffffffffffffffffffffff163373ffffffffffffffffffffffffffffffffffffffff161461029e576040517f08c379a0000000000000000000000000000000000000000000000000000000008152600401610295906108bf565b60405180910390fd5b60015f805f9054906101000a900473ffffffffffffffffffffffffffffffffffffffff1673ffffffffffffffffffffffffffffffffffffffff1673ffffffffffffffffffffffffffffffffffffffff1681526020019081526020015f205f81548092919061030b906108dd565b9190505550565b5f3460025460015f805f9054906101000a900473ffffffffffffffffffffffffffffffffffffffff1673ffffffffffffffffffffffffffffffffffffffff1673ffffffffffffffffffffffffffffffffffffffff1681526020019081526020015f205461037f9190610924565b6103899190610992565b116103c9576040517f08c379a00000000000000000000000000000000000000000000000000000000081526004016103c090610a0c565b60405180910390fd5b600254346103d79190610992565b60015f805f9054906101000a900473ffffffffffffffffffffffffffffffffffffffff1673ffffffffffffffffffffffffffffffffffffffff1673ffffffffffffffffffffffffffffffffffffffff1681526020019081526020015f205f828254610442919061080f565b92505081905550600254346104579190610992565b60015f3373ffffffffffffffffffffffffffffffffffffffff1673ffffffffffffffffffffffffffffffffffffffff1681526020019081526020015f205f8282546104a29190610842565b92505081905550565b6001602052805f5260405f205f915090505481565b5f8054906101000a900473ffffffffffffffffffffffffffffffffffffffff1673ffffffffffffffffffffffffffffffffffffffff163373ffffffffffffffffffffffffffffffffffffffff161461054d576040517f08c379a0000000000000000000000000000000000000000000000000000000008152600401610544906108bf565b60405180910390fd5b60016064815f3373ffffffffffffffffffffffffffffffffffffffff1673ffffffffffffffffffffffffffffffffffffffff1681526020019081526020015f20541061060a5760015f805f9054906101000a900473ffffffffffffffffffffffffffffffffffffffff1673ffffffffffffffffffffffffffffffffffffffff1673ffffffffffffffffffffffffffffffffffffffff1681526020019081526020015f205f81548092919061060090610a2a565b9190505550610645565b6040517f08c379a000000000000000000000000000000000000000000000000000000000815260040161063c90610ac1565b60405180910390fd5b50565b5f80fd5b5f73ffffffffffffffffffffffffffffffffffffffff82169050919050565b5f6106758261064c565b9050919050565b6106858161066b565b811461068f575f80fd5b50565b5f813590506106a08161067c565b92915050565b5f819050919050565b6106b8816106a6565b81146106c2575f80fd5b50565b5f813590506106d3816106af565b92915050565b5f80604083850312156106ef576106ee610648565b5b5f6106fc85828601610692565b925050602061070d858286016106c5565b9150509250929050565b5f6020828403121561072c5761072b610648565b5b5f61073984828501610692565b91505092915050565b61074b816106a6565b82525050565b5f6020820190506107645f830184610742565b92915050565b5f82825260208201905092915050565b7f4e6f7420656e6f75676820746f6b656e730000000000000000000000000000005f82015250565b5f6107ae60118361076a565b91506107b98261077a565b602082019050919050565b5f6020820190508181035f8301526107db816107a2565b9050919050565b7f4e487b71000000000000000000000000000000000000000000000000000000005f52601160045260245ffd5b5f610819826106a6565b9150610824836106a6565b925082820390508181111561083c5761083b6107e2565b5b92915050565b5f61084c826106a6565b9150610857836106a6565b925082820190508082111561086f5761086e6107e2565b5b92915050565b7f4f766572726964656e206f6e6c794f776e6572206d6f646966696572000000005f82015250565b5f6108a9601c8361076a565b91506108b482610875565b602082019050919050565b5f6020820190508181035f8301526108d68161089d565b9050919050565b5f6108e7826106a6565b91507fffffffffffffffffffffffffffffffffffffffffffffffffffffffffffffffff8203610919576109186107e2565b5b600182019050919050565b5f61092e826106a6565b9150610939836106a6565b9250828202610947816106a6565b9150828204841483151761095e5761095d6107e2565b5b5092915050565b7f4e487b71000000000000000000000000000000000000000000000000000000005f52601260045260245ffd5b5f61099c826106a6565b91506109a7836106a6565b9250826109b7576109b6610965565b5b828204905092915050565b7f6e6f7420656e6f75676820746f6b656e730000000000000000000000000000005f82015250565b5f6109f660118361076a565b9150610a01826109c2565b602082019050919050565b5f6020820190508181035f830152610a23816109ea565b9050919050565b5f610a34826106a6565b91505f8203610a4657610a456107e2565b5b600182039050919050565b7f4f776e657220746f6b656e2062616c616e6365206d757374206265206d6f72655f8201527f207468656e2031303020746f6b656e7321000000000000000000000000000000602082015250565b5f610aab60318361076a565b9150610ab682610a51565b604082019050919050565b5f6020820190508181035f830152610ad881610a9f565b905091905056fea2646970667358221220a3c97a5881d60f11410c0d63d5a39dc3536e3a39f5a7e80cc40715693424a0cd64736f6c634300081a0033",
					"opcodes": "PUSH1 0x80 PUSH1 0x40 MSTORE PUSH8 0xDE0B6B3A7640000 PUSH1 0x2 SSTORE CALLVALUE DUP1 ISZERO PUSH1 0x1A JUMPI PUSH0 DUP1 REVERT JUMPDEST POP CALLER PUSH0 DUP1 PUSH2 0x100 EXP DUP2 SLOAD DUP2 PUSH20 0xFFFFFFFFFFFFFFFFFFFFFFFFFFFFFFFFFFFFFFFF MUL NOT AND SWAP1 DUP4 PUSH20 0xFFFFFFFFFFFFFFFFFFFFFFFFFFFFFFFFFFFFFFFF AND MUL OR SWAP1 SSTORE POP PUSH1 0x64 PUSH1 0x1 PUSH0 DUP1 PUSH0 SWAP1 SLOAD SWAP1 PUSH2 0x100 EXP SWAP1 DIV PUSH20 0xFFFFFFFFFFFFFFFFFFFFFFFFFFFFFFFFFFFFFFFF AND PUSH20 0xFFFFFFFFFFFFFFFFFFFFFFFFFFFFFFFFFFFFFFFF AND PUSH20 0xFFFFFFFFFFFFFFFFFFFFFFFFFFFFFFFFFFFFFFFF AND DUP2 MSTORE PUSH1 0x20 ADD SWAP1 DUP2 MSTORE PUSH1 0x20 ADD PUSH0 KECCAK256 DUP2 SWAP1 SSTORE POP PUSH2 0xB15 DUP1 PUSH2 0xCA PUSH0 CODECOPY PUSH0 RETURN INVALID PUSH1 0x80 PUSH1 0x40 MSTORE PUSH1 0x4 CALLDATASIZE LT PUSH2 0x49 JUMPI PUSH0 CALLDATALOAD PUSH1 0xE0 SHR DUP1 PUSH4 0x412664AE EQ PUSH2 0x4D JUMPI DUP1 PUSH4 0x754FC38C EQ PUSH2 0x75 JUMPI DUP1 PUSH4 0xA95C4D62 EQ PUSH2 0x8B JUMPI DUP1 PUSH4 0xEEDC966A EQ PUSH2 0x95 JUMPI DUP1 PUSH4 0xFAA0A264 EQ PUSH2 0xD1 JUMPI JUMPDEST PUSH0 DUP1 REVERT JUMPDEST CALLVALUE DUP1 ISZERO PUSH2 0x58 JUMPI PUSH0 DUP1 REVERT JUMPDEST POP PUSH2 0x73 PUSH1 0x4 DUP1 CALLDATASIZE SUB DUP2 ADD SWAP1 PUSH2 0x6E SWAP2 SWAP1 PUSH2 0x6D9 JUMP JUMPDEST PUSH2 0xE7 JUMP JUMPDEST STOP JUMPDEST CALLVALUE DUP1 ISZERO PUSH2 0x80 JUMPI PUSH0 DUP1 REVERT JUMPDEST POP PUSH2 0x89 PUSH2 0x211 JUMP JUMPDEST STOP JUMPDEST PUSH2 0x93 PUSH2 0x312 JUMP JUMPDEST STOP JUMPDEST CALLVALUE DUP1 ISZERO PUSH2 0xA0 JUMPI PUSH0 DUP1 REVERT JUMPDEST POP PUSH2 0xBB PUSH1 0x4 DUP1 CALLDATASIZE SUB DUP2 ADD SWAP1 PUSH2 0xB6 SWAP2 SWAP1 PUSH2 0x717 JUMP JUMPDEST PUSH2 0x4AB JUMP JUMPDEST PUSH1 0x40 MLOAD PUSH2 0xC8 SWAP2 SWAP1 PUSH2 0x751 JUMP JUMPDEST PUSH1 0x40 MLOAD DUP1 SWAP2 SUB SWAP1 RETURN JUMPDEST CALLVALUE DUP1 ISZERO PUSH2 0xDC JUMPI PUSH0 DUP1 REVERT JUMPDEST POP PUSH2 0xE5 PUSH2 0x4C0 JUMP JUMPDEST STOP JUMPDEST DUP1 PUSH1 0x1 PUSH0 CALLER PUSH20 0xFFFFFFFFFFFFFFFFFFFFFFFFFFFFFFFFFFFFFFFF AND PUSH20 0xFFFFFFFFFFFFFFFFFFFFFFFFFFFFFFFFFFFFFFFF AND DUP2 MSTORE PUSH1 0x20 ADD SWAP1 DUP2 MSTORE PUSH1 0x20 ADD PUSH0 KECCAK256 SLOAD LT ISZERO PUSH2 0x167 JUMPI PUSH1 0x40 MLOAD PUSH32 0x8C379A000000000000000000000000000000000000000000000000000000000 DUP2 MSTORE PUSH1 0x4 ADD PUSH2 0x15E SWAP1 PUSH2 0x7C4 JUMP JUMPDEST PUSH1 0x40 MLOAD DUP1 SWAP2 SUB SWAP1 REVERT JUMPDEST DUP1 PUSH1 0x1 PUSH0 CALLER PUSH20 0xFFFFFFFFFFFFFFFFFFFFFFFFFFFFFFFFFFFFFFFF AND PUSH20 0xFFFFFFFFFFFFFFFFFFFFFFFFFFFFFFFFFFFFFFFF AND DUP2 MSTORE PUSH1 0x20 ADD SWAP1 DUP2 MSTORE PUSH1 0x20 ADD PUSH0 KECCAK256 PUSH0 DUP3 DUP3 SLOAD PUSH2 0x1B3 SWAP2 SWAP1 PUSH2 0x80F JUMP JUMPDEST SWAP3 POP POP DUP2 SWAP1 SSTORE POP DUP1 PUSH1 0x1 PUSH0 DUP5 PUSH20 0xFFFFFFFFFFFFFFFFFFFFFFFFFFFFFFFFFFFFFFFF AND PUSH20 0xFFFFFFFFFFFFFFFFFFFFFFFFFFFFFFFFFFFFFFFF AND DUP2 MSTORE PUSH1 0x20 ADD SWAP1 DUP2 MSTORE PUSH1 0x20 ADD PUSH0 KECCAK256 PUSH0 DUP3 DUP3 SLOAD PUSH2 0x206 SWAP2 SWAP1 PUSH2 0x842 JUMP JUMPDEST SWAP3 POP POP DUP2 SWAP1 SSTORE POP POP POP JUMP JUMPDEST PUSH0 DUP1 SLOAD SWAP1 PUSH2 0x100 EXP SWAP1 DIV PUSH20 0xFFFFFFFFFFFFFFFFFFFFFFFFFFFFFFFFFFFFFFFF AND PUSH20 0xFFFFFFFFFFFFFFFFFFFFFFFFFFFFFFFFFFFFFFFF AND CALLER PUSH20 0xFFFFFFFFFFFFFFFFFFFFFFFFFFFFFFFFFFFFFFFF AND EQ PUSH2 0x29E JUMPI PUSH1 0x40 MLOAD PUSH32 0x8C379A000000000000000000000000000000000000000000000000000000000 DUP2 MSTORE PUSH1 0x4 ADD PUSH2 0x295 SWAP1 PUSH2 0x8BF JUMP JUMPDEST PUSH1 0x40 MLOAD DUP1 SWAP2 SUB SWAP1 REVERT JUMPDEST PUSH1 0x1 PUSH0 DUP1 PUSH0 SWAP1 SLOAD SWAP1 PUSH2 0x100 EXP SWAP1 DIV PUSH20 0xFFFFFFFFFFFFFFFFFFFFFFFFFFFFFFFFFFFFFFFF AND PUSH20 0xFFFFFFFFFFFFFFFFFFFFFFFFFFFFFFFFFFFFFFFF AND PUSH20 0xFFFFFFFFFFFFFFFFFFFFFFFFFFFFFFFFFFFFFFFF AND DUP2 MSTORE PUSH1 0x20 ADD SWAP1 DUP2 MSTORE PUSH1 0x20 ADD PUSH0 KECCAK256 PUSH0 DUP2 SLOAD DUP1 SWAP3 SWAP2 SWAP1 PUSH2 0x30B SWAP1 PUSH2 0x8DD JUMP JUMPDEST SWAP2 SWAP1 POP SSTORE POP JUMP JUMPDEST PUSH0 CALLVALUE PUSH1 0x2 SLOAD PUSH1 0x1 PUSH0 DUP1 PUSH0 SWAP1 SLOAD SWAP1 PUSH2 0x100 EXP SWAP1 DIV PUSH20 0xFFFFFFFFFFFFFFFFFFFFFFFFFFFFFFFFFFFFFFFF AND PUSH20 0xFFFFFFFFFFFFFFFFFFFFFFFFFFFFFFFFFFFFFFFF AND PUSH20 0xFFFFFFFFFFFFFFFFFFFFFFFFFFFFFFFFFFFFFFFF AND DUP2 MSTORE PUSH1 0x20 ADD SWAP1 DUP2 MSTORE PUSH1 0x20 ADD PUSH0 KECCAK256 SLOAD PUSH2 0x37F SWAP2 SWAP1 PUSH2 0x924 JUMP JUMPDEST PUSH2 0x389 SWAP2 SWAP1 PUSH2 0x992 JUMP JUMPDEST GT PUSH2 0x3C9 JUMPI PUSH1 0x40 MLOAD PUSH32 0x8C379A000000000000000000000000000000000000000000000000000000000 DUP2 MSTORE PUSH1 0x4 ADD PUSH2 0x3C0 SWAP1 PUSH2 0xA0C JUMP JUMPDEST PUSH1 0x40 MLOAD DUP1 SWAP2 SUB SWAP1 REVERT JUMPDEST PUSH1 0x2 SLOAD CALLVALUE PUSH2 0x3D7 SWAP2 SWAP1 PUSH2 0x992 JUMP JUMPDEST PUSH1 0x1 PUSH0 DUP1 PUSH0 SWAP1 SLOAD SWAP1 PUSH2 0x100 EXP SWAP1 DIV PUSH20 0xFFFFFFFFFFFFFFFFFFFFFFFFFFFFFFFFFFFFFFFF AND PUSH20 0xFFFFFFFFFFFFFFFFFFFFFFFFFFFFFFFFFFFFFFFF AND PUSH20 0xFFFFFFFFFFFFFFFFFFFFFFFFFFFFFFFFFFFFFFFF AND DUP2 MSTORE PUSH1 0x20 ADD SWAP1 DUP2 MSTORE PUSH1 0x20 ADD PUSH0 KECCAK256 PUSH0 DUP3 DUP3 SLOAD PUSH2 0x442 SWAP2 SWAP1 PUSH2 0x80F JUMP JUMPDEST SWAP3 POP POP DUP2 SWAP1 SSTORE POP PUSH1 0x2 SLOAD CALLVALUE PUSH2 0x457 SWAP2 SWAP1 PUSH2 0x992 JUMP JUMPDEST PUSH1 0x1 PUSH0 CALLER PUSH20 0xFFFFFFFFFFFFFFFFFFFFFFFFFFFFFFFFFFFFFFFF AND PUSH20 0xFFFFFFFFFFFFFFFFFFFFFFFFFFFFFFFFFFFFFFFF AND DUP2 MSTORE PUSH1 0x20 ADD SWAP1 DUP2 MSTORE PUSH1 0x20 ADD PUSH0 KECCAK256 PUSH0 DUP3 DUP3 SLOAD PUSH2 0x4A2 SWAP2 SWAP1 PUSH2 0x842 JUMP JUMPDEST SWAP3 POP POP DUP2 SWAP1 SSTORE POP JUMP JUMPDEST PUSH1 0x1 PUSH1 0x20 MSTORE DUP1 PUSH0 MSTORE PUSH1 0x40 PUSH0 KECCAK256 PUSH0 SWAP2 POP SWAP1 POP SLOAD DUP2 JUMP JUMPDEST PUSH0 DUP1 SLOAD SWAP1 PUSH2 0x100 EXP SWAP1 DIV PUSH20 0xFFFFFFFFFFFFFFFFFFFFFFFFFFFFFFFFFFFFFFFF AND PUSH20 0xFFFFFFFFFFFFFFFFFFFFFFFFFFFFFFFFFFFFFFFF AND CALLER PUSH20 0xFFFFFFFFFFFFFFFFFFFFFFFFFFFFFFFFFFFFFFFF AND EQ PUSH2 0x54D JUMPI PUSH1 0x40 MLOAD PUSH32 0x8C379A000000000000000000000000000000000000000000000000000000000 DUP2 MSTORE PUSH1 0x4 ADD PUSH2 0x544 SWAP1 PUSH2 0x8BF JUMP JUMPDEST PUSH1 0x40 MLOAD DUP1 SWAP2 SUB SWAP1 REVERT JUMPDEST PUSH1 0x1 PUSH1 0x64 DUP2 PUSH0 CALLER PUSH20 0xFFFFFFFFFFFFFFFFFFFFFFFFFFFFFFFFFFFFFFFF AND PUSH20 0xFFFFFFFFFFFFFFFFFFFFFFFFFFFFFFFFFFFFFFFF AND DUP2 MSTORE PUSH1 0x20 ADD SWAP1 DUP2 MSTORE PUSH1 0x20 ADD PUSH0 KECCAK256 SLOAD LT PUSH2 0x60A JUMPI PUSH1 0x1 PUSH0 DUP1 PUSH0 SWAP1 SLOAD SWAP1 PUSH2 0x100 EXP SWAP1 DIV PUSH20 0xFFFFFFFFFFFFFFFFFFFFFFFFFFFFFFFFFFFFFFFF AND PUSH20 0xFFFFFFFFFFFFFFFFFFFFFFFFFFFFFFFFFFFFFFFF AND PUSH20 0xFFFFFFFFFFFFFFFFFFFFFFFFFFFFFFFFFFFFFFFF AND DUP2 MSTORE PUSH1 0x20 ADD SWAP1 DUP2 MSTORE PUSH1 0x20 ADD PUSH0 KECCAK256 PUSH0 DUP2 SLOAD DUP1 SWAP3 SWAP2 SWAP1 PUSH2 0x600 SWAP1 PUSH2 0xA2A JUMP JUMPDEST SWAP2 SWAP1 POP SSTORE POP PUSH2 0x645 JUMP JUMPDEST PUSH1 0x40 MLOAD PUSH32 0x8C379A000000000000000000000000000000000000000000000000000000000 DUP2 MSTORE PUSH1 0x4 ADD PUSH2 0x63C SWAP1 PUSH2 0xAC1 JUMP JUMPDEST PUSH1 0x40 MLOAD DUP1 SWAP2 SUB SWAP1 REVERT JUMPDEST POP JUMP JUMPDEST PUSH0 DUP1 REVERT JUMPDEST PUSH0 PUSH20 0xFFFFFFFFFFFFFFFFFFFFFFFFFFFFFFFFFFFFFFFF DUP3 AND SWAP1 POP SWAP2 SWAP1 POP JUMP JUMPDEST PUSH0 PUSH2 0x675 DUP3 PUSH2 0x64C JUMP JUMPDEST SWAP1 POP SWAP2 SWAP1 POP JUMP JUMPDEST PUSH2 0x685 DUP2 PUSH2 0x66B JUMP JUMPDEST DUP2 EQ PUSH2 0x68F JUMPI PUSH0 DUP1 REVERT JUMPDEST POP JUMP JUMPDEST PUSH0 DUP2 CALLDATALOAD SWAP1 POP PUSH2 0x6A0 DUP2 PUSH2 0x67C JUMP JUMPDEST SWAP3 SWAP2 POP POP JUMP JUMPDEST PUSH0 DUP2 SWAP1 POP SWAP2 SWAP1 POP JUMP JUMPDEST PUSH2 0x6B8 DUP2 PUSH2 0x6A6 JUMP JUMPDEST DUP2 EQ PUSH2 0x6C2 JUMPI PUSH0 DUP1 REVERT JUMPDEST POP JUMP JUMPDEST PUSH0 DUP2 CALLDATALOAD SWAP1 POP PUSH2 0x6D3 DUP2 PUSH2 0x6AF JUMP JUMPDEST SWAP3 SWAP2 POP POP JUMP JUMPDEST PUSH0 DUP1 PUSH1 0x40 DUP4 DUP6 SUB SLT ISZERO PUSH2 0x6EF JUMPI PUSH2 0x6EE PUSH2 0x648 JUMP JUMPDEST JUMPDEST PUSH0 PUSH2 0x6FC DUP6 DUP3 DUP7 ADD PUSH2 0x692 JUMP JUMPDEST SWAP3 POP POP PUSH1 0x20 PUSH2 0x70D DUP6 DUP3 DUP7 ADD PUSH2 0x6C5 JUMP JUMPDEST SWAP2 POP POP SWAP3 POP SWAP3 SWAP1 POP JUMP JUMPDEST PUSH0 PUSH1 0x20 DUP3 DUP5 SUB SLT ISZERO PUSH2 0x72C JUMPI PUSH2 0x72B PUSH2 0x648 JUMP JUMPDEST JUMPDEST PUSH0 PUSH2 0x739 DUP5 DUP3 DUP6 ADD PUSH2 0x692 JUMP JUMPDEST SWAP2 POP POP SWAP3 SWAP2 POP POP JUMP JUMPDEST PUSH2 0x74B DUP2 PUSH2 0x6A6 JUMP JUMPDEST DUP3 MSTORE POP POP JUMP JUMPDEST PUSH0 PUSH1 0x20 DUP3 ADD SWAP1 POP PUSH2 0x764 PUSH0 DUP4 ADD DUP5 PUSH2 0x742 JUMP JUMPDEST SWAP3 SWAP2 POP POP JUMP JUMPDEST PUSH0 DUP3 DUP3 MSTORE PUSH1 0x20 DUP3 ADD SWAP1 POP SWAP3 SWAP2 POP POP JUMP JUMPDEST PUSH32 0x4E6F7420656E6F75676820746F6B656E73000000000000000000000000000000 PUSH0 DUP3 ADD MSTORE POP JUMP JUMPDEST PUSH0 PUSH2 0x7AE PUSH1 0x11 DUP4 PUSH2 0x76A JUMP JUMPDEST SWAP2 POP PUSH2 0x7B9 DUP3 PUSH2 0x77A JUMP JUMPDEST PUSH1 0x20 DUP3 ADD SWAP1 POP SWAP2 SWAP1 POP JUMP JUMPDEST PUSH0 PUSH1 0x20 DUP3 ADD SWAP1 POP DUP2 DUP2 SUB PUSH0 DUP4 ADD MSTORE PUSH2 0x7DB DUP2 PUSH2 0x7A2 JUMP JUMPDEST SWAP1 POP SWAP2 SWAP1 POP JUMP JUMPDEST PUSH32 0x4E487B7100000000000000000000000000000000000000000000000000000000 PUSH0 MSTORE PUSH1 0x11 PUSH1 0x4 MSTORE PUSH1 0x24 PUSH0 REVERT JUMPDEST PUSH0 PUSH2 0x819 DUP3 PUSH2 0x6A6 JUMP JUMPDEST SWAP2 POP PUSH2 0x824 DUP4 PUSH2 0x6A6 JUMP JUMPDEST SWAP3 POP DUP3 DUP3 SUB SWAP1 POP DUP2 DUP2 GT ISZERO PUSH2 0x83C JUMPI PUSH2 0x83B PUSH2 0x7E2 JUMP JUMPDEST JUMPDEST SWAP3 SWAP2 POP POP JUMP JUMPDEST PUSH0 PUSH2 0x84C DUP3 PUSH2 0x6A6 JUMP JUMPDEST SWAP2 POP PUSH2 0x857 DUP4 PUSH2 0x6A6 JUMP JUMPDEST SWAP3 POP DUP3 DUP3 ADD SWAP1 POP DUP1 DUP3 GT ISZERO PUSH2 0x86F JUMPI PUSH2 0x86E PUSH2 0x7E2 JUMP JUMPDEST JUMPDEST SWAP3 SWAP2 POP POP JUMP JUMPDEST PUSH32 0x4F766572726964656E206F6E6C794F776E6572206D6F64696669657200000000 PUSH0 DUP3 ADD MSTORE POP JUMP JUMPDEST PUSH0 PUSH2 0x8A9 PUSH1 0x1C DUP4 PUSH2 0x76A JUMP JUMPDEST SWAP2 POP PUSH2 0x8B4 DUP3 PUSH2 0x875 JUMP JUMPDEST PUSH1 0x20 DUP3 ADD SWAP1 POP SWAP2 SWAP1 POP JUMP JUMPDEST PUSH0 PUSH1 0x20 DUP3 ADD SWAP1 POP DUP2 DUP2 SUB PUSH0 DUP4 ADD MSTORE PUSH2 0x8D6 DUP2 PUSH2 0x89D JUMP JUMPDEST SWAP1 POP SWAP2 SWAP1 POP JUMP JUMPDEST PUSH0 PUSH2 0x8E7 DUP3 PUSH2 0x6A6 JUMP JUMPDEST SWAP2 POP PUSH32 0xFFFFFFFFFFFFFFFFFFFFFFFFFFFFFFFFFFFFFFFFFFFFFFFFFFFFFFFFFFFFFFFF DUP3 SUB PUSH2 0x919 JUMPI PUSH2 0x918 PUSH2 0x7E2 JUMP JUMPDEST JUMPDEST PUSH1 0x1 DUP3 ADD SWAP1 POP SWAP2 SWAP1 POP JUMP JUMPDEST PUSH0 PUSH2 0x92E DUP3 PUSH2 0x6A6 JUMP JUMPDEST SWAP2 POP PUSH2 0x939 DUP4 PUSH2 0x6A6 JUMP JUMPDEST SWAP3 POP DUP3 DUP3 MUL PUSH2 0x947 DUP2 PUSH2 0x6A6 JUMP JUMPDEST SWAP2 POP DUP3 DUP3 DIV DUP5 EQ DUP4 ISZERO OR PUSH2 0x95E JUMPI PUSH2 0x95D PUSH2 0x7E2 JUMP JUMPDEST JUMPDEST POP SWAP3 SWAP2 POP POP JUMP JUMPDEST PUSH32 0x4E487B7100000000000000000000000000000000000000000000000000000000 PUSH0 MSTORE PUSH1 0x12 PUSH1 0x4 MSTORE PUSH1 0x24 PUSH0 REVERT JUMPDEST PUSH0 PUSH2 0x99C DUP3 PUSH2 0x6A6 JUMP JUMPDEST SWAP2 POP PUSH2 0x9A7 DUP4 PUSH2 0x6A6 JUMP JUMPDEST SWAP3 POP DUP3 PUSH2 0x9B7 JUMPI PUSH2 0x9B6 PUSH2 0x965 JUMP JUMPDEST JUMPDEST DUP3 DUP3 DIV SWAP1 POP SWAP3 SWAP2 POP POP JUMP JUMPDEST PUSH32 0x6E6F7420656E6F75676820746F6B656E73000000000000000000000000000000 PUSH0 DUP3 ADD MSTORE POP JUMP JUMPDEST PUSH0 PUSH2 0x9F6 PUSH1 0x11 DUP4 PUSH2 0x76A JUMP JUMPDEST SWAP2 POP PUSH2 0xA01 DUP3 PUSH2 0x9C2 JUMP JUMPDEST PUSH1 0x20 DUP3 ADD SWAP1 POP SWAP2 SWAP1 POP JUMP JUMPDEST PUSH0 PUSH1 0x20 DUP3 ADD SWAP1 POP DUP2 DUP2 SUB PUSH0 DUP4 ADD MSTORE PUSH2 0xA23 DUP2 PUSH2 0x9EA JUMP JUMPDEST SWAP1 POP SWAP2 SWAP1 POP JUMP JUMPDEST PUSH0 PUSH2 0xA34 DUP3 PUSH2 0x6A6 JUMP JUMPDEST SWAP2 POP PUSH0 DUP3 SUB PUSH2 0xA46 JUMPI PUSH2 0xA45 PUSH2 0x7E2 JUMP JUMPDEST JUMPDEST PUSH1 0x1 DUP3 SUB SWAP1 POP SWAP2 SWAP1 POP JUMP JUMPDEST PUSH32 0x4F776E657220746F6B656E2062616C616E6365206D757374206265206D6F7265 PUSH0 DUP3 ADD MSTORE PUSH32 0x207468656E2031303020746F6B656E7321000000000000000000000000000000 PUSH1 0x20 DUP3 ADD MSTORE POP JUMP JUMPDEST PUSH0 PUSH2 0xAAB PUSH1 0x31 DUP4 PUSH2 0x76A JUMP JUMPDEST SWAP2 POP PUSH2 0xAB6 DUP3 PUSH2 0xA51 JUMP JUMPDEST PUSH1 0x40 DUP3 ADD SWAP1 POP SWAP2 SWAP1 POP JUMP JUMPDEST PUSH0 PUSH1 0x20 DUP3 ADD SWAP1 POP DUP2 DUP2 SUB PUSH0 DUP4 ADD MSTORE PUSH2 0xAD8 DUP2 PUSH2 0xA9F JUMP JUMPDEST SWAP1 POP SWAP2 SWAP1 POP JUMP INVALID LOG2 PUSH5 0x6970667358 0x22 SLT KECCAK256 LOG3 0xC9 PUSH27 0x5881D60F11410C0D63D5A39DC3536E3A39F5A7E80CC40715693424 LOG0 0xCD PUSH5 0x736F6C6343 STOP ADDMOD BYTE STOP CALLER "
				},
				"gasEstimates": {
					"creation": {
						"codeDepositCost": "567400",
						"executionCost": "71306",
						"totalCost": "638706"
					},
					"external": {
						"burnToken()": "31177",
						"createNewToken()": "28886",
						"purchaseToken()": "infinite",
						"sendToken(address,uint256)": "infinite",
						"tokenBalance(address)": "2846"
					}
				},
				"methodIdentifiers": {
					"burnToken()": "faa0a264",
					"createNewToken()": "754fc38c",
					"purchaseToken()": "a95c4d62",
					"sendToken(address,uint256)": "412664ae",
					"tokenBalance(address)": "eedc966a"
				}
			},
			"storageLayout": {
				"storage": [
					{
						"astId": 133,
						"contract": "contracts/Block_4/Modifiers.sol:Modifiers",
						"label": "owner",
						"offset": 0,
						"slot": "0",
						"type": "t_address"
					},
					{
						"astId": 8,
						"contract": "contracts/Block_4/Modifiers.sol:Modifiers",
						"label": "tokenBalance",
						"offset": 0,
						"slot": "1",
						"type": "t_mapping(t_address,t_uint256)"
					},
					{
						"astId": 11,
						"contract": "contracts/Block_4/Modifiers.sol:Modifiers",
						"label": "tokenPrice",
						"offset": 0,
						"slot": "2",
						"type": "t_uint256"
					}
				],
				"types": {
					"t_address": {
						"encoding": "inplace",
						"label": "address",
						"numberOfBytes": "20"
					},
					"t_mapping(t_address,t_uint256)": {
						"encoding": "mapping",
						"key": "t_address",
						"label": "mapping(address => uint256)",
						"numberOfBytes": "32",
						"value": "t_uint256"
					},
					"t_uint256": {
						"encoding": "inplace",
						"label": "uint256",
						"numberOfBytes": "32"
					}
				}
			},
			"userdoc": {
				"kind": "user",
				"methods": {},
				"version": 1
			}
		}
	}
}