{
	"contracts/Block_4/TokenSaleProject.sol": {
		"TokenSaleProject": {
			"abi": [
				{
					"inputs": [
						{
							"internalType": "address",
							"name": "_token",
							"type": "address"
						}
					],
					"stateMutability": "nonpayable",
					"type": "constructor"
				},
				{
					"inputs": [],
					"name": "purchaseCoeffee",
					"outputs": [],
					"stateMutability": "payable",
					"type": "function"
				},
				{
					"inputs": [],
					"name": "token",
					"outputs": [
						{
							"internalType": "contract ERC20",
							"name": "",
							"type": "address"
						}
					],
					"stateMutability": "view",
					"type": "function"
				},
				{
					"inputs": [],
					"name": "tokenOwner",
					"outputs": [
						{
							"internalType": "address",
							"name": "",
							"type": "address"
						}
					],
					"stateMutability": "view",
					"type": "function"
				}
			],
			"devdoc": {
				"kind": "dev",
				"methods": {},
				"version": 1
			},
			"evm": {
				"assembly": "    /* \"contracts/Block_4/TokenSaleProject.sol\":589:1237  contract TokenSaleProject{... */\n  mstore(0x40, 0x80)\n    /* \"contracts/Block_4/TokenSaleProject.sol\":646:653  1 ether */\n  0x0de0b6b3a7640000\n    /* \"contracts/Block_4/TokenSaleProject.sol\":623:653  uint tokenPriceInWei = 1 ether */\n  0x00\n  sstore\n    /* \"contracts/Block_4/TokenSaleProject.sol\":721:823  constructor(address _token){... */\n  callvalue\n  dup1\n  iszero\n  tag_1\n  jumpi\n  0x00\n  dup1\n  revert\ntag_1:\n  pop\n  mload(0x40)\n  sub(codesize, bytecodeSize)\n  dup1\n  bytecodeSize\n  dup4\n  codecopy\n  dup2\n  dup2\n  add\n  0x40\n  mstore\n  dup2\n  add\n  swap1\n  tag_2\n  swap2\n  swap1\n  tag_3\n  jump\t// in\ntag_2:\n    /* \"contracts/Block_4/TokenSaleProject.sol\":772:782  msg.sender */\n  caller\n    /* \"contracts/Block_4/TokenSaleProject.sol\":759:769  tokenOwner */\n  0x02\n  0x00\n    /* \"contracts/Block_4/TokenSaleProject.sol\":759:782  tokenOwner = msg.sender */\n  0x0100\n  exp\n  dup2\n  sload\n  dup2\n  0xffffffffffffffffffffffffffffffffffffffff\n  mul\n  not\n  and\n  swap1\n  dup4\n  0xffffffffffffffffffffffffffffffffffffffff\n  and\n  mul\n  or\n  swap1\n  sstore\n  pop\n    /* \"contracts/Block_4/TokenSaleProject.sol\":807:813  _token */\n  dup1\n    /* \"contracts/Block_4/TokenSaleProject.sol\":793:798  token */\n  0x01\n  0x00\n    /* \"contracts/Block_4/TokenSaleProject.sol\":793:814  token = ERC20(_token) */\n  0x0100\n  exp\n  dup2\n  sload\n  dup2\n  0xffffffffffffffffffffffffffffffffffffffff\n  mul\n  not\n  and\n  swap1\n  dup4\n  0xffffffffffffffffffffffffffffffffffffffff\n  and\n  mul\n  or\n  swap1\n  sstore\n  pop\n    /* \"contracts/Block_4/TokenSaleProject.sol\":721:823  constructor(address _token){... */\n  pop\n    /* \"contracts/Block_4/TokenSaleProject.sol\":589:1237  contract TokenSaleProject{... */\n  jump(tag_6)\n    /* \"#utility.yul\":88:205   */\ntag_8:\n    /* \"#utility.yul\":197:198   */\n  0x00\n    /* \"#utility.yul\":194:195   */\n  dup1\n    /* \"#utility.yul\":187:199   */\n  revert\n    /* \"#utility.yul\":334:460   */\ntag_10:\n    /* \"#utility.yul\":371:378   */\n  0x00\n    /* \"#utility.yul\":411:453   */\n  0xffffffffffffffffffffffffffffffffffffffff\n    /* \"#utility.yul\":404:409   */\n  dup3\n    /* \"#utility.yul\":400:454   */\n  and\n    /* \"#utility.yul\":389:454   */\n  swap1\n  pop\n    /* \"#utility.yul\":334:460   */\n  swap2\n  swap1\n  pop\n  jump\t// out\n    /* \"#utility.yul\":466:562   */\ntag_11:\n    /* \"#utility.yul\":503:510   */\n  0x00\n    /* \"#utility.yul\":532:556   */\n  tag_20\n    /* \"#utility.yul\":550:555   */\n  dup3\n    /* \"#utility.yul\":532:556   */\n  tag_10\n  jump\t// in\ntag_20:\n    /* \"#utility.yul\":521:556   */\n  swap1\n  pop\n    /* \"#utility.yul\":466:562   */\n  swap2\n  swap1\n  pop\n  jump\t// out\n    /* \"#utility.yul\":568:690   */\ntag_12:\n    /* \"#utility.yul\":641:665   */\n  tag_22\n    /* \"#utility.yul\":659:664   */\n  dup2\n    /* \"#utility.yul\":641:665   */\n  tag_11\n  jump\t// in\ntag_22:\n    /* \"#utility.yul\":634:639   */\n  dup2\n    /* \"#utility.yul\":631:666   */\n  eq\n    /* \"#utility.yul\":621:684   */\n  tag_23\n  jumpi\n    /* \"#utility.yul\":680:681   */\n  0x00\n    /* \"#utility.yul\":677:678   */\n  dup1\n    /* \"#utility.yul\":670:682   */\n  revert\n    /* \"#utility.yul\":621:684   */\ntag_23:\n    /* \"#utility.yul\":568:690   */\n  pop\n  jump\t// out\n    /* \"#utility.yul\":696:839   */\ntag_13:\n    /* \"#utility.yul\":753:758   */\n  0x00\n    /* \"#utility.yul\":784:790   */\n  dup2\n    /* \"#utility.yul\":778:791   */\n  mload\n    /* \"#utility.yul\":769:791   */\n  swap1\n  pop\n    /* \"#utility.yul\":800:833   */\n  tag_25\n    /* \"#utility.yul\":827:832   */\n  dup2\n    /* \"#utility.yul\":800:833   */\n  tag_12\n  jump\t// in\ntag_25:\n    /* \"#utility.yul\":696:839   */\n  swap3\n  swap2\n  pop\n  pop\n  jump\t// out\n    /* \"#utility.yul\":845:1196   */\ntag_3:\n    /* \"#utility.yul\":915:921   */\n  0x00\n    /* \"#utility.yul\":964:966   */\n  0x20\n    /* \"#utility.yul\":952:961   */\n  dup3\n    /* \"#utility.yul\":943:950   */\n  dup5\n    /* \"#utility.yul\":939:962   */\n  sub\n    /* \"#utility.yul\":935:967   */\n  slt\n    /* \"#utility.yul\":932:1051   */\n  iszero\n  tag_27\n  jumpi\n    /* \"#utility.yul\":970:1049   */\n  tag_28\n  tag_8\n  jump\t// in\ntag_28:\n    /* \"#utility.yul\":932:1051   */\ntag_27:\n    /* \"#utility.yul\":1090:1091   */\n  0x00\n    /* \"#utility.yul\":1115:1179   */\n  tag_29\n    /* \"#utility.yul\":1171:1178   */\n  dup5\n    /* \"#utility.yul\":1162:1168   */\n  dup3\n    /* \"#utility.yul\":1151:1160   */\n  dup6\n    /* \"#utility.yul\":1147:1169   */\n  add\n    /* \"#utility.yul\":1115:1179   */\n  tag_13\n  jump\t// in\ntag_29:\n    /* \"#utility.yul\":1105:1179   */\n  swap2\n  pop\n    /* \"#utility.yul\":1061:1189   */\n  pop\n    /* \"#utility.yul\":845:1196   */\n  swap3\n  swap2\n  pop\n  pop\n  jump\t// out\n    /* \"contracts/Block_4/TokenSaleProject.sol\":589:1237  contract TokenSaleProject{... */\ntag_6:\n  dataSize(sub_0)\n  dup1\n  dataOffset(sub_0)\n  0x00\n  codecopy\n  0x00\n  return\nstop\n\nsub_0: assembly {\n        /* \"contracts/Block_4/TokenSaleProject.sol\":589:1237  contract TokenSaleProject{... */\n      mstore(0x40, 0x80)\n      jumpi(tag_1, lt(calldatasize, 0x04))\n      shr(0xe0, calldataload(0x00))\n      dup1\n      0x7e0d5494\n      eq\n      tag_2\n      jumpi\n      dup1\n      0xa3e67610\n      eq\n      tag_3\n      jumpi\n      dup1\n      0xfc0c546a\n      eq\n      tag_4\n      jumpi\n    tag_1:\n      0x00\n      dup1\n      revert\n        /* \"contracts/Block_4/TokenSaleProject.sol\":831:1234  function purchaseCoeffee() public payable {... */\n    tag_2:\n      tag_5\n      tag_6\n      jump\t// in\n    tag_5:\n      stop\n        /* \"contracts/Block_4/TokenSaleProject.sol\":687:712  address public tokenOwner */\n    tag_3:\n      callvalue\n      dup1\n      iszero\n      tag_7\n      jumpi\n      0x00\n      dup1\n      revert\n    tag_7:\n      pop\n      tag_8\n      tag_9\n      jump\t// in\n    tag_8:\n      mload(0x40)\n      tag_10\n      swap2\n      swap1\n      tag_11\n      jump\t// in\n    tag_10:\n      mload(0x40)\n      dup1\n      swap2\n      sub\n      swap1\n      return\n        /* \"contracts/Block_4/TokenSaleProject.sol\":662:680  ERC20 public token */\n    tag_4:\n      callvalue\n      dup1\n      iszero\n      tag_12\n      jumpi\n      0x00\n      dup1\n      revert\n    tag_12:\n      pop\n      tag_13\n      tag_14\n      jump\t// in\n    tag_13:\n      mload(0x40)\n      tag_15\n      swap2\n      swap1\n      tag_16\n      jump\t// in\n    tag_15:\n      mload(0x40)\n      dup1\n      swap2\n      sub\n      swap1\n      return\n        /* \"contracts/Block_4/TokenSaleProject.sol\":831:1234  function purchaseCoeffee() public payable {... */\n    tag_6:\n        /* \"contracts/Block_4/TokenSaleProject.sol\":905:920  tokenPriceInWei */\n      sload(0x00)\n        /* \"contracts/Block_4/TokenSaleProject.sol\":892:901  msg.value */\n      callvalue\n        /* \"contracts/Block_4/TokenSaleProject.sol\":892:920  msg.value >= tokenPriceInWei */\n      lt\n      iszero\n        /* \"contracts/Block_4/TokenSaleProject.sol\":884:946  require(msg.value >= tokenPriceInWei, \"Not enough token sent\") */\n      tag_18\n      jumpi\n      mload(0x40)\n      0x08c379a000000000000000000000000000000000000000000000000000000000\n      dup2\n      mstore\n      0x04\n      add\n      tag_19\n      swap1\n      tag_20\n      jump\t// in\n    tag_19:\n      mload(0x40)\n      dup1\n      swap2\n      sub\n      swap1\n      revert\n    tag_18:\n        /* \"contracts/Block_4/TokenSaleProject.sol\":957:978  uint tokensToTransfer */\n      0x00\n        /* \"contracts/Block_4/TokenSaleProject.sol\":991:1006  tokenPriceInWei */\n      dup1\n      sload\n        /* \"contracts/Block_4/TokenSaleProject.sol\":981:990  msg.value */\n      callvalue\n        /* \"contracts/Block_4/TokenSaleProject.sol\":981:1006  msg.value/tokenPriceInWei */\n      tag_21\n      swap2\n      swap1\n      tag_22\n      jump\t// in\n    tag_21:\n        /* \"contracts/Block_4/TokenSaleProject.sol\":957:1006  uint tokensToTransfer = msg.value/tokenPriceInWei */\n      swap1\n      pop\n        /* \"contracts/Block_4/TokenSaleProject.sol\":1017:1031  uint remainder */\n      0x00\n        /* \"contracts/Block_4/TokenSaleProject.sol\":1065:1080  tokenPriceInWei */\n      dup1\n      sload\n        /* \"contracts/Block_4/TokenSaleProject.sol\":1046:1062  tokensToTransfer */\n      dup3\n        /* \"contracts/Block_4/TokenSaleProject.sol\":1046:1080  tokensToTransfer * tokenPriceInWei */\n      tag_23\n      swap2\n      swap1\n      tag_24\n      jump\t// in\n    tag_23:\n        /* \"contracts/Block_4/TokenSaleProject.sol\":1034:1043  msg.value */\n      callvalue\n        /* \"contracts/Block_4/TokenSaleProject.sol\":1034:1080  msg.value - tokensToTransfer * tokenPriceInWei */\n      tag_25\n      swap2\n      swap1\n      tag_26\n      jump\t// in\n    tag_25:\n        /* \"contracts/Block_4/TokenSaleProject.sol\":1017:1080  uint remainder = msg.value - tokensToTransfer * tokenPriceInWei */\n      swap1\n      pop\n        /* \"contracts/Block_4/TokenSaleProject.sol\":1091:1096  token */\n      0x01\n      0x00\n      swap1\n      sload\n      swap1\n      0x0100\n      exp\n      swap1\n      div\n      0xffffffffffffffffffffffffffffffffffffffff\n      and\n        /* \"contracts/Block_4/TokenSaleProject.sol\":1091:1109  token.transferFrom */\n      0xffffffffffffffffffffffffffffffffffffffff\n      and\n      0x23b872dd\n        /* \"contracts/Block_4/TokenSaleProject.sol\":1110:1120  tokenOwner */\n      0x02\n      0x00\n      swap1\n      sload\n      swap1\n      0x0100\n      exp\n      swap1\n      div\n      0xffffffffffffffffffffffffffffffffffffffff\n      and\n        /* \"contracts/Block_4/TokenSaleProject.sol\":1122:1132  msg.sender */\n      caller\n        /* \"contracts/Block_4/TokenSaleProject.sol\":1159:1164  token */\n      0x01\n      0x00\n      swap1\n      sload\n      swap1\n      0x0100\n      exp\n      swap1\n      div\n      0xffffffffffffffffffffffffffffffffffffffff\n      and\n        /* \"contracts/Block_4/TokenSaleProject.sol\":1159:1173  token.decimals */\n      0xffffffffffffffffffffffffffffffffffffffff\n      and\n      0x313ce567\n        /* \"contracts/Block_4/TokenSaleProject.sol\":1159:1175  token.decimals() */\n      mload(0x40)\n      dup2\n      0xffffffff\n      and\n      0xe0\n      shl\n      dup2\n      mstore\n      0x04\n      add\n      0x20\n      mload(0x40)\n      dup1\n      dup4\n      sub\n      dup2\n      dup7\n      gas\n      staticcall\n      iszero\n      dup1\n      iszero\n      tag_28\n      jumpi\n      returndatasize\n      0x00\n      dup1\n      returndatacopy\n      revert(0x00, returndatasize)\n    tag_28:\n      pop\n      pop\n      pop\n      pop\n      mload(0x40)\n      returndatasize\n      not(0x1f)\n      0x1f\n      dup3\n      add\n      and\n      dup3\n      add\n      dup1\n      0x40\n      mstore\n      pop\n      dup2\n      add\n      swap1\n      tag_29\n      swap2\n      swap1\n      tag_30\n      jump\t// in\n    tag_29:\n        /* \"contracts/Block_4/TokenSaleProject.sol\":1153:1155  10 */\n      0x0a\n        /* \"contracts/Block_4/TokenSaleProject.sol\":1153:1175  10 ** token.decimals() */\n      tag_31\n      swap2\n      swap1\n      tag_32\n      jump\t// in\n    tag_31:\n        /* \"contracts/Block_4/TokenSaleProject.sol\":1134:1150  tokensToTransfer */\n      dup7\n        /* \"contracts/Block_4/TokenSaleProject.sol\":1134:1175  tokensToTransfer * 10 ** token.decimals() */\n      tag_33\n      swap2\n      swap1\n      tag_24\n      jump\t// in\n    tag_33:\n        /* \"contracts/Block_4/TokenSaleProject.sol\":1091:1176  token.transferFrom(tokenOwner, msg.sender, tokensToTransfer * 10 ** token.decimals()) */\n      mload(0x40)\n      dup5\n      0xffffffff\n      and\n      0xe0\n      shl\n      dup2\n      mstore\n      0x04\n      add\n      tag_34\n      swap4\n      swap3\n      swap2\n      swap1\n      tag_35\n      jump\t// in\n    tag_34:\n      0x20\n      mload(0x40)\n      dup1\n      dup4\n      sub\n      dup2\n      0x00\n      dup8\n      gas\n      call\n      iszero\n      dup1\n      iszero\n      tag_37\n      jumpi\n      returndatasize\n      0x00\n      dup1\n      returndatacopy\n      revert(0x00, returndatasize)\n    tag_37:\n      pop\n      pop\n      pop\n      pop\n      mload(0x40)\n      returndatasize\n      not(0x1f)\n      0x1f\n      dup3\n      add\n      and\n      dup3\n      add\n      dup1\n      0x40\n      mstore\n      pop\n      dup2\n      add\n      swap1\n      tag_38\n      swap2\n      swap1\n      tag_39\n      jump\t// in\n    tag_38:\n      pop\n        /* \"contracts/Block_4/TokenSaleProject.sol\":1195:1205  msg.sender */\n      caller\n        /* \"contracts/Block_4/TokenSaleProject.sol\":1187:1215  payable(msg.sender).transfer */\n      0xffffffffffffffffffffffffffffffffffffffff\n      and\n        /* \"contracts/Block_4/TokenSaleProject.sol\":1187:1226  payable(msg.sender).transfer(remainder) */\n      0x08fc\n        /* \"contracts/Block_4/TokenSaleProject.sol\":1216:1225  remainder */\n      dup3\n        /* \"contracts/Block_4/TokenSaleProject.sol\":1187:1226  payable(msg.sender).transfer(remainder) */\n      swap1\n      dup2\n      iszero\n      mul\n      swap1\n      mload(0x40)\n      0x00\n      mload(0x40)\n      dup1\n      dup4\n      sub\n      dup2\n      dup6\n      dup9\n      dup9\n      call\n      swap4\n      pop\n      pop\n      pop\n      pop\n      iszero\n      dup1\n      iszero\n      tag_41\n      jumpi\n      returndatasize\n      0x00\n      dup1\n      returndatacopy\n      revert(0x00, returndatasize)\n    tag_41:\n      pop\n        /* \"contracts/Block_4/TokenSaleProject.sol\":873:1234  {... */\n      pop\n      pop\n        /* \"contracts/Block_4/TokenSaleProject.sol\":831:1234  function purchaseCoeffee() public payable {... */\n      jump\t// out\n        /* \"contracts/Block_4/TokenSaleProject.sol\":687:712  address public tokenOwner */\n    tag_9:\n      0x02\n      0x00\n      swap1\n      sload\n      swap1\n      0x0100\n      exp\n      swap1\n      div\n      0xffffffffffffffffffffffffffffffffffffffff\n      and\n      dup2\n      jump\t// out\n        /* \"contracts/Block_4/TokenSaleProject.sol\":662:680  ERC20 public token */\n    tag_14:\n      0x01\n      0x00\n      swap1\n      sload\n      swap1\n      0x0100\n      exp\n      swap1\n      div\n      0xffffffffffffffffffffffffffffffffffffffff\n      and\n      dup2\n      jump\t// out\n        /* \"#utility.yul\":7:133   */\n    tag_42:\n        /* \"#utility.yul\":44:51   */\n      0x00\n        /* \"#utility.yul\":84:126   */\n      0xffffffffffffffffffffffffffffffffffffffff\n        /* \"#utility.yul\":77:82   */\n      dup3\n        /* \"#utility.yul\":73:127   */\n      and\n        /* \"#utility.yul\":62:127   */\n      swap1\n      pop\n        /* \"#utility.yul\":7:133   */\n      swap2\n      swap1\n      pop\n      jump\t// out\n        /* \"#utility.yul\":139:235   */\n    tag_43:\n        /* \"#utility.yul\":176:183   */\n      0x00\n        /* \"#utility.yul\":205:229   */\n      tag_72\n        /* \"#utility.yul\":223:228   */\n      dup3\n        /* \"#utility.yul\":205:229   */\n      tag_42\n      jump\t// in\n    tag_72:\n        /* \"#utility.yul\":194:229   */\n      swap1\n      pop\n        /* \"#utility.yul\":139:235   */\n      swap2\n      swap1\n      pop\n      jump\t// out\n        /* \"#utility.yul\":241:359   */\n    tag_44:\n        /* \"#utility.yul\":328:352   */\n      tag_74\n        /* \"#utility.yul\":346:351   */\n      dup2\n        /* \"#utility.yul\":328:352   */\n      tag_43\n      jump\t// in\n    tag_74:\n        /* \"#utility.yul\":323:326   */\n      dup3\n        /* \"#utility.yul\":316:353   */\n      mstore\n        /* \"#utility.yul\":241:359   */\n      pop\n      pop\n      jump\t// out\n        /* \"#utility.yul\":365:587   */\n    tag_11:\n        /* \"#utility.yul\":458:462   */\n      0x00\n        /* \"#utility.yul\":496:498   */\n      0x20\n        /* \"#utility.yul\":485:494   */\n      dup3\n        /* \"#utility.yul\":481:499   */\n      add\n        /* \"#utility.yul\":473:499   */\n      swap1\n      pop\n        /* \"#utility.yul\":509:580   */\n      tag_76\n        /* \"#utility.yul\":577:578   */\n      0x00\n        /* \"#utility.yul\":566:575   */\n      dup4\n        /* \"#utility.yul\":562:579   */\n      add\n        /* \"#utility.yul\":553:559   */\n      dup5\n        /* \"#utility.yul\":509:580   */\n      tag_44\n      jump\t// in\n    tag_76:\n        /* \"#utility.yul\":365:587   */\n      swap3\n      swap2\n      pop\n      pop\n      jump\t// out\n        /* \"#utility.yul\":593:653   */\n    tag_45:\n        /* \"#utility.yul\":621:624   */\n      0x00\n        /* \"#utility.yul\":642:647   */\n      dup2\n        /* \"#utility.yul\":635:647   */\n      swap1\n      pop\n        /* \"#utility.yul\":593:653   */\n      swap2\n      swap1\n      pop\n      jump\t// out\n        /* \"#utility.yul\":659:801   */\n    tag_46:\n        /* \"#utility.yul\":709:718   */\n      0x00\n        /* \"#utility.yul\":742:795   */\n      tag_79\n        /* \"#utility.yul\":760:794   */\n      tag_80\n        /* \"#utility.yul\":769:793   */\n      tag_81\n        /* \"#utility.yul\":787:792   */\n      dup5\n        /* \"#utility.yul\":769:793   */\n      tag_42\n      jump\t// in\n    tag_81:\n        /* \"#utility.yul\":760:794   */\n      tag_45\n      jump\t// in\n    tag_80:\n        /* \"#utility.yul\":742:795   */\n      tag_42\n      jump\t// in\n    tag_79:\n        /* \"#utility.yul\":729:795   */\n      swap1\n      pop\n        /* \"#utility.yul\":659:801   */\n      swap2\n      swap1\n      pop\n      jump\t// out\n        /* \"#utility.yul\":807:933   */\n    tag_47:\n        /* \"#utility.yul\":857:866   */\n      0x00\n        /* \"#utility.yul\":890:927   */\n      tag_83\n        /* \"#utility.yul\":921:926   */\n      dup3\n        /* \"#utility.yul\":890:927   */\n      tag_46\n      jump\t// in\n    tag_83:\n        /* \"#utility.yul\":877:927   */\n      swap1\n      pop\n        /* \"#utility.yul\":807:933   */\n      swap2\n      swap1\n      pop\n      jump\t// out\n        /* \"#utility.yul\":939:1077   */\n    tag_48:\n        /* \"#utility.yul\":1001:1010   */\n      0x00\n        /* \"#utility.yul\":1034:1071   */\n      tag_85\n        /* \"#utility.yul\":1065:1070   */\n      dup3\n        /* \"#utility.yul\":1034:1071   */\n      tag_47\n      jump\t// in\n    tag_85:\n        /* \"#utility.yul\":1021:1071   */\n      swap1\n      pop\n        /* \"#utility.yul\":939:1077   */\n      swap2\n      swap1\n      pop\n      jump\t// out\n        /* \"#utility.yul\":1083:1238   */\n    tag_49:\n        /* \"#utility.yul\":1182:1231   */\n      tag_87\n        /* \"#utility.yul\":1225:1230   */\n      dup2\n        /* \"#utility.yul\":1182:1231   */\n      tag_48\n      jump\t// in\n    tag_87:\n        /* \"#utility.yul\":1177:1180   */\n      dup3\n        /* \"#utility.yul\":1170:1232   */\n      mstore\n        /* \"#utility.yul\":1083:1238   */\n      pop\n      pop\n      jump\t// out\n        /* \"#utility.yul\":1244:1490   */\n    tag_16:\n        /* \"#utility.yul\":1349:1353   */\n      0x00\n        /* \"#utility.yul\":1387:1389   */\n      0x20\n        /* \"#utility.yul\":1376:1385   */\n      dup3\n        /* \"#utility.yul\":1372:1390   */\n      add\n        /* \"#utility.yul\":1364:1390   */\n      swap1\n      pop\n        /* \"#utility.yul\":1400:1483   */\n      tag_89\n        /* \"#utility.yul\":1480:1481   */\n      0x00\n        /* \"#utility.yul\":1469:1478   */\n      dup4\n        /* \"#utility.yul\":1465:1482   */\n      add\n        /* \"#utility.yul\":1456:1462   */\n      dup5\n        /* \"#utility.yul\":1400:1483   */\n      tag_49\n      jump\t// in\n    tag_89:\n        /* \"#utility.yul\":1244:1490   */\n      swap3\n      swap2\n      pop\n      pop\n      jump\t// out\n        /* \"#utility.yul\":1496:1665   */\n    tag_50:\n        /* \"#utility.yul\":1580:1591   */\n      0x00\n        /* \"#utility.yul\":1614:1620   */\n      dup3\n        /* \"#utility.yul\":1609:1612   */\n      dup3\n        /* \"#utility.yul\":1602:1621   */\n      mstore\n        /* \"#utility.yul\":1654:1658   */\n      0x20\n        /* \"#utility.yul\":1649:1652   */\n      dup3\n        /* \"#utility.yul\":1645:1659   */\n      add\n        /* \"#utility.yul\":1630:1659   */\n      swap1\n      pop\n        /* \"#utility.yul\":1496:1665   */\n      swap3\n      swap2\n      pop\n      pop\n      jump\t// out\n        /* \"#utility.yul\":1671:1842   */\n    tag_51:\n        /* \"#utility.yul\":1811:1834   */\n      0x4e6f7420656e6f75676820746f6b656e2073656e740000000000000000000000\n        /* \"#utility.yul\":1807:1808   */\n      0x00\n        /* \"#utility.yul\":1799:1805   */\n      dup3\n        /* \"#utility.yul\":1795:1809   */\n      add\n        /* \"#utility.yul\":1788:1835   */\n      mstore\n        /* \"#utility.yul\":1671:1842   */\n      pop\n      jump\t// out\n        /* \"#utility.yul\":1848:2214   */\n    tag_52:\n        /* \"#utility.yul\":1990:1993   */\n      0x00\n        /* \"#utility.yul\":2011:2078   */\n      tag_93\n        /* \"#utility.yul\":2075:2077   */\n      0x15\n        /* \"#utility.yul\":2070:2073   */\n      dup4\n        /* \"#utility.yul\":2011:2078   */\n      tag_50\n      jump\t// in\n    tag_93:\n        /* \"#utility.yul\":2004:2078   */\n      swap2\n      pop\n        /* \"#utility.yul\":2087:2180   */\n      tag_94\n        /* \"#utility.yul\":2176:2179   */\n      dup3\n        /* \"#utility.yul\":2087:2180   */\n      tag_51\n      jump\t// in\n    tag_94:\n        /* \"#utility.yul\":2205:2207   */\n      0x20\n        /* \"#utility.yul\":2200:2203   */\n      dup3\n        /* \"#utility.yul\":2196:2208   */\n      add\n        /* \"#utility.yul\":2189:2208   */\n      swap1\n      pop\n        /* \"#utility.yul\":1848:2214   */\n      swap2\n      swap1\n      pop\n      jump\t// out\n        /* \"#utility.yul\":2220:2639   */\n    tag_20:\n        /* \"#utility.yul\":2386:2390   */\n      0x00\n        /* \"#utility.yul\":2424:2426   */\n      0x20\n        /* \"#utility.yul\":2413:2422   */\n      dup3\n        /* \"#utility.yul\":2409:2427   */\n      add\n        /* \"#utility.yul\":2401:2427   */\n      swap1\n      pop\n        /* \"#utility.yul\":2473:2482   */\n      dup2\n        /* \"#utility.yul\":2467:2471   */\n      dup2\n        /* \"#utility.yul\":2463:2483   */\n      sub\n        /* \"#utility.yul\":2459:2460   */\n      0x00\n        /* \"#utility.yul\":2448:2457   */\n      dup4\n        /* \"#utility.yul\":2444:2461   */\n      add\n        /* \"#utility.yul\":2437:2484   */\n      mstore\n        /* \"#utility.yul\":2501:2632   */\n      tag_96\n        /* \"#utility.yul\":2627:2631   */\n      dup2\n        /* \"#utility.yul\":2501:2632   */\n      tag_52\n      jump\t// in\n    tag_96:\n        /* \"#utility.yul\":2493:2632   */\n      swap1\n      pop\n        /* \"#utility.yul\":2220:2639   */\n      swap2\n      swap1\n      pop\n      jump\t// out\n        /* \"#utility.yul\":2645:2722   */\n    tag_53:\n        /* \"#utility.yul\":2682:2689   */\n      0x00\n        /* \"#utility.yul\":2711:2716   */\n      dup2\n        /* \"#utility.yul\":2700:2716   */\n      swap1\n      pop\n        /* \"#utility.yul\":2645:2722   */\n      swap2\n      swap1\n      pop\n      jump\t// out\n        /* \"#utility.yul\":2728:2908   */\n    tag_54:\n        /* \"#utility.yul\":2776:2853   */\n      0x4e487b7100000000000000000000000000000000000000000000000000000000\n        /* \"#utility.yul\":2773:2774   */\n      0x00\n        /* \"#utility.yul\":2766:2854   */\n      mstore\n        /* \"#utility.yul\":2873:2877   */\n      0x12\n        /* \"#utility.yul\":2870:2871   */\n      0x04\n        /* \"#utility.yul\":2863:2878   */\n      mstore\n        /* \"#utility.yul\":2897:2901   */\n      0x24\n        /* \"#utility.yul\":2894:2895   */\n      0x00\n        /* \"#utility.yul\":2887:2902   */\n      revert\n        /* \"#utility.yul\":2914:3094   */\n    tag_55:\n        /* \"#utility.yul\":2962:3039   */\n      0x4e487b7100000000000000000000000000000000000000000000000000000000\n        /* \"#utility.yul\":2959:2960   */\n      0x00\n        /* \"#utility.yul\":2952:3040   */\n      mstore\n        /* \"#utility.yul\":3059:3063   */\n      0x11\n        /* \"#utility.yul\":3056:3057   */\n      0x04\n        /* \"#utility.yul\":3049:3064   */\n      mstore\n        /* \"#utility.yul\":3083:3087   */\n      0x24\n        /* \"#utility.yul\":3080:3081   */\n      0x00\n        /* \"#utility.yul\":3073:3088   */\n      revert\n        /* \"#utility.yul\":3100:3285   */\n    tag_22:\n        /* \"#utility.yul\":3140:3141   */\n      0x00\n        /* \"#utility.yul\":3157:3177   */\n      tag_101\n        /* \"#utility.yul\":3175:3176   */\n      dup3\n        /* \"#utility.yul\":3157:3177   */\n      tag_53\n      jump\t// in\n    tag_101:\n        /* \"#utility.yul\":3152:3177   */\n      swap2\n      pop\n        /* \"#utility.yul\":3191:3211   */\n      tag_102\n        /* \"#utility.yul\":3209:3210   */\n      dup4\n        /* \"#utility.yul\":3191:3211   */\n      tag_53\n      jump\t// in\n    tag_102:\n        /* \"#utility.yul\":3186:3211   */\n      swap3\n      pop\n        /* \"#utility.yul\":3230:3231   */\n      dup3\n        /* \"#utility.yul\":3220:3255   */\n      tag_103\n      jumpi\n        /* \"#utility.yul\":3235:3253   */\n      tag_104\n      tag_54\n      jump\t// in\n    tag_104:\n        /* \"#utility.yul\":3220:3255   */\n    tag_103:\n        /* \"#utility.yul\":3277:3278   */\n      dup3\n        /* \"#utility.yul\":3274:3275   */\n      dup3\n        /* \"#utility.yul\":3270:3279   */\n      div\n        /* \"#utility.yul\":3265:3279   */\n      swap1\n      pop\n        /* \"#utility.yul\":3100:3285   */\n      swap3\n      swap2\n      pop\n      pop\n      jump\t// out\n        /* \"#utility.yul\":3291:3701   */\n    tag_24:\n        /* \"#utility.yul\":3331:3338   */\n      0x00\n        /* \"#utility.yul\":3354:3374   */\n      tag_106\n        /* \"#utility.yul\":3372:3373   */\n      dup3\n        /* \"#utility.yul\":3354:3374   */\n      tag_53\n      jump\t// in\n    tag_106:\n        /* \"#utility.yul\":3349:3374   */\n      swap2\n      pop\n        /* \"#utility.yul\":3388:3408   */\n      tag_107\n        /* \"#utility.yul\":3406:3407   */\n      dup4\n        /* \"#utility.yul\":3388:3408   */\n      tag_53\n      jump\t// in\n    tag_107:\n        /* \"#utility.yul\":3383:3408   */\n      swap3\n      pop\n        /* \"#utility.yul\":3443:3444   */\n      dup3\n        /* \"#utility.yul\":3440:3441   */\n      dup3\n        /* \"#utility.yul\":3436:3445   */\n      mul\n        /* \"#utility.yul\":3465:3495   */\n      tag_108\n        /* \"#utility.yul\":3483:3494   */\n      dup2\n        /* \"#utility.yul\":3465:3495   */\n      tag_53\n      jump\t// in\n    tag_108:\n        /* \"#utility.yul\":3454:3495   */\n      swap2\n      pop\n        /* \"#utility.yul\":3644:3645   */\n      dup3\n        /* \"#utility.yul\":3635:3642   */\n      dup3\n        /* \"#utility.yul\":3631:3646   */\n      div\n        /* \"#utility.yul\":3628:3629   */\n      dup5\n        /* \"#utility.yul\":3625:3647   */\n      eq\n        /* \"#utility.yul\":3605:3606   */\n      dup4\n        /* \"#utility.yul\":3598:3607   */\n      iszero\n        /* \"#utility.yul\":3578:3661   */\n      or\n        /* \"#utility.yul\":3555:3694   */\n      tag_109\n      jumpi\n        /* \"#utility.yul\":3674:3692   */\n      tag_110\n      tag_55\n      jump\t// in\n    tag_110:\n        /* \"#utility.yul\":3555:3694   */\n    tag_109:\n        /* \"#utility.yul\":3339:3701   */\n      pop\n        /* \"#utility.yul\":3291:3701   */\n      swap3\n      swap2\n      pop\n      pop\n      jump\t// out\n        /* \"#utility.yul\":3707:3901   */\n    tag_26:\n        /* \"#utility.yul\":3747:3751   */\n      0x00\n        /* \"#utility.yul\":3767:3787   */\n      tag_112\n        /* \"#utility.yul\":3785:3786   */\n      dup3\n        /* \"#utility.yul\":3767:3787   */\n      tag_53\n      jump\t// in\n    tag_112:\n        /* \"#utility.yul\":3762:3787   */\n      swap2\n      pop\n        /* \"#utility.yul\":3801:3821   */\n      tag_113\n        /* \"#utility.yul\":3819:3820   */\n      dup4\n        /* \"#utility.yul\":3801:3821   */\n      tag_53\n      jump\t// in\n    tag_113:\n        /* \"#utility.yul\":3796:3821   */\n      swap3\n      pop\n        /* \"#utility.yul\":3845:3846   */\n      dup3\n        /* \"#utility.yul\":3842:3843   */\n      dup3\n        /* \"#utility.yul\":3838:3847   */\n      sub\n        /* \"#utility.yul\":3830:3847   */\n      swap1\n      pop\n        /* \"#utility.yul\":3869:3870   */\n      dup2\n        /* \"#utility.yul\":3863:3867   */\n      dup2\n        /* \"#utility.yul\":3860:3871   */\n      gt\n        /* \"#utility.yul\":3857:3894   */\n      iszero\n      tag_114\n      jumpi\n        /* \"#utility.yul\":3874:3892   */\n      tag_115\n      tag_55\n      jump\t// in\n    tag_115:\n        /* \"#utility.yul\":3857:3894   */\n    tag_114:\n        /* \"#utility.yul\":3707:3901   */\n      swap3\n      swap2\n      pop\n      pop\n      jump\t// out\n        /* \"#utility.yul\":3988:4105   */\n    tag_57:\n        /* \"#utility.yul\":4097:4098   */\n      0x00\n        /* \"#utility.yul\":4094:4095   */\n      dup1\n        /* \"#utility.yul\":4087:4099   */\n      revert\n        /* \"#utility.yul\":4234:4320   */\n    tag_59:\n        /* \"#utility.yul\":4269:4276   */\n      0x00\n        /* \"#utility.yul\":4309:4313   */\n      0xff\n        /* \"#utility.yul\":4302:4307   */\n      dup3\n        /* \"#utility.yul\":4298:4314   */\n      and\n        /* \"#utility.yul\":4287:4314   */\n      swap1\n      pop\n        /* \"#utility.yul\":4234:4320   */\n      swap2\n      swap1\n      pop\n      jump\t// out\n        /* \"#utility.yul\":4326:4444   */\n    tag_60:\n        /* \"#utility.yul\":4397:4419   */\n      tag_121\n        /* \"#utility.yul\":4413:4418   */\n      dup2\n        /* \"#utility.yul\":4397:4419   */\n      tag_59\n      jump\t// in\n    tag_121:\n        /* \"#utility.yul\":4390:4395   */\n      dup2\n        /* \"#utility.yul\":4387:4420   */\n      eq\n        /* \"#utility.yul\":4377:4438   */\n      tag_122\n      jumpi\n        /* \"#utility.yul\":4434:4435   */\n      0x00\n        /* \"#utility.yul\":4431:4432   */\n      dup1\n        /* \"#utility.yul\":4424:4436   */\n      revert\n        /* \"#utility.yul\":4377:4438   */\n    tag_122:\n        /* \"#utility.yul\":4326:4444   */\n      pop\n      jump\t// out\n        /* \"#utility.yul\":4450:4589   */\n    tag_61:\n        /* \"#utility.yul\":4505:4510   */\n      0x00\n        /* \"#utility.yul\":4536:4542   */\n      dup2\n        /* \"#utility.yul\":4530:4543   */\n      mload\n        /* \"#utility.yul\":4521:4543   */\n      swap1\n      pop\n        /* \"#utility.yul\":4552:4583   */\n      tag_124\n        /* \"#utility.yul\":4577:4582   */\n      dup2\n        /* \"#utility.yul\":4552:4583   */\n      tag_60\n      jump\t// in\n    tag_124:\n        /* \"#utility.yul\":4450:4589   */\n      swap3\n      swap2\n      pop\n      pop\n      jump\t// out\n        /* \"#utility.yul\":4595:4942   */\n    tag_30:\n        /* \"#utility.yul\":4663:4669   */\n      0x00\n        /* \"#utility.yul\":4712:4714   */\n      0x20\n        /* \"#utility.yul\":4700:4709   */\n      dup3\n        /* \"#utility.yul\":4691:4698   */\n      dup5\n        /* \"#utility.yul\":4687:4710   */\n      sub\n        /* \"#utility.yul\":4683:4715   */\n      slt\n        /* \"#utility.yul\":4680:4799   */\n      iszero\n      tag_126\n      jumpi\n        /* \"#utility.yul\":4718:4797   */\n      tag_127\n      tag_57\n      jump\t// in\n    tag_127:\n        /* \"#utility.yul\":4680:4799   */\n    tag_126:\n        /* \"#utility.yul\":4838:4839   */\n      0x00\n        /* \"#utility.yul\":4863:4925   */\n      tag_128\n        /* \"#utility.yul\":4917:4924   */\n      dup5\n        /* \"#utility.yul\":4908:4914   */\n      dup3\n        /* \"#utility.yul\":4897:4906   */\n      dup6\n        /* \"#utility.yul\":4893:4915   */\n      add\n        /* \"#utility.yul\":4863:4925   */\n      tag_61\n      jump\t// in\n    tag_128:\n        /* \"#utility.yul\":4853:4925   */\n      swap2\n      pop\n        /* \"#utility.yul\":4809:4935   */\n      pop\n        /* \"#utility.yul\":4595:4942   */\n      swap3\n      swap2\n      pop\n      pop\n      jump\t// out\n        /* \"#utility.yul\":4948:5050   */\n    tag_62:\n        /* \"#utility.yul\":4990:4998   */\n      0x00\n        /* \"#utility.yul\":5037:5042   */\n      dup2\n        /* \"#utility.yul\":5034:5035   */\n      0x01\n        /* \"#utility.yul\":5030:5043   */\n      shr\n        /* \"#utility.yul\":5009:5043   */\n      swap1\n      pop\n        /* \"#utility.yul\":4948:5050   */\n      swap2\n      swap1\n      pop\n      jump\t// out\n        /* \"#utility.yul\":5056:5904   */\n    tag_63:\n        /* \"#utility.yul\":5117:5122   */\n      0x00\n        /* \"#utility.yul\":5124:5128   */\n      dup1\n        /* \"#utility.yul\":5148:5154   */\n      dup3\n        /* \"#utility.yul\":5139:5154   */\n      swap2\n      pop\n        /* \"#utility.yul\":5172:5177   */\n      dup4\n        /* \"#utility.yul\":5163:5177   */\n      swap1\n      pop\n        /* \"#utility.yul\":5186:5898   */\n    tag_131:\n        /* \"#utility.yul\":5207:5208   */\n      0x01\n        /* \"#utility.yul\":5197:5205   */\n      dup6\n        /* \"#utility.yul\":5194:5209   */\n      gt\n        /* \"#utility.yul\":5186:5898   */\n      iszero\n      tag_133\n      jumpi\n        /* \"#utility.yul\":5302:5306   */\n      dup1\n        /* \"#utility.yul\":5297:5300   */\n      dup7\n        /* \"#utility.yul\":5293:5307   */\n      div\n        /* \"#utility.yul\":5287:5291   */\n      dup2\n        /* \"#utility.yul\":5284:5308   */\n      gt\n        /* \"#utility.yul\":5281:5331   */\n      iszero\n      tag_134\n      jumpi\n        /* \"#utility.yul\":5311:5329   */\n      tag_135\n      tag_55\n      jump\t// in\n    tag_135:\n        /* \"#utility.yul\":5281:5331   */\n    tag_134:\n        /* \"#utility.yul\":5361:5362   */\n      0x01\n        /* \"#utility.yul\":5351:5359   */\n      dup6\n        /* \"#utility.yul\":5347:5363   */\n      and\n        /* \"#utility.yul\":5344:5795   */\n      iszero\n      tag_136\n      jumpi\n        /* \"#utility.yul\":5776:5780   */\n      dup1\n        /* \"#utility.yul\":5769:5774   */\n      dup3\n        /* \"#utility.yul\":5765:5781   */\n      mul\n        /* \"#utility.yul\":5756:5781   */\n      swap2\n      pop\n        /* \"#utility.yul\":5344:5795   */\n    tag_136:\n        /* \"#utility.yul\":5826:5830   */\n      dup1\n        /* \"#utility.yul\":5820:5824   */\n      dup2\n        /* \"#utility.yul\":5816:5831   */\n      mul\n        /* \"#utility.yul\":5808:5831   */\n      swap1\n      pop\n        /* \"#utility.yul\":5856:5888   */\n      tag_137\n        /* \"#utility.yul\":5879:5887   */\n      dup6\n        /* \"#utility.yul\":5856:5888   */\n      tag_62\n      jump\t// in\n    tag_137:\n        /* \"#utility.yul\":5844:5888   */\n      swap5\n      pop\n        /* \"#utility.yul\":5186:5898   */\n      jump(tag_131)\n    tag_133:\n        /* \"#utility.yul\":5056:5904   */\n      swap5\n      pop\n      swap5\n      swap3\n      pop\n      pop\n      pop\n      jump\t// out\n        /* \"#utility.yul\":5910:6983   */\n    tag_64:\n        /* \"#utility.yul\":5964:5969   */\n      0x00\n        /* \"#utility.yul\":6155:6163   */\n      dup3\n        /* \"#utility.yul\":6145:6185   */\n      tag_139\n      jumpi\n        /* \"#utility.yul\":6176:6177   */\n      0x01\n        /* \"#utility.yul\":6167:6177   */\n      swap1\n      pop\n        /* \"#utility.yul\":6178:6183   */\n      jump(tag_138)\n        /* \"#utility.yul\":6145:6185   */\n    tag_139:\n        /* \"#utility.yul\":6204:6208   */\n      dup2\n        /* \"#utility.yul\":6194:6230   */\n      tag_140\n      jumpi\n        /* \"#utility.yul\":6221:6222   */\n      0x00\n        /* \"#utility.yul\":6212:6222   */\n      swap1\n      pop\n        /* \"#utility.yul\":6223:6228   */\n      jump(tag_138)\n        /* \"#utility.yul\":6194:6230   */\n    tag_140:\n        /* \"#utility.yul\":6290:6294   */\n      dup2\n        /* \"#utility.yul\":6338:6339   */\n      0x01\n        /* \"#utility.yul\":6333:6360   */\n      dup2\n      eq\n      tag_142\n      jumpi\n        /* \"#utility.yul\":6374:6375   */\n      0x02\n        /* \"#utility.yul\":6369:6560   */\n      dup2\n      eq\n      tag_143\n      jumpi\n        /* \"#utility.yul\":6283:6560   */\n      jump(tag_141)\n        /* \"#utility.yul\":6333:6360   */\n    tag_142:\n        /* \"#utility.yul\":6351:6352   */\n      0x01\n        /* \"#utility.yul\":6342:6352   */\n      swap2\n      pop\n        /* \"#utility.yul\":6353:6358   */\n      pop\n      jump(tag_138)\n        /* \"#utility.yul\":6369:6560   */\n    tag_143:\n        /* \"#utility.yul\":6414:6417   */\n      0xff\n        /* \"#utility.yul\":6404:6412   */\n      dup5\n        /* \"#utility.yul\":6401:6418   */\n      gt\n        /* \"#utility.yul\":6398:6441   */\n      iszero\n      tag_144\n      jumpi\n        /* \"#utility.yul\":6421:6439   */\n      tag_145\n      tag_55\n      jump\t// in\n    tag_145:\n        /* \"#utility.yul\":6398:6441   */\n    tag_144:\n        /* \"#utility.yul\":6470:6478   */\n      dup4\n        /* \"#utility.yul\":6467:6468   */\n      0x02\n        /* \"#utility.yul\":6463:6479   */\n      exp\n        /* \"#utility.yul\":6454:6479   */\n      swap2\n      pop\n        /* \"#utility.yul\":6505:6508   */\n      dup5\n        /* \"#utility.yul\":6498:6503   */\n      dup3\n        /* \"#utility.yul\":6495:6509   */\n      gt\n        /* \"#utility.yul\":6492:6532   */\n      iszero\n      tag_146\n      jumpi\n        /* \"#utility.yul\":6512:6530   */\n      tag_147\n      tag_55\n      jump\t// in\n    tag_147:\n        /* \"#utility.yul\":6492:6532   */\n    tag_146:\n        /* \"#utility.yul\":6545:6550   */\n      pop\n      jump(tag_138)\n        /* \"#utility.yul\":6283:6560   */\n    tag_141:\n      pop\n        /* \"#utility.yul\":6669:6671   */\n      0x20\n        /* \"#utility.yul\":6659:6667   */\n      dup4\n        /* \"#utility.yul\":6656:6672   */\n      lt\n        /* \"#utility.yul\":6650:6653   */\n      0x0133\n        /* \"#utility.yul\":6644:6648   */\n      dup4\n        /* \"#utility.yul\":6641:6654   */\n      lt\n        /* \"#utility.yul\":6637:6673   */\n      and\n        /* \"#utility.yul\":6619:6621   */\n      0x4e\n        /* \"#utility.yul\":6609:6617   */\n      dup5\n        /* \"#utility.yul\":6606:6622   */\n      lt\n        /* \"#utility.yul\":6601:6603   */\n      0x0b\n        /* \"#utility.yul\":6595:6599   */\n      dup5\n        /* \"#utility.yul\":6592:6604   */\n      lt\n        /* \"#utility.yul\":6588:6623   */\n      and\n        /* \"#utility.yul\":6572:6683   */\n      or\n        /* \"#utility.yul\":6569:6815   */\n      iszero\n      tag_148\n      jumpi\n        /* \"#utility.yul\":6725:6733   */\n      dup3\n        /* \"#utility.yul\":6719:6723   */\n      dup3\n        /* \"#utility.yul\":6715:6734   */\n      exp\n        /* \"#utility.yul\":6706:6734   */\n      swap1\n      pop\n        /* \"#utility.yul\":6760:6763   */\n      dup4\n        /* \"#utility.yul\":6753:6758   */\n      dup2\n        /* \"#utility.yul\":6750:6764   */\n      gt\n        /* \"#utility.yul\":6747:6787   */\n      iszero\n      tag_149\n      jumpi\n        /* \"#utility.yul\":6767:6785   */\n      tag_150\n      tag_55\n      jump\t// in\n    tag_150:\n        /* \"#utility.yul\":6747:6787   */\n    tag_149:\n        /* \"#utility.yul\":6800:6805   */\n      jump(tag_138)\n        /* \"#utility.yul\":6569:6815   */\n    tag_148:\n        /* \"#utility.yul\":6840:6882   */\n      tag_151\n        /* \"#utility.yul\":6878:6881   */\n      dup5\n        /* \"#utility.yul\":6868:6876   */\n      dup5\n        /* \"#utility.yul\":6862:6866   */\n      dup5\n        /* \"#utility.yul\":6859:6860   */\n      0x01\n        /* \"#utility.yul\":6840:6882   */\n      tag_63\n      jump\t// in\n    tag_151:\n        /* \"#utility.yul\":6825:6882   */\n      swap3\n      pop\n      swap1\n      pop\n        /* \"#utility.yul\":6914:6918   */\n      dup2\n        /* \"#utility.yul\":6909:6912   */\n      dup5\n        /* \"#utility.yul\":6905:6919   */\n      div\n        /* \"#utility.yul\":6898:6903   */\n      dup2\n        /* \"#utility.yul\":6895:6920   */\n      gt\n        /* \"#utility.yul\":6892:6943   */\n      iszero\n      tag_152\n      jumpi\n        /* \"#utility.yul\":6923:6941   */\n      tag_153\n      tag_55\n      jump\t// in\n    tag_153:\n        /* \"#utility.yul\":6892:6943   */\n    tag_152:\n        /* \"#utility.yul\":6972:6976   */\n      dup2\n        /* \"#utility.yul\":6965:6970   */\n      dup2\n        /* \"#utility.yul\":6961:6977   */\n      mul\n        /* \"#utility.yul\":6952:6977   */\n      swap1\n      pop\n        /* \"#utility.yul\":5910:6983   */\n    tag_138:\n      swap4\n      swap3\n      pop\n      pop\n      pop\n      jump\t// out\n        /* \"#utility.yul\":6989:7270   */\n    tag_32:\n        /* \"#utility.yul\":7047:7052   */\n      0x00\n        /* \"#utility.yul\":7071:7094   */\n      tag_155\n        /* \"#utility.yul\":7089:7093   */\n      dup3\n        /* \"#utility.yul\":7071:7094   */\n      tag_53\n      jump\t// in\n    tag_155:\n        /* \"#utility.yul\":7063:7094   */\n      swap2\n      pop\n        /* \"#utility.yul\":7115:7140   */\n      tag_156\n        /* \"#utility.yul\":7131:7139   */\n      dup4\n        /* \"#utility.yul\":7115:7140   */\n      tag_59\n      jump\t// in\n    tag_156:\n        /* \"#utility.yul\":7103:7140   */\n      swap3\n      pop\n        /* \"#utility.yul\":7159:7263   */\n      tag_157\n        /* \"#utility.yul\":7196:7262   */\n      0xffffffffffffffffffffffffffffffffffffffffffffffffffffffffffffffff\n        /* \"#utility.yul\":7186:7194   */\n      dup5\n        /* \"#utility.yul\":7180:7184   */\n      dup5\n        /* \"#utility.yul\":7159:7263   */\n      tag_64\n      jump\t// in\n    tag_157:\n        /* \"#utility.yul\":7150:7263   */\n      swap1\n      pop\n        /* \"#utility.yul\":6989:7270   */\n      swap3\n      swap2\n      pop\n      pop\n      jump\t// out\n        /* \"#utility.yul\":7276:7394   */\n    tag_65:\n        /* \"#utility.yul\":7363:7387   */\n      tag_159\n        /* \"#utility.yul\":7381:7386   */\n      dup2\n        /* \"#utility.yul\":7363:7387   */\n      tag_53\n      jump\t// in\n    tag_159:\n        /* \"#utility.yul\":7358:7361   */\n      dup3\n        /* \"#utility.yul\":7351:7388   */\n      mstore\n        /* \"#utility.yul\":7276:7394   */\n      pop\n      pop\n      jump\t// out\n        /* \"#utility.yul\":7400:7842   */\n    tag_35:\n        /* \"#utility.yul\":7549:7553   */\n      0x00\n        /* \"#utility.yul\":7587:7589   */\n      0x60\n        /* \"#utility.yul\":7576:7585   */\n      dup3\n        /* \"#utility.yul\":7572:7590   */\n      add\n        /* \"#utility.yul\":7564:7590   */\n      swap1\n      pop\n        /* \"#utility.yul\":7600:7671   */\n      tag_161\n        /* \"#utility.yul\":7668:7669   */\n      0x00\n        /* \"#utility.yul\":7657:7666   */\n      dup4\n        /* \"#utility.yul\":7653:7670   */\n      add\n        /* \"#utility.yul\":7644:7650   */\n      dup7\n        /* \"#utility.yul\":7600:7671   */\n      tag_44\n      jump\t// in\n    tag_161:\n        /* \"#utility.yul\":7681:7753   */\n      tag_162\n        /* \"#utility.yul\":7749:7751   */\n      0x20\n        /* \"#utility.yul\":7738:7747   */\n      dup4\n        /* \"#utility.yul\":7734:7752   */\n      add\n        /* \"#utility.yul\":7725:7731   */\n      dup6\n        /* \"#utility.yul\":7681:7753   */\n      tag_44\n      jump\t// in\n    tag_162:\n        /* \"#utility.yul\":7763:7835   */\n      tag_163\n        /* \"#utility.yul\":7831:7833   */\n      0x40\n        /* \"#utility.yul\":7820:7829   */\n      dup4\n        /* \"#utility.yul\":7816:7834   */\n      add\n        /* \"#utility.yul\":7807:7813   */\n      dup5\n        /* \"#utility.yul\":7763:7835   */\n      tag_65\n      jump\t// in\n    tag_163:\n        /* \"#utility.yul\":7400:7842   */\n      swap5\n      swap4\n      pop\n      pop\n      pop\n      pop\n      jump\t// out\n        /* \"#utility.yul\":7848:7938   */\n    tag_66:\n        /* \"#utility.yul\":7882:7889   */\n      0x00\n        /* \"#utility.yul\":7925:7930   */\n      dup2\n        /* \"#utility.yul\":7918:7931   */\n      iszero\n        /* \"#utility.yul\":7911:7932   */\n      iszero\n        /* \"#utility.yul\":7900:7932   */\n      swap1\n      pop\n        /* \"#utility.yul\":7848:7938   */\n      swap2\n      swap1\n      pop\n      jump\t// out\n        /* \"#utility.yul\":7944:8060   */\n    tag_67:\n        /* \"#utility.yul\":8014:8035   */\n      tag_166\n        /* \"#utility.yul\":8029:8034   */\n      dup2\n        /* \"#utility.yul\":8014:8035   */\n      tag_66\n      jump\t// in\n    tag_166:\n        /* \"#utility.yul\":8007:8012   */\n      dup2\n        /* \"#utility.yul\":8004:8036   */\n      eq\n        /* \"#utility.yul\":7994:8054   */\n      tag_167\n      jumpi\n        /* \"#utility.yul\":8050:8051   */\n      0x00\n        /* \"#utility.yul\":8047:8048   */\n      dup1\n        /* \"#utility.yul\":8040:8052   */\n      revert\n        /* \"#utility.yul\":7994:8054   */\n    tag_167:\n        /* \"#utility.yul\":7944:8060   */\n      pop\n      jump\t// out\n        /* \"#utility.yul\":8066:8203   */\n    tag_68:\n        /* \"#utility.yul\":8120:8125   */\n      0x00\n        /* \"#utility.yul\":8151:8157   */\n      dup2\n        /* \"#utility.yul\":8145:8158   */\n      mload\n        /* \"#utility.yul\":8136:8158   */\n      swap1\n      pop\n        /* \"#utility.yul\":8167:8197   */\n      tag_169\n        /* \"#utility.yul\":8191:8196   */\n      dup2\n        /* \"#utility.yul\":8167:8197   */\n      tag_67\n      jump\t// in\n    tag_169:\n        /* \"#utility.yul\":8066:8203   */\n      swap3\n      swap2\n      pop\n      pop\n      jump\t// out\n        /* \"#utility.yul\":8209:8554   */\n    tag_39:\n        /* \"#utility.yul\":8276:8282   */\n      0x00\n        /* \"#utility.yul\":8325:8327   */\n      0x20\n        /* \"#utility.yul\":8313:8322   */\n      dup3\n        /* \"#utility.yul\":8304:8311   */\n      dup5\n        /* \"#utility.yul\":8300:8323   */\n      sub\n        /* \"#utility.yul\":8296:8328   */\n      slt\n        /* \"#utility.yul\":8293:8412   */\n      iszero\n      tag_171\n      jumpi\n        /* \"#utility.yul\":8331:8410   */\n      tag_172\n      tag_57\n      jump\t// in\n    tag_172:\n        /* \"#utility.yul\":8293:8412   */\n    tag_171:\n        /* \"#utility.yul\":8451:8452   */\n      0x00\n        /* \"#utility.yul\":8476:8537   */\n      tag_173\n        /* \"#utility.yul\":8529:8536   */\n      dup5\n        /* \"#utility.yul\":8520:8526   */\n      dup3\n        /* \"#utility.yul\":8509:8518   */\n      dup6\n        /* \"#utility.yul\":8505:8527   */\n      add\n        /* \"#utility.yul\":8476:8537   */\n      tag_68\n      jump\t// in\n    tag_173:\n        /* \"#utility.yul\":8466:8537   */\n      swap2\n      pop\n        /* \"#utility.yul\":8422:8547   */\n      pop\n        /* \"#utility.yul\":8209:8554   */\n      swap3\n      swap2\n      pop\n      pop\n      jump\t// out\n\n    auxdata: 0xa264697066735822122040ad51831a0ba50a3808512d3826b02bdc0a8a2fee73c0b14fab860efe55d3f964736f6c634300081a0033\n}\n",
				"bytecode": {
					"linkReferences": {},
					"object": "6080604052670de0b6b3a76400005f5534801561001a575f80fd5b50604051610955380380610955833981810160405281019061003c9190610120565b3360025f6101000a81548173ffffffffffffffffffffffffffffffffffffffff021916908373ffffffffffffffffffffffffffffffffffffffff1602179055508060015f6101000a81548173ffffffffffffffffffffffffffffffffffffffff021916908373ffffffffffffffffffffffffffffffffffffffff1602179055505061014b565b5f80fd5b5f73ffffffffffffffffffffffffffffffffffffffff82169050919050565b5f6100ef826100c6565b9050919050565b6100ff816100e5565b8114610109575f80fd5b50565b5f8151905061011a816100f6565b92915050565b5f60208284031215610135576101346100c2565b5b5f6101428482850161010c565b91505092915050565b6107fd806101585f395ff3fe608060405260043610610033575f3560e01c80637e0d549414610037578063a3e6761014610041578063fc0c546a1461006b575b5f80fd5b61003f610095565b005b34801561004c575f80fd5b506100556102b0565b6040516100629190610339565b60405180910390f35b348015610076575f80fd5b5061007f6102d5565b60405161008c91906103ad565b60405180910390f35b5f543410156100d9576040517f08c379a00000000000000000000000000000000000000000000000000000000081526004016100d090610420565b60405180910390fd5b5f8054346100e791906104a1565b90505f8054826100f791906104d1565b346101029190610512565b905060015f9054906101000a900473ffffffffffffffffffffffffffffffffffffffff1673ffffffffffffffffffffffffffffffffffffffff166323b872dd60025f9054906101000a900473ffffffffffffffffffffffffffffffffffffffff163360015f9054906101000a900473ffffffffffffffffffffffffffffffffffffffff1673ffffffffffffffffffffffffffffffffffffffff1663313ce5676040518163ffffffff1660e01b8152600401602060405180830381865afa1580156101ce573d5f803e3d5ffd5b505050506040513d601f19601f820116820180604052508101906101f2919061057f565b600a6101fe91906106d9565b8661020991906104d1565b6040518463ffffffff1660e01b815260040161022793929190610732565b6020604051808303815f875af1158015610243573d5f803e3d5ffd5b505050506040513d601f19601f82011682018060405250810190610267919061079c565b503373ffffffffffffffffffffffffffffffffffffffff166108fc8290811502906040515f60405180830381858888f193505050501580156102ab573d5f803e3d5ffd5b505050565b60025f9054906101000a900473ffffffffffffffffffffffffffffffffffffffff1681565b60015f9054906101000a900473ffffffffffffffffffffffffffffffffffffffff1681565b5f73ffffffffffffffffffffffffffffffffffffffff82169050919050565b5f610323826102fa565b9050919050565b61033381610319565b82525050565b5f60208201905061034c5f83018461032a565b92915050565b5f819050919050565b5f61037561037061036b846102fa565b610352565b6102fa565b9050919050565b5f6103868261035b565b9050919050565b5f6103978261037c565b9050919050565b6103a78161038d565b82525050565b5f6020820190506103c05f83018461039e565b92915050565b5f82825260208201905092915050565b7f4e6f7420656e6f75676820746f6b656e2073656e7400000000000000000000005f82015250565b5f61040a6015836103c6565b9150610415826103d6565b602082019050919050565b5f6020820190508181035f830152610437816103fe565b9050919050565b5f819050919050565b7f4e487b71000000000000000000000000000000000000000000000000000000005f52601260045260245ffd5b7f4e487b71000000000000000000000000000000000000000000000000000000005f52601160045260245ffd5b5f6104ab8261043e565b91506104b68361043e565b9250826104c6576104c5610447565b5b828204905092915050565b5f6104db8261043e565b91506104e68361043e565b92508282026104f48161043e565b9150828204841483151761050b5761050a610474565b5b5092915050565b5f61051c8261043e565b91506105278361043e565b925082820390508181111561053f5761053e610474565b5b92915050565b5f80fd5b5f60ff82169050919050565b61055e81610549565b8114610568575f80fd5b50565b5f8151905061057981610555565b92915050565b5f6020828403121561059457610593610545565b5b5f6105a18482850161056b565b91505092915050565b5f8160011c9050919050565b5f808291508390505b60018511156105ff578086048111156105db576105da610474565b5b60018516156105ea5780820291505b80810290506105f8856105aa565b94506105bf565b94509492505050565b5f8261061757600190506106d2565b81610624575f90506106d2565b816001811461063a576002811461064457610673565b60019150506106d2565b60ff84111561065657610655610474565b5b8360020a91508482111561066d5761066c610474565b5b506106d2565b5060208310610133831016604e8410600b84101617156106a85782820a9050838111156106a3576106a2610474565b5b6106d2565b6106b584848460016105b6565b925090508184048111156106cc576106cb610474565b5b81810290505b9392505050565b5f6106e38261043e565b91506106ee83610549565b925061071b7fffffffffffffffffffffffffffffffffffffffffffffffffffffffffffffffff8484610608565b905092915050565b61072c8161043e565b82525050565b5f6060820190506107455f83018661032a565b610752602083018561032a565b61075f6040830184610723565b949350505050565b5f8115159050919050565b61077b81610767565b8114610785575f80fd5b50565b5f8151905061079681610772565b92915050565b5f602082840312156107b1576107b0610545565b5b5f6107be84828501610788565b9150509291505056fea264697066735822122040ad51831a0ba50a3808512d3826b02bdc0a8a2fee73c0b14fab860efe55d3f964736f6c634300081a0033",
					"opcodes": "PUSH1 0x80 PUSH1 0x40 MSTORE PUSH8 0xDE0B6B3A7640000 PUSH0 SSTORE CALLVALUE DUP1 ISZERO PUSH2 0x1A JUMPI PUSH0 DUP1 REVERT JUMPDEST POP PUSH1 0x40 MLOAD PUSH2 0x955 CODESIZE SUB DUP1 PUSH2 0x955 DUP4 CODECOPY DUP2 DUP2 ADD PUSH1 0x40 MSTORE DUP2 ADD SWAP1 PUSH2 0x3C SWAP2 SWAP1 PUSH2 0x120 JUMP JUMPDEST CALLER PUSH1 0x2 PUSH0 PUSH2 0x100 EXP DUP2 SLOAD DUP2 PUSH20 0xFFFFFFFFFFFFFFFFFFFFFFFFFFFFFFFFFFFFFFFF MUL NOT AND SWAP1 DUP4 PUSH20 0xFFFFFFFFFFFFFFFFFFFFFFFFFFFFFFFFFFFFFFFF AND MUL OR SWAP1 SSTORE POP DUP1 PUSH1 0x1 PUSH0 PUSH2 0x100 EXP DUP2 SLOAD DUP2 PUSH20 0xFFFFFFFFFFFFFFFFFFFFFFFFFFFFFFFFFFFFFFFF MUL NOT AND SWAP1 DUP4 PUSH20 0xFFFFFFFFFFFFFFFFFFFFFFFFFFFFFFFFFFFFFFFF AND MUL OR SWAP1 SSTORE POP POP PUSH2 0x14B JUMP JUMPDEST PUSH0 DUP1 REVERT JUMPDEST PUSH0 PUSH20 0xFFFFFFFFFFFFFFFFFFFFFFFFFFFFFFFFFFFFFFFF DUP3 AND SWAP1 POP SWAP2 SWAP1 POP JUMP JUMPDEST PUSH0 PUSH2 0xEF DUP3 PUSH2 0xC6 JUMP JUMPDEST SWAP1 POP SWAP2 SWAP1 POP JUMP JUMPDEST PUSH2 0xFF DUP2 PUSH2 0xE5 JUMP JUMPDEST DUP2 EQ PUSH2 0x109 JUMPI PUSH0 DUP1 REVERT JUMPDEST POP JUMP JUMPDEST PUSH0 DUP2 MLOAD SWAP1 POP PUSH2 0x11A DUP2 PUSH2 0xF6 JUMP JUMPDEST SWAP3 SWAP2 POP POP JUMP JUMPDEST PUSH0 PUSH1 0x20 DUP3 DUP5 SUB SLT ISZERO PUSH2 0x135 JUMPI PUSH2 0x134 PUSH2 0xC2 JUMP JUMPDEST JUMPDEST PUSH0 PUSH2 0x142 DUP5 DUP3 DUP6 ADD PUSH2 0x10C JUMP JUMPDEST SWAP2 POP POP SWAP3 SWAP2 POP POP JUMP JUMPDEST PUSH2 0x7FD DUP1 PUSH2 0x158 PUSH0 CODECOPY PUSH0 RETURN INVALID PUSH1 0x80 PUSH1 0x40 MSTORE PUSH1 0x4 CALLDATASIZE LT PUSH2 0x33 JUMPI PUSH0 CALLDATALOAD PUSH1 0xE0 SHR DUP1 PUSH4 0x7E0D5494 EQ PUSH2 0x37 JUMPI DUP1 PUSH4 0xA3E67610 EQ PUSH2 0x41 JUMPI DUP1 PUSH4 0xFC0C546A EQ PUSH2 0x6B JUMPI JUMPDEST PUSH0 DUP1 REVERT JUMPDEST PUSH2 0x3F PUSH2 0x95 JUMP JUMPDEST STOP JUMPDEST CALLVALUE DUP1 ISZERO PUSH2 0x4C JUMPI PUSH0 DUP1 REVERT JUMPDEST POP PUSH2 0x55 PUSH2 0x2B0 JUMP JUMPDEST PUSH1 0x40 MLOAD PUSH2 0x62 SWAP2 SWAP1 PUSH2 0x339 JUMP JUMPDEST PUSH1 0x40 MLOAD DUP1 SWAP2 SUB SWAP1 RETURN JUMPDEST CALLVALUE DUP1 ISZERO PUSH2 0x76 JUMPI PUSH0 DUP1 REVERT JUMPDEST POP PUSH2 0x7F PUSH2 0x2D5 JUMP JUMPDEST PUSH1 0x40 MLOAD PUSH2 0x8C SWAP2 SWAP1 PUSH2 0x3AD JUMP JUMPDEST PUSH1 0x40 MLOAD DUP1 SWAP2 SUB SWAP1 RETURN JUMPDEST PUSH0 SLOAD CALLVALUE LT ISZERO PUSH2 0xD9 JUMPI PUSH1 0x40 MLOAD PUSH32 0x8C379A000000000000000000000000000000000000000000000000000000000 DUP2 MSTORE PUSH1 0x4 ADD PUSH2 0xD0 SWAP1 PUSH2 0x420 JUMP JUMPDEST PUSH1 0x40 MLOAD DUP1 SWAP2 SUB SWAP1 REVERT JUMPDEST PUSH0 DUP1 SLOAD CALLVALUE PUSH2 0xE7 SWAP2 SWAP1 PUSH2 0x4A1 JUMP JUMPDEST SWAP1 POP PUSH0 DUP1 SLOAD DUP3 PUSH2 0xF7 SWAP2 SWAP1 PUSH2 0x4D1 JUMP JUMPDEST CALLVALUE PUSH2 0x102 SWAP2 SWAP1 PUSH2 0x512 JUMP JUMPDEST SWAP1 POP PUSH1 0x1 PUSH0 SWAP1 SLOAD SWAP1 PUSH2 0x100 EXP SWAP1 DIV PUSH20 0xFFFFFFFFFFFFFFFFFFFFFFFFFFFFFFFFFFFFFFFF AND PUSH20 0xFFFFFFFFFFFFFFFFFFFFFFFFFFFFFFFFFFFFFFFF AND PUSH4 0x23B872DD PUSH1 0x2 PUSH0 SWAP1 SLOAD SWAP1 PUSH2 0x100 EXP SWAP1 DIV PUSH20 0xFFFFFFFFFFFFFFFFFFFFFFFFFFFFFFFFFFFFFFFF AND CALLER PUSH1 0x1 PUSH0 SWAP1 SLOAD SWAP1 PUSH2 0x100 EXP SWAP1 DIV PUSH20 0xFFFFFFFFFFFFFFFFFFFFFFFFFFFFFFFFFFFFFFFF AND PUSH20 0xFFFFFFFFFFFFFFFFFFFFFFFFFFFFFFFFFFFFFFFF AND PUSH4 0x313CE567 PUSH1 0x40 MLOAD DUP2 PUSH4 0xFFFFFFFF AND PUSH1 0xE0 SHL DUP2 MSTORE PUSH1 0x4 ADD PUSH1 0x20 PUSH1 0x40 MLOAD DUP1 DUP4 SUB DUP2 DUP7 GAS STATICCALL ISZERO DUP1 ISZERO PUSH2 0x1CE JUMPI RETURNDATASIZE PUSH0 DUP1 RETURNDATACOPY RETURNDATASIZE PUSH0 REVERT JUMPDEST POP POP POP POP PUSH1 0x40 MLOAD RETURNDATASIZE PUSH1 0x1F NOT PUSH1 0x1F DUP3 ADD AND DUP3 ADD DUP1 PUSH1 0x40 MSTORE POP DUP2 ADD SWAP1 PUSH2 0x1F2 SWAP2 SWAP1 PUSH2 0x57F JUMP JUMPDEST PUSH1 0xA PUSH2 0x1FE SWAP2 SWAP1 PUSH2 0x6D9 JUMP JUMPDEST DUP7 PUSH2 0x209 SWAP2 SWAP1 PUSH2 0x4D1 JUMP JUMPDEST PUSH1 0x40 MLOAD DUP5 PUSH4 0xFFFFFFFF AND PUSH1 0xE0 SHL DUP2 MSTORE PUSH1 0x4 ADD PUSH2 0x227 SWAP4 SWAP3 SWAP2 SWAP1 PUSH2 0x732 JUMP JUMPDEST PUSH1 0x20 PUSH1 0x40 MLOAD DUP1 DUP4 SUB DUP2 PUSH0 DUP8 GAS CALL ISZERO DUP1 ISZERO PUSH2 0x243 JUMPI RETURNDATASIZE PUSH0 DUP1 RETURNDATACOPY RETURNDATASIZE PUSH0 REVERT JUMPDEST POP POP POP POP PUSH1 0x40 MLOAD RETURNDATASIZE PUSH1 0x1F NOT PUSH1 0x1F DUP3 ADD AND DUP3 ADD DUP1 PUSH1 0x40 MSTORE POP DUP2 ADD SWAP1 PUSH2 0x267 SWAP2 SWAP1 PUSH2 0x79C JUMP JUMPDEST POP CALLER PUSH20 0xFFFFFFFFFFFFFFFFFFFFFFFFFFFFFFFFFFFFFFFF AND PUSH2 0x8FC DUP3 SWAP1 DUP2 ISZERO MUL SWAP1 PUSH1 0x40 MLOAD PUSH0 PUSH1 0x40 MLOAD DUP1 DUP4 SUB DUP2 DUP6 DUP9 DUP9 CALL SWAP4 POP POP POP POP ISZERO DUP1 ISZERO PUSH2 0x2AB JUMPI RETURNDATASIZE PUSH0 DUP1 RETURNDATACOPY RETURNDATASIZE PUSH0 REVERT JUMPDEST POP POP POP JUMP JUMPDEST PUSH1 0x2 PUSH0 SWAP1 SLOAD SWAP1 PUSH2 0x100 EXP SWAP1 DIV PUSH20 0xFFFFFFFFFFFFFFFFFFFFFFFFFFFFFFFFFFFFFFFF AND DUP2 JUMP JUMPDEST PUSH1 0x1 PUSH0 SWAP1 SLOAD SWAP1 PUSH2 0x100 EXP SWAP1 DIV PUSH20 0xFFFFFFFFFFFFFFFFFFFFFFFFFFFFFFFFFFFFFFFF AND DUP2 JUMP JUMPDEST PUSH0 PUSH20 0xFFFFFFFFFFFFFFFFFFFFFFFFFFFFFFFFFFFFFFFF DUP3 AND SWAP1 POP SWAP2 SWAP1 POP JUMP JUMPDEST PUSH0 PUSH2 0x323 DUP3 PUSH2 0x2FA JUMP JUMPDEST SWAP1 POP SWAP2 SWAP1 POP JUMP JUMPDEST PUSH2 0x333 DUP2 PUSH2 0x319 JUMP JUMPDEST DUP3 MSTORE POP POP JUMP JUMPDEST PUSH0 PUSH1 0x20 DUP3 ADD SWAP1 POP PUSH2 0x34C PUSH0 DUP4 ADD DUP5 PUSH2 0x32A JUMP JUMPDEST SWAP3 SWAP2 POP POP JUMP JUMPDEST PUSH0 DUP2 SWAP1 POP SWAP2 SWAP1 POP JUMP JUMPDEST PUSH0 PUSH2 0x375 PUSH2 0x370 PUSH2 0x36B DUP5 PUSH2 0x2FA JUMP JUMPDEST PUSH2 0x352 JUMP JUMPDEST PUSH2 0x2FA JUMP JUMPDEST SWAP1 POP SWAP2 SWAP1 POP JUMP JUMPDEST PUSH0 PUSH2 0x386 DUP3 PUSH2 0x35B JUMP JUMPDEST SWAP1 POP SWAP2 SWAP1 POP JUMP JUMPDEST PUSH0 PUSH2 0x397 DUP3 PUSH2 0x37C JUMP JUMPDEST SWAP1 POP SWAP2 SWAP1 POP JUMP JUMPDEST PUSH2 0x3A7 DUP2 PUSH2 0x38D JUMP JUMPDEST DUP3 MSTORE POP POP JUMP JUMPDEST PUSH0 PUSH1 0x20 DUP3 ADD SWAP1 POP PUSH2 0x3C0 PUSH0 DUP4 ADD DUP5 PUSH2 0x39E JUMP JUMPDEST SWAP3 SWAP2 POP POP JUMP JUMPDEST PUSH0 DUP3 DUP3 MSTORE PUSH1 0x20 DUP3 ADD SWAP1 POP SWAP3 SWAP2 POP POP JUMP JUMPDEST PUSH32 0x4E6F7420656E6F75676820746F6B656E2073656E740000000000000000000000 PUSH0 DUP3 ADD MSTORE POP JUMP JUMPDEST PUSH0 PUSH2 0x40A PUSH1 0x15 DUP4 PUSH2 0x3C6 JUMP JUMPDEST SWAP2 POP PUSH2 0x415 DUP3 PUSH2 0x3D6 JUMP JUMPDEST PUSH1 0x20 DUP3 ADD SWAP1 POP SWAP2 SWAP1 POP JUMP JUMPDEST PUSH0 PUSH1 0x20 DUP3 ADD SWAP1 POP DUP2 DUP2 SUB PUSH0 DUP4 ADD MSTORE PUSH2 0x437 DUP2 PUSH2 0x3FE JUMP JUMPDEST SWAP1 POP SWAP2 SWAP1 POP JUMP JUMPDEST PUSH0 DUP2 SWAP1 POP SWAP2 SWAP1 POP JUMP JUMPDEST PUSH32 0x4E487B7100000000000000000000000000000000000000000000000000000000 PUSH0 MSTORE PUSH1 0x12 PUSH1 0x4 MSTORE PUSH1 0x24 PUSH0 REVERT JUMPDEST PUSH32 0x4E487B7100000000000000000000000000000000000000000000000000000000 PUSH0 MSTORE PUSH1 0x11 PUSH1 0x4 MSTORE PUSH1 0x24 PUSH0 REVERT JUMPDEST PUSH0 PUSH2 0x4AB DUP3 PUSH2 0x43E JUMP JUMPDEST SWAP2 POP PUSH2 0x4B6 DUP4 PUSH2 0x43E JUMP JUMPDEST SWAP3 POP DUP3 PUSH2 0x4C6 JUMPI PUSH2 0x4C5 PUSH2 0x447 JUMP JUMPDEST JUMPDEST DUP3 DUP3 DIV SWAP1 POP SWAP3 SWAP2 POP POP JUMP JUMPDEST PUSH0 PUSH2 0x4DB DUP3 PUSH2 0x43E JUMP JUMPDEST SWAP2 POP PUSH2 0x4E6 DUP4 PUSH2 0x43E JUMP JUMPDEST SWAP3 POP DUP3 DUP3 MUL PUSH2 0x4F4 DUP2 PUSH2 0x43E JUMP JUMPDEST SWAP2 POP DUP3 DUP3 DIV DUP5 EQ DUP4 ISZERO OR PUSH2 0x50B JUMPI PUSH2 0x50A PUSH2 0x474 JUMP JUMPDEST JUMPDEST POP SWAP3 SWAP2 POP POP JUMP JUMPDEST PUSH0 PUSH2 0x51C DUP3 PUSH2 0x43E JUMP JUMPDEST SWAP2 POP PUSH2 0x527 DUP4 PUSH2 0x43E JUMP JUMPDEST SWAP3 POP DUP3 DUP3 SUB SWAP1 POP DUP2 DUP2 GT ISZERO PUSH2 0x53F JUMPI PUSH2 0x53E PUSH2 0x474 JUMP JUMPDEST JUMPDEST SWAP3 SWAP2 POP POP JUMP JUMPDEST PUSH0 DUP1 REVERT JUMPDEST PUSH0 PUSH1 0xFF DUP3 AND SWAP1 POP SWAP2 SWAP1 POP JUMP JUMPDEST PUSH2 0x55E DUP2 PUSH2 0x549 JUMP JUMPDEST DUP2 EQ PUSH2 0x568 JUMPI PUSH0 DUP1 REVERT JUMPDEST POP JUMP JUMPDEST PUSH0 DUP2 MLOAD SWAP1 POP PUSH2 0x579 DUP2 PUSH2 0x555 JUMP JUMPDEST SWAP3 SWAP2 POP POP JUMP JUMPDEST PUSH0 PUSH1 0x20 DUP3 DUP5 SUB SLT ISZERO PUSH2 0x594 JUMPI PUSH2 0x593 PUSH2 0x545 JUMP JUMPDEST JUMPDEST PUSH0 PUSH2 0x5A1 DUP5 DUP3 DUP6 ADD PUSH2 0x56B JUMP JUMPDEST SWAP2 POP POP SWAP3 SWAP2 POP POP JUMP JUMPDEST PUSH0 DUP2 PUSH1 0x1 SHR SWAP1 POP SWAP2 SWAP1 POP JUMP JUMPDEST PUSH0 DUP1 DUP3 SWAP2 POP DUP4 SWAP1 POP JUMPDEST PUSH1 0x1 DUP6 GT ISZERO PUSH2 0x5FF JUMPI DUP1 DUP7 DIV DUP2 GT ISZERO PUSH2 0x5DB JUMPI PUSH2 0x5DA PUSH2 0x474 JUMP JUMPDEST JUMPDEST PUSH1 0x1 DUP6 AND ISZERO PUSH2 0x5EA JUMPI DUP1 DUP3 MUL SWAP2 POP JUMPDEST DUP1 DUP2 MUL SWAP1 POP PUSH2 0x5F8 DUP6 PUSH2 0x5AA JUMP JUMPDEST SWAP5 POP PUSH2 0x5BF JUMP JUMPDEST SWAP5 POP SWAP5 SWAP3 POP POP POP JUMP JUMPDEST PUSH0 DUP3 PUSH2 0x617 JUMPI PUSH1 0x1 SWAP1 POP PUSH2 0x6D2 JUMP JUMPDEST DUP2 PUSH2 0x624 JUMPI PUSH0 SWAP1 POP PUSH2 0x6D2 JUMP JUMPDEST DUP2 PUSH1 0x1 DUP2 EQ PUSH2 0x63A JUMPI PUSH1 0x2 DUP2 EQ PUSH2 0x644 JUMPI PUSH2 0x673 JUMP JUMPDEST PUSH1 0x1 SWAP2 POP POP PUSH2 0x6D2 JUMP JUMPDEST PUSH1 0xFF DUP5 GT ISZERO PUSH2 0x656 JUMPI PUSH2 0x655 PUSH2 0x474 JUMP JUMPDEST JUMPDEST DUP4 PUSH1 0x2 EXP SWAP2 POP DUP5 DUP3 GT ISZERO PUSH2 0x66D JUMPI PUSH2 0x66C PUSH2 0x474 JUMP JUMPDEST JUMPDEST POP PUSH2 0x6D2 JUMP JUMPDEST POP PUSH1 0x20 DUP4 LT PUSH2 0x133 DUP4 LT AND PUSH1 0x4E DUP5 LT PUSH1 0xB DUP5 LT AND OR ISZERO PUSH2 0x6A8 JUMPI DUP3 DUP3 EXP SWAP1 POP DUP4 DUP2 GT ISZERO PUSH2 0x6A3 JUMPI PUSH2 0x6A2 PUSH2 0x474 JUMP JUMPDEST JUMPDEST PUSH2 0x6D2 JUMP JUMPDEST PUSH2 0x6B5 DUP5 DUP5 DUP5 PUSH1 0x1 PUSH2 0x5B6 JUMP JUMPDEST SWAP3 POP SWAP1 POP DUP2 DUP5 DIV DUP2 GT ISZERO PUSH2 0x6CC JUMPI PUSH2 0x6CB PUSH2 0x474 JUMP JUMPDEST JUMPDEST DUP2 DUP2 MUL SWAP1 POP JUMPDEST SWAP4 SWAP3 POP POP POP JUMP JUMPDEST PUSH0 PUSH2 0x6E3 DUP3 PUSH2 0x43E JUMP JUMPDEST SWAP2 POP PUSH2 0x6EE DUP4 PUSH2 0x549 JUMP JUMPDEST SWAP3 POP PUSH2 0x71B PUSH32 0xFFFFFFFFFFFFFFFFFFFFFFFFFFFFFFFFFFFFFFFFFFFFFFFFFFFFFFFFFFFFFFFF DUP5 DUP5 PUSH2 0x608 JUMP JUMPDEST SWAP1 POP SWAP3 SWAP2 POP POP JUMP JUMPDEST PUSH2 0x72C DUP2 PUSH2 0x43E JUMP JUMPDEST DUP3 MSTORE POP POP JUMP JUMPDEST PUSH0 PUSH1 0x60 DUP3 ADD SWAP1 POP PUSH2 0x745 PUSH0 DUP4 ADD DUP7 PUSH2 0x32A JUMP JUMPDEST PUSH2 0x752 PUSH1 0x20 DUP4 ADD DUP6 PUSH2 0x32A JUMP JUMPDEST PUSH2 0x75F PUSH1 0x40 DUP4 ADD DUP5 PUSH2 0x723 JUMP JUMPDEST SWAP5 SWAP4 POP POP POP POP JUMP JUMPDEST PUSH0 DUP2 ISZERO ISZERO SWAP1 POP SWAP2 SWAP1 POP JUMP JUMPDEST PUSH2 0x77B DUP2 PUSH2 0x767 JUMP JUMPDEST DUP2 EQ PUSH2 0x785 JUMPI PUSH0 DUP1 REVERT JUMPDEST POP JUMP JUMPDEST PUSH0 DUP2 MLOAD SWAP1 POP PUSH2 0x796 DUP2 PUSH2 0x772 JUMP JUMPDEST SWAP3 SWAP2 POP POP JUMP JUMPDEST PUSH0 PUSH1 0x20 DUP3 DUP5 SUB SLT ISZERO PUSH2 0x7B1 JUMPI PUSH2 0x7B0 PUSH2 0x545 JUMP JUMPDEST JUMPDEST PUSH0 PUSH2 0x7BE DUP5 DUP3 DUP6 ADD PUSH2 0x788 JUMP JUMPDEST SWAP2 POP POP SWAP3 SWAP2 POP POP JUMP INVALID LOG2 PUSH5 0x6970667358 0x22 SLT KECCAK256 BLOCKHASH 0xAD MLOAD DUP4 BYTE SIGNEXTEND 0xA5 EXP CODESIZE ADDMOD MLOAD 0x2D CODESIZE 0x26 0xB0 0x2B 0xDC EXP DUP11 0x2F 0xEE PUSH20 0xC0B14FAB860EFE55D3F964736F6C634300081A00 CALLER "
				},
				"gasEstimates": {
					"creation": {
						"codeDepositCost": "409000",
						"executionCost": "infinite",
						"totalCost": "infinite"
					},
					"external": {
						"purchaseCoeffee()": "infinite",
						"token()": "infinite",
						"tokenOwner()": "2508"
					}
				},
				"methodIdentifiers": {
					"purchaseCoeffee()": "7e0d5494",
					"token()": "fc0c546a",
					"tokenOwner()": "a3e67610"
				}
			},
			"storageLayout": {
				"storage": [
					{
						"astId": 21,
						"contract": "contracts/Block_4/TokenSaleProject.sol:TokenSaleProject",
						"label": "tokenPriceInWei",
						"offset": 0,
						"slot": "0",
						"type": "t_uint256"
					},
					{
						"astId": 24,
						"contract": "contracts/Block_4/TokenSaleProject.sol:TokenSaleProject",
						"label": "token",
						"offset": 0,
						"slot": "1",
						"type": "t_contract(ERC20)18"
					},
					{
						"astId": 26,
						"contract": "contracts/Block_4/TokenSaleProject.sol:TokenSaleProject",
						"label": "tokenOwner",
						"offset": 0,
						"slot": "2",
						"type": "t_address"
					}
				],
				"types": {
					"t_address": {
						"encoding": "inplace",
						"label": "address",
						"numberOfBytes": "20"
					},
					"t_contract(ERC20)18": {
						"encoding": "inplace",
						"label": "contract ERC20",
						"numberOfBytes": "20"
					},
					"t_uint256": {
						"encoding": "inplace",
						"label": "uint256",
						"numberOfBytes": "32"
					}
				}
			},
			"userdoc": {
				"kind": "user",
				"methods": {},
				"version": 1
			}
		}
	}
}