{
	"data": {
		"bytecode": {
			"linkReferences": {},
			"object": "6080604052348015600e575f80fd5b5061023b8061001c5f395ff3fe608060405234801561000f575f80fd5b5060043610610029575f3560e01c8063d1f4ba821461002d575b5f80fd5b610035610037565b005b5f600290505f60149050808261004d91906101bb565b5f819055505050565b7f4e487b71000000000000000000000000000000000000000000000000000000005f52601160045260245ffd5b5f8160011c9050919050565b5f808291508390505b60018511156100d8578086048111156100b4576100b3610056565b5b60018516156100c35780820291505b80810290506100d185610083565b9450610098565b94509492505050565b5f826100f057600190506101ab565b816100fd575f90506101ab565b8160018114610113576002811461011d5761014c565b60019150506101ab565b60ff84111561012f5761012e610056565b5b8360020a91508482111561014657610145610056565b5b506101ab565b5060208310610133831016604e8410600b84101617156101815782820a90508381111561017c5761017b610056565b5b6101ab565b61018e848484600161008f565b925090508184048111156101a5576101a4610056565b5b81810290505b9392505050565b5f819050919050565b5f6101c5826101b2565b91506101d0836101b2565b92506101fd7fffffffffffffffffffffffffffffffffffffffffffffffffffffffffffffffff84846100e1565b90509291505056fea2646970667358221220c96a8f7bf541788354d40c08f382483a5501a1b268d598001900dea3b9e7b36e64736f6c634300081a0033",
			"opcodes": "PUSH1 0x80 PUSH1 0x40 MSTORE CALLVALUE DUP1 ISZERO PUSH1 0xE JUMPI PUSH0 DUP1 REVERT JUMPDEST POP PUSH2 0x23B DUP1 PUSH2 0x1C PUSH0 CODECOPY PUSH0 RETURN INVALID PUSH1 0x80 PUSH1 0x40 MSTORE CALLVALUE DUP1 ISZERO PUSH2 0xF JUMPI PUSH0 DUP1 REVERT JUMPDEST POP PUSH1 0x4 CALLDATASIZE LT PUSH2 0x29 JUMPI PUSH0 CALLDATALOAD PUSH1 0xE0 SHR DUP1 PUSH4 0xD1F4BA82 EQ PUSH2 0x2D JUMPI JUMPDEST PUSH0 DUP1 REVERT JUMPDEST PUSH2 0x35 PUSH2 0x37 JUMP JUMPDEST STOP JUMPDEST PUSH0 PUSH1 0x2 SWAP1 POP PUSH0 PUSH1 0x14 SWAP1 POP DUP1 DUP3 PUSH2 0x4D SWAP2 SWAP1 PUSH2 0x1BB JUMP JUMPDEST PUSH0 DUP2 SWAP1 SSTORE POP POP POP JUMP JUMPDEST PUSH32 0x4E487B7100000000000000000000000000000000000000000000000000000000 PUSH0 MSTORE PUSH1 0x11 PUSH1 0x4 MSTORE PUSH1 0x24 PUSH0 REVERT JUMPDEST PUSH0 DUP2 PUSH1 0x1 SHR SWAP1 POP SWAP2 SWAP1 POP JUMP JUMPDEST PUSH0 DUP1 DUP3 SWAP2 POP DUP4 SWAP1 POP JUMPDEST PUSH1 0x1 DUP6 GT ISZERO PUSH2 0xD8 JUMPI DUP1 DUP7 DIV DUP2 GT ISZERO PUSH2 0xB4 JUMPI PUSH2 0xB3 PUSH2 0x56 JUMP JUMPDEST JUMPDEST PUSH1 0x1 DUP6 AND ISZERO PUSH2 0xC3 JUMPI DUP1 DUP3 MUL SWAP2 POP JUMPDEST DUP1 DUP2 MUL SWAP1 POP PUSH2 0xD1 DUP6 PUSH2 0x83 JUMP JUMPDEST SWAP5 POP PUSH2 0x98 JUMP JUMPDEST SWAP5 POP SWAP5 SWAP3 POP POP POP JUMP JUMPDEST PUSH0 DUP3 PUSH2 0xF0 JUMPI PUSH1 0x1 SWAP1 POP PUSH2 0x1AB JUMP JUMPDEST DUP2 PUSH2 0xFD JUMPI PUSH0 SWAP1 POP PUSH2 0x1AB JUMP JUMPDEST DUP2 PUSH1 0x1 DUP2 EQ PUSH2 0x113 JUMPI PUSH1 0x2 DUP2 EQ PUSH2 0x11D JUMPI PUSH2 0x14C JUMP JUMPDEST PUSH1 0x1 SWAP2 POP POP PUSH2 0x1AB JUMP JUMPDEST PUSH1 0xFF DUP5 GT ISZERO PUSH2 0x12F JUMPI PUSH2 0x12E PUSH2 0x56 JUMP JUMPDEST JUMPDEST DUP4 PUSH1 0x2 EXP SWAP2 POP DUP5 DUP3 GT ISZERO PUSH2 0x146 JUMPI PUSH2 0x145 PUSH2 0x56 JUMP JUMPDEST JUMPDEST POP PUSH2 0x1AB JUMP JUMPDEST POP PUSH1 0x20 DUP4 LT PUSH2 0x133 DUP4 LT AND PUSH1 0x4E DUP5 LT PUSH1 0xB DUP5 LT AND OR ISZERO PUSH2 0x181 JUMPI DUP3 DUP3 EXP SWAP1 POP DUP4 DUP2 GT ISZERO PUSH2 0x17C JUMPI PUSH2 0x17B PUSH2 0x56 JUMP JUMPDEST JUMPDEST PUSH2 0x1AB JUMP JUMPDEST PUSH2 0x18E DUP5 DUP5 DUP5 PUSH1 0x1 PUSH2 0x8F JUMP JUMPDEST SWAP3 POP SWAP1 POP DUP2 DUP5 DIV DUP2 GT ISZERO PUSH2 0x1A5 JUMPI PUSH2 0x1A4 PUSH2 0x56 JUMP JUMPDEST JUMPDEST DUP2 DUP2 MUL SWAP1 POP JUMPDEST SWAP4 SWAP3 POP POP POP JUMP JUMPDEST PUSH0 DUP2 SWAP1 POP SWAP2 SWAP1 POP JUMP JUMPDEST PUSH0 PUSH2 0x1C5 DUP3 PUSH2 0x1B2 JUMP JUMPDEST SWAP2 POP PUSH2 0x1D0 DUP4 PUSH2 0x1B2 JUMP JUMPDEST SWAP3 POP PUSH2 0x1FD PUSH32 0xFFFFFFFFFFFFFFFFFFFFFFFFFFFFFFFFFFFFFFFFFFFFFFFFFFFFFFFFFFFFFFFF DUP5 DUP5 PUSH2 0xE1 JUMP JUMPDEST SWAP1 POP SWAP3 SWAP2 POP POP JUMP INVALID LOG2 PUSH5 0x6970667358 0x22 SLT KECCAK256 0xC9 PUSH11 0x8F7BF541788354D40C08F3 DUP3 BASEFEE GASPRICE SSTORE ADD LOG1 0xB2 PUSH9 0xD598001900DEA3B9E7 0xB3 PUSH15 0x64736F6C634300081A003300000000 "
		},
		"gasEstimates": {
			"creation": {
				"codeDepositCost": "114200",
				"executionCost": "157",
				"totalCost": "114357"
			},
			"external": {
				"setB()": "infinite"
			}
		},
		"methodIdentifiers": {
			"setB()": "d1f4ba82"
		}
	},
	"abi": [
		{
			"inputs": [],
			"name": "setB",
			"outputs": [],
			"stateMutability": "nonpayable",
			"type": "function"
		}
	]
}