{
	"data": {
		"bytecode": {
			"linkReferences": {},
			"object": "6080604052348015600e575f80fd5b506101c38061001c5f395ff3fe608060405234801561000f575f80fd5b5060043610610029575f3560e01c806354f8cd2e1461002d575b5f80fd5b610035610037565b005b61003f610076565b7f51a7f65c6325882f237d4aeb43228179cfad48b868511d508e24b4437a81913760405161006c90610107565b60405180910390a1565b7f51a7f65c6325882f237d4aeb43228179cfad48b868511d508e24b4437a8191376040516100a39061016f565b60405180910390a1565b5f82825260208201905092915050565b7f48656c6c6f2066726f6d204368696c64210000000000000000000000000000005f82015250565b5f6100f16011836100ad565b91506100fc826100bd565b602082019050919050565b5f6020820190508181035f83015261011e816100e5565b9050919050565b7f48656c6c6f2066726f6d20506172656e742100000000000000000000000000005f82015250565b5f6101596012836100ad565b915061016482610125565b602082019050919050565b5f6020820190508181035f8301526101868161014d565b905091905056fea2646970667358221220837d51c44f91a9fb162c600d3cbd6ee2ed8db644ff53640ff270ef12eb3235ec64736f6c634300081a0033",
			"opcodes": "PUSH1 0x80 PUSH1 0x40 MSTORE CALLVALUE DUP1 ISZERO PUSH1 0xE JUMPI PUSH0 DUP1 REVERT JUMPDEST POP PUSH2 0x1C3 DUP1 PUSH2 0x1C PUSH0 CODECOPY PUSH0 RETURN INVALID PUSH1 0x80 PUSH1 0x40 MSTORE CALLVALUE DUP1 ISZERO PUSH2 0xF JUMPI PUSH0 DUP1 REVERT JUMPDEST POP PUSH1 0x4 CALLDATASIZE LT PUSH2 0x29 JUMPI PUSH0 CALLDATALOAD PUSH1 0xE0 SHR DUP1 PUSH4 0x54F8CD2E EQ PUSH2 0x2D JUMPI JUMPDEST PUSH0 DUP1 REVERT JUMPDEST PUSH2 0x35 PUSH2 0x37 JUMP JUMPDEST STOP JUMPDEST PUSH2 0x3F PUSH2 0x76 JUMP JUMPDEST PUSH32 0x51A7F65C6325882F237D4AEB43228179CFAD48B868511D508E24B4437A819137 PUSH1 0x40 MLOAD PUSH2 0x6C SWAP1 PUSH2 0x107 JUMP JUMPDEST PUSH1 0x40 MLOAD DUP1 SWAP2 SUB SWAP1 LOG1 JUMP JUMPDEST PUSH32 0x51A7F65C6325882F237D4AEB43228179CFAD48B868511D508E24B4437A819137 PUSH1 0x40 MLOAD PUSH2 0xA3 SWAP1 PUSH2 0x16F JUMP JUMPDEST PUSH1 0x40 MLOAD DUP1 SWAP2 SUB SWAP1 LOG1 JUMP JUMPDEST PUSH0 DUP3 DUP3 MSTORE PUSH1 0x20 DUP3 ADD SWAP1 POP SWAP3 SWAP2 POP POP JUMP JUMPDEST PUSH32 0x48656C6C6F2066726F6D204368696C6421000000000000000000000000000000 PUSH0 DUP3 ADD MSTORE POP JUMP JUMPDEST PUSH0 PUSH2 0xF1 PUSH1 0x11 DUP4 PUSH2 0xAD JUMP JUMPDEST SWAP2 POP PUSH2 0xFC DUP3 PUSH2 0xBD JUMP JUMPDEST PUSH1 0x20 DUP3 ADD SWAP1 POP SWAP2 SWAP1 POP JUMP JUMPDEST PUSH0 PUSH1 0x20 DUP3 ADD SWAP1 POP DUP2 DUP2 SUB PUSH0 DUP4 ADD MSTORE PUSH2 0x11E DUP2 PUSH2 0xE5 JUMP JUMPDEST SWAP1 POP SWAP2 SWAP1 POP JUMP JUMPDEST PUSH32 0x48656C6C6F2066726F6D20506172656E74210000000000000000000000000000 PUSH0 DUP3 ADD MSTORE POP JUMP JUMPDEST PUSH0 PUSH2 0x159 PUSH1 0x12 DUP4 PUSH2 0xAD JUMP JUMPDEST SWAP2 POP PUSH2 0x164 DUP3 PUSH2 0x125 JUMP JUMPDEST PUSH1 0x20 DUP3 ADD SWAP1 POP SWAP2 SWAP1 POP JUMP JUMPDEST PUSH0 PUSH1 0x20 DUP3 ADD SWAP1 POP DUP2 DUP2 SUB PUSH0 DUP4 ADD MSTORE PUSH2 0x186 DUP2 PUSH2 0x14D JUMP JUMPDEST SWAP1 POP SWAP2 SWAP1 POP JUMP INVALID LOG2 PUSH5 0x6970667358 0x22 SLT KECCAK256 DUP4 PUSH30 0x51C44F91A9FB162C600D3CBD6EE2ED8DB644FF53640FF270EF12EB3235EC PUSH5 0x736F6C6343 STOP ADDMOD BYTE STOP CALLER "
		},
		"gasEstimates": {
			"creation": {
				"codeDepositCost": "90200",
				"executionCost": "139",
				"totalCost": "90339"
			},
			"external": {
				"printMessage()": "infinite"
			}
		},
		"methodIdentifiers": {
			"printMessage()": "54f8cd2e"
		}
	},
	"abi": [
		{
			"anonymous": false,
			"inputs": [
				{
					"indexed": false,
					"internalType": "string",
					"name": "",
					"type": "string"
				}
			],
			"name": "Message",
			"type": "event"
		},
		{
			"inputs": [],
			"name": "printMessage",
			"outputs": [],
			"stateMutability": "nonpayable",
			"type": "function"
		}
	]
}