{
	"data": {
		"bytecode": {
			"linkReferences": {},
			"object": "6080604052604051600e906074565b604051809103905ff0801580156026573d5f803e3d5ffd5b505f806101000a81548173ffffffffffffffffffffffffffffffffffffffff021916908373ffffffffffffffffffffffffffffffffffffffff160217905550348015606f575f80fd5b506081565b61074b806105ac83390190565b61051e8061008e5f395ff3fe608060405234801561000f575f80fd5b5060043610610029575f3560e01c8063d93746d51461002d575b5f80fd5b61003561004c565b6040516100439291906102ef565b60405180910390f35b60605f805f9054906101000a900473ffffffffffffffffffffffffffffffffffffffff1673ffffffffffffffffffffffffffffffffffffffff16631fc376f76040518163ffffffff1660e01b81526004015f604051808303815f87803b1580156100b4575f80fd5b505af11580156100c6573d5f803e3d5ffd5b505050505f8054906101000a900473ffffffffffffffffffffffffffffffffffffffff1673ffffffffffffffffffffffffffffffffffffffff1663d1f4ba826040518163ffffffff1660e01b81526004015f604051808303815f87803b15801561012e575f80fd5b505af1158015610140573d5f803e3d5ffd5b505050505f8054906101000a900473ffffffffffffffffffffffffffffffffffffffff1673ffffffffffffffffffffffffffffffffffffffff1663b8c9e4ed6040518163ffffffff1660e01b81526004015f60405180830381865afa1580156101ab573d5f803e3d5ffd5b505050506040513d5f823e3d601f19601f820116820180604052508101906101d3919061044c565b5f8054906101000a900473ffffffffffffffffffffffffffffffffffffffff1673ffffffffffffffffffffffffffffffffffffffff1663ab5a47956040518163ffffffff1660e01b8152600401602060405180830381865afa15801561023b573d5f803e3d5ffd5b505050506040513d601f19601f8201168201806040525081019061025f91906104bd565b915091509091565b5f81519050919050565b5f82825260208201905092915050565b8281835e5f83830152505050565b5f601f19601f8301169050919050565b5f6102a982610267565b6102b38185610271565b93506102c3818560208601610281565b6102cc8161028f565b840191505092915050565b5f819050919050565b6102e9816102d7565b82525050565b5f6040820190508181035f830152610307818561029f565b905061031660208301846102e0565b9392505050565b5f604051905090565b5f80fd5b5f80fd5b5f80fd5b5f80fd5b7f4e487b71000000000000000000000000000000000000000000000000000000005f52604160045260245ffd5b61036c8261028f565b810181811067ffffffffffffffff8211171561038b5761038a610336565b5b80604052505050565b5f61039d61031d565b90506103a98282610363565b919050565b5f67ffffffffffffffff8211156103c8576103c7610336565b5b6103d18261028f565b9050602081019050919050565b5f6103f06103eb846103ae565b610394565b90508281526020810184848401111561040c5761040b610332565b5b610417848285610281565b509392505050565b5f82601f8301126104335761043261032e565b5b81516104438482602086016103de565b91505092915050565b5f6020828403121561046157610460610326565b5b5f82015167ffffffffffffffff81111561047e5761047d61032a565b5b61048a8482850161041f565b91505092915050565b61049c816102d7565b81146104a6575f80fd5b50565b5f815190506104b781610493565b92915050565b5f602082840312156104d2576104d1610326565b5b5f6104df848285016104a9565b9150509291505056fea26469706673582212207b922bbe56def1d0725d4afadfea4c9de3258f1f2742aa1eddf048fd9bcaa7b264736f6c634300081a00336080604052348015600e575f80fd5b5061072f8061001c5f395ff3fe608060405234801561000f575f80fd5b506004361061004a575f3560e01c80631fc376f71461004e578063ab5a479514610058578063b8c9e4ed14610076578063d1f4ba8214610094575b5f80fd5b61005661009e565b005b6100606100e4565b60405161006d91906101b4565b60405180910390f35b61007e6100ed565b60405161008b919061023d565b60405180910390f35b61009c61017c565b005b6040518060400160405280600d81526020017f4765656b73466f724765656b73000000000000000000000000000000000000008152505f90816100e19190610484565b50565b5f600154905090565b60605f80546100fb906102b7565b80601f0160208091040260200160405190810160405280929190818152602001828054610127906102b7565b80156101725780601f1061014957610100808354040283529160200191610172565b820191905f5260205f20905b81548152906001019060200180831161015557829003601f168201915b5050505050905090565b5f600290505f60149050808261019291906106af565b6001819055505050565b5f819050919050565b6101ae8161019c565b82525050565b5f6020820190506101c75f8301846101a5565b92915050565b5f81519050919050565b5f82825260208201905092915050565b8281835e5f83830152505050565b5f601f19601f8301169050919050565b5f61020f826101cd565b61021981856101d7565b93506102298185602086016101e7565b610232816101f5565b840191505092915050565b5f6020820190508181035f8301526102558184610205565b905092915050565b7f4e487b71000000000000000000000000000000000000000000000000000000005f52604160045260245ffd5b7f4e487b71000000000000000000000000000000000000000000000000000000005f52602260045260245ffd5b5f60028204905060018216806102ce57607f821691505b6020821081036102e1576102e061028a565b5b50919050565b5f819050815f5260205f209050919050565b5f6020601f8301049050919050565b5f82821b905092915050565b5f600883026103437fffffffffffffffffffffffffffffffffffffffffffffffffffffffffffffffff82610308565b61034d8683610308565b95508019841693508086168417925050509392505050565b5f819050919050565b5f61038861038361037e8461019c565b610365565b61019c565b9050919050565b5f819050919050565b6103a18361036e565b6103b56103ad8261038f565b848454610314565b825550505050565b5f90565b6103c96103bd565b6103d4818484610398565b505050565b5b818110156103f7576103ec5f826103c1565b6001810190506103da565b5050565b601f82111561043c5761040d816102e7565b610416846102f9565b81016020851015610425578190505b610439610431856102f9565b8301826103d9565b50505b505050565b5f82821c905092915050565b5f61045c5f1984600802610441565b1980831691505092915050565b5f610474838361044d565b9150826002028217905092915050565b61048d826101cd565b67ffffffffffffffff8111156104a6576104a561025d565b5b6104b082546102b7565b6104bb8282856103fb565b5f60209050601f8311600181146104ec575f84156104da578287015190505b6104e48582610469565b86555061054b565b601f1984166104fa866102e7565b5f5b82811015610521578489015182556001820191506020850194506020810190506104fc565b8683101561053e578489015161053a601f89168261044d565b8355505b6001600288020188555050505b505050505050565b7f4e487b71000000000000000000000000000000000000000000000000000000005f52601160045260245ffd5b5f8160011c9050919050565b5f808291508390505b60018511156105d5578086048111156105b1576105b0610553565b5b60018516156105c05780820291505b80810290506105ce85610580565b9450610595565b94509492505050565b5f826105ed57600190506106a8565b816105fa575f90506106a8565b8160018114610610576002811461061a57610649565b60019150506106a8565b60ff84111561062c5761062b610553565b5b8360020a91508482111561064357610642610553565b5b506106a8565b5060208310610133831016604e8410600b841016171561067e5782820a90508381111561067957610678610553565b5b6106a8565b61068b848484600161058c565b925090508184048111156106a2576106a1610553565b5b81810290505b9392505050565b5f6106b98261019c565b91506106c48361019c565b92506106f17fffffffffffffffffffffffffffffffffffffffffffffffffffffffffffffffff84846105de565b90509291505056fea26469706673582212208b4969c1e2db7ac2bed4fd8eb5ba13a439628b75cf67a97f6ee241d84752ee8564736f6c634300081a0033",
			"opcodes": "PUSH1 0x80 PUSH1 0x40 MSTORE PUSH1 0x40 MLOAD PUSH1 0xE SWAP1 PUSH1 0x74 JUMP JUMPDEST PUSH1 0x40 MLOAD DUP1 SWAP2 SUB SWAP1 PUSH0 CREATE DUP1 ISZERO DUP1 ISZERO PUSH1 0x26 JUMPI RETURNDATASIZE PUSH0 DUP1 RETURNDATACOPY RETURNDATASIZE PUSH0 REVERT JUMPDEST POP PUSH0 DUP1 PUSH2 0x100 EXP DUP2 SLOAD DUP2 PUSH20 0xFFFFFFFFFFFFFFFFFFFFFFFFFFFFFFFFFFFFFFFF MUL NOT AND SWAP1 DUP4 PUSH20 0xFFFFFFFFFFFFFFFFFFFFFFFFFFFFFFFFFFFFFFFF AND MUL OR SWAP1 SSTORE POP CALLVALUE DUP1 ISZERO PUSH1 0x6F JUMPI PUSH0 DUP1 REVERT JUMPDEST POP PUSH1 0x81 JUMP JUMPDEST PUSH2 0x74B DUP1 PUSH2 0x5AC DUP4 CODECOPY ADD SWAP1 JUMP JUMPDEST PUSH2 0x51E DUP1 PUSH2 0x8E PUSH0 CODECOPY PUSH0 RETURN INVALID PUSH1 0x80 PUSH1 0x40 MSTORE CALLVALUE DUP1 ISZERO PUSH2 0xF JUMPI PUSH0 DUP1 REVERT JUMPDEST POP PUSH1 0x4 CALLDATASIZE LT PUSH2 0x29 JUMPI PUSH0 CALLDATALOAD PUSH1 0xE0 SHR DUP1 PUSH4 0xD93746D5 EQ PUSH2 0x2D JUMPI JUMPDEST PUSH0 DUP1 REVERT JUMPDEST PUSH2 0x35 PUSH2 0x4C JUMP JUMPDEST PUSH1 0x40 MLOAD PUSH2 0x43 SWAP3 SWAP2 SWAP1 PUSH2 0x2EF JUMP JUMPDEST PUSH1 0x40 MLOAD DUP1 SWAP2 SUB SWAP1 RETURN JUMPDEST PUSH1 0x60 PUSH0 DUP1 PUSH0 SWAP1 SLOAD SWAP1 PUSH2 0x100 EXP SWAP1 DIV PUSH20 0xFFFFFFFFFFFFFFFFFFFFFFFFFFFFFFFFFFFFFFFF AND PUSH20 0xFFFFFFFFFFFFFFFFFFFFFFFFFFFFFFFFFFFFFFFF AND PUSH4 0x1FC376F7 PUSH1 0x40 MLOAD DUP2 PUSH4 0xFFFFFFFF AND PUSH1 0xE0 SHL DUP2 MSTORE PUSH1 0x4 ADD PUSH0 PUSH1 0x40 MLOAD DUP1 DUP4 SUB DUP2 PUSH0 DUP8 DUP1 EXTCODESIZE ISZERO DUP1 ISZERO PUSH2 0xB4 JUMPI PUSH0 DUP1 REVERT JUMPDEST POP GAS CALL ISZERO DUP1 ISZERO PUSH2 0xC6 JUMPI RETURNDATASIZE PUSH0 DUP1 RETURNDATACOPY RETURNDATASIZE PUSH0 REVERT JUMPDEST POP POP POP POP PUSH0 DUP1 SLOAD SWAP1 PUSH2 0x100 EXP SWAP1 DIV PUSH20 0xFFFFFFFFFFFFFFFFFFFFFFFFFFFFFFFFFFFFFFFF AND PUSH20 0xFFFFFFFFFFFFFFFFFFFFFFFFFFFFFFFFFFFFFFFF AND PUSH4 0xD1F4BA82 PUSH1 0x40 MLOAD DUP2 PUSH4 0xFFFFFFFF AND PUSH1 0xE0 SHL DUP2 MSTORE PUSH1 0x4 ADD PUSH0 PUSH1 0x40 MLOAD DUP1 DUP4 SUB DUP2 PUSH0 DUP8 DUP1 EXTCODESIZE ISZERO DUP1 ISZERO PUSH2 0x12E JUMPI PUSH0 DUP1 REVERT JUMPDEST POP GAS CALL ISZERO DUP1 ISZERO PUSH2 0x140 JUMPI RETURNDATASIZE PUSH0 DUP1 RETURNDATACOPY RETURNDATASIZE PUSH0 REVERT JUMPDEST POP POP POP POP PUSH0 DUP1 SLOAD SWAP1 PUSH2 0x100 EXP SWAP1 DIV PUSH20 0xFFFFFFFFFFFFFFFFFFFFFFFFFFFFFFFFFFFFFFFF AND PUSH20 0xFFFFFFFFFFFFFFFFFFFFFFFFFFFFFFFFFFFFFFFF AND PUSH4 0xB8C9E4ED PUSH1 0x40 MLOAD DUP2 PUSH4 0xFFFFFFFF AND PUSH1 0xE0 SHL DUP2 MSTORE PUSH1 0x4 ADD PUSH0 PUSH1 0x40 MLOAD DUP1 DUP4 SUB DUP2 DUP7 GAS STATICCALL ISZERO DUP1 ISZERO PUSH2 0x1AB JUMPI RETURNDATASIZE PUSH0 DUP1 RETURNDATACOPY RETURNDATASIZE PUSH0 REVERT JUMPDEST POP POP POP POP PUSH1 0x40 MLOAD RETURNDATASIZE PUSH0 DUP3 RETURNDATACOPY RETURNDATASIZE PUSH1 0x1F NOT PUSH1 0x1F DUP3 ADD AND DUP3 ADD DUP1 PUSH1 0x40 MSTORE POP DUP2 ADD SWAP1 PUSH2 0x1D3 SWAP2 SWAP1 PUSH2 0x44C JUMP JUMPDEST PUSH0 DUP1 SLOAD SWAP1 PUSH2 0x100 EXP SWAP1 DIV PUSH20 0xFFFFFFFFFFFFFFFFFFFFFFFFFFFFFFFFFFFFFFFF AND PUSH20 0xFFFFFFFFFFFFFFFFFFFFFFFFFFFFFFFFFFFFFFFF AND PUSH4 0xAB5A4795 PUSH1 0x40 MLOAD DUP2 PUSH4 0xFFFFFFFF AND PUSH1 0xE0 SHL DUP2 MSTORE PUSH1 0x4 ADD PUSH1 0x20 PUSH1 0x40 MLOAD DUP1 DUP4 SUB DUP2 DUP7 GAS STATICCALL ISZERO DUP1 ISZERO PUSH2 0x23B JUMPI RETURNDATASIZE PUSH0 DUP1 RETURNDATACOPY RETURNDATASIZE PUSH0 REVERT JUMPDEST POP POP POP POP PUSH1 0x40 MLOAD RETURNDATASIZE PUSH1 0x1F NOT PUSH1 0x1F DUP3 ADD AND DUP3 ADD DUP1 PUSH1 0x40 MSTORE POP DUP2 ADD SWAP1 PUSH2 0x25F SWAP2 SWAP1 PUSH2 0x4BD JUMP JUMPDEST SWAP2 POP SWAP2 POP SWAP1 SWAP2 JUMP JUMPDEST PUSH0 DUP2 MLOAD SWAP1 POP SWAP2 SWAP1 POP JUMP JUMPDEST PUSH0 DUP3 DUP3 MSTORE PUSH1 0x20 DUP3 ADD SWAP1 POP SWAP3 SWAP2 POP POP JUMP JUMPDEST DUP3 DUP2 DUP4 MCOPY PUSH0 DUP4 DUP4 ADD MSTORE POP POP POP JUMP JUMPDEST PUSH0 PUSH1 0x1F NOT PUSH1 0x1F DUP4 ADD AND SWAP1 POP SWAP2 SWAP1 POP JUMP JUMPDEST PUSH0 PUSH2 0x2A9 DUP3 PUSH2 0x267 JUMP JUMPDEST PUSH2 0x2B3 DUP2 DUP6 PUSH2 0x271 JUMP JUMPDEST SWAP4 POP PUSH2 0x2C3 DUP2 DUP6 PUSH1 0x20 DUP7 ADD PUSH2 0x281 JUMP JUMPDEST PUSH2 0x2CC DUP2 PUSH2 0x28F JUMP JUMPDEST DUP5 ADD SWAP2 POP POP SWAP3 SWAP2 POP POP JUMP JUMPDEST PUSH0 DUP2 SWAP1 POP SWAP2 SWAP1 POP JUMP JUMPDEST PUSH2 0x2E9 DUP2 PUSH2 0x2D7 JUMP JUMPDEST DUP3 MSTORE POP POP JUMP JUMPDEST PUSH0 PUSH1 0x40 DUP3 ADD SWAP1 POP DUP2 DUP2 SUB PUSH0 DUP4 ADD MSTORE PUSH2 0x307 DUP2 DUP6 PUSH2 0x29F JUMP JUMPDEST SWAP1 POP PUSH2 0x316 PUSH1 0x20 DUP4 ADD DUP5 PUSH2 0x2E0 JUMP JUMPDEST SWAP4 SWAP3 POP POP POP JUMP JUMPDEST PUSH0 PUSH1 0x40 MLOAD SWAP1 POP SWAP1 JUMP JUMPDEST PUSH0 DUP1 REVERT JUMPDEST PUSH0 DUP1 REVERT JUMPDEST PUSH0 DUP1 REVERT JUMPDEST PUSH0 DUP1 REVERT JUMPDEST PUSH32 0x4E487B7100000000000000000000000000000000000000000000000000000000 PUSH0 MSTORE PUSH1 0x41 PUSH1 0x4 MSTORE PUSH1 0x24 PUSH0 REVERT JUMPDEST PUSH2 0x36C DUP3 PUSH2 0x28F JUMP JUMPDEST DUP2 ADD DUP2 DUP2 LT PUSH8 0xFFFFFFFFFFFFFFFF DUP3 GT OR ISZERO PUSH2 0x38B JUMPI PUSH2 0x38A PUSH2 0x336 JUMP JUMPDEST JUMPDEST DUP1 PUSH1 0x40 MSTORE POP POP POP JUMP JUMPDEST PUSH0 PUSH2 0x39D PUSH2 0x31D JUMP JUMPDEST SWAP1 POP PUSH2 0x3A9 DUP3 DUP3 PUSH2 0x363 JUMP JUMPDEST SWAP2 SWAP1 POP JUMP JUMPDEST PUSH0 PUSH8 0xFFFFFFFFFFFFFFFF DUP3 GT ISZERO PUSH2 0x3C8 JUMPI PUSH2 0x3C7 PUSH2 0x336 JUMP JUMPDEST JUMPDEST PUSH2 0x3D1 DUP3 PUSH2 0x28F JUMP JUMPDEST SWAP1 POP PUSH1 0x20 DUP2 ADD SWAP1 POP SWAP2 SWAP1 POP JUMP JUMPDEST PUSH0 PUSH2 0x3F0 PUSH2 0x3EB DUP5 PUSH2 0x3AE JUMP JUMPDEST PUSH2 0x394 JUMP JUMPDEST SWAP1 POP DUP3 DUP2 MSTORE PUSH1 0x20 DUP2 ADD DUP5 DUP5 DUP5 ADD GT ISZERO PUSH2 0x40C JUMPI PUSH2 0x40B PUSH2 0x332 JUMP JUMPDEST JUMPDEST PUSH2 0x417 DUP5 DUP3 DUP6 PUSH2 0x281 JUMP JUMPDEST POP SWAP4 SWAP3 POP POP POP JUMP JUMPDEST PUSH0 DUP3 PUSH1 0x1F DUP4 ADD SLT PUSH2 0x433 JUMPI PUSH2 0x432 PUSH2 0x32E JUMP JUMPDEST JUMPDEST DUP2 MLOAD PUSH2 0x443 DUP5 DUP3 PUSH1 0x20 DUP7 ADD PUSH2 0x3DE JUMP JUMPDEST SWAP2 POP POP SWAP3 SWAP2 POP POP JUMP JUMPDEST PUSH0 PUSH1 0x20 DUP3 DUP5 SUB SLT ISZERO PUSH2 0x461 JUMPI PUSH2 0x460 PUSH2 0x326 JUMP JUMPDEST JUMPDEST PUSH0 DUP3 ADD MLOAD PUSH8 0xFFFFFFFFFFFFFFFF DUP2 GT ISZERO PUSH2 0x47E JUMPI PUSH2 0x47D PUSH2 0x32A JUMP JUMPDEST JUMPDEST PUSH2 0x48A DUP5 DUP3 DUP6 ADD PUSH2 0x41F JUMP JUMPDEST SWAP2 POP POP SWAP3 SWAP2 POP POP JUMP JUMPDEST PUSH2 0x49C DUP2 PUSH2 0x2D7 JUMP JUMPDEST DUP2 EQ PUSH2 0x4A6 JUMPI PUSH0 DUP1 REVERT JUMPDEST POP JUMP JUMPDEST PUSH0 DUP2 MLOAD SWAP1 POP PUSH2 0x4B7 DUP2 PUSH2 0x493 JUMP JUMPDEST SWAP3 SWAP2 POP POP JUMP JUMPDEST PUSH0 PUSH1 0x20 DUP3 DUP5 SUB SLT ISZERO PUSH2 0x4D2 JUMPI PUSH2 0x4D1 PUSH2 0x326 JUMP JUMPDEST JUMPDEST PUSH0 PUSH2 0x4DF DUP5 DUP3 DUP6 ADD PUSH2 0x4A9 JUMP JUMPDEST SWAP2 POP POP SWAP3 SWAP2 POP POP JUMP INVALID LOG2 PUSH5 0x6970667358 0x22 SLT KECCAK256 PUSH28 0x922BBE56DEF1D0725D4AFADFEA4C9DE3258F1F2742AA1EDDF048FD9B 0xCA 0xA7 0xB2 PUSH5 0x736F6C6343 STOP ADDMOD BYTE STOP CALLER PUSH1 0x80 PUSH1 0x40 MSTORE CALLVALUE DUP1 ISZERO PUSH1 0xE JUMPI PUSH0 DUP1 REVERT JUMPDEST POP PUSH2 0x72F DUP1 PUSH2 0x1C PUSH0 CODECOPY PUSH0 RETURN INVALID PUSH1 0x80 PUSH1 0x40 MSTORE CALLVALUE DUP1 ISZERO PUSH2 0xF JUMPI PUSH0 DUP1 REVERT JUMPDEST POP PUSH1 0x4 CALLDATASIZE LT PUSH2 0x4A JUMPI PUSH0 CALLDATALOAD PUSH1 0xE0 SHR DUP1 PUSH4 0x1FC376F7 EQ PUSH2 0x4E JUMPI DUP1 PUSH4 0xAB5A4795 EQ PUSH2 0x58 JUMPI DUP1 PUSH4 0xB8C9E4ED EQ PUSH2 0x76 JUMPI DUP1 PUSH4 0xD1F4BA82 EQ PUSH2 0x94 JUMPI JUMPDEST PUSH0 DUP1 REVERT JUMPDEST PUSH2 0x56 PUSH2 0x9E JUMP JUMPDEST STOP JUMPDEST PUSH2 0x60 PUSH2 0xE4 JUMP JUMPDEST PUSH1 0x40 MLOAD PUSH2 0x6D SWAP2 SWAP1 PUSH2 0x1B4 JUMP JUMPDEST PUSH1 0x40 MLOAD DUP1 SWAP2 SUB SWAP1 RETURN JUMPDEST PUSH2 0x7E PUSH2 0xED JUMP JUMPDEST PUSH1 0x40 MLOAD PUSH2 0x8B SWAP2 SWAP1 PUSH2 0x23D JUMP JUMPDEST PUSH1 0x40 MLOAD DUP1 SWAP2 SUB SWAP1 RETURN JUMPDEST PUSH2 0x9C PUSH2 0x17C JUMP JUMPDEST STOP JUMPDEST PUSH1 0x40 MLOAD DUP1 PUSH1 0x40 ADD PUSH1 0x40 MSTORE DUP1 PUSH1 0xD DUP2 MSTORE PUSH1 0x20 ADD PUSH32 0x4765656B73466F724765656B7300000000000000000000000000000000000000 DUP2 MSTORE POP PUSH0 SWAP1 DUP2 PUSH2 0xE1 SWAP2 SWAP1 PUSH2 0x484 JUMP JUMPDEST POP JUMP JUMPDEST PUSH0 PUSH1 0x1 SLOAD SWAP1 POP SWAP1 JUMP JUMPDEST PUSH1 0x60 PUSH0 DUP1 SLOAD PUSH2 0xFB SWAP1 PUSH2 0x2B7 JUMP JUMPDEST DUP1 PUSH1 0x1F ADD PUSH1 0x20 DUP1 SWAP2 DIV MUL PUSH1 0x20 ADD PUSH1 0x40 MLOAD SWAP1 DUP2 ADD PUSH1 0x40 MSTORE DUP1 SWAP3 SWAP2 SWAP1 DUP2 DUP2 MSTORE PUSH1 0x20 ADD DUP3 DUP1 SLOAD PUSH2 0x127 SWAP1 PUSH2 0x2B7 JUMP JUMPDEST DUP1 ISZERO PUSH2 0x172 JUMPI DUP1 PUSH1 0x1F LT PUSH2 0x149 JUMPI PUSH2 0x100 DUP1 DUP4 SLOAD DIV MUL DUP4 MSTORE SWAP2 PUSH1 0x20 ADD SWAP2 PUSH2 0x172 JUMP JUMPDEST DUP3 ADD SWAP2 SWAP1 PUSH0 MSTORE PUSH1 0x20 PUSH0 KECCAK256 SWAP1 JUMPDEST DUP2 SLOAD DUP2 MSTORE SWAP1 PUSH1 0x1 ADD SWAP1 PUSH1 0x20 ADD DUP1 DUP4 GT PUSH2 0x155 JUMPI DUP3 SWAP1 SUB PUSH1 0x1F AND DUP3 ADD SWAP2 JUMPDEST POP POP POP POP POP SWAP1 POP SWAP1 JUMP JUMPDEST PUSH0 PUSH1 0x2 SWAP1 POP PUSH0 PUSH1 0x14 SWAP1 POP DUP1 DUP3 PUSH2 0x192 SWAP2 SWAP1 PUSH2 0x6AF JUMP JUMPDEST PUSH1 0x1 DUP2 SWAP1 SSTORE POP POP POP JUMP JUMPDEST PUSH0 DUP2 SWAP1 POP SWAP2 SWAP1 POP JUMP JUMPDEST PUSH2 0x1AE DUP2 PUSH2 0x19C JUMP JUMPDEST DUP3 MSTORE POP POP JUMP JUMPDEST PUSH0 PUSH1 0x20 DUP3 ADD SWAP1 POP PUSH2 0x1C7 PUSH0 DUP4 ADD DUP5 PUSH2 0x1A5 JUMP JUMPDEST SWAP3 SWAP2 POP POP JUMP JUMPDEST PUSH0 DUP2 MLOAD SWAP1 POP SWAP2 SWAP1 POP JUMP JUMPDEST PUSH0 DUP3 DUP3 MSTORE PUSH1 0x20 DUP3 ADD SWAP1 POP SWAP3 SWAP2 POP POP JUMP JUMPDEST DUP3 DUP2 DUP4 MCOPY PUSH0 DUP4 DUP4 ADD MSTORE POP POP POP JUMP JUMPDEST PUSH0 PUSH1 0x1F NOT PUSH1 0x1F DUP4 ADD AND SWAP1 POP SWAP2 SWAP1 POP JUMP JUMPDEST PUSH0 PUSH2 0x20F DUP3 PUSH2 0x1CD JUMP JUMPDEST PUSH2 0x219 DUP2 DUP6 PUSH2 0x1D7 JUMP JUMPDEST SWAP4 POP PUSH2 0x229 DUP2 DUP6 PUSH1 0x20 DUP7 ADD PUSH2 0x1E7 JUMP JUMPDEST PUSH2 0x232 DUP2 PUSH2 0x1F5 JUMP JUMPDEST DUP5 ADD SWAP2 POP POP SWAP3 SWAP2 POP POP JUMP JUMPDEST PUSH0 PUSH1 0x20 DUP3 ADD SWAP1 POP DUP2 DUP2 SUB PUSH0 DUP4 ADD MSTORE PUSH2 0x255 DUP2 DUP5 PUSH2 0x205 JUMP JUMPDEST SWAP1 POP SWAP3 SWAP2 POP POP JUMP JUMPDEST PUSH32 0x4E487B7100000000000000000000000000000000000000000000000000000000 PUSH0 MSTORE PUSH1 0x41 PUSH1 0x4 MSTORE PUSH1 0x24 PUSH0 REVERT JUMPDEST PUSH32 0x4E487B7100000000000000000000000000000000000000000000000000000000 PUSH0 MSTORE PUSH1 0x22 PUSH1 0x4 MSTORE PUSH1 0x24 PUSH0 REVERT JUMPDEST PUSH0 PUSH1 0x2 DUP3 DIV SWAP1 POP PUSH1 0x1 DUP3 AND DUP1 PUSH2 0x2CE JUMPI PUSH1 0x7F DUP3 AND SWAP2 POP JUMPDEST PUSH1 0x20 DUP3 LT DUP2 SUB PUSH2 0x2E1 JUMPI PUSH2 0x2E0 PUSH2 0x28A JUMP JUMPDEST JUMPDEST POP SWAP2 SWAP1 POP JUMP JUMPDEST PUSH0 DUP2 SWAP1 POP DUP2 PUSH0 MSTORE PUSH1 0x20 PUSH0 KECCAK256 SWAP1 POP SWAP2 SWAP1 POP JUMP JUMPDEST PUSH0 PUSH1 0x20 PUSH1 0x1F DUP4 ADD DIV SWAP1 POP SWAP2 SWAP1 POP JUMP JUMPDEST PUSH0 DUP3 DUP3 SHL SWAP1 POP SWAP3 SWAP2 POP POP JUMP JUMPDEST PUSH0 PUSH1 0x8 DUP4 MUL PUSH2 0x343 PUSH32 0xFFFFFFFFFFFFFFFFFFFFFFFFFFFFFFFFFFFFFFFFFFFFFFFFFFFFFFFFFFFFFFFF DUP3 PUSH2 0x308 JUMP JUMPDEST PUSH2 0x34D DUP7 DUP4 PUSH2 0x308 JUMP JUMPDEST SWAP6 POP DUP1 NOT DUP5 AND SWAP4 POP DUP1 DUP7 AND DUP5 OR SWAP3 POP POP POP SWAP4 SWAP3 POP POP POP JUMP JUMPDEST PUSH0 DUP2 SWAP1 POP SWAP2 SWAP1 POP JUMP JUMPDEST PUSH0 PUSH2 0x388 PUSH2 0x383 PUSH2 0x37E DUP5 PUSH2 0x19C JUMP JUMPDEST PUSH2 0x365 JUMP JUMPDEST PUSH2 0x19C JUMP JUMPDEST SWAP1 POP SWAP2 SWAP1 POP JUMP JUMPDEST PUSH0 DUP2 SWAP1 POP SWAP2 SWAP1 POP JUMP JUMPDEST PUSH2 0x3A1 DUP4 PUSH2 0x36E JUMP JUMPDEST PUSH2 0x3B5 PUSH2 0x3AD DUP3 PUSH2 0x38F JUMP JUMPDEST DUP5 DUP5 SLOAD PUSH2 0x314 JUMP JUMPDEST DUP3 SSTORE POP POP POP POP JUMP JUMPDEST PUSH0 SWAP1 JUMP JUMPDEST PUSH2 0x3C9 PUSH2 0x3BD JUMP JUMPDEST PUSH2 0x3D4 DUP2 DUP5 DUP5 PUSH2 0x398 JUMP JUMPDEST POP POP POP JUMP JUMPDEST JUMPDEST DUP2 DUP2 LT ISZERO PUSH2 0x3F7 JUMPI PUSH2 0x3EC PUSH0 DUP3 PUSH2 0x3C1 JUMP JUMPDEST PUSH1 0x1 DUP2 ADD SWAP1 POP PUSH2 0x3DA JUMP JUMPDEST POP POP JUMP JUMPDEST PUSH1 0x1F DUP3 GT ISZERO PUSH2 0x43C JUMPI PUSH2 0x40D DUP2 PUSH2 0x2E7 JUMP JUMPDEST PUSH2 0x416 DUP5 PUSH2 0x2F9 JUMP JUMPDEST DUP2 ADD PUSH1 0x20 DUP6 LT ISZERO PUSH2 0x425 JUMPI DUP2 SWAP1 POP JUMPDEST PUSH2 0x439 PUSH2 0x431 DUP6 PUSH2 0x2F9 JUMP JUMPDEST DUP4 ADD DUP3 PUSH2 0x3D9 JUMP JUMPDEST POP POP JUMPDEST POP POP POP JUMP JUMPDEST PUSH0 DUP3 DUP3 SHR SWAP1 POP SWAP3 SWAP2 POP POP JUMP JUMPDEST PUSH0 PUSH2 0x45C PUSH0 NOT DUP5 PUSH1 0x8 MUL PUSH2 0x441 JUMP JUMPDEST NOT DUP1 DUP4 AND SWAP2 POP POP SWAP3 SWAP2 POP POP JUMP JUMPDEST PUSH0 PUSH2 0x474 DUP4 DUP4 PUSH2 0x44D JUMP JUMPDEST SWAP2 POP DUP3 PUSH1 0x2 MUL DUP3 OR SWAP1 POP SWAP3 SWAP2 POP POP JUMP JUMPDEST PUSH2 0x48D DUP3 PUSH2 0x1CD JUMP JUMPDEST PUSH8 0xFFFFFFFFFFFFFFFF DUP2 GT ISZERO PUSH2 0x4A6 JUMPI PUSH2 0x4A5 PUSH2 0x25D JUMP JUMPDEST JUMPDEST PUSH2 0x4B0 DUP3 SLOAD PUSH2 0x2B7 JUMP JUMPDEST PUSH2 0x4BB DUP3 DUP3 DUP6 PUSH2 0x3FB JUMP JUMPDEST PUSH0 PUSH1 0x20 SWAP1 POP PUSH1 0x1F DUP4 GT PUSH1 0x1 DUP2 EQ PUSH2 0x4EC JUMPI PUSH0 DUP5 ISZERO PUSH2 0x4DA JUMPI DUP3 DUP8 ADD MLOAD SWAP1 POP JUMPDEST PUSH2 0x4E4 DUP6 DUP3 PUSH2 0x469 JUMP JUMPDEST DUP7 SSTORE POP PUSH2 0x54B JUMP JUMPDEST PUSH1 0x1F NOT DUP5 AND PUSH2 0x4FA DUP7 PUSH2 0x2E7 JUMP JUMPDEST PUSH0 JUMPDEST DUP3 DUP2 LT ISZERO PUSH2 0x521 JUMPI DUP5 DUP10 ADD MLOAD DUP3 SSTORE PUSH1 0x1 DUP3 ADD SWAP2 POP PUSH1 0x20 DUP6 ADD SWAP5 POP PUSH1 0x20 DUP2 ADD SWAP1 POP PUSH2 0x4FC JUMP JUMPDEST DUP7 DUP4 LT ISZERO PUSH2 0x53E JUMPI DUP5 DUP10 ADD MLOAD PUSH2 0x53A PUSH1 0x1F DUP10 AND DUP3 PUSH2 0x44D JUMP JUMPDEST DUP4 SSTORE POP JUMPDEST PUSH1 0x1 PUSH1 0x2 DUP9 MUL ADD DUP9 SSTORE POP POP POP JUMPDEST POP POP POP POP POP POP JUMP JUMPDEST PUSH32 0x4E487B7100000000000000000000000000000000000000000000000000000000 PUSH0 MSTORE PUSH1 0x11 PUSH1 0x4 MSTORE PUSH1 0x24 PUSH0 REVERT JUMPDEST PUSH0 DUP2 PUSH1 0x1 SHR SWAP1 POP SWAP2 SWAP1 POP JUMP JUMPDEST PUSH0 DUP1 DUP3 SWAP2 POP DUP4 SWAP1 POP JUMPDEST PUSH1 0x1 DUP6 GT ISZERO PUSH2 0x5D5 JUMPI DUP1 DUP7 DIV DUP2 GT ISZERO PUSH2 0x5B1 JUMPI PUSH2 0x5B0 PUSH2 0x553 JUMP JUMPDEST JUMPDEST PUSH1 0x1 DUP6 AND ISZERO PUSH2 0x5C0 JUMPI DUP1 DUP3 MUL SWAP2 POP JUMPDEST DUP1 DUP2 MUL SWAP1 POP PUSH2 0x5CE DUP6 PUSH2 0x580 JUMP JUMPDEST SWAP5 POP PUSH2 0x595 JUMP JUMPDEST SWAP5 POP SWAP5 SWAP3 POP POP POP JUMP JUMPDEST PUSH0 DUP3 PUSH2 0x5ED JUMPI PUSH1 0x1 SWAP1 POP PUSH2 0x6A8 JUMP JUMPDEST DUP2 PUSH2 0x5FA JUMPI PUSH0 SWAP1 POP PUSH2 0x6A8 JUMP JUMPDEST DUP2 PUSH1 0x1 DUP2 EQ PUSH2 0x610 JUMPI PUSH1 0x2 DUP2 EQ PUSH2 0x61A JUMPI PUSH2 0x649 JUMP JUMPDEST PUSH1 0x1 SWAP2 POP POP PUSH2 0x6A8 JUMP JUMPDEST PUSH1 0xFF DUP5 GT ISZERO PUSH2 0x62C JUMPI PUSH2 0x62B PUSH2 0x553 JUMP JUMPDEST JUMPDEST DUP4 PUSH1 0x2 EXP SWAP2 POP DUP5 DUP3 GT ISZERO PUSH2 0x643 JUMPI PUSH2 0x642 PUSH2 0x553 JUMP JUMPDEST JUMPDEST POP PUSH2 0x6A8 JUMP JUMPDEST POP PUSH1 0x20 DUP4 LT PUSH2 0x133 DUP4 LT AND PUSH1 0x4E DUP5 LT PUSH1 0xB DUP5 LT AND OR ISZERO PUSH2 0x67E JUMPI DUP3 DUP3 EXP SWAP1 POP DUP4 DUP2 GT ISZERO PUSH2 0x679 JUMPI PUSH2 0x678 PUSH2 0x553 JUMP JUMPDEST JUMPDEST PUSH2 0x6A8 JUMP JUMPDEST PUSH2 0x68B DUP5 DUP5 DUP5 PUSH1 0x1 PUSH2 0x58C JUMP JUMPDEST SWAP3 POP SWAP1 POP DUP2 DUP5 DIV DUP2 GT ISZERO PUSH2 0x6A2 JUMPI PUSH2 0x6A1 PUSH2 0x553 JUMP JUMPDEST JUMPDEST DUP2 DUP2 MUL SWAP1 POP JUMPDEST SWAP4 SWAP3 POP POP POP JUMP JUMPDEST PUSH0 PUSH2 0x6B9 DUP3 PUSH2 0x19C JUMP JUMPDEST SWAP2 POP PUSH2 0x6C4 DUP4 PUSH2 0x19C JUMP JUMPDEST SWAP3 POP PUSH2 0x6F1 PUSH32 0xFFFFFFFFFFFFFFFFFFFFFFFFFFFFFFFFFFFFFFFFFFFFFFFFFFFFFFFFFFFFFFFF DUP5 DUP5 PUSH2 0x5DE JUMP JUMPDEST SWAP1 POP SWAP3 SWAP2 POP POP JUMP INVALID LOG2 PUSH5 0x6970667358 0x22 SLT KECCAK256 DUP12 BLOBHASH PUSH10 0xC1E2DB7AC2BED4FD8EB5 0xBA SGT LOG4 CODECOPY PUSH3 0x8B75CF PUSH8 0xA97F6EE241D84752 0xEE DUP6 PUSH5 0x736F6C6343 STOP ADDMOD BYTE STOP CALLER "
		},
		"gasEstimates": {
			"creation": {
				"codeDepositCost": "262000",
				"executionCost": "infinite",
				"totalCost": "infinite"
			},
			"external": {
				"testInheritance()": "infinite"
			}
		},
		"methodIdentifiers": {
			"testInheritance()": "d93746d5"
		}
	},
	"abi": [
		{
			"inputs": [],
			"name": "testInheritance",
			"outputs": [
				{
					"internalType": "string",
					"name": "",
					"type": "string"
				},
				{
					"internalType": "uint256",
					"name": "",
					"type": "uint256"
				}
			],
			"stateMutability": "nonpayable",
			"type": "function"
		}
	]
}